:020000040800F2
:1000000000000824A1060008013700080337000893
:10001000053700080737000809370008000000000E
:100020000000000000000000000000000B37000886
:100030000D370008000000000F37000811370008D6
:10004000F10600081F370008F1060008F106000855
:10005000233700082737000829370008F106000871
:10006000F106000845370008F10600084D37000882
:100070006D3700088D370008AD370008CD37000810
:10008000E937000805380008F10600082D38000897
:100090003D38000821380008313800082F370008A3
:1000A000F1060008F1060008F1060008F106000854
:1000B000F1060008F1060008F1060008F106000844
:1000C000F1060008F1060008F106000841380008B2
:1000D000F1060008F10600084D380008F106000896
:1000E000F1060008F106000800000000F106000813
:1000F000F1060008F1060008F1060008593800086A
:10010000F106000865380008F1060008F10600084D
:10011000F1060008F1060008F1060008F1060008E3
:10012000713800087D3800088938000895380008C3
:10013000F1060008AD380008A1380008B138000801
:1001400000000000000000000000000000000000AF
:10015000F1060008F1060008F1060008F1060008A3
:10016000F1060008F1060008DD380008D93800085B
:10017000F1060008CD380008F1060008E138000853
:10018000ED380008093900080D390008F1060008AB
:1001900019390008F1060008F1060008F106000808
:1001A000F1060008F1060008F1060008F106000853
:1001B00025390008F1060008F10600083139000869
:1001C0003D390008F1060008F1060008F1060008B4
:1001D000F1060008F1060008F1060008F106000823
:1001E000F1060008F1060008F1060008F106000813
:1001F000F1060008F1060008F1060008F106000803
:10020000F1060008F1060008F1060008F1060008F2
:10021000F1060008F1060008F1060008F1060008E2
:10022000F1060008F1060008F106000800000000D1
:10023000F10600084939000800000000F106000836
:10024000F1060008F1060008F1060008F1060008B2
:10025000F1060008F1060008F1060008F1060008A2
:10026000F1060008F1060008F1060008F106000892
:10027000F1060008F1060008F10600080000000081
:10028000F106000800000000F10600080000000070
:0802900000000000F106000867
:1002A00010B5054C237833B9044B13B10448AFF3B0
:1002B00000800123237010BD900000240000000086
:1002C000103D010808B5034B1BB103490348AFF3C8
:1002D000008008BD0000000094000024103D0108CB
:1002E000034613F8012B002AFBD1181A0138704776
:1002F00001F0FF01102A2BDB10F0070F08D010F8D7
:10030000013B013A8B422DD010F0070F42B3F6D1DA
:10031000F0B441EA012141EA014122F007047FF0F3
:1003200000070023F0E80256083C85EA010586EA4A
:10033000010685FA47F5A3FA87F586FA47F6A5FA86
:1003400087F68EB9EED1F0BC01F0FF0102F0070292
:1003500032B110F8013B013A83EA010313B1F8D13D
:100360000020704701387047002D06BF354603381E
:10037000073815F0010F07D1013015F4807F02BF57
:10038000013015F4C03F0130F0BC0138704700BFA8
:1003900053B94AB9002908BF00281CBF4FF0FF31EC
:1003A0004FF0FF3000F07AB9ADF1080C6DE904CEE2
:1003B00000F006F8DDF804E0DDE9022304B0704740
:1003C0002DE9F0478C460D460446089E002B51D17E
:1003D0008A4217466DD9B2FA82FEBEF1000F0BD0E9
:1003E000CEF1200C01FA0EF520FA0CFC02FA0EF701
:1003F0004CEA050C00FA0EF44FEA174A250CBCFB38
:10040000FAF81FFA87F90AFB18CC45EA0C4508FBF5
:1004100009F3AB420AD9ED1908F1FF3280F02381CC
:10042000AB4240F22081A8F102083D44ED1AA4B28B
:10043000B5FBFAF00AFB105544EA054400FB09F944
:10044000A14509D9E41900F1FF3380F00A81A145E3
:1004500040F2078102383C44A4EB090440EA08401A
:100460000021002E61D024FA0EF400233460736062
:10047000BDE8F0878B4207D9002E54D0002186E8D2
:1004800021000846BDE8F087B3FA83F1002940F067
:100490008E80AB4202D3824200F2FA80841A65EB6E
:1004A00003050120AC46002E3FD086E81010BDE8C1
:1004B000F08712B90127B7FBF2F7B7FA87FEBEF152
:1004C000000F34D1EB1B3A0C1FFA87FC0121B3FB60
:1004D000F2F8250C02FB183345EA03450CFB08F340
:1004E000AB4207D9ED1908F1FF3002D2AB4200F25E
:1004F000D1808046ED1AA3B2B5FBF2F002FB105595
:1005000043EA05440CFB00FCA44507D9E41900F1BB
:10051000FF3302D2A44500F2B8801846A4EB0C04C5
:1005200040EA08409DE731463046BDE8F087CEF10D
:10053000200405FA0EF307FA0EF720FA04F83A0C35
:1005400025FA04F448EA0308B4FBF2F14FEA18452F
:1005500002FB11441FFA87FC45EA044501FB0CF33A
:10056000AB4200FA0EF409D9ED1901F1FF3080F029
:100570008A80AB4240F2878002393D44EB1A1FFA71
:1005800088F5B3FBF2F002FB103345EA034500FBAC
:100590000CF3AB4207D9ED1900F1FF386FD2AB4233
:1005A0006DD902383D44EB1A40EA01418FE7C1F1B1
:1005B000200722FA07F88B4005FA01F448EA030302
:1005C00020FA07FE4FEA134CFD404EEA040EB5FB3D
:1005D000FCF94FEA1E440CFB19551FFA83F844EA54
:1005E000054509FB08F4AC4202FA01F200FA01FAEF
:1005F00008D9ED1809F1FF3043D2AC4241D9A9F135
:1006000002091D442D1B1FFA8EFEB5FBFCF00CFBEE
:1006100010554EEA054400FB08F8A04507D9E41838
:1006200000F1FF3529D2A04527D902381C4440EA01
:100630000940A4EB0804A0FB02894C45C6464D4680
:1006400015D312D056B1BAEB0E0364EB050404FACD
:1006500007F7CB401F43CC40376074600021BDE8F2
:10066000F0871846F8E69046E0E6C245EAD2B8EBD5
:10067000020E69EB03050138E4E72846D7E7404658
:1006800091E78146BEE7014678E702383C4445E7FA
:10069000084608E7A8F102083D442BE7704700BF71
:1006A000DFF834D0002103E00C4B5B584350043199
:1006B0000B480C4B42189A42F6D30B4A02E0002337
:1006C00042F8043B094B9A42F9D303F049FB12F07C
:1006D000E1FB01F07FFC704700000824E85F01089F
:1006E000000000249000002490000024D44D002439
:1006F000FEE770B50E4615460C46A31B9D4201DC75
:10070000284670BD00F068F904F8010BF5E770B5F4
:100710000E4615460C46A31B9D4201DC284670BDC3
:1007200014F8010B00F048F9F5E70000094B024608
:10073000196809B9084919601868694602448A426B
:1007400083BF0C22054B4FF0FF301A6088BF1A6040
:10075000704700BFAC000024D44D0024D04D0024CD
:100760004FF0FF3070474FF4005300204B6070474C
:100770000120704700207047931E222BF0B503D94B
:1007800000230B700846F0BD0C46114F234690FB2A
:10079000F2F502FB15063E4496F8236003F8016B60
:1007A00095B900284FF00000BEBF2D221A70A31C7F
:1007B0005A1E18700B469A42E4D910781C7802F839
:1007C000014903F8010BF6E71C462846DEE700BFA7
:1007D000AA3E0108034610B51A1A92B2914200D8F7
:1007E00010BD1A780133A2F14104192C9CBF42F0CC
:1007F000200403F8014CA2F16104192C9CBF22F0E3
:10080000200203F8012CE7E710B508210F4806F095
:1008100005FC00284FF010010C4814BF00240824E8
:1008200006F0FCFB08B944F004042021074806F058
:10083000F5FB08B944F002044021044806F0EEFB41
:1008400008B944F00104204610BD00BF0010025852
:10085000062821D8DFE800F004080E12161A1D0041
:10086000002201210D4803E000224FF480710C4862
:1008700006F0E6BB00224FF40071F8E700224FF4C7
:100880008061F4E700224FF40061F0E7002240218C
:10089000E8E700228021E5E7704700BF0008025822
:1008A00000000258062821D8DFE800F004080E12E4
:1008B000161A1D00012211460D4803E001224FF4D3
:1008C00080710C4806F0BCBB01224FF40071F8E7C0
:1008D00001224FF48061F4E701224FF40061F0E758
:1008E00001224021E8E701228021E5E7704700BFAF
:1008F000000802580000025806281AD8DFE800F065
:1009000004070C0F1215170001210A4802E04FF4EA
:100910008071094806F0AEBB4FF40071F9E74FF45F
:100920008061F6E74FF40061F3E74021EDE78021B5
:10093000EBE77047000802580000025808B5002095
:10094000FFF7B0FF0120FFF7ADFF0220FFF7AAFF7E
:100950000320FFF7A7FF0420FFF7A4FF0520FFF700
:10096000A1FF0620BDE80840FFF79CBF08B50020A6
:10097000FFF76EFF0120FFF76BFF0220FFF768FF14
:100980000320FFF765FF0420FFF762FF0520FFF754
:100990005FFF0620BDE80840FFF75ABF00487047D8
:1009A000F23E010800487047FA3E0108014B18600A
:1009B000704700BFB000002413B502A904460A2303
:1009C000012201F8040D034800680CF0DEFA20460D
:1009D00002B010BDB000002413B5074C0A23012259
:1009E0000DF1070120680CF029FB0028F6D19DF8D5
:1009F000070002B010BD00BFB0000024FFF7DCBF4D
:100A000010B5441E14F8010F00B910BDFFF7D4FF54
:100A1000F8E700B589B00A226946FFF7ADFE6846DF
:100A2000FFF7EEFF09B05DF804FB10B588B00A22AD
:100A30000C466946FFF7A0FE6846FFF751FC012807
:100A400002D82046FFF7B8FF6846FFF7D9FF08B085
:100A500010BD000000B589B010226946FFF78CFE7A
:100A60006846FFF73DFC012802D13020FFF7A4FFC4
:100A70006846FFF735FC032802D13020FFF79CFFC2
:100A80006846FFF72DFC052802D10C48FFF7B8FF98
:100A90006846FFF725FC062802D10948FFF7B0FF9A
:100AA0006846FFF71DFC072802D13020FFF784FFBE
:100AB0006846FFF7A5FF09B05DF804FB063F010893
:100AC000073F010800B589B010226946FFF754FEC0
:100AD0006846FFF705FC012802D83020FFF76CFFBD
:100AE0006846FFF78DFF09B05DF804FB08B5FFF716
:100AF000E9FF0A20BDE80840FFF75EBF10B588B0E7
:100B000010226946FFF738FE6846FFF7E9FBC4B2DA
:100B1000032C04D96846FFF773FF08B010BD0134F9
:100B20003020FFF749FFE4B2F2E708B5FFF7E6FF30
:100B30000A20BDE80840FFF73FBF10B5441E14F877
:100B4000010F20B90A20BDE81040FFF735BFFFF7BD
:100B500033FFF4E700B589B00A226946FFF70CFEBF
:100B60006846FFF7EAFF09B05DF804FB38B50C46AC
:100B7000451E15F8010F20B9013C14F8010F18B9F2
:100B800038BDFFF719FFF4E7FFF716FFF5E710B5DB
:100B90001446FFF7EBFF2046BDE81040FFF730BFDB
:100BA00030B589B00446154608460A226946FFF763
:100BB000E3FD2A4669462046FFF7E9FF09B030BD4C
:100BC00042F2107307B5009313460A4601460348E4
:100BD00007F0EAF903B05DF804FB00BF2C04002421
:100BE0001FB5074B1C7842F210738DE80E000246C9
:100BF00001232146034807F06FFA04B010BD00BF7F
:100C0000950300242C0400241FB5074B1C7842F2E6
:100C100010738DE80E00024601232146034807F0B9
:100C20001DFB04B010BD00BF950300242C0400245C
:100C300002442DE9F34104460F46D6B20025DFF801
:100C40004080B44203D1284602B0BDE8F0813F2C79
:100C500012D83B78012201A904F120008DF804305C
:100C60000135FFF7BDFF98F80030EDB223B9003031
:100C700018BF012088F8000001340137E4B2E0E732
:100C8000180500243F2807B58DF8071004D8012265
:100C90000DF10701FFF7CCFF03B05DF804FB000086
:100CA00002442DE9F34104460F46D6B20025DFF891
:100CB0004080B44203D1284602B0BDE8F0813F2C09
:100CC00012D8012201A904F120000135FFF79CFF91
:100CD0009DF80430EDB23B7098F8003023B9003035
:100CE00018BF012088F8000001340137E4B2E0E7C2
:100CF0001805002413B5044601220DF10701072051
:100D0000FFF7CEFF9DF80730032C4FF0070097BF89
:100D100023F0470323F0400343F0400323438DF8BF
:100D200007309DF80710FFF7ADFF02B010BD0A2392
:100D300090FBF3F203FB120000EB0210704700007F
:100D4000022998BF013A10B5D2B2642402EB920393
:100D5000B2FBF4F29B1A074A114411F8012C134418
:100D60001844072390FBF3F3C3EBC303C01A01300D
:100D7000C0B210BD743F0108B0F5FA6F84BFA0F592
:100D8000FA6080B210F0030F0CBF0D23002319444A
:100D9000014B13F8210070470C3F01082DE9F34186
:100DA000067A0446457A077931462A463846FFF7DF
:100DB000C7FF31468046E0702846FFF7DDFF8742D7
:100DC0004FF0000788BF207120788DF80070FFF782
:100DD000AEFF00F07F008DF801006078FFF7A7FFFD
:100DE00000F07F008DF80200A078FFF7A0FF00F070
:100DF0003F008DF803004046FFF799FF00F0070021
:100E000040F008008DF804002079FFF790FF00F013
:100E10003F008DF805003046FFF789FF00F01F0006
:100E20008DF806002846124DFFF781FF082269461B
:100E30008DF807002878FFF7C3FE064620788DF866
:100E40000070FFF774FF60F07F00022269468DF8A2
:100E500001002878FFF7B4FE3EB9C01B18BF01207F
:100E6000044B187002B0BDE8F0810120F8E700BF24
:100E700095030024180500240023024A1360024A47
:100E800013707047B8000024B400002484B008B583
:100E90000DF1080E8EE80F0071464C22094812F041
:100EA0002CF8DE22084B00201A70AE22074B1A7075
:100EB000FFF720FF064B00221A70BDE8084004B07F
:100EC000FFF7DABF2C0400249503002497030024C5
:100ED000B5000024012307B58DF807309DF80730D1
:100EE000012B0ED108480AF0F9FA38B94FF48041C5
:100EF00005480AF049FA003018BF012003B05DF838
:100F000004FB0220FAE700BF8C0F002407B5009312
:100F100013460A460146044809F002FE003018BF95
:100F2000012003B05DF804FB8C0F002407B500938B
:100F300013460A460146044809F0C0FE003018BFB7
:100F4000012003B05DF804FB8C0F002408B50348B2
:100F50000AF0B0FA043818BF012008BD8C0F002435
:100F6000014601480AF0FEB98C0F0024704708B50D
:100F7000FFF7FCFF08BD704708B5FFF7FCFF08BD91
:100F800008B50948094B03600023037143714361AD
:100F900083610123036203F017FB18B1BDE8084029
:100FA00002F060B808BD00BF1C050024004C0258C8
:100FB000026882B0094B9A420DD1A3F50063D3F8C1
:100FC000E02042F40022C3F8E020D3F8E03003F43C
:100FD00000230193019B02B0704700BF004C0258F0
:100FE00008B50848084B094A03600023C260436003
:100FF000436103F087FB18B1BDE8084002F032B846
:1010000008BD00BF3006002400100248803F0108E0
:1010100070B586B006461022002102A811F078FFB4
:101020003268344B9A4262D1334B0025334C4C2109
:10103000D3F8DC20324842F01002C3F8DC20D3F8A9
:10104000DC30656103F01003A561E5610193019B4C
:1010500040232562656284E82B004FF480632046BC
:10106000236103F0E9FD08B101F0FCFF062302A9AA
:1010700022480293012303958DF810508DF81150EA
:10108000059304F001F908B101F0ECFF0025B46309
:101090004D23A6631B4A1C4C84E82C004FF480634C
:1010A0002046E56023616561A561E56125626562B1
:1010B00003F0C2FD08B101F0D5FF062302A91248D2
:1010C0000293012303958DF810508DF8115005936C
:1010D00004F0DAF808B101F0C5FF00224F20F463F4
:1010E0001146A66303F0FEF94F2003F043FA06B061
:1010F00070BD00BF0010024800440258B80500242B
:1011000028040240400402404005002410B586B087
:1011100010220021002402A811F0FAFE524B53487D
:101120004FF0800ED3F8D82042F00102C3F8D82047
:10113000D3F8D82002F001020092009AD3F8D82008
:1011400042F00202C3F8D820D3F8D830446103F04B
:1011500002038461C4610193019B454B0462C46234
:10116000046380E818404FF40073C3604FF4806359
:101170000361042343620323836203F05DFD08B12E
:1011800001F070FF062302A938480293012303945B
:101190008DF810408DF81140059304F075F808B1F2
:1011A00001F060FF00220B20114603F09BF90B2099
:1011B00003F0E0F900220C20114603F093F90C2013
:1011C00003F0D8F900220D20114603F08BF90D2011
:1011D00003F0D0F900220E20114603F083F90E200F
:1011E00003F0C8F900220F20114603F07BF90F200D
:1011F00003F0C0F900221020114603F073F910200B
:1012000003F0B8F900221120114603F06BF9112008
:1012100003F0B0F900222F20114603F063F92F20CC
:1012200003F0A8F900223820114603F05BF93820BA
:1012300003F0A0F900223920114603F053F93920B8
:1012400003F098F900223A20114603F04BF93A20B6
:1012500003F090F900223B20114603F043F93B20B4
:1012600003F088F906B010BD004402587806002447
:1012700010040240134A0023F0B5C2F88430BFF3D3
:101280004F8FD2F8803043F6E076C3F3C904C3F33E
:101290004E33A5075B0103EA060E284621464EEAB7
:1012A0000007013900F14040C2F874724F1CF6D1BA
:1012B000203B13F1200FEED1BFF34F8FBFF36F8FA1
:1012C000F0BD00BF00ED00E030B1002343730360C8
:1012D00003814381C3814360704700207047000051
:1012E00070B500228CB00C466B4611466E4664B950
:1012F0000F4D6A60AE60FFF7BDFF224629460D48DC
:1013000004F06DFB20460CB070BD04290DD0606860
:10131000186060895860024409B143F8043C2468AD
:1013200004B99C6001310C33E1E76FF00B00EAE790
:10133000780700241007002403F088B808B5024895
:1013400004F016FD002008BD1007002408B5134660
:101350000A460146034804F0ADFC003018BF0120E6
:10136000404208BD1007002408B513460A4601464E
:10137000034804F0CDFC003018BF0120404208BDF6
:10138000100700240268304B9A4270B588B059D1DA
:101390002E480024FFF734FB2D4B02250B26D3F8F3
:1013A000D82003A92B4842F40042C3F8D820D3F830
:1013B000D82002F400420092009AD3F8D82042F4D8
:1013C0008032C3F8D820D3F8D82002F480320192BA
:1013D000019AD3F8D82042F40032C3F8D820D3F8C9
:1013E000D830049503F40033059406950293029BCC
:1013F00086230796039305F0BDFC322303A9164804
:101400000393049505940695079605F0B3FC4FF4F5
:10141000605303A911480393049505940695079614
:1014200005F0A8FC224621463D2003F05BF83D2054
:1014300003F0A0F83E202246214603F053F83E2058
:1014400003F098F808B070BD00800240983F010892
:1014500000440258000002580008025800040258D4
:101460002DE9F34704464A48FFF7CAFA34B9494B15
:101470004FF407724849494811F0FEFD732348486C
:10148000484E002584F830307423DFF83C81B146A3
:1014900084F83130444BDFF834A16361434BA361DE
:1014A000FFF7AEFA424B30468DF800503360802390
:1014B0008DF803508DF80130E1238DF804508DF83C
:1014C000023001238DF8055033723A4BC6F804D030
:1014D000F360394B336140F2F453736104F084FCE0
:1014E000342207462946404611F012FD2123C8F850
:1014F00000304FF44033C8F81430DFF8D4804FF494
:10150000BF6200232946484602FB05A204F018FAF0
:1015100014232A4A03FB05830135042D1A61EED1F9
:1015200006232749274884F8283073681A7884F8F6
:1015300029205A7884F82A209A7884F82B20DA789F
:1015400084F82C201A7984F82D205B7984F82E30C9
:1015500040F2DC53E38494F82F3043F00A0384F81C
:101560002F3002F085FB174802F096FB67B9204642
:101570000EF07AFA20460EF093FA0A4804F0FCF9CD
:10158000002002B0BDE8F08701F06CFDF8E700BF75
:10159000A93F0108BA3F0108D43F0108E23F010812
:1015A0000A4001081007002421E60008E1120008A3
:1015B000008002406000043000000430C9120008BE
:1015C00000000024F0060024780700240002043004
:1015D000AC07002402F03ABF08B5034903480CF0F9
:1015E00017FD034B187008BDFD0700244843010890
:1015F000FC07002408B515480122154B0221426161
:1016000003600023826142628262C262026304223A
:101610008360C360037443748374C1610162436374
:101620008363C363036442648364C2640365426585
:101630008365C36503664366826604F015FD18B1D1
:10164000BDE8084001F00EBD08BD00BF640C0024D9
:1016500000A0004008B515480122154B0221426147
:1016600003600023826142628262C26202630422DA
:101670008360C360037443748374C1610162436314
:101680008363C363036442648364C2640365426525
:101690008365C36503664366826604F0E5FC18B1A2
:1016A000BDE8084001F0DEBC08BD00BF000D00240D
:1016B00000A4004010B514228AB0044600210DEBAE
:1016C000020011F025FC2368414A934243D1414A6C
:1016D00013680133012B13600CD13F4BD3F8EC207E
:1016E00042F48072C3F8EC20D3F8EC3003F480733A
:1016F0000193019B384B05A93848D3F8E02042F00C
:101700000802C3F8E020D3F8E03003F008030293A6
:10171000029B03230593022306930923099305F0F3
:1017200029FB00221320114602F0DCFE132002F0F8
:1017300021FF00221520114602F0D4FE152002F0F0
:1017400019FF00223F20114602F0CCFE3F2002F09C
:1017500011FF0AB010BD224A9342FAD11D4A136804
:101760000133012B13600CD11B4BD3F8EC2042F456
:101770008072C3F8EC20D3F8EC3003F48073039349
:10178000039B154B05A91748D3F8E02042F002024D
:10179000C3F8E020D3F8E03003F002030493049B85
:1017A00060230593022306930923099305F0E2FAC7
:1017B00000221420114602F095FE142002F0DAFEF9
:1017C00000221620114602F08DFE1620B7E700BF5A
:1017D00000A00040BC00002400440258000C025845
:1017E00000A40040000402582DE9F04F8FB01422ED
:1017F0000021924F09A8924D11F08AFB914B384677
:101800001021D3F8E0200024DFF84082012642F0C6
:101810001002DFF83C924FF0030ADFF838B2C3F849
:10182000E020D3F8E02002F010020392039AD3F8EC
:10183000E02042F00402C3F8E020D3F8E02002F0F8
:1018400004020492049AD3F8E02042F08002C3F824
:10185000E020D3F8E02002F080020592059AD3F848
:10186000E02042F00102C3F8E020D3F8E02002F0CB
:1018700001020692069AD3F8E02042F00202C3F871
:10188000E020D3F8E02002F002020792079AD3F892
:10189000E02042F00802C3F8E0200122D3F8E03053
:1018A00003F008030893089B05F0CAFB28460122B1
:1018B0004FF4006105F0C4FB284600224FF400718C
:1018C00005F0BEFB40460022102105F0B9FB48465A
:1018D0000022C12105F0B4FB384600224FF47061AC
:1018E00005F0AEFB01222846032105F0A9FB782371
:1018F00009A9284609930A940B9605F03BFA4EF283
:101900000C0309A94846CDF828A009930B9405F0CB
:1019100031FAC12309A948464FF0090909930A96EB
:101920000B940C9405F026FA09A93846CDF82490BA
:10193000CDF828B00B9405F01DFA40F2032309A955
:10194000414809930193CDF828A00B9405F012FAB1
:10195000019B09A928460A9609930B940C9405F05B
:1019600009FA4FF4044309A92846CDF828A00993A1
:101970004FF0100A0B9405F0FDF94FF4407309A9DC
:101980004046CDF828B009930B9405F0F3F94CF2DA
:10199000084309A940460A9409930B9405F0EAF913
:1019A0004FF4706309A938460A9609930B940C9476
:1019B00005F0E0F94FF4805309A938460A940993D9
:1019C0000B9405F0D7F909A940464FF00208CDF86D
:1019D00024A00A960B940C9405F0CCF909A938467A
:1019E000CDF824A00A960B94CDF8308005F0C2F90A
:1019F0004FF4006309A928460A9609930B94CDF881
:101A0000308005F0B7F922462146062002F06AFD33
:101A1000062002F0AFFD22462146484602F062FD54
:101A2000484602F0A7FD22462146172002F05AFD43
:101A3000172002F09FFD0FB0BDE8F08F00000258A4
:101A4000001002580044025800040258000C0258CA
:101A5000000802580000111108B505480023036072
:101A600005F0D6FB18B1BDE8084001F0FBBA08BD8F
:101A70009C0D002470B586B010220021064602A8F5
:101A80001F4C11F045FA1F4B00251F49D3F8DC20ED
:101A9000204642F02002C3F8DC204E22D3F8DC308E
:101AA000656103F02003A561E5610193019B40237B
:101AB0002562656284E82E004FF48063236103F0A1
:101AC000BBF808B101F0CEFA062302A90C48029334
:101AD000012303958DF810508DF81150059303F0F4
:101AE000D3FB08B101F0BEFA002234635020A66394
:101AF000114602F0F7FC502002F03CFD06B070BD2C
:101B0000D40D0024004402585804024008B512487D
:101B10000122124B1249C26080E80A000023836050
:101B2000036143618361C361036206F093F908B105
:101B300001F098FA0021084806F0D0FE08B101F043
:101B400091FA0021044806F011FF18B1BDE80840E1
:101B500001F088BA08BD00BF4C0E0024FFECC01095
:101B6000001C005810B588B004461422002103A8B8
:101B700011F0CEF922681C4B9A4233D11B4C03A9B9
:101B80001B48D4F8E03043F00203C4F8E030D4F846
:101B9000E03003F002030193019B4FF4C073039301
:101BA000122304930623079305F0E4F8D4F8F430E5
:101BB00000225F2043F080031146C4F8F430D4F8CB
:101BC000F43003F080030293029B02F08BFC5F2051
:101BD00002F0D0FC00226020114602F083FC60205D
:101BE00002F0C8FC08B010BD001C005800440258A8
:101BF00000040258F0B5EE232C4F2D4EC020FB7090
:101C0000FF232C4DA8211922337073700024B37068
:101C1000FD2385B028706970AA70EB7038707970F8
:101C2000BA70F4700CF000FF7B783A781B042249FC
:101C3000687843EA0263FA7800041343BA7843EA07
:101C4000022332781BBA0B6073781B0443EA0263E9
:101C5000F2781343B27843EA0223184A1BBA13609E
:101C60002B7840EA0360EB781843AB78144D40EAD8
:101C70000320144B00BA18601348009402901348D4
:101C8000019028460DF0ACFE28460DF0E7FE95F8D1
:101C90002F3028465B0704D505B0BDE8F0400DF0B5
:101CA000E3BE05B0BDE8F0400DF0EDBEE80E002447
:101CB000E40E0024A80E0024E00E0024EC0E002404
:101CC000AC0E0024F00E002449E70008611400085F
:101CD0002DE9F3411C4E0746884600243546042270
:101CE0003946301911F0FAF858B30A34A02CF6D15D
:101CF000002402AE46F8044D04223146281911F0A2
:101D0000EDF848B93B682B51231DD8F80010EA18AC
:101D1000E950B8F8043093800A34A02CECD10024A8
:101D200085F8A04004223146281911F0D7F820B1D7
:101D300095F8A030013385F8A0300A34A02CF1D1F9
:101D4000012002B0BDE8F081C0000024F8B50746CC
:101D50000E460024094D04223946281911F0BEF818
:101D600038B9043401202C4423683360A388B3803D
:101D7000F8BD0A34A02CEED10020F8BDC00000242C
:101D80002DE9F84F17464AF6C002064688468318E2
:101D900039480021DFF8E8E040F2B55C4FF09909DE
:101DA00040F2FA5B4FF461643C25B3FBF2F3184454
:101DB00049084FEA300000F5FA432C339A00033209
:101DC000B2FBFEF20EFB02FE02EB8202A3EB9E03CD
:101DD00002EB82024FEA830E0EF1030EBEFBFCFE05
:101DE0000CFB0EFC0EEB8202A3EB9C0303EB830CBB
:101DF00001330CF1020CBCFBF9FABCFBFBFC1FFA33
:101E00008CFC09FB0AF9624409F102090CEB4C0C49
:101E1000A2F59452103AFA700AF103024FF0050A43
:101E2000A2EB8C0C0722B9FBFAF9A3EB090987F89E
:101E300001C0002387F80290FEF7AAFA0F4B3A7010
:101E4000B6FBF4F4B6FBF3F3B6FBF5F5A4B203EB83
:101E50004303ADB2A4EBC303C4EB041488F8003011
:101E6000A5EB8404C5EB051588F80140A6EB8506B3
:101E700088F80260BDE8F88F177B4A0080510100A6
:101E8000B13A020070B5CCB04C2200210AA811F082
:101E90003FF82022002102A811F03AF8BC220021CC
:101EA0001DA811F035F82B4BDA6822F00402DA6035
:101EB000002201929A6942F440429A619A6902F4BE
:101EC00040420192019A9A699204FCD52923002488
:101ED000022508260A934FF480330AA813950B9322
:101EE000012314950F9310930423179515938023C2
:101EF0001896169319951A961B941C9406F0ACFF2D
:101F00003F234FF4806229460DEB06000293032322
:101F1000089203934023049406930793099305962C
:101F200007F01EFB0C4B1DA82F941D934FF0805300
:101F3000309438934FF4401334943E934FF400732D
:101F400035943A943C944294499307F0DBFD4CB0AD
:101F500070BD00BF0048025812B04702024A136821
:101F600001331360704700BF64010024024B1A68FC
:101F7000024B1A60704700BF64010024680100240E
:101F8000054A064B19681368CB1A834226BF012005
:101F900011600020704700BF680100246401002424
:101FA000024B1A68024B1A60704700BF640100249C
:101FB0006C010024054A064B19681368CB1A83424A
:101FC00026BF012011600020704700BF6C01002473
:101FD000640100242DE9F04FEBB0BFF34F8FBFF346
:101FE0006F8FD64B0021C3F85012BFF34F8FBFF352
:101FF0006F8F5A6942F400325A61BFF34F8FBFF3BB
:102000006F8FC3F88410BFF34F8FD3F8802043F64F
:10201000E076C2F3C904C2F34E32A507520102EAC8
:10202000060E284621464EEA0007013900F14040DD
:10203000C3F860724F1CF6D1203A12F1200FEED196
:10204000BFF34F8F5A6942F480325A61BFF34F8F0A
:10205000BFF36F8F02F0DEF9B94EFFF713FFFFF702
:10206000C3FB06F11005FEF781FC01F06FFC01F0E7
:102070008FFC01224FF40071B24804F0E1FF01220D
:102080001021B14804F0DCFFB048FEF78FFCB048E7
:10209000FEF7B6FCAF48FEF7B3FCAF48FEF7B0FC66
:1020A000FFF734F8AD48FEF7ABFC00F0DDFFAC48BD
:1020B000FEF7A6FC01F08AF9AA48FEF7A1FC01F0A0
:1020C000B5F9A948FEF79CFCFFF794FAA748FEF77C
:1020D00097FCFFF7BFFAA648FEF792FCFFF716FD44
:1020E000A448FEF78DFC01F083F8A348FEF788FCB6
:1020F000FEF776FFA148FEF783FCFFF7ADFCA04892
:10210000FEF77EFC01F040F89E48FEF779FCFEF7F2
:1021100037FF9D48FEF774FCFFF75EFA9B48FEF719
:102120006FFCFFF767FD9A48FEF76AFC4FF47A7080
:1021300002F092F99748FEF763FCFFF717FFFEF7EE
:1021400063FB04469448FEF75BFC2046FEF7CEFC9A
:10215000C12192486C4604F08DFF4FF470619048A5
:1021600004F088FF7B48FEF74BFC8E48FEF748FCE6
:10217000FEF714FCFEF744FC7548FEF741FC8A4864
:10218000FEF73EFCFEF70EFCFEF73AFC7048FEF749
:1021900037FC864B864A1968864B8748B1FBF3F1BA
:1021A000FEF7FEFC0FCD0FC40FCD0FC40FCD0FC433
:1021B00095E8070084E8070096E80F00FEF766FE42
:1021C0003223072200248DF88430122321A88DF8B1
:1021D00086208DF885308DF8883003238DF8874070
:1021E0008DF88C3013238DF88D30FEF7D7FDFEF778
:1021F000A5FB4FF47A7002F02FF901F0A5FEC02381
:102200005A226E498DF86430A82338A81B948DF8A3
:1022100065301923ADF870408DF8663006238DF8CF
:10222000673010F06AFE4A22654925A810F065FE65
:10223000FFF79CFEFFF7B4FE0E2311934FF4FA63F1
:102240001293604806F0D8FB4FF4FA70FFF7B2FE25
:1022500010B10020FEF750FB1298FFF791FE5A4C88
:10226000002800F007810120FEF746FB1BA919A8F2
:10227000FFF76CFD05465548002D00F08481FEF700
:10228000BFFB5348FEF7BCFB9DF86400FEF7C1FBA3
:102290005048FEF7B5FB9DF86500FEF7BAFB4D48C8
:1022A000FEF7AEFB9DF86600FEF7B3FB4948FEF76C
:1022B000A7FB9DF86700FEF7ACFB4748FEF7A0FBC5
:1022C0009DF86C00FEF7FEFB4448FEF799FB9DF875
:1022D0006D00FEF7BFFB4148FEF792FB9DF86E00D4
:1022E000FEF7F0FB3D48FEF78BFB9DF86F00FEF715
:1022F000E9FB3A48FEF784FB9DF87000FEF7E2FB2D
:102300003648FEF77DFB9DF87100FEF7DBFB1048B9
:10231000FEF776FB9DF86C30314800258DF8E030F3
:102320009DF86D308DF8E1309DF86E308DF8E2301B
:102330009DF86F308DF8E33054E000BF00ED00E011
:102340004C0E002400100258000C025858150024AE
:10235000094301081A4001086C400108794001084E
:102360008A40010898400108A6400108B6400108CB
:10237000C6400108D4400108E1400108EF400108CF
:10238000FD4001080A4101081741010826410108E2
:10239000344101083A4101084A4101080008025845
:1023A0000000025856410108684101081800002445
:1023B0007A41010840420F0080410108283D010890
:1023C000823D0108980E0024E01904309241010872
:1023D0009841010860510108B3420108A741010872
:1023E000A94101089DF870308DF8E4309DF87130F6
:1023F0008DF8E5309DF864308DF8FE309DF865303D
:102400008DF8FF309DF866308DF800319DF867300B
:102410008DF80131FEF7F4FAB648FEF7F1FA9DF8AF
:102420006400FEF7F6FAB448FEF7EAFA9DF8650094
:10243000FEF7EFFAB048FEF7E3FA9DF86600FEF704
:10244000E8FAAD48FEF7DCFA9DF86700FEF7E1FA1E
:10245000AA48FEF7D5FAAA48FEF7D2FA38AAAB5C2A
:10246000635501355A2DFAD101F093FE2946A5484E
:1024700001F0B6FE4FF4FA60FFF79CFDC8B1119B66
:10248000BBB1002525AAAB5C635501354A2DFAD1B5
:102490009D48FEF7B5FA9D4B1A689D4B1A6001F0F6
:1024A00078FE2946974801F09BFE119B013BDBB269
:1024B000119340F2EE51974801F002FF2A28054699
:1024C00040F26B8501F04AFE002380221DA98DF8A1
:1024D00074308DF877308DF878308DF87930B423FA
:1024E0008DF87520E1228DF87C30B6238DF87620AA
:1024F00006228DF87D30862387488DF87E308E2326
:102500008DF87F3057238DF88030BF238DF88130D0
:1025100010F0E4FC062206461DA9804810F0DEFCFF
:10252000002800F0E480B6FA86F6760906221FA994
:102530007948002710F0D2FC00284FF006021FA9AE
:10254000764808BF012610F0C9FC0028DFF8DC91AE
:1025500008BF0126DFF8D8B1DFF8A4A10B2F1FFABE
:1025600087F800F2E780002E00F0E4804846FEF78E
:1025700047FA0D2F40F0EC8094F81838002B40F00B
:1025800013855846E2E0FEF73BFA6548FEF738FA55
:102590009DF86400FEF73DFA5748FEF731FA9DF8C2
:1025A0006500FEF736FA5448FEF72AFA9DF86600F1
:1025B000FEF72FFA5048FEF723FA9DF86700FEF762
:1025C00028FA4E48FEF71CFA5648FEF719FA564804
:1025D000FEF716FA9DF86400FEF71BFA4648FEF770
:1025E0000FFA9DF86500FEF714FA4348FEF708FA63
:1025F0009DF86600FEF70DFA3F48FEF701FA9DF8D8
:102600006700FEF706FA3D48FEF7FAF93C48FEF788
:10261000F7F9FF23062080228DF83C3108268DF83B
:102620003D3101218DF83E318DF83F318DF840313B
:102630008DF84131E1238DF849018DF844318DF851
:102640005431C0238DF84E0104208DF85831A82351
:102650008DF843218DF8593119238DF853214FAA54
:102660008DF85A31EE238DF842518DF85B318DF89B
:1026700045518DF846518DF847518DF848618DF8D8
:102680004A518DF84B118DF84C618DF84D518DF8F4
:102690004F018DF850518DF851118DF852518DF830
:1026A00055518DF856518DF857518DF85C519DF864
:1026B00064308DF85D518DF862319DF865308DF88C
:1026C0005E518DF863319DF866308DF85F518DF85D
:1026D00064319DF867308DF860518DF861518DF847
:1026E0006531AB5C635501352A2DFAD1BCE6012674
:1026F0001CE700BFAF410108605101080943010810
:10270000C7410108E01904300542010864010024B2
:1027100070010024E0210430EB210430F121043069
:10272000CD410108A9410108ED410108104201080D
:10273000224201085046FEF763F90C2F7FF419AFCF
:1027400094F81738082B0CBFDB48DC48FEF758F923
:10275000DB4BA8F10C083B44D87AFEF7B3F92020F4
:10276000FEF74CF9B8F1010F02D85046FEF748F9D0
:102770000137222F7FF4F2AE0A20FEF73FF9C02383
:102780008DF86830A8238DF8693019238DF86A30E8
:10279000EE238DF86B3094F81738082B40F0B98091
:1027A00094F81838002B40F0B48094F81938452B71
:1027B00040F0AF8094F81A38002B40F0AA8094F8CB
:1027C0002238012B40F0A58094F81B38042294F89D
:1027D0001C681AA9BB4846EA032606F10E05ADB2ED
:1027E00010F07CFB002840F0948094F82D38002BEA
:1027F00044D1B54AB54B17681B680137B448FF1A76
:10280000FEF7FEF8B348FEF7FBF894F82508FEF74C
:1028100000F92E20FEF7F2F894F82608FEF7F9F8F2
:102820002E20FEF7EBF894F82708FEF7F2F82E209A
:10283000FEF7E4F894F82808FEF7EBF8A648FEF750
:10284000DFF8A648FEF7DCF8A6F11C00FEF7E1F879
:10285000A348FEF7D5F83846FEF7DBF8A148FEF7A7
:10286000CFF8A148FEF7CCF894F82108FEF7D1F88C
:102870009E48FEF7C5F89E48FEF7C2F894F82D383A
:10288000082B46D14FAB4A229A49184610F035FB27
:10289000994A03460DF23B11901DD67901F8016F5C
:1028A00012F8016F82428E71F7D194F82528002624
:1028B0008DF85A2194F829288DF8562194F8262865
:1028C0008DF85B2194F82A288DF8572194F8272851
:1028D0008DF85C2194F82B288DF8582194F828283D
:1028E0008DF85D2194F82C288DF8592194F833281F
:1028F0008DF8642194F834288DF865219A5DA255ED
:1029000001364A2EFAD101F044FC31467B4801F0F1
:1029100067FC94F81738082B40F0888194F8183831
:10292000062B40F0838194F81938002B40F07E810B
:1029300094F81A38012B40F0798194F81B38082B51
:1029400040F0748194F81C38002B40F06F8194F8AB
:102950001D38062B40F06A8194F81E38042B40F095
:10296000658194F81F38002B40F0608194F820387E
:102970005A1E012A00F25A81012B40F0F8800422ED
:102980001AA95F4810F0AAFA002840F0F0805048D9
:10299000FEF736F85B48FEF733F894F82708FEF7A1
:1029A00038F85948FEF72CF894F82808FEF731F863
:1029B0005548FEF725F894F82908FEF72AF85248FA
:1029C000FEF71EF894F82A08FEF723F84748FEF7AA
:1029D00017F84748FEF714F84C4B4FAA03F12807A5
:1029E00016461868083353F8041C1546BB4203C545
:1029F0002A46F6D11B880DF23B122B803E4B991DC7
:102A0000D87902F8010F13F8010F90719942987D5F
:102A100082F82000F4D194F8313894F82A588DF8CF
:102A2000583194F8323894F827988DF8593194F841
:102A3000333894F8288894F829788DF85A3194F826
:102A4000343833488DF85B318DF865518DF86291DB
:102A50008DF863818DF86471FDF7D2FF2D48FDF785
:102A6000CFFF4846FDF7D5FF2748FDF7C9FF404691
:102A7000FDF7CFFF2448FDF7C3FF3846FDF7C9FF38
:102A80002148FDF7BDFF2846FDF7C3FF2248FDF7AB
:102A9000B7FF9DF85201FEF715F82048FDF7B0FF8B
:102AA0009DF85301FEF70EF81C48FDF7A9FF9DF8AD
:102AB0005401FEF707F833E0164201081C420108F2
:102AC000E021043009220430640100247001002454
:102AD000284201082E420108774101083A420108C4
:102AE00041420108484201084C42010809430108DB
:102AF000C7410108CC3D0108EA210430E019043047
:102B0000112204305142010860510108163E0108AB
:102B1000A94101086F42010885420108A741010847
:102B2000D848FDF76DFF9DF85501FDF7CBFFD5485F
:102B3000FDF766FF9DF85601FDF7C4FFD148FDF78C
:102B40005FFF9DF85701FDF7BDFF0025CE48FDF75B
:102B500057FFCE48FDF754FF735D635501352A2DAD
:102B6000FAD101F016FB2946C94801F039FB94F867
:102B70002038022B5AD104221AA9C64810F0AEF907
:102B8000002853D1C4482A25FDF73AFFC348FDF772
:102B900037FF94F82708FDF73CFFC148FDF730FFE9
:102BA00094F82808FDF735FFBD48FDF729FF94F894
:102BB0002908FDF72EFFBA48FDF722FF94F82A08EE
:102BC000FDF727FFB748FDF71BFF94F82108FDF735
:102BD00079FFAC48FDF714FF94F82208FDF772FF67
:102BE000A848FDF70DFF94F82308FDF76BFFA548F3
:102BF000FDF706FF94F82408FDF764FFA148FDF7F0
:102C0000FFFE94F82508FDF75DFF9E48FDF7F8FEEE
:102C100094F82608FDF756FF9B48FDF7F1FE9B4808
:102C2000FDF7EEFEA049881DFFF752F800219F48EE
:102C30000A468BB29D4200F2BD810023224492F8E5
:102C40000E28EE2A05D0234493F80E38EE2B40F0E0
:102C5000A48194F82238112B40F0888194F82D78C3
:102C6000082F00F0838194F82E68002E00F07E81FA
:102C700094F81BA894F81C9894F82F8849EA0A2322
:102C8000139346EA0723149394F8303843EA082B49
:102C9000159341F28D339B4540F0A68094F831386E
:102CA0006A2283494FA8179394F83238169310F08C
:102CB00024F9179B0DF23B128DF84CA18DF862316F
:102CC0009DF858308DF84D918DF8633194F81D388A
:102CD0008DF84E3194F81E388DF84F31754B991D93
:102CE000D87902F8010F13F8010F99429071F7D1CA
:102CF000674B8DF8616193F829281E4603F5006043
:102D00008DF85E818DF8562193F825288DF8607135
:102D10008DF85A2193F82A288DF8572193F8262800
:102D20008DF85B2193F82B288DF8582193F82728EC
:102D30008DF85C2193F82C288DF8592193F82828D8
:102D40008DF85D219DF854208DF85F21139A02F1D2
:102D50000E01002289B2013202F128039BB28B429C
:102D6000C0F038812A390DF5B370FDF733FD5248B4
:102D7000FDF746FE5148FDF743FE9DF85A01FDF769
:102D800048FE4748FDF73CFE9DF85B01FDF741FE1C
:102D90004348FDF735FE9DF85C01FDF73AFE4048DB
:102DA000FDF72EFE9DF85D01FDF733FE3648FDF779
:102DB00027FE0DF265182A270023BD4200F212817A
:102DC00013B10A20FDF71AFE30480025FDF718FE62
:102DD0004FAAAB5C735501356A2DFAD101F0D9F9D0
:102DE00029462B4801F0FCF9139D149B0E357B2BD3
:102DF000ADB240F0A38094F85E3894F85D281B04CF
:102E000025482F4F43EA026394F8602894F85F48FE
:102E100013432C4E43EA0424FDF7F2FD2A48FDF744
:102E2000EFFD9DF86400FDF7F4FD1D48FDF7E8FD9A
:102E30009DF86500FDF7EDFD1948FDF7E1FD9DF8F2
:102E40006600FDF7E6FD1648FDF7DAFD9DF8670020
:102E5000FDF7DFFD0C48FDF7D3FD1C483A4631462F
:102E60002018FEF78DFF1A48FDF7CAFD1948FDF737
:102E7000C7FD3021B878FDF7D8FD1748FDF7C0FD34
:102E80002CE000BFA741010809430108C741010820
:102E9000E01904301122043028420108934201084D
:102EA00060510108AF42010801220430EB210430D7
:102EB000403E0108EA210430A9410108BD42010851
:102EC000F40E0024F80E0024D3420108908F557CA4
:102ED00022420108EF420108FF42010830217878C0
:102EE000FDF7A3FD5048FDF78BFD3021F878FDF785
:102EF0009CFD4E48FDF784FD30213078FDF795FDAF
:102F00004B48FDF77DFD30217078FDF78EFD484878
:102F1000FDF776FD3021B078FDF787FD4548FDF7D8
:102F20006FFD45482044FDF774FD4448FDF768FDFA
:102F30004348FDF765FD4EF6602312934048FDF7C8
:102F40005FFD4048FDF75CFD3F48FDF759FD1498D3
:102F5000FDF700FE3D48FDF753FD5846FDF7FAFD2D
:102F60003B48FDF74DFD2846FDF7F4FD0024394EA2
:102F70003348FDF745FDA3B29D423FD80A20364EA7
:102F8000FDF73CFD2A240023A54240D813B10A20B6
:102F9000FDF734FD3148FDF733FD2A460021304866
:102FA0000FF0B6FFFFF74DB9062B7FF4D1AB4846C3
:102FB000FFF7CCBB10F8016BC02E09D10678A82E04
:102FC00006D14678192E03D1002A7FF437AE1A466F
:102FD00001312EE6831893F833704FAB134483F816
:102FE0002870B8E618F8010FA0F120025E2A02D876
:102FF000FDF704FD01230137BFB2DEE633190134CA
:10300000D87AFDF75FFD2020FDF7F8FCB3E716F84E
:10301000010FA0F120025E2A02D8FDF7EFFC012388
:103020000134A4B2B0E700BF01430108A85F010862
:10303000A7410108054301088081557C0843010828
:103040000B430108114301082643010831430108DD
:103050003C430108E021043014220430C741010838
:10306000EB2104307047704708B50B48C7230B4A63
:103070004FF0100C80E80C1000230122C3600261A5
:1030800043618361C361036205F01AFD18B1BDE8B5
:103090000840FFF7E7BF08BD0C0F002400500052A6
:1030A00070B514228AB0044600210DEB02000FF027
:1030B0002FFF22682F4B9A425AD12F4B0224092608
:1030C00005A9D3F8D42000252C4842F48042C3F847
:1030D000D420D3F8D42002F480420192019AD3F88C
:1030E000E02042F01002C3F8E020D3F8E02002F024
:1030F00010020292029AD3F8E02042F00202C3F8D2
:10310000E020D3F8E02002F002020392039AD3F801
:10311000E02042F00802C3F8E020D3F8E030069443
:1031200003F00803089409960493049B0423059371
:1031300003F020FE40F2044305A9114805930694CC
:1031400007950894099603F015FE4FF4605305A9FE
:103150000C480593069407950894099603F00AFE17
:103160005C202A46294601F0BDF95C2001F002FAF4
:103170000AB070BD005000520044025800100258BE
:1031800000040258000C025808B506480023064AFD
:1031900080E80C0007F05AFB18B1BDE80840FFF7C3
:1031A00061BF08BD580F00240018024807B50E4B38
:1031B00002689A4214D10D4B5020D3F8DC2042F023
:1031C0004002C3F8DC200022D3F8DC30114603F0C3
:1031D00040030193019B01F085F9502001F0CAF9E9
:1031E00003B05DF804FB00BF001802480044025819
:1031F00008B50A487F220A4B8260FF220360002341
:10320000C260436003618361C361436107F092FB65
:1032100018B1BDE80840FFF725BF08BD680F0024BE
:10322000004000580268044B9A4204D1034A136FCD
:1032300043F40043136770470040005800440258AD
:1032400010B50123054C2370FDF780FE234618B905
:10325000227802F0FE022270187810BD14000024BB
:1032600010B50123044C2370FDF734FE10B9FFF7AD
:10327000E7FF2070207810BD14000024FFF7E0BFA6
:1032800008B5084611461A464FF0FF33FDF73EFEDB
:1032900020B9FDF75BFE0028FBD108BD012008BD69
:1032A000124B10B51B788AB01446DB071BD40329D8
:1032B00003D8DFE801F010050B1204200AB010BD9E
:1032C00001A8FDF74DFE079B236004E001A8FDF770
:1032D00047FE089B23800020F0E701A8FDF740FE91
:1032E000089B5B0AF0E70320E8E700BF1400002416
:1032F00008B5084611461A464FF0FF33FDF716FE93
:1033000020B9FDF723FE0028FBD108BD012008BD30
:1033100070B588B004461422002103A80FF0F8FD10
:103320002268264B9A4246D1254B0C2502240326BF
:10333000D3F8D4200DEB0501224842F48032C3F8C3
:10334000D420D3F8D42002F480320092009AD3F82B
:10335000E02042F00402C3F8E020D3F8E02002F0BD
:1033600004020192019AD3F8E02042F00802C3F867
:10337000E020D3F8E030049403F0080306960795A4
:103380000293029B4FF4F853039303F0F3FC0423DE
:10339000049400240DEB05010B4803930594069655
:1033A000079503F0E7FC31202246214601F09AF808
:1033B000312001F0DFF808B070BD00BF007000528E
:1033C0000044025800080258000C025808B515487D
:1033D0004FF480031449072280E80A004FF080610F
:1033E0000023C26081614FF04051C2624FF08042C1
:1033F000836003614361C16103624362836242632C
:103400008363C363036443648364C3640365436584
:10341000836508F051FB18B1BDE80840FFF722BEF4
:1034200008BD00BF801100240030014008B51548D8
:103430004FF480031449072280E80A004FF08061AE
:103440000023C26081614FF00051C2624FF08042A0
:10345000836003614361C1610362436283624263CB
:103460008363C363036443648364C3640365436524
:10347000836508F021FB18B1BDE80840FFF7F2BDF5
:1034800008BD00BFF810002400340140F0B514223C
:103490008BB0054600210DEB02000FF039FD2B68C3
:1034A0006B4A934274D16B4B0224052705A9D3F8CC
:1034B000F0200026684842F48052C3F8F020D3F888
:1034C000F02002F480520092009AD3F8E02042F0FB
:1034D0000102C3F8E020D3F8E02002F001020192DB
:1034E000019AD3F8E02042F00802C3F8E020D3F8B4
:1034F000E030069403F00803089409970293029BB6
:103500006023059303F036FC8023544805A90694F4
:103510000593089409972627514C079603F02AFC37
:10352000504B4FF0400E2046E6606661A661E661B2
:103530002662666284E888404FF48063236101F06C
:103540007BFB08B1FFF78EFD474B2526AC674FF498
:103550008062A563454C84E8480000232046226130
:10356000A360E3606361A361E3612362636201F0CE
:1035700063FB08B1FFF776FD00222320EC671146BC
:10358000A56300F0AFFF232000F0F4FF0BB0F0BD07
:10359000374A9342FAD12F4B05A93648D3F8F02089
:1035A000354C42F40052C3F8F020D3F8F02002F476
:1035B00000520392039AD3F8E02042F01002C3F8BD
:1035C000E020D3F8E03003F010030493049B4FF4A1
:1035D000E04305930223069308930523099303F020
:1035E000C9FB264A5323204684E80C0000234FF4ED
:1035F0008062A360E36022616361A361E36123628F
:10360000636201F019FB08B1FFF72CFD1C4B542637
:10361000EC674027A5634FF480621A4C84E8C80029
:10362000002320462261E3606361A361E3612362BA
:10363000636201F001FB08B1FFF714FD0022542082
:10364000AC671146A56300F04DFF54209CE700BF16
:10365000003001400044025800000258000C02589B
:1036600080120024100002402800024008120024AA
:1036700000340140001002580810002440000240AD
:1036800058000240801000241C4B07B5D3F8F420EA
:10369000012042F00202C3F8F4200022D3F8F430F3
:1036A000114603F002030193019B00F01BFF012070
:1036B00000F060FF00220420114600F013FF0420F8
:1036C00000F058FF00220520114600F00BFF0520F6
:1036D00000F050FF00225120114600F003FF51205E
:1036E00000F048FF00227D20114600F0FBFE7D2007
:1036F00000F040FF03B05DF804FB00BF0044025837
:103700007047FEE7FEE7FEE7FEE770477047704749
:1037100008B500F08FFEBDE80840FEF71FBC05F0BD
:1037200087B903F0E1B97047012003F0B5BC08B5D3
:103730004FF4807003F0B0FC4FF40070BDE8084017
:1037400003F0AABC082003F0A7BC000008B5054898
:10375000FDF756F900F022FE0348BDE8084001F0ED
:103760005FBC00BF5C4301088012002408B5054817
:10377000FDF746F900F01EFE0348BDE8084001F0E1
:103780004FBC00BF7D4301080812002408B505485E
:10379000FDF736F900F00EFE0348BDE8084001F0E1
:1037A0003FBC00BF9E4301080810002408B505482F
:1037B000FDF726F900F0F2FD0348BDE8084001F0EE
:1037C0002FBC00BFBF4301088010002408B5044887
:1037D000FDF716F90348BDE8084001F021BC00BF21
:1037E000E04301086814002408B50448FDF708F90F
:1037F0000348BDE8084001F013BC00BFF9430108CD
:10380000F013002408B50448FDF7FAF80348BDE8B2
:10381000084001F005BC00BF12440108F812002462
:10382000014802F0FBBE00BF640C0024FFF7F8BFA4
:10383000014802F0F3BE00BF000D0024FFF7F8BFFF
:10384000014808F023BD00BF80110024014808F0A2
:103850006BBE00BF58150024014801F0E1BB00BF5A
:10386000E0140024014807F0C7BF00BF8C0F0024FC
:10387000014801F0D5BB00BF78060024014801F0E3
:10388000CFBB00BFB8050024014801F0C9BB00BF91
:1038900040050024014801F0C3BB00BFD40D002443
:1038A000014802F069B900BF10070024FFF7F8BF14
:1038B00008B5044802F0B2FE0348BDE8084002F033
:1038C000ADBE00BF640C0024000D0024014803F0CD
:1038D000B9BD00BFD8150024FFF7F8BFFFF7F6BF4A
:1038E000014800F05FBF00BF3006002408B504485F
:1038F00003F0C8FC0348BDE8084006F0DBBF00BF8A
:103900009C0D0024580F002470470000014808F067
:103910000BBE00BF70130024014808F0B7BC00BF05
:10392000F8100024014805F0B7B900BF0C0F0024BF
:10393000014804F05BBD00BF4C0E0024014804F0B8
:1039400083BF00BF4C0E002404F0BAB808B50E487F
:103950004FF4E13E0D4B0C2280E808400023426109
:103960008360C36003618361C361036243628362F6
:10397000C3620363436309F003FC18B1BDE8084068
:10398000FFF770BB08BD00BF701300240078004033
:1039900008B50E484FF4E13E0D4B0C2280E808407C
:1039A000002342618360C36003618361C36103627A
:1039B00043628362C3620363436309F0E1FB18B1AE
:1039C000BDE80840FFF74EBB08BD00BF58150024F6
:1039D0000044004070B58EB005461422002109A8AD
:1039E0000FF096FA1022002105A80FF091FA2B682B
:1039F0007D4A93427CD17D4B09A97D480026D3F8AE
:103A0000E8207C4C42F08042C3F8E820D3F8E8205C
:103A100002F080420192019AD3F8E02042F01002B5
:103A2000C3F8E020D3F8E03003F010030293029BC8
:103A30004FF4C073099302230A9307230D9303F0F5
:103A400099F96D484F23E6606661A661E6612662DA
:103A5000666284E849004FF480632046236101F0E8
:103A6000EBF808B1FFF7FEFA062305A961480593B4
:103A7000012306968DF81C608DF81D60089301F0F7
:103A800003FC08B1FFF7EEFA40236C67A5635022F0
:103A90005A4C00265A492046E6606661A661E661F6
:103AA0002662666284E80E004FF48063236101F0B1
:103AB000C3F808B1FFF7D6FA062305A94F480593C6
:103AC000012306968DF81C608DF81D60089301F0A7
:103AD000DBFB08B1FFF7C6FA002252202C67114623
:103AE000A56300F0FFFC522000F044FD0EB070BD55
:103AF000444A9342FAD13D4B09A943480026D3F8E2
:103B0000E820424C42F40032C3F8E820D3F8E82021
:103B100002F400320392039AD3F8E02042F0080244
:103B2000C3F8E020D3F8E03003F008030493049BCB
:103B30006023099302230A9307230D9303F01AF9D4
:103B400033482B23E6606661A661E6612662666201
:103B500084E849004FF480632046236101F06CF84B
:103B600008B1FFF77FFA062305A92848059301232A
:103B700006968DF81C608DF81D60089301F084FB9B
:103B800008B1FFF76FFA002640236C672C22A5636B
:103B90002049214C84E84E004FF480632046666142
:103BA0002361A661E6612662666201F045F808B10C
:103BB000FFF758FA062305A917480593012306962F
:103BC0008DF81C608DF81D60089301F05DFB08B155
:103BD000FFF748FA002226202C671146A56300F063
:103BE00081FC262080E700BF007800400044025896
:103BF000001002586814002470000240F0130024E2
:103C00008800024000440040000C0258F8120024D2
:103C1000A0000240B8000240E0140024D0F8940252
:103C20000FF0EEB8D0F894020FF0F8B8D0F8940284
:103C30000FF007B97047000008B5D0F8900503F001
:103C400015FF03289ABF024B185C022008BD00BF75
:103C50002B44010808B5D0F8900503F01DFF032898
:103C60009ABF024B185C022008BD00BF2B4401081C
:103C700030B570B1CA6862B18C6854B10B6943B198
:103C80000D6849688560C1600461426183610020FC
:103C900030BD4FF0FF3030BD73B500234668044699
:103CA000019366B1A36998470546A3699847401BED
:103CB000B0F5FA6FF9D901230025636027E0836826
:103CC00003B19847202300252360636901AA1221CC
:103CD0003046984700281DDB019B03F01F03B342C9
:103CE0001AD10025266020681F2833D87DB92369A2
:103CF0004FF400422946984700282EDB636901AA49
:103D000029462068984700280ADA6FF004052846FB
:103D100002B070BD6FF004050136202ED5D1E2E768
:103D2000A36998470646019B1B0402D4002DEED1DF
:103D3000B8E7A3699847801BB0F5FA7F07D8636995
:103D400001AA0021206898470028ECDADDE76FF02F
:103D50000105E8E76FF00205D9E76FF00305D6E744
:103D600014491548D1F8883043F4700310B5C1F8F0
:103D70008830124B1A6842F001021A6000221A6160
:103D80001C68204018609A61DA611A629A62DA62ED
:103D90001A635A639A63DA631A645A64186820F4DF
:103DA000802018601A660122054B1A604FF00063EC
:103DB0008B6010BD00ED00E07FEDF6EA0044025894
:103DC0000881005110B51848FCF71AFE1748184A28
:103DD0004FF480034FF0806180E80C00072200233D
:103DE00081614FF00051C260C2624FF08042836037
:103DF000036143610362436283628363C363036459
:103E000043648364C364036543658365C16142633E
:103E100007F052FE044601221021064803F010F973
:103E2000B4FA84F0400910BD57440108740100241D
:103E300000300140000002581FB504460022102146
:103E4000164803F0FDF8A2074FEA840303A91448BB
:103E500003F47C734CBF43F4405343F440631A0AA9
:103E60008DF80D30FF238DF80C2002AA8DF80E304E
:103E70008DF80F3041F288330093042308F058F88E
:103E800001221021054803F0DBF89DF80B009DF896
:103E90000A3043EA002004B010BD00BF0000025801
:103EA0007401002437B505460C4600221021144841
:103EB00003F0C6F8AA074FEA85038DF806404FEADB
:103EC0001424104803F47C738DF807404CBF43F46E
:103ED000405343F4406343F480431A0A8DF805309D
:103EE0004FF4FA638DF8042004220DEB020107F071
:103EF000F7FE01221021024803F0A2F803B030BD02
:103F0000000002587401002438B50C460546FFF73E
:103F100093FF40EA0401284689B2BDE83840FFF724
:103F2000C1BF38B50C460546FFF786FF20EA0401FD
:103F3000284689B2BDE83840FFF7B4BF4AF20231E3
:103F40009020FFF7AFBF00002DE9F0477548FCF760
:103F500057FDFFF737FF044628B97348FCF750FDBB
:103F60002046BDE8F0877148FCF74AFDDFF8DC81A8
:103F700000F06CFADFF8D89107466D4E00F066FA53
:103F80008246C020FFF758FF04464046FCF738FD44
:103F90004846FCF735FD2046FCF7C7FD3046FCF7E8
:103FA0002FFD24F00F0500F051FAA0EB0A000A28BB
:103FB00040F2B08000F04AFAC01B64280BD95D487B
:103FC000FCF71EFD5C48FCF71BFD2046FCF7ADFD31
:103FD0003046FCF715FDADB248F670039D42CDD1D9
:103FE0005648FCF70DFD5648FCF70AFD2046FCF745
:103FF0009CFD4F48FCF704FD00211020FFF752FF05
:104000004FF461411220FFF74DFF80211420FFF78C
:1040100049FF1020FFF710FF04461220FFF70CFFA6
:1040200005461420FFF708FF06464648FCF7E8FC63
:10403000C6F30F20FCF746FD4348FCF7E1FCF0B265
:10404000FCF740FD4048FCF7DBFCC5F30F20FCF714
:1040500039FD3D48FCF7D4FCE8B2FCF733FD3A48A3
:10406000FCF7CEFCC4F30F20FCF72CFD3648FCF720
:10407000C7FCE0B2FCF73AFD4FF480418420FFF723
:1040800011FF4FF4F7717020FFF70CFF4FF48041E0
:104090008620FFF707FF01219C20FFF703FF47F66B
:1040A000F0417420FFF7FEFE96217620FFF7FAFE1E
:1040B0004FF40C718220FFF7F5FE04212020FFF75A
:1040C000F1FE4FF40051F620FFF71EFFF620FFF738
:1040D000B3FE830403D42021F620FFF722FF4FF61E
:1040E000FF719220FFF7DEFE4FF4C061B020012483
:1040F000FFF7D8FE4FF48061B220FFF7D3FEFFF741
:104100001DFF01217020FFF7FFFE01217420FFF742
:10411000FBFE25E7AAB248F670039A427FF431AF5E
:1041200048E700BF3F4401084F44010871440108BB
:10413000C74101081C4201088444010816420108D5
:104140009C440108A8440108A74101080B43010849
:104150009244010800219020FFF7A4BE10B547F655
:10416000FE747420FFF768FE044074202146FFF7B8
:1041700099FE44F400417420FFF794FE2146742018
:10418000FFF790FE44F001017420FFF78BFE2046FC
:1041900010BD10B57020FFF74FFE20F0110084B263
:1041A00070202146FFF77EFE44F010017020FFF7DB
:1041B00079FE21467020FFF775FE44F00101702062
:1041C000FFF770FE204610BD08B501218220FFF7E1
:1041D0009BFE8220FFF730FEC307FAD408BD000023
:1041E00070B5ADF5805D0C460646782084B0FFF7CB
:1041F00023FE04F10801C0F30C0089B288420FD2FB
:104200009E20FFF74FFE02218020FFF77DFE9220C7
:10421000FFF712FE4206FAD540219220FFF774FE06
:10422000FFF798FF082182204FF4FA65FFF76CFE34
:10423000002210211F4802F003FF1F4AC0231F481D
:104240008DF80B408DF808301388591C03F03F039C
:104250008DF809300023118004AA8DF80A30230A52
:1042600002A900958DF80C30052307F061FE033498
:104270004FF6FC7304AA3146009523400F4807F01F
:1042800057FE012210210B4802F0DAFE082182209D
:10429000FFF747FE01218020FFF736FE8020FFF761
:1042A000CBFDC307FAD4FFF749FE0DF5805D04B0DE
:1042B00070BD00BF00000258FE01002474010024FC
:1042C0002DE9F047ADF5805D804692208A4682B0A8
:1042D000FFF7B2FD10F4005057D0FFF73BFF4FF44B
:1042E0000051922043F61749FFF70EFE9C20FFF77E
:1042F000A3FDC0F30F27002F43D07C20013FFFF721
:104300009BFD0304BFB202D510EA090502D0FFF7F6
:104310005BFFF0E77E20FFF78FFDC0F30B06F41C78
:1043200024F00304A4B25445F1D8042EEFD944F28A
:1043300004018620FFF7B6FD08218220FFF7E4FD87
:104340002246294602A80EF0E3FD80232A461021CA
:1043500010488DF8083002F073FE4FF4FA6204F151
:10436000080302A90C489BB20092424607F0E0FD08
:1043700010210848012202F063FE08218220FFF785
:10438000D0FD063EFFF7DAFDB0B20DF5805D02B05C
:10439000BDE8F087000002587401002408B5034806
:1043A000FCF72EFB0122024B1A7008BDC74401081E
:1043B000FD01002408B50348FCF722FB0122024B53
:1043C0001A7008BDB3440108FC01002438B50E4B37
:1043D00005460E4A18784FF47A73B3FBF0F3106871
:1043E000B0FBF3F000F0DAF8044658B90F2D09D805
:1043F000024629464FF0FF3000F074F8044B204687
:104400001D6038BD012038BD2000002418000024A4
:104410002400002410B5032000F046F80020FFF728
:10442000D5FF044618B9FFF72FF9204610BD012427
:10443000FBE70000034A044B11681B780B44136030
:10444000704700BF0002002420000024014B1868C0
:10445000704700BF0002002438B50446FFF7F6FF9E
:104460000546631C1EBF044B1B78E418FFF7EEFFE4
:10447000401B8442FAD838BD2000002430F40003E9
:1044800010B5044604D040F217210548FEF7EBFDB5
:10449000044B586820F460002043586010BD00BFF2
:1044A000DB44010800040058C31E042B10B5044669
:1044B00003D9A2210948FEF7D6FD094A2402D36890
:1044C00004F4E06423F4E0631B041B0C43F0BF63BB
:1044D00043F400331C43D46010BD00BF15450108F0
:1044E00000ED00E00F2A70B504460E46154603D9CC
:1044F000BA211D48FEF7B7FD0F2E03D9BB211A487C
:10450000FEF7B1FD194B0120D968C1F30221C1F1B9
:1045100007030A1D042B28BF0423062A00FA03F20E
:104520008CBF03390021002C02F1FF3200FA01F0A8
:1045300002EA060200F1FF3002FA01F205EA000584
:1045400042EA05024FEA021207DB04F16044D2B2EC
:1045500004F5614484F8002370BD04F00F04D2B266
:10456000034B1A5570BD00BF1545010800ED00E072
:1045700014ED00E0002803DACE210648FEF773BDF3
:104580004209012300F01F0003FA00F0024B43F838
:10459000220070471545010800E100E00138B0F144
:1045A000807F0AD2064BF021064A5860002082F82C
:1045B0002310072298601A6070470120704700BFDF
:1045C00010E000E000ED00E010B5044608B901205D
:1045D00010BD0268314B9A4203D07D213048FEF76E
:1045E00042FD637F03F0FF021BB922772046FCF7F0
:1045F000DFFC022363772379012B03D98C21284820
:10460000FEF731FD2379002B3ED12368254A5A61FC
:104610009A6822F018029A606379012B03D99E21CF
:104620001F48FEF720FD62792368002A34D14FF03D
:10463000FF321A61636933F0600303D0AA2118487E
:10464000FEF711FD22686169936823F060030B4354
:104650009360A36933F0800303D0AE211048FEF7C6
:1046600002FD2268A169936823F080030B439360E5
:10467000236A013B022B03D9B3210948FEF7F3FC5F
:1046800001230020637710BDE2682046A16800F096
:104690000BF80028C0D09AE72269CAE7004C0258FC
:1046A00056450108B71DC10432F0180370B506461F
:1046B0000D46144603D06F211148FEF7D4FC1F238A
:1046C00025FA03F2D20705D413F1FF33F8D254B11F
:1046D000012070BD082C11D0F9D9102C0CD0182C49
:1046E000F6D1062BF4D8336800205D619A6822F079
:1046F000180214439C6070BD072BF3E70F2BF1E702
:104700009445010810B50446002844D0836833F46A
:10471000807207D0B3F5007F04D040F277111F48B4
:10472000FEF7A1FC636833F0C00304D04FF4BC7102
:104730001A48FEF798FC636933F0180123F0080269
:104740000BD0202A09D0302B07D0B2F5002F04D08F
:1047500040F279111148FEF786FC94F8413003F0DD
:10476000FF0223B984F840202046FCF751FC216861
:10477000A0680A68636822F400220343606922F497
:104780007E720343002013430B6001236064636364
:1047900084F8413010BD012010BD00BFD54501088F
:1047A000704770470368D969DA6970B58D070446A8
:1047B00001D4D0075FD5626932F0180022F00801F9
:1047C0005AD194F84120022A40F0D880DA69D10702
:1047D00021D59A69D2071ED5E28D616A92B251F84D
:1047E00022209A60E28D013292B2E285E28D92B28D
:1047F00051F82220618E9A60E28D013292B2E285F8
:10480000E28D92B2914206D15A69204622F001020D
:104810005A61FFF7C5FF2368DA6996072BD59A69B5
:10482000950728D5D868228EA16A92B241F8220055
:10483000228E013292B22286D868228E92B241F83C
:104840002200228E618E013292B22286228E92B294
:10485000914210D15A6922F002025A611A6822F478
:1048600000421A60002384F84030012384F841306C
:104870002046FFF796FF70BD202902D0302A40F075
:10488000828094F84120022A78D15A68900734D562
:10489000E28D618E92B28A422FD2E28D606A92B22C
:1048A00050F822209A60E28D013292B2E285E28DC8
:1048B00092B250F822209A60E28D013292B2E285E3
:1048C000E28D92B250F822209A60E28D013292B2CB
:1048D000E285E28D92B250F822209A60E28D013298
:1048E00092B2E285E28D92B2914206D15A69204697
:1048F00022F001025A61FFF753FF23685A685107FB
:10490000B9D5228E618E92B28A42B4D2DD68228EEF
:10491000A06A92B240F82250228E013292B22286D0
:10492000DD68228E92B240F82250228E013292B27D
:104930002286DD68228E92B240F82250228E013209
:1049400092B22286DD68228E92B240F82250228EE8
:10495000013292B22286228E92B291428BD15A6952
:1049600022F002025A61012284F841201A6822F4DE
:1049700000421A60002384F8403079E7636C43F00A
:104980000803636470BDB1F5002F7FF474AF1A683B
:1049900012F4803262D0A28DE16992B291421AD1B2
:1049A0005A6922F001025A611A6822F400421A6020
:1049B000022262631A6822F440321A601A6842F4D2
:1049C00000321A605A6942F003025A611A6842F4CE
:1049D00000421A6070BDA28D92B28A1A032A08D8CA
:1049E000002201F003018A4229D30021032A32D98F
:1049F00070BDA28DA16992B251F822209A60A28D59
:104A0000013292B2A285A28D92B251F822209A6010
:104A1000A28D013292B2A285A28D92B251F82220CB
:104A20009A60A28D013292B2A285A28D92B251F803
:104A300022209A60A38D01339BB2A38570BDA08D07
:104A40000132A56980B255F820009860A08D013030
:104A500080B2A085C7E799600132C7E7618E49B986
:104A60005A6922F003025A61012384F8401084F845
:104A7000413070BDE08D80B2081A032837DDE28D29
:104A8000606A92B250F822209A60E28D013292B2AE
:104A9000E285E28D92B250F822209A60E28D0132D6
:104AA00092B2E285E28D92B250F822209A60E28DB5
:104AB000013292B2E285E28D92B250F822209A60E1
:104AC000E28D013292B2E285E28D92B2914206D13C
:104AD0005A69204622F001025A61FFF761FE238ED7
:104AE000618E9BB28B42BFF4C6AE23680EE711F015
:104AF00003053FF4C0AEAA42284618D30022013075
:104B00009A600428FBD15A6922F001025A615A685E
:104B1000520718D4228E92B291423FF6ACAE5A6937
:104B200022F003025A61012384F8413022E7E08D2C
:104B30000132666A80B256F820009860E08D01303C
:104B400080B2E085D7E7A56ADE680138228E92B28E
:104B500045F82260228E02F1010292B22286F3D140
:104B6000D8E7000003681821DAB223F47F73103A03
:104B700023F00303B2FBF1F20449032A895C88BFE6
:104B80000433C1658365806D704700BF52460108DC
:104B90000168134B0B448C2BCBB210D81422083B6A
:104BA000B3FBF2F303F1B05202F516429200026633
:104BB0000C4A4266012202FA03F383667047182208
:104BC000103BB3FBF2F3084A0A44A82A98BF083303
:104BD00003F1805202F5024292000266034AE8E7BE
:104BE000F8ABFDA780580258F0FBFDBF80080240DB
:104BF000027910B5541E072C0DD8036809491944D1
:104C00008C2909D8084B13449B00C366074B0367E4
:104C10000123A340436710BD054B13449B00C366AB
:104C2000044BF4E7F8ABFDA73F9600164059025835
:104C30003F8200104009024070B50446FFF706FCB1
:104C40000546002C00F031812368A84A934249D0E0
:104C50001832934246D01832934243D018329342CE
:104C600040D0183293423DD0183293423AD0183295
:104C7000934237D01832934234D002F556729342A1
:104C800030D0183293422DD0183293422AD01832A5
:104C9000934227D01832934224D01832934221D025
:104CA000183293421ED0183293421BD0904A93423E
:104CB00018D01432934215D01432934212D01432C9
:104CC00093420FD0143293420CD01432934209D045
:104CD0001432934206D01432934203D0DE21854829
:104CE000FEF7C1F9A36833F0400205D0802B03D052
:104CF000DF218048FEF7B7F9E36833F4007303D08F
:104D0000E0217C48FEF7AFF9236933F4806303D0D8
:104D1000E1217848FEF7A7F9636933F4006206D011
:104D2000B3F5805F03D0E2217248FEF79CF9A369D6
:104D300033F4005206D0B3F5804F03D0E3216D4821
:104D4000FEF791F9E36933F0200206D0B3F5807FD6
:104D500003D0E4216748FEF786F9236A33F4403331
:104D600003D0E5216348FEF77EF92368624E991966
:104D7000B1F5956F00F2C4806368732B03D9EA2103
:104D80005C48FEF770F9636A33F0040303D0EB214B
:104D90005848FEF768F9636AB3B1A36A032B03D9D5
:104DA000F0215448FEF75FF9E36A33F0C07303D093
:104DB000F1215048FEF757F9236B33F4C00303D0B9
:104DC000F2214C48FEF74FF9002384F834300223D7
:104DD00084F8353023681A6822F001021A602168CD
:104DE0000B68D80757D40B68444DA2681D40E36890
:104DF000A06913432269134362691343E2690343C1
:104E00001343226A1343626A042A43EA050301BF7B
:104E1000266BE56A35432B43042A0B604B6923F06C
:104E2000070343EA02030CD1A26AE56A134345B1C2
:104E300000283CD1012A4BD001D3022A01D1EA013A
:104E400049D44B612046FFF78DFEE26D3F2393402E
:104E5000836020460025FFF79BFEA368226E802B0F
:104E600004BF002363606368D9B2013B1160072B64
:104E7000626EA16E516000F284802046FFF7B8FE9A
:104E8000E36E626F1D60236F5A600020012360652E
:104E900084F8353070BDFFF7D9FA401B05289ED93C
:104EA00020236365032384F83530012070BDB0F5FD
:104EB000005F16D1032AC4D801A050F822F000BF29
:104EC000D74E00083F4E0008D74E0008D14E0008CC
:104ED000B5F1C07FB5D140230120636584F835006A
:104EE00070BD022AF7D9032AA8E700BF10000240CC
:104EF0000854025814460108F0FFFDBF3F8010FE21
:104F0000224D2B448C2B3AD86368112B04D94FF4D3
:104F1000AA711F48FEF7A7F800232268A16884F849
:104F200034300223402984F83530166826F4FF46D1
:104F300026F0700621D0802914BF00204FF4804055
:104F400023691544E168DB0843EAD103616943EA58
:104F5000D103A16943EAD103216A43EA1113E1694C
:104F6000C908334301F020010B43034313601422AB
:104F7000B5FBF2F5AD00E5656BE71020E0E74023F7
:104F80008FE7E566256765677FE700BFF8ABFDA79C
:104F90001446010810B528B190F83530022B03D023
:104FA00080234365012010BD03681B4A1A44B2F5F3
:104FB000956F08D8042280F835201A6822F0010283
:104FC0001A60002010BD1A6822F00E021A601A68DA
:104FD00022F001021A60026E136823F480731360DA
:104FE0000123C26D93400D4A5360436E826E5A6036
:104FF000C36E33B11A6822F480721A60036F426F75
:105000005A600123002480F83530036D80F8344065
:10501000002BD6D09847D4E7F0FFFDBF00540258CC
:1050200000232DE9F341924D044601930368866DF8
:105030005A19D6F80080B2F5956F00F2C0808D4AFB
:10504000C16D176808228A4018EA020F0BD0186851
:10505000400708D5186820F004001860B260626D3F
:1050600042F001026265844A8A4018EA020F07D0C2
:105070005869000604D5B260626D42F002026265B2
:105080007E4A8A4018EA020F07D01868800704D5C4
:10509000B260626D42F00402626510228A4018EA32
:1050A000020F0FD0196809070CD5B2601A685003B7
:1050B0003FD51B68190301D4236C00E0A36C0BB12E
:1050C00020469847E06D2021814018EA010F41D029
:1050D00023685A19B2F5956F1A6894BFC2F300128B
:1050E000C2F34002002A35D0B16094F83520042A7A
:1050F0001A6826D122F016021A605A6922F080023C
:105100005A61226C0AB9A26C1AB11A6822F008021C
:105110001A603F238340B360002384F834300123B6
:1051200084F83530236D0BB12046984702B0BDE8B6
:10513000F0811A68D205BFD41A6822F008021A60FA
:10514000BAE756032CD51B68180336D4636C0BB131
:1051500020469847636D002BE8D0636DD9071DD5B5
:10516000042384F8353023681A6822F001021A609B
:105170004FF41652B7FBF2F7019A013297420192AF
:1051800002D31A68D207F7D41B680022DE0784F81E
:1051900034204CBF0323012384F83530E36CC2E78D
:1051A0001A6812F4807208D1196821F01001196090
:1051B000012384F8342084F83530E36BC7E7304AA4
:1051C0001A448C2AB2D82F4A0421C06D1568814038
:1051D000294212D019684D070FD51A68900603D4DA
:1051E0001A6822F004021A60264A0423E06D51680E
:1051F00083400B435360236C95E711680222824081
:105200000A4218D01A68910715D51A6812F02002C0
:1052100008D1196821F00A011960012384F83420AB
:1052200084F83530174A0223E06D516883400B4300
:105230005360E36B77E7134908220D6882402A42E6
:105240003FF474AF1A6812077FF570AF1A6822F046
:105250000E021A600122E36D486802FA03F3034369
:105260004B600023626584F8343084F8352095E77C
:10527000F0FFFDBF18000024010080000400800042
:10528000F8ABFDA700540258F8B56A4A0446036813
:105290000D4693424AD01832934247D01832934277
:1052A00044D01832934241D0183293423ED0183243
:1052B00093423BD01832934238D01832934235D0C3
:1052C00002F55672934231D0183293422ED01832E2
:1052D00093422BD01832934228D01832934225D0D3
:1052E0001832934222D0183293421FD01832934280
:1052F0001CD0514A934219D01432934216D0143222
:10530000934213D01432934210D0143293420DD0F2
:10531000143293420AD01432934207D0143293428B
:1053200004D040F25D114548FDF79DFE2B7A012B1C
:1053300004D94FF4AF714148FDF795FE6B7A012B0C
:1053400004D940F25F113D48FDF78DFEEB68013B4B
:105350001F2B04D94FF4B0713848FDF784FE2B7A27
:10536000012B5BD16B6833F4C02304D04FF4B271CE
:105370003248FDF778FE2268314B1344B3F5956F40
:105380002B6846D8072B04D94FF4B4712B48FDF78E
:105390006AFE95E8011094F83530012B42D194F85B
:1053A0003430012B43D0266E4FF0F85E336823F47F
:1053B0008133336033689EFAAEFE4FF47807BEFA4D
:1053C0008EFE97FAA7F74FF48031B7FA87F791FA74
:1053D000A1F14FF40072B1FA81F192FAA2F200FA4F
:1053E0000EFEDBB2E868B2FA82F243EA0C0301383F
:1053F00043EA0E03B8400343287A00FA01F1002083
:105400000B43697A01FA02F21343336084F83400E3
:10541000F8BD0F2BBDD94FF4B671B7E74FF0000CB4
:105420006046B8E74FF4006301206365F8BD0220D1
:10543000F8BD00BF10000240085402585A46010847
:10544000F0FFFDBF8B680A6891F804C01A430B7C1B
:10545000002B2DE9F04F08BF4FF4002385B018BF93
:10546000002391F80CE04F7B00934B7C8E7B002B4C
:10547000CD7B8C7C0CBF4FF40033002391F81C9043
:1054800001934B6991F81DB01A438B6913438A7FCE
:10549000002A0CBF4FF4806200220292CA7F03925E
:1054A00091F82020002A0268486AD2F800A008BFBC
:1054B0004FF4807843EA0003C86A2AF07F4A18BF95
:1054C0004FF00008034303982AF47B0A2AF4FE4AAB
:1054D0002AF07C0A43EA0A0343EACC6343EACE5348
:1054E00043EA875343EA465343EA055343EA0443F6
:1054F00043EA093343EACB2391F828B043EA402337
:10550000009843EA0B1303430198034302980343B3
:1055100043EA08031360CE6B91F8323091F838708B
:10552000002B536891F8305023F07C5391F83140B0
:105530000CBF4FF48030002023F4EF2323F4FF63EB
:1055400023F0070343EA46634E6B33438E6C43EA12
:10555000076343EA85430D6D43EA444391F85440A1
:105560000343486C5360D36823F4877323F001032B
:10557000034391F8400043EA0023D36091F84C3094
:10558000002B136F23F0F2030CBF802000201B04BC
:105590001B0C43EA06432B43CD6D43EA440391F8C9
:1055A000614003431367D2F8900091F8563020F021
:1055B0000300034391F8550043EA4003886DC2F8A5
:1055C0009030D2F8003D23F072030343C2F8003D4F
:1055D00091F8603091F86210002BD2F8303D23F042
:1055E0007B030CBF402000202B4343EA041343EA13
:1055F000C1030343C2F8303D05B0BDE8F08F0000A1
:10560000026802F58050036823F4F04330B523F0BC
:1056100002030C680D79234341F2040403600B7B01
:105620001059DB0320F4504043EA05338D6820F025
:1056300001002B43034302F588501351124B0568B8
:105640004C7B2B4043EA04430C6A234341F204148D
:1056500003604B7F087D1B03155943EA001308695B
:1056600003430A482840034341F2081013511358DA
:105670000C7F23F00043896923F47C1343EAC4734D
:105680000B43135030BD00BF00C0FEFFEFEFC0FF63
:105690002DE9F04FD0F828E0934600EB8E0ADAF8B7
:1056A0001830DD68002D02DA0220BDE8F08F0C68AA
:1056B0008E6814F004072AD02D0C4A6AD0F80080B6
:1056C0002D0445EA020C4CF48032DA60D8F86020F0
:1056D00042F48012C8F86020220718D59D68AAB24B
:1056E000CD6A42EA05450A6B9D6042F440322CF4D3
:1056F00040252A43DA60D8F8642042F48012C8F8C2
:105700006420D8F8502042F08062C8F8502014F08D
:1057100010080BD09D688A6925F47F5525F03F0558
:105720002A439A60DA6842F08062DA6014F0140C5E
:1057300018D0DA6842F04045DD600EF10105032D16
:1057400088BFAEF1030500EB850CDCF818C0DCF86F
:105750000C90B9F1000F5FDA22F0004242F0804273
:10576000DA60A1E77546D3F808900CF1010C3268B5
:1057700029F47F591A6029F03F09726849EA020941
:10578000B268C3F8089029F07F5929F47C19002ADF
:1057900046D016685E60566849EA06469E60DE6836
:1057A000B8F1000F44D026F4F0080E6A48EAC64863
:1057B000CE694FEA984846F480264FEA884848EA7E
:1057C0000608C3F80C802FB19E6826F440478E6A05
:1057D0003E439E60DE6826F0804747F02047DF604A
:1057E000A70706D5CC6826F0874644F0204434430A
:1057F000DC60524E9468B4BB9A68BBF1000F00F0B5
:10580000998042F000429A60DA6842F08052DA6091
:1058100085620020BDE8F08F63464FF0010CA2E7DF
:105820001A715A719A71DA713246C3F80890B6E764
:1058300026F4FF484E6814F0010F28F07F0848EA6C
:105840000606DE601FBF26F440384E6948EA0606A9
:10585000DE60A606B7D5DE6826F040680E6948EA25
:105860000606DE60AFE76F1C032F88BFEF1E00EB5C
:1058700087039B69D3F80C80B8F1000F15DADAF8CA
:105880001810002294453FF40FAFCB68013223F08B
:105890000043CB600EF10103032B88BFAEF103037D
:1058A00000EB83019E468969ECE722680CF1010C4C
:1058B000D3F808901A6009EA0609626849EA020901
:1058C000A268C3F8089029F07F5929F47C19D2B155
:1058D0005568146849EA05455C609D600D68EC06F2
:1058E00019D5CC694FEA984844F480244FEA884897
:1058F00048EA0404DC60DC683D4624F0804444F05F
:105900000044DC6076E71A715A719A71DA712246A6
:10591000C3F80890E2E728F4FF484C6828F07F08B5
:1059200048EA0408EC07C3F80C80E4D528F44038B2
:105930004C69DDE722F0004265E700BF00C0FFFFD1
:105940000AB1032903D9012343651846704700EBC8
:105950008100C16A0A600A61CA6842F08070C8604A
:1059600023B142F040728B604B61CA60CB6800206B
:1059700043F00043CB60704790F85120D2B2102A18
:1059800010B52AD1232341F2041480F85130036862
:10599000196841F002011960196841F001011960AC
:1059A000D3F8001D41F00101C3F8001D195941F061
:1059B0000101195141F20814195941F0010119511D
:1059C00003F58B53196841F481711960222380F823
:1059D000512080F85230002010BD012010BDF8B5D4
:1059E0000446154629B9436D43F001036365012060
:1059F000F8BD90F85130102BF9D10022FFF748FE86
:105A000018B1636D43F00203F0E7A36A9A1D54F8DE
:105A100022605A1C032A8ABF033BA262A362A26AC5
:105A20002368063203F5895354F822201A60FEF7E2
:105A30000DFD0746F268002A04DB1023002084F8DD
:105A40005130F8BD236803F58B531968C90409D593
:105A5000626D42F0080262651B68A365E02384F86A
:105A60005130C4E76B1CE6D0FEF7F0FCC01B85424A
:105A700001D3002DDED1636D43F004036365102371
:105A8000EDE7F0B5456C6DB9C46B2A46294605268D
:105A900000EB8403DF6AFF68002F1BDA00293BD18B
:105AA000002343640020F0BDBF000AD5032B4FF054
:105AB000010188BFE31E00EB8302D76A22461C4621
:105AC000E9E7032B01F1010188BFE31E00EB83042A
:105AD000E76AF4E7013EE1D017F0805F04F10103CB
