:020000040800F2
:1000000000000824A1060008112800081328000891
:10001000152800081728000819280008000000000B
:100020000000000000000000000000001B28000885
:100030001D280008000000001F28000821280008D3
:10004000F10600082F280008F1060008F106000854
:10005000332800083728000839280008F10600086E
:10006000F106000855280008F10600085D28000880
:100070007928000895280008B1280008CD28000834
:10008000D9280008E5280008F1060008FD28000826
:100090000D290008F1280008012900083F28000860
:1000A000F1060008F1060008F1060008F106000854
:1000B000F1060008F1060008F1060008F106000844
:1000C000F1060008F1060008F106000811290008F1
:1000D000F1060008F106000861290008F106000891
:1000E000F1060008F106000800000000F106000813
:1000F000F1060008F1060008F10600086D29000865
:10010000F106000879290008F1060008F106000848
:10011000F1060008F1060008F1060008F1060008E3
:1001200085290008912900089D290008A9290008AF
:10013000F1060008C1290008B5290008C5290008F2
:1001400000000000000000000000000000000000AF
:10015000F1060008F1060008F1060008F1060008A3
:10016000F1060008F1060008F1290008ED29000851
:10017000F1060008E1290008F1060008F529000849
:10018000012A00081D2A0008212A0008F10600089B
:1001900039290008F1060008F1060008F1060008F8
:1001A000F1060008F1060008F1060008F106000853
:1001B0002D2A0008F1060008F1060008392A000877
:1001C000452A0008F1060008F1060008F1060008BB
:1001D000F1060008F1060008F1060008F106000823
:1001E000F1060008F1060008F1060008F106000813
:1001F000F1060008F1060008F1060008F106000803
:10020000F1060008F1060008F1060008F1060008F2
:10021000F1060008F1060008F1060008F1060008E2
:10022000F1060008F1060008F106000800000000D1
:10023000F1060008512A000800000000F10600083D
:10024000F1060008F1060008F1060008F1060008B2
:10025000F1060008F1060008F1060008F1060008A2
:10026000F1060008F1060008F1060008F106000892
:10027000F1060008F1060008F10600080000000081
:10028000F106000800000000F10600080000000070
:0802900000000000F106000867
:1002A00010B5054C237833B9044B13B10448AFF3B0
:1002B00000800123237010BD900000240000000086
:1002C000EC32010808B5034B1BB103490348AFF3F7
:1002D000008008BD0000000094000024EC320108FA
:1002E000034613F8012B002AFBD1181A0138704776
:1002F00001F0FF01102A2BDB10F0070F08D010F8D7
:10030000013B013A8B422DD010F0070F42B3F6D1DA
:10031000F0B441EA012141EA014122F007047FF0F3
:1003200000070023F0E80256083C85EA010586EA4A
:10033000010685FA47F5A3FA87F586FA47F6A5FA86
:1003400087F68EB9EED1F0BC01F0FF0102F0070292
:1003500032B110F8013B013A83EA010313B1F8D13D
:100360000020704701387047002D06BF354603381E
:10037000073815F0010F07D1013015F4807F02BF57
:10038000013015F4C03F0130F0BC0138704700BFA8
:1003900053B94AB9002908BF00281CBF4FF0FF31EC
:1003A0004FF0FF3000F07AB9ADF1080C6DE904CEE2
:1003B00000F006F8DDF804E0DDE9022304B0704740
:1003C0002DE9F0478C460D460446089E002B51D17E
:1003D0008A4217466DD9B2FA82FEBEF1000F0BD0E9
:1003E000CEF1200C01FA0EF520FA0CFC02FA0EF701
:1003F0004CEA050C00FA0EF44FEA174A250CBCFB38
:10040000FAF81FFA87F90AFB18CC45EA0C4508FBF5
:1004100009F3AB420AD9ED1908F1FF3280F02381CC
:10042000AB4240F22081A8F102083D44ED1AA4B28B
:10043000B5FBFAF00AFB105544EA054400FB09F944
:10044000A14509D9E41900F1FF3380F00A81A145E3
:1004500040F2078102383C44A4EB090440EA08401A
:100460000021002E61D024FA0EF400233460736062
:10047000BDE8F0878B4207D9002E54D0002186E8D2
:1004800021000846BDE8F087B3FA83F1002940F067
:100490008E80AB4202D3824200F2FA80841A65EB6E
:1004A00003050120AC46002E3FD086E81010BDE8C1
:1004B000F08712B90127B7FBF2F7B7FA87FEBEF152
:1004C000000F34D1EB1B3A0C1FFA87FC0121B3FB60
:1004D000F2F8250C02FB183345EA03450CFB08F340
:1004E000AB4207D9ED1908F1FF3002D2AB4200F25E
:1004F000D1808046ED1AA3B2B5FBF2F002FB105595
:1005000043EA05440CFB00FCA44507D9E41900F1BB
:10051000FF3302D2A44500F2B8801846A4EB0C04C5
:1005200040EA08409DE731463046BDE8F087CEF10D
:10053000200405FA0EF307FA0EF720FA04F83A0C35
:1005400025FA04F448EA0308B4FBF2F14FEA18452F
:1005500002FB11441FFA87FC45EA044501FB0CF33A
:10056000AB4200FA0EF409D9ED1901F1FF3080F029
:100570008A80AB4240F2878002393D44EB1A1FFA71
:1005800088F5B3FBF2F002FB103345EA034500FBAC
:100590000CF3AB4207D9ED1900F1FF386FD2AB4233
:1005A0006DD902383D44EB1A40EA01418FE7C1F1B1
:1005B000200722FA07F88B4005FA01F448EA030302
:1005C00020FA07FE4FEA134CFD404EEA040EB5FB3D
:1005D000FCF94FEA1E440CFB19551FFA83F844EA54
:1005E000054509FB08F4AC4202FA01F200FA01FAEF
:1005F00008D9ED1809F1FF3043D2AC4241D9A9F135
:1006000002091D442D1B1FFA8EFEB5FBFCF00CFBEE
:1006100010554EEA054400FB08F8A04507D9E41838
:1006200000F1FF3529D2A04527D902381C4440EA01
:100630000940A4EB0804A0FB02894C45C6464D4680
:1006400015D312D056B1BAEB0E0364EB050404FACD
:1006500007F7CB401F43CC40376074600021BDE8F2
:10066000F0871846F8E69046E0E6C245EAD2B8EBD5
:10067000020E69EB03050138E4E72846D7E7404658
:1006800091E78146BEE7014678E702383C4445E7FA
:10069000084608E7A8F102083D442BE7704700BF71
:1006A000DFF834D0002103E00C4B5B584350043199
:1006B0000B480C4B42189A42F6D30B4A02E0002337
:1006C00042F8043B094B9A42F9D302F0CDFB11F0FA
:1006D000CFFE01F015FB70470000082464500108AC
:1006E000000000249000002490000024D44C00243A
:1006F000FEE770B50E4615460C46A31B9D4201DC75
:10070000284670BD00F04EF904F8010BF5E770B50E
:100710000E4615460C46A31B9D4201DC284670BDC3
:1007200014F8010B00F02EF9F5E70000094B024622
:10073000196809B9084919601868694602448A426B
:1007400083BF0C22054B4FF0FF301A6088BF1A6040
:10075000704700BFAC000024D44C0024D04C0024CF
:100760004FF0FF3070474FF4005300204B6070474C
:100770000120704700207047931E222BF0B503D94B
:1007800000230B700846F0BD0C46114F234690FB2A
:10079000F2F502FB15063E4496F8236003F8016B60
:1007A00095B900284FF00000BEBF2D221A70A31C7F
:1007B0005A1E18700B469A42E4D910781C7802F839
:1007C000014903F8010BF6E71C462846DEE700BFA7
:1007D0001033010810B508210F4805F057FE002816
:1007E0004FF010010C4814BF0024082405F04EFE01
:1007F00008B944F004042021074805F047FE08B971
:1008000044F002044021044805F040FE08B944F0D9
:100810000104204610BD00BF00100258062821D850
:10082000DFE800F004080E12161A1D000022012154
:100830000D4803E000224FF480710C4805F038BEEB
:1008400000224FF40071F8E700224FF48061F4E7D2
:1008500000224FF40061F0E700224021E8E7002287
:100860008021E5E7704700BF0008025800000258E9
:10087000062821D8DFE800F004080E12161A1D0021
:10088000012211460D4803E001224FF480710C480B
:1008900005F00EBE01224FF40071F8E701224FF47B
:1008A0008061F4E701224FF40061F0E7012240216A
:1008B000E8E701228021E5E7704700BF0008025801
:1008C0000000025806281AD8DFE800F004070C0FD1
:1008D0001215170001210A4802E04FF480710948FF
:1008E00005F000BE4FF40071F9E74FF48061F6E7C0
:1008F0004FF40061F3E74021EDE78021EBE770471B
:10090000000802580000025808B50020FFF7B0FFA9
:100910000120FFF7ADFF0220FFF7AAFF0320FFF73A
:10092000A7FF0420FFF7A4FF0520FFF7A1FF062083
:10093000BDE80840FFF79CBF08B50020FFF76EFF39
:100940000120FFF76BFF0220FFF768FF0320FFF78E
:1009500065FF0420FFF762FF0520FFF75FFF062019
:10096000BDE80840FFF75ABF0048704758330108F8
:100970000048704760330108014B1860704700BFA2
:10098000B000002413B502A904460A23012201F88D
:10099000040D034800680BF0E6FD204602B010BDD0
:1009A000B000002413B5074C0A2301220DF1070102
:1009B00020680BF031FE0028F6D19DF8070002B048
:1009C00010BD00BFB0000024FFF7DCBF10B5441E0F
:1009D00014F8010F00B910BDFFF7D4FFF8E700B518
:1009E00089B00A226946FFF7C7FE6846FFF7EEFFA7
:1009F00009B05DF804FB00B589B010226946FFF725
:100A0000BBFE6846FFF76CFC012802D83020FFF7D8
:100A1000B9FF6846FFF7DAFF09B05DF804FB08B5D7
:100A2000FFF7E9FF0A20BDE80840FFF7ABBF10B5AC
:100A300088B010226946FFF79FFE6846FFF750FC1A
:100A4000C4B2032C04D96846FFF7C0FF08B010BD3C
:100A500001343020FFF796FFE4B2F2E708B5FFF764
:100A6000E6FF0A20BDE80840FFF78CBF38B50C460A
:100A7000451E15F8010F20B9013C14F8010F18B9F3
:100A800038BDFFF77FFFF4E7FFF77CFFF5E710B510
:100A90001446FFF7EBFF2046BDE81040FFF796BF76
:100AA00030B589B00446154608460A226946FFF764
:100AB00063FE2A4669462046FFF7E9FF09B030BDCC
:100AC00042F2107307B5009313460A4601460348E5
:100AD00006F06CFC03B05DF804FB00BFF8020024D4
:100AE0001FB5074B1C7842F210738DE80E000246CA
:100AF00001232146034806F0F1FC04B010BD00BFFD
:100B000061020024F80200241FB5074B1C7842F252
:100B100010738DE80E00024601232146034806F0BB
:100B20009FFD04B010BD00BF61020024F802002444
:100B300002442DE9F34104460F46D6B20025DFF802
:100B40004080B44203D1284602B0BDE8F0813F2C7A
:100B500012D83B78012201A904F120008DF804305D
:100B60000135FFF7BDFF98F80030EDB223B9003032
:100B700018BF012088F8000001340137E4B2E0E733
:100B8000E40300243F2807B58DF8071004D801229C
:100B90000DF10701FFF7CCFF03B05DF804FB000087
:100BA00002442DE9F34104460F46D6B20025DFF892
:100BB0004080B44203D1284602B0BDE8F0813F2C0A
:100BC00012D8012201A904F120000135FFF79CFF92
:100BD0009DF80430EDB23B7098F8003023B9003036
:100BE00018BF012088F8000001340137E4B2E0E7C3
:100BF000E403002413B5044601220DF10701072088
:100C0000FFF7CEFF9DF80730032C4FF0070097BF8A
:100C100023F0470323F0400343F0400323438DF8C0
:100C200007309DF80710FFF7ADFF02B010BD0A2393
:100C300090FBF3F203FB120000EB02107047000080
:100C4000022998BF013A10B5D2B2642402EB920394
:100C5000B2FBF4F29B1A074A114411F8012C134419
:100C60001844072390FBF3F3C3EBC303C01A01300E
:100C7000C0B210BDD4330108B0F5FA6F84BFA0F53F
:100C8000FA6080B210F0030F0CBF0D23002319444B
:100C9000014B13F8210070476C3301082DE9F34133
:100CA000067A0446457A077931462A463846FFF7E0
:100CB000C7FF31468046E0702846FFF7DDFF8742D8
:100CC0004FF0000788BF207120788DF80070FFF783
:100CD000AEFF00F07F008DF801006078FFF7A7FFFE
:100CE00000F07F008DF80200A078FFF7A0FF00F071
:100CF0003F008DF803004046FFF799FF00F0070022
:100D000040F008008DF804002079FFF790FF00F014
:100D10003F008DF805003046FFF789FF00F01F0007
:100D20008DF806002846124DFFF781FF082269461C
:100D30008DF807002878FFF7C3FE064620788DF867
:100D40000070FFF774FF60F07F00022269468DF8A3
:100D500001002878FFF7B4FE3EB9C01B18BF012080
:100D6000044B187002B0BDE8F0810120F8E700BF25
:100D700061020024E40300240023024A1360024AB3
:100D800013707047B8000024B400002484B008B584
:100D90000DF1080E8EE80F0071464C22094811F043
:100DA0009AFBDE22084B00201A70AE22074B1A7005
:100DB000FFF720FF064B00221A70BDE8084004B080
:100DC000FFF7DABFF8020024610200246302002466
:100DD000B500002490F83D30032280F83E1063F007
:100DE0007F0380F83B2080F83D30002380F83A30C4
:100DF0000374312343743F207047034642790179DD
:100E0000F0B553F806EF077846788578C478C0F8CF
:100E100000E09B88C2728380D0F81E30D0F81A2080
:100E2000C0F81A30838CC0F81E20428C4384D0F85E
:100E300026308284D0F82A20C0F82A3090F82D304D
:100E400087710F33C671057280F82D3090F83130FC
:100E500044720F338172C0F8262080F83130F0BD23
:100E6000012307B58DF807309DF80730012B0ED10F
:100E7000084809F003FD38B94FF48041054809F0EE
:100E800053FC003018BF012003B05DF804FB0220C2
:100E9000FAE700BF8C0E002407B5009313460A46FC
:100EA0000146044809F00CF8003018BF012003B0D7
:100EB0005DF804FB8C0E002407B5009313460A4628
:100EC0000146044809F0CAF8003018BF012003B0F9
:100ED0005DF804FB8C0E002408B5034809F0BAFC49
:100EE000043818BF012008BD8C0E002401460148BB
:100EF00009F008BC8C0E0024704708B5FFF7FCFF12
:100F000008BD704708B5FFF7FCFF08BD10B586B0F7
:100F100010220021002402A811F0E8FA524B534895
:100F20004FF0800ED3F8D82042F00102C3F8D82049
:100F3000D3F8D82002F001020092009AD3F8D8200A
:100F400042F00202C3F8D820D3F8D830446103F04D
:100F500002038461C4610193019B454B0462C46236
:100F6000046380E818404FF40073C3604FF480635B
:100F70000361042343620323836203F095F808B1FD
:100F800001F0DAF8062302A93848029301230394FA
:100F90008DF810408DF81140059303F0ADFB08B1BA
:100FA00001F0CAF800220B20114602F01BFD0B20B5
:100FB00002F060FD00220C20114602F013FD0C200F
:100FC00002F058FD00220D20114602F00BFD0D200D
:100FD00002F050FD00220E20114602F003FD0E200B
:100FE00002F048FD00220F20114602F0FBFC0F200A
:100FF00002F040FD00221020114602F0F3FC102008
:1010000002F038FD00221120114602F0EBFC112005
:1010100002F030FD00222F20114602F0E3FC2F20C9
:1010200002F028FD00223820114602F0DBFC3820B7
:1010300002F020FD00223920114602F0D3FC3920B5
:1010400002F018FD00223A20114602F0CBFC3A20B3
:1010500002F010FD00223B20114602F0C3FC3B20B1
:1010600002F008FD06B010BD00440258200500241F
:1010700010040240134A0023F0B5C2F88430BFF3D5
:101080004F8FD2F8803043F6E076C3F3C904C3F340
:101090004E33A5075B0103EA060E284621464EEAB9
:1010A0000007013900F14040C2F874724F1CF6D1BC
:1010B000203B13F1200FEED1BFF34F8FBFF36F8FA3
:1010C000F0BD00BF00ED00E030B1002343730360CA
:1010D00003814381C3814360704700207047000053
:1010E00070B500228CB00C466B4611466E4664B952
:1010F0000F4D6A60AE60FFF7BDFF224629460D48DE
:1011000003F0A5FE20460CB070BD04290DD0606828
:10111000186060895860024409B143F8043C2468AF
:1011200004B99C6001310C33E1E76FF00B00EAE792
:1011300020060024B805002402F008BC08B50248C7
:1011400004F04EF8002008BDB805002408B5134689
:101150000A460146034803F0E5FF003018BF0120AE
:10116000404208BDB805002408B513460A460146AA
:10117000034804F005F8003018BF0120404208BDC4
:10118000B80500240268304B9A4270B588B059D136
:101190002E480024FFF71AFC2D4B02250B26D3F80E
:1011A000D82003A92B4842F40042C3F8D820D3F832
:1011B000D82002F400420092009AD3F8D82042F4DA
:1011C0008032C3F8D820D3F8D82002F480320192BC
:1011D000019AD3F8D82042F40032C3F8D820D3F8CB
:1011E000D830049503F40033059406950293029BCE
:1011F00086230796039304F0F5FF322303A91648CC
:101200000393049505940695079604F0EBFF4FF4BD
:10121000605303A911480393049505940695079616
:1012200004F0E0FF224621463D2002F0DBFB3D209A
:1012300002F020FC3E202246214602F0D3FB3E2055
:1012400002F018FC08B070BD00800240E0330108D5
:1012500000440258000002580008025800040258D6
:101260002DE9F34704464A48FFF7B0FB34B9494B30
:101270004FF407724849494811F0ECF97323484884
:10128000484E002584F830307423DFF83C81B146A5
:1012900084F83130444BDFF834A16361434BA361E0
:1012A000FFF794FB424B30468DF8005033608023AB
:1012B0008DF803508DF80130E1238DF804508DF83E
:1012C000023001238DF8055033723A4BC6F804D032
:1012D000F360394B336140F2F453736103F0BCFFA8
:1012E000342207462946404611F000F92123C8F868
:1012F00000304FF44033C8F81430DFF8D4804FF496
:10130000BF6200232946484602FB05A203F050FDB8
:1013100014232A4A03FB05830135042D1A61EED1FB
:1013200006232749274884F8283073681A7884F8F8
:1013300029205A7884F82A209A7884F82B20DA78A1
:1013400084F82C201A7984F82D205B7984F82E30CB
:1013500040F2DC53E38494F82F3043F00A0384F81E
:101360002F3001F009FD174801F01AFD67B920463A
:101370000DF068FE20460DF081FE0A4803F034FDB2
:10138000002002B0BDE8F08700F0D6FEF8E700BF0D
:10139000F1330108023401081C3401082A34010821
:1013A00052340108B8050024FDDB0008E1100008F4
:1013B000008002406000043000000430C9100008C2
:1013C00000000024980500242006002400020430B8
:1013D0005406002402F0BABA08B5034903480CF0D9
:1013E00005F9034B187008BDA5060024AC350108AB
:1013F000A406002408B515480122154B02214261BC
:1014000003600023826142628262C262026304223C
:101410008360C360037443748374C1610162436376
:101420008363C363036442648364C2640365426587
:101430008365C36503664366826604F04DF818B1A0
:10144000BDE8084000F078BE08BD00BF0C0B0024CA
:1014500000A0004008B515480122154B0221426149
:1014600003600023826142628262C26202630422DC
:101470008360C360037443748374C1610162436316
:101480008363C363036442648364C2640365426527
:101490008365C36503664366826604F01DF818B170
:1014A000BDE8084000F048BE08BD00BFA80B0024FE
:1014B00000A4004010B514228AB0044600210DEBB0
:1014C000020011F013F82368414A934243D1414A84
:1014D00013680133012B13600CD13F4BD3F8EC2080
:1014E00042F48072C3F8EC20D3F8EC3003F480733C
:1014F0000193019B384B05A93848D3F8E02042F00E
:101500000802C3F8E020D3F8E03003F008030293A8
:10151000029B03230593022306930923099304F0F6
:1015200061FE00221320114602F05CFA132002F043
:10153000A1FA00221520114602F054FA152002F0FB
:1015400099FA00223F20114602F04CFA3F2002F0A7
:1015500091FA0AB010BD224A9342FAD11D4A13688B
:101560000133012B13600CD11B4BD3F8EC2042F458
:101570008072C3F8EC20D3F8EC3003F4807303934B
:10158000039B154B05A91748D3F8E02042F002024F
:10159000C3F8E020D3F8E03003F002030493049B87
:1015A00060230593022306930923099304F01AFE8E
:1015B00000221420114602F015FA142002F05AFA03
:1015C00000221620114602F00DFA1620B7E700BFE0
:1015D00000A00040BC00002400440258000C025847
:1015E00000A40040000402582DE9F04F8FB01422EF
:1015F0000021924F09A8924D10F078FF914B384688
:101600001021D3F8E0200024DFF84082012642F0C8
:101610001002DFF83C924FF0030ADFF838B2C3F84B
:10162000E020D3F8E02002F010020392039AD3F8EE
:10163000E02042F00402C3F8E020D3F8E02002F0FA
:1016400004020492049AD3F8E02042F08002C3F826
:10165000E020D3F8E02002F080020592059AD3F84A
:10166000E02042F00102C3F8E020D3F8E02002F0CD
:1016700001020692069AD3F8E02042F00202C3F873
:10168000E020D3F8E02002F002020792079AD3F894
:10169000E02042F00802C3F8E0200122D3F8E03055
:1016A00003F008030893089B04F002FF2846012278
:1016B0004FF4006104F0FCFE284600224FF4007154
:1016C00004F0F6FE40460022102104F0F1FE4846E8
:1016D0000022C12104F0ECFE384600224FF4706174
:1016E00004F0E6FE01222846032104F0E1FE7823FF
:1016F00009A9284609930A940B9604F073FD4EF24B
:101700000C0309A94846CDF828A009930B9404F0CE
:1017100069FDC12309A948464FF0090909930A96B2
:101720000B940C9404F05EFD09A93846CDF8249082
:10173000CDF828B00B9404F055FD40F2032309A91D
:10174000414809930193CDF828A00B9404F04AFD79
:10175000019B09A928460A9609930B940C9404F05E
:1017600041FD4FF4044309A92846CDF828A0099368
:101770004FF0100A0B9404F035FD4FF4407309A9A3
:101780004046CDF828B009930B9404F02BFD4CF2A1
:10179000084309A940460A9409930B9404F022FDDA
:1017A0004FF4706309A938460A9609930B940C9478
:1017B00004F018FD4FF4805309A938460A940993A0
:1017C0000B9404F00FFD09A940464FF00208CDF834
:1017D00024A00A960B940C9404F004FD09A9384641
:1017E000CDF824A00A960B94CDF8308004F0FAFCD2
:1017F0004FF4006309A928460A9609930B94CDF883
:10180000308004F0EFFC22462146062002F0EAF880
:10181000062002F02FF922462146484602F0E2F85F
:10182000484602F027F922462146172002F0DAF84E
:10183000172002F01FF90FB0BDE8F08F000002582A
:10184000001002580044025800040258000C0258CC
:10185000000802580000111108B512480122124B6D
:101860001249C26080E80A0000238360036143617B
:101870008361C361036205F0EFFC08B100F05CFC1A
:101880000021084806F02CFA08B100F055FC0021B0
:10189000044806F06DFA18B1BDE8084000F04CBCF1
:1018A00008BD00BFF40C0024FFECC010001C005861
:1018B00010B588B004461422002103A810F016FECB
:1018C00022681C4B9A4233D11B4C03A91B48D4F805
:1018D000E03043F00203C4F8E030D4F8E03003F025
:1018E00002030193019B4FF4C073039312230493EB
:1018F0000623079304F076FCD4F8F43000225F202E
:1019000043F080031146C4F8F430D4F8F43003F007
:1019100080030293029B02F065F85F2002F0AAF8B0
:1019200000226020114602F05DF8602002F0A2F86B
:1019300008B010BD001C00580044025800040258B2
:10194000F0B5EE232C4F2D4EC020FB70FF232C4D05
:10195000A8211922337073700024B370FD2385B061
:1019600028706970AA70EB7038707970BA70F47072
:101970000CF048FB7B783A781B042249687843EAEC
:101980000263FA7800041343BA7843EA02233278F8
:101990001BBA0B6073781B0443EA0263F2781343AB
:1019A000B27843EA0223184A1BBA13602B7840EA44
:1019B0000360EB781843AB78144D40EA0320144BD6
:1019C00000BA18601348009402901348019028460A
:1019D0000DF0F4FA28460DF02FFB95F82F3028462D
:1019E0005B0704D505B0BDE8F0400DF02BBB05B09A
:1019F000BDE8F0400DF035BB900D00248C0D0024A7
:101A0000500D0024880D0024940D0024540D002452
:101A1000980D002425DD00086112000810B5044669
:101A20000078002840F0A1806378302B0FD1A37894
:101A3000DB2B0CD1E378022B09D12379AF2B06D114
:101A40006379622B03D14A48FEF7C0FF0120237857
:101A500093B96378302B0FD1A378DB2B0CD1E378CB
:101A6000022B09D12379AF2B06D16379622B03D1E5
:101A70004048FEF7ABFF0120A37993B9E379302BFF
:101A80000FD1237ADB2B0CD1637A022B09D1A37AF5
:101A9000B02B06D1E37A152B03D13748FEF796FF1A
:101AA0000120A37993B9E379302B0FD1237ADB2B73
:101AB0000CD1637A022B09D1A37AB02B06D1E37A39
:101AC000152B03D12D48FEF781FF0120237B082B26
:101AD00006D1637B062B03D12948FEF777FF01204F
:101AE000A37EC02B0CD1E37EA82B09D1237F192B19
:101AF00006D1637FED2B03D11D48FEF767FF012060
:101B0000A37EC02B0CD1E37EA82B09D1237F192BF8
:101B100006D1637FEF2B03D11648FEF757FF012054
:101B2000A37FC02B0ED1E37FA82B0BD194F82030DC
:101B3000192B07D194F82130ED2B03D10E48FEF775
:101B400045FF0120A37FC02B0ED1E37FA82B0BD133
:101B500094F82030192B07D194F82130EF2B03D1C2
:101B60000648FEF733FF012010BD00206FE700BFDD
:101B700062340108643401086634010864410108D4
:101B80006834010870B5CCB04C2200210AA810F0CE
:101B9000ADFC2022002102A810F0A8FCBC220021EC
:101BA0001DA810F0A3FC354BDA6822F00402DA60BD
:101BB000002201929A6942F440429A619A6902F4C1
:101BC00040420192019A9A699204FCD5292300248B
:101BD000022508260A934FF480330AA813950B9325
:101BE000012314950F9310930423179515938023C5
:101BF0001896169319951A961B941C9406F02EFBB2
:101C00003F234FF4806229460DEB06000293032325
:101C1000089203934023049406930793099305962F
:101C200006F0A0FE164B1DA82F941D934FF0805375
:101C3000309438934FF4401334943E934FF4007330
:101C4000359449933A943C94429407F05DF90D4BD6
:101C50001A6842F400721A601A6842F001021A60AF
:101C6000D3F8002442F40072C3F80024D3F800240F
:101C700042F00102C3F800244CB070BD0048025885
:101C800012B0470200300140024A1368013313606A
:101C9000704700BFC0000024024B1A68024B1A6054
:101CA000704700BFC0000024C4000024054A064B52
:101CB00019681368CB1A834226BF012011600020E7
:101CC000704700BFC4000024C0000024024B1A6803
:101CD000024B1A60704700BFC0000024C8000024F7
:101CE000054A064B19681368CB1A834226BF0120A8
:101CF00011600020704700BFC8000024C00000240D
:101D0000F0B595B010220021002410A8012510F094
:101D1000EDFB032601F0D8FEC54B10A88DF840500E
:101D2000119307238DF841408DF848308DF84940D4
:101D30008DF84A408DF84B608DF84C408DF84D4041
:101D40008DF84E408DF84F5001F0E0FEB94B10A8D1
:101D50008DF8405011930D238DF841508DF8483087
:101D60008DF849408DF84A408DF84B408DF84C4035
:101D70008DF84D408DF84E508DF84F4001F0C6FE65
:101D8000022310A88DF840508DF84130AA4B8DF8F1
:101D9000494011930C238DF84A408DF848308DF856
:101DA0004B608DF84C408DF84D508DF84E508DF8AD
:101DB0004F4001F0ABFE042001F096FEBFF34F8FC1
:101DC000BFF36F8F9D4BC3F85042BFF34F8FBFF3EC
:101DD0006F8F5A6942F400325A61BFF34F8FBFF3DD
:101DE0006F8FC3F88440BFF34F8FD3F8802043F642
:101DF000E076C2F3C904C2F34E32A507520102EAEB
:101E0000060E284621464EEA0007013900F14040FF
:101E1000C3F860724F1CF6D1203A12F1200FEED1B8
:101E2000BFF34F8F5A6942F480325A61BFF34F8F2C
:101E3000BFF36F8F01F06EFD814EFFF7A3FE814F60
:101E4000FFF7D2FB06F11005FEF776FD00F002FE6B
:101E500000F022FE01224FF400717B4804F028FBC1
:101E600001221021794804F023FB7948FEF784FD14
:101E70007848FEF7ABFD7848FEF7A8FD7748FEF7F7
:101E8000A5FDFFF743F87648FEF7A0FD00F056F9F0
:101E90007448FEF79BFD00F0CFFA7348FEF796FDFD
:101EA00000F0FAFA7148FEF791FDFFF7A3FA7048C7
:101EB000FEF78CFDFFF7CEFA6E48FEF787FDFFF7C1
:101EC000CBFC6D48FEF782FD00F0C8F96B48FEF7C9
:101ED0007DFDFFF781FA6A48FEF778FDFFF730FDD8
:101EE0006848FEF773FD4FF47A7001F035FD6648DF
:101EF000FEF76CFDFFF7D0FEFEF76CFC044663486E
:101F0000FEF764FD2046FEF78AFDC12160486C465D
:101F100004F0E8FA4FF470615E4804F0E3FA4E48CA
:101F2000FEF754FD5C48FEF751FDFEF71DFDFEF780
:101F30004DFD4848FEF74AFD5848FEF747FDFEF7BD
:101F400017FDFEF743FD4348FEF740FD544B554A4D
:101F50001968554B5548B1FBF3F1FEF7A1FD0FCDC4
:101F60000FC40FCD0FC40FCD0FC495E8070084E850
:101F7000070096E80F00FEF709FF3223072210A89A
:101F80008DF8403012234A4C8DF841308DF84430A2
:101F90000323484D8DF8483013238DF842208DF8E7
:101FA000493000238DF84330FEF778FEFEF7ACFC95
:101FB0004FF47A7001F0D0FC01F04CFC01F068FCA9
:101FC000FFF76AFEFFF782FE384605F017FF4FF471
:101FD000FA70FFF785FE10B10020FEF773FC4FF496
:101FE000FA60FFF763FE10B10120FEF76BFC40F2D0
:101FF000EE522F49304801F0BBFB3628064670D917
:102000002D4801F051FBE37D062B40F0868094F8CB
:102010002230012B03D194F82330F62B4ED094F8C4
:102020002430012B79D194F82530F62B75D145E079
:1020300000000430004004300010003000ED00E0EB
:10204000F40C0024400D002400100258000C02582B
:1020500058140024BA3401086A340108BC34010859
:10206000C9340108DA340108E8340108F6340108FB
:1020700006350108163501082435010831350108F7
:10208000403501084E350108543501086435010812
:102090000008025800000258703501088235010816
:1020A000180000249435010840420F009A350108B9
:1020B000001000309C0D0024C80D0024FEF78AFBA0
:1020C00058B394F83D30102B27D12046FEF795FEEB
:1020D00001212046FEF77EFE02462146284601F0F9
:1020E00003FB40F2EE522146284601F041FB362820
:1020F00006460CD9284601F0D7FAE37D062B02D11B
:102100002E20FEF761FC2046FFF788FC60B93246BE
:102110000021204610F0EAF956E72046FFF77EFC42
:102120000028DED03246D8E732462146014801F089
:10213000DBFAECE7C80D00247047704708B50B4880
:10214000C7230B4A4FF0100C80E80C10002301222B
:10215000C360026143618361C361036205F0B2FE43
:1021600018B1BDE80840FFF7E7BF08BD0C0E00241A
:102170000050005270B514228AB0044600210DEBC5
:10218000020010F0B3F922682F4B9A425AD12F4B1C
:102190000224092605A9D3F8D42000252C4842F4AE
:1021A0008042C3F8D420D3F8D42002F480420192B4
:1021B000019AD3F8E02042F01002C3F8E020D3F8EF
:1021C000E02002F010020292029AD3F8E02042F0DE
:1021D0000202C3F8E020D3F8E02002F002020392EA
:1021E000039AD3F8E02042F00802C3F8E020D3F8C5
:1021F000E030069403F00803089409960493049BC6
:102200000423059303F0EEFF40F2044305A91148AF
:102210000593069407950894099603F0E3FF4FF49D
:10222000605305A90C4805930694079508940996F0
:1022300003F0D8FF5C202A46294601F0D3FB5C203E
:1022400001F018FC0AB070BD005000520044025862
:102250000010025800040258000C025808B50A4841
:102260007F220A4B8260FF2203600023C26043602A
:1022700003618361C361436107F02CFD18B1BDE8C0
:102280000840FFF759BF08BD680E00240040005801
:102290000268044B9A4204D1034A136F43F400438B
:1022A00013677047004000580044025810B50123DE
:1022B000054C2370FEF710FE234618B9227802F071
:1022C000FE022270187810BD1400002410B50123FE
:1022D000044C2370FEF7C4FD10B9FFF7E7FF207030
:1022E000207810BD14000024FFF7E0BF08B50846B1
:1022F00011461A464FF0FF33FEF7CEFD20B9FEF728
:10230000EBFD0028FBD108BD012008BD124B10B524
:102310001B788AB01446DB071BD4032903D8DFE8F7
:1023200001F010050B1204200AB010BD01A8FEF741
:10233000DDFD079B236004E001A8FEF7D7FD089BA5
:1023400023800020F0E701A8FEF7D0FD089B5B0A80
:10235000F0E70320E8E700BF1400002408B50846B2
:1023600011461A464FF0FF33FEF7A6FD20B9FEF7DF
:10237000B3FD0028FBD108BD012008BD70B588B0B1
:1023800004461422002103A810F0B0F82268264B5E
:102390009A4246D1254B0C2502240326D3F8D4209B
:1023A0000DEB0501224842F48032C3F8D420D3F863
:1023B000D42002F480320092009AD3F8E02042F058
:1023C0000402C3F8E020D3F8E02002F004020192F6
:1023D000019AD3F8E02042F00802C3F8E020D3F8D5
:1023E000E030049403F00803069607950293029BDD
:1023F0004FF4F853039303F0F5FE042304940024F0
:102400000DEB05010B48039305940696079503F021
:10241000E9FE31202246214601F0E4FA312001F0A4
:1024200029FB08B070BD00BF007000520044025884
:1024300000080258000C025808B515484FF48003F4
:102440001449072280E80A004FF080610023C2602F
:1024500081614FF00051C2624FF08042836003619E
:102460004361C16103624362836242638363C36306
:10247000036443648364C36403654365836508F050
:10248000EBFC18B1BDE80840FFF756BE08BD00BF21
:10249000801000240030014008B515484FF4800337
:1024A0001449072280E80A004FF080610023C260CF
:1024B00081614FF00051C2624FF08042836003613E
:1024C0004361C16103624362836242638363C363A6
:1024D000036443648364C36403654365836508F0F0
:1024E000BBFC18B1BDE80840FFF726BE08BD00BF21
:1024F000F80F002400340140F0B591B006461422D4
:1025000000210BA80FF0F2FF1022002107A80FF006
:10251000EDFF3368924A934240F09A80914B022536
:1025200003270524D3F8F0200BA98F4842F48052EA
:10253000C3F8F020D3F8F02002F480520092009A01
:10254000D3F8D82042F00102C3F8D820D3F8D8201D
:1025500002F001020192019AD3F8E02042F0010258
:10256000C3F8E020D3F8E02002F001020292029AC0
:10257000D3F8E02042F00802C3F8E020D3F8E030BE
:102580000C9503F008030F940E970393039B6023AD
:102590000B9303F027FE80230C95002573480BA9AD
:1025A0000B930F940D95724C0E9703F01BFE714820
:1025B00026234FF0400EE5606561A561E561256267
:1025C000A762E562256384E809404FF480632046F2
:1025D00023610423636201F067FD08B1FFF7ACFDDE
:1025E000654D002725236549B4672846A663EF603B
:1025F0006F61AF61EF612F62E762276385E88A0050
:102600004FF480632B6104236B620323A36201F008
:102610004BFD08B1FFF790FD062307A95648079325
:10262000012308978DF824708DF825700A9302F025
:1026300063F808B1FFF780FD00222320F5671146FB
:10264000AE6301F0CFF9232001F014FA11B0F0BD10
:102650004B4A9342FAD1434B03270BA94948D3F87D
:10266000F0200025484C42F40052C3F8F020D3F883
:10267000F02002F400520492049AD3F8D82042F0D9
:102680000102C3F8D820D3F8D82002F00102059245
:10269000059AD3F8E02042F01002C3F8E020D3F806
:1026A000E0300E9703F010030693069B4FF4E043CF
:1026B0000B9302230C9305230F9303F093FD334AEE
:1026C00053232046A560E5606561A561E56125624B
:1026D000A7622F46E5622563254684E80C004FF487
:1026E000806323610423636201F0DEFC08B1FFF71D
:1026F00023FD062307A924480793012308978DF893
:1027000024708DF825700A9301F0F6FF08B1FFF7E9
:1027100013FD1F4C4FF480621E4B54274FF0400EA8
:1027200022610422F5672046AE636262032284E8D8
:1027300088400023AA62E3606361A361E3612362CE
:10274000EB622B6301F0B0FC08B1FFF7F5FC00224F
:102750005420B4671146A66301F044F9542073E78E
:10276000003001400044025800000258000C02589A
:1027700080110024100002400811002428000240AB
:102780000034014000100258080F002440000240AD
:10279000800F0024580002401C4B07B5D3F8F420EA
:1027A000012042F00202C3F8F4200022D3F8F430F2
:1027B000114603F002030193019B01F013F901207C
:1027C00001F058F900220420114601F00BF9042011
:1027D00001F050F900220520114601F003F905200F
:1027E00001F048F900225120114601F0FBF8512078
:1027F00001F040F900227D20114601F0F3F87D2020
:1028000001F038F903B05DF804FB00BF0044025842
:102810007047FEE7FEE7FEE7FEE770477047704748
:1028200008B501F087F8BDE80840FFF72DBA05F0BC
:1028300001BB03F091BB7047012003F065BE08B5F2
:102840004FF4807003F060FE4FF40070BDE8084064
:1028500003F05ABE082003F057BE000008B5044834
:1028600000F0EDFF0348BDE8084001F011BE00BFD5
:102870009C0D00248011002408B5044800F0E3FFFB
:102880000348BDE8084001F003BE00BF9C0D0024D2
:102890000811002408B5044800F0D5FF0348BDE83E
:1028A000084001F0F5BD00BFC80D0024080F00244A
:1028B00008B5044800F0C3FF0348BDE8084001F034
:1028C000E7BD00BFC80D0024800F0024014801F0BF
:1028D000DFBD00BF68130024014801F0D9BD00BF6F
:1028E000F0120024014801F0D3BD00BFF81100240C
:1028F000014803F0CBB800BF0C0B0024FFF7F8BF72
:10290000014803F0C3B800BFA80B0024FFF7F8BFCD
:1029100008B5064B5B691B0702D5054800F096FF1A
:102920000448BDE8084008F09FBF00BF00300140E8
:102930009C0D00248010002408B5064B5B691B0722
:1029400002D5054800F082FF0448BDE8084008F0C1
:102950008BBF00BF00340140C80D0024F80F0024D5
:10296000014809F0CFB800BF58140024014801F015
:102970008FBD00BFE0130024014808F00DB900BF6F
:102980008C0E0024014801F083BD00BF2005002407
:10299000014801F07DBD00BF60040024014801F042
:1029A00077BD00BFE8030024014801F071BD00BFFE
:1029B0007C0C0024014802F017BB00BFB8050024BE
:1029C000FFF7F8BF08B5044803F060F80348BDE816
:1029D000084003F05BB800BF0C0B0024A80B0024D8
:1029E000014803F031BF00BFD8140024FFF7F8BF3F
:1029F000FFF7F6BF014801F00DB900BFD80400246D
:102A000008B5044803F040FE0348BDE8084007F05D
:102A100021B900BF440C0024580E00247047000068
:102A2000014809F06FB800BF70120024014805F09A
:102A300035BB00BF0C0E0024014804F0D9BE00BF16
:102A4000F40C0024014805F001B900BFF40C002487
:102A500004F038BA08B50E484FF4E13E0D4B0C2295
:102A600080E80840002342618360C36003618361A2
:102A7000C361036243628362C3620363436309F019
:102A80006DFE18B1BDE80840FFF756BB08BD00BF9A
:102A9000701200240078004008B50E484FF4E13E63
:102AA0000D4B0C2280E80840002342618360C36024
:102AB00003618361C361036243628362C362036330
:102AC000436309F04BFE18B1BDE80840FFF734BB83
:102AD00008BD00BF581400240044004070B58EB0FB
:102AE00005461422002109A80FF000FD1022002144
:102AF00005A80FF0FBFC2B687D4A93427CD17D4BEF
:102B000009A97D480026D3F8E8207C4C42F0804299
:102B1000C3F8E820D3F8E82002F080420192019A3D
:102B2000D3F8E02042F01002C3F8E020D3F8E03000
:102B300003F010030293029B4FF4C0730993022326
:102B40000A9307230D9303F04DFB6D484F23E66076
:102B50006661A661E6612662666284E849004FF418
:102B600080632046236101F09FFA08B1FFF7E4FA81
:102B7000062305A961480593012306968DF81C607C
:102B80008DF81D60089301F0B7FD08B1FFF7D4FA86
:102B900040236C67A56350225A4C00265A492046B0
:102BA000E6606661A661E6612662666284E80E0000
:102BB0004FF48063236101F077FA08B1FFF7BCFAA4
:102BC000062305A94F480593012306968DF81C603E
:102BD0008DF81D60089301F08FFD08B1FFF7ACFA86
:102BE000002252202C671146A56300F0FBFE522004
:102BF00000F040FF0EB070BD444A9342FAD13D4B05
:102C000009A943480026D3F8E820424C42F4003298
:102C1000C3F8E820D3F8E82002F400320392039AC4
:102C2000D3F8E02042F00802C3F8E020D3F8E03007
:102C300003F008030493049B6023099302230A937F
:102C400007230D9303F0CEFA33482B23E660666129
:102C5000A661E6612662666284E849004FF48063FB
:102C60002046236101F020FA08B1FFF765FA062338
:102C700005A928480593012306968DF81C608DF858
:102C80001D60089301F038FD08B1FFF755FA0026E2
:102C900040236C672C22A5632049214C84E84E0018
:102CA0004FF48063204666612361A661E661266277
:102CB000666201F0F9F908B1FFF73EFA062305A9AB
:102CC00017480593012306968DF81C608DF81D604A
:102CD000089301F011FD08B1FFF72EFA002226201B
:102CE0002C671146A56300F07DFE262080E700BF1B
:102CF0000078004000440258001002586813002475
:102D000070000240F012002488000240004400409D
:102D1000000C0258F8110024A0000240B800024044
:102D2000E0130024D0F894020FF058BBD0F89402BE
:102D30000FF062BBD0F894020FF071BB7047000037
:102D400008B5D0F8900504F093F803289ABF024B19
:102D5000185C022008BD00BFC035010808B5D0F8D6
:102D6000900504F09BF803289ABF024B185C0220E0
:102D700008BD00BFC035010830B570B1CA6862B186
:102D80008C6854B10B6943B10D6849688560C160B6
:102D9000046142618361002030BD4FF0FF3030BDDF
:102DA00073B5002346680446019366B1A36998474A
:102DB0000546A3699847401BB0F5FA6FF9D901237E
:102DC0000025636027E0836803B19847202300252E
:102DD0002360636901AA12213046984700281DDB51
:102DE000019B03F01F03B3421AD10025266020681F
:102DF0001F2833D87DB923694FF4004229469847EC
:102E000000282EDB636901AA29462068984700281C
:102E10000ADA6FF00405284602B070BD6FF00405B1
:102E20000136202ED5D1E2E7A36998470646019BDB
:102E30001B0402D4002DEED1B8E7A3699847801B8C
:102E4000B0F5FA7F07D8636901AA00212068984786
:102E50000028ECDADDE76FF00105E8E76FF0020526
:102E6000D9E76FF00305D6E714491548D1F8883043
:102E700043F4700310B5C1F88830124B1A6842F061
:102E800001021A6000221A611C68204018609A61D1
:102E9000DA611A629A62DA621A635A639A63DA63CF
:102EA0001A645A64186820F4802018601A66012297
:102EB000054B1A604FF000638B6010BD00ED00E021
:102EC0007FEDF6EA00440258088100512DE9F041F7
:102ED0008EB005461422002109A80FF007FB10222E
:102EE000002105A80FF002FB9848FDF76FFD2B6944
:102EF0001A68974B9A4240F0868096480026FDF764
:102F000065FD954B05244FF00208D3F8F020032708
:102F100009A9924842F48052C3F8F020D3F8F02077
:102F200002F480520092009AD3F8E02042F00102AD
:102F3000C3F8E020D3F8E02002F001020192019AE8
:102F4000D3F8E02042F00802C3F8E020D3F8E030E4
:102F50000D9403F00803CDF828800B960293029B92
:102F600060230C97099303F03DF9802309A97C485D
:102F700009930D94CDF828807A4C0B960C9703F0AA
:102F800031F9794840232621E6606661A661E66151
:102F900084E80B004FF48063204623614FF4003334
:102FA00023620423636201F07FF808B1FFF7C4F8DD
:102FB000062305A96B480593012306968DF81C602E
:102FC0008DF81D60089301F097FB08B1FFF7B4F886
:102FD0002B696648664A9C67A363252380E80C003A
:102FE00000234FF480628360C36043618361C361E7
:102FF0004FF40033026103620423436201F054F88A
:1030000008B1FFF799F82B691A685A4B9A426ED1AA
:1030100059480026FDF7DAFC4F4B584809A9D3F868
:10302000F020574C42F40052C3F8F020D3F8F020BF
:1030300002F400520392039AD3F8E02042F0100207
:10304000C3F8E020D3F8E0300B9603F010030493AC
:10305000049B4FF4E043099302230A9303230C9348
:1030600005230D9303F0BEF8464B4FF0530E204658
:10307000A660E6606661A661E66184E808404FF4F8
:10308000806323614FF4003323620423636201F001
:103090000BF808B1FFF750F8062305A93848059347
:1030A000012306968DF81C608DF81D60089301F0D1
:1030B00023FB08B1FFF740F82B695426324840271C
:1030C000DC674FF48062A363304B026180E8C80084
:1030D0000023C36043618361C3614FF40033036223
:1030E0000423436200F0E0FF08B1FFF725F82869E8
:1030F0004FF480030024072243604FF08063C260D6
:1031000083614FF08043C262C361436303238460E1
:103110008364302304614461046244628462846392
:10312000C46304644464C36404654465846507F04F
:1031300093FE024638B92868A98803F0B9F901203E
:103140000EB0BDE8F0812046FAE700BF67360108FF
:10315000003001407F360108004402580000025848
:10316000000C0258801100241000024008110024B5
:10317000280002400034014088360108001002583F
:10318000080F002440000240800F00245800024035
:1031900030B50D4685B0044600228188006803F0F2
:1031A00087F9AA074FEA850303A9206903F47C7312
:1031B0004CBF43F4405343F440631A0A8DF80D307A
:1031C000FF238DF80C2002AA8DF80E308DF80F30F9
:1031D00041F288330093042308F07AF82068012232
:1031E000A18803F065F99DF80B009DF80A3043EAC9
:1031F000002005B030BD73B50E46044615468188E3
:103200000022006803F054F9B2074FEA86038DF8F4
:1032100006504FEA1525206903F47C738DF807509A
:103220004CBF43F4405343F4406343F480431A0AD1
:103230008DF805304FF4FA638DF8042004220DEB6D
:10324000020107F01DFF0122A188206803F030F978
:1032500002B070BD70B5144605460E46FFF798FFE4
:1032600040EA04022846314692B2BDE87040FFF7BA
:10327000C2BF70B5144605460E46FFF789FF20EA27
:1032800004022846314692B2BDE87040FFF7B3BF52
:1032900010B5044681B102222621FFF7DBFF012091
:1032A00000F05AFB022220462621FFF7E2FF012010
:1032B000BDE8104000F050BB01222621FFF7CAFFF5
:1032C000012000F049FB0122EDE74FF4005290216C
:1032D000FFF791BF2DE9F84F0446FFF7F7FD0028EF
:1032E00000F0F88000F032FBDFF818928046DFF83B
:1032F00018A27D4F00212046FFF7CAFF00F026FBF1
:103300008346C0212046FFF743FF05464846FDF7A8
:103310005DFB5046FDF75AFB2846FDF79FFB3846FC
:10332000FDF754FB25F00F0600F010FBA0EB0B009F
:103330000A2840F2D18000F009FBA0EB08006428C5
:103340000BD96A48FDF742FB6948FDF73FFB284669
:10335000FDF784FB3846FDF739FBB6B248F670033B
:103360009E42C7D16348FDF731FB6348FDF72EFB52
:103370002846FDF773FB5C48FDF728FB637E227E41
:103380001021204643EA0222FFF735FFE37DA27DAC
:103390001221204643EA0222FFF72DFF637D227DA2
:1033A0001421204643EA0222FFF725FF1021204680
:1033B000FFF7EEFE122105462046FFF7E9FE142135
:1033C00006462046FFF7E4FE07464C48FDF7FEFAA6
:1033D000C7F30F20FDF70FFB4948FDF7F7FAF8B2E6
:1033E000FDF709FB4648FDF7F1FAC6F30F20FDF79C
:1033F00002FB4348FDF7EAFAF0B2FDF7FCFA404859
:10340000FDF7E4FAC5F30F20FDF7F5FA3C48FDF7A8
:10341000DDFAE8B2FDF703FB4FF480428421204639
:10342000FFF7E9FE4FF4F77270212046FFF7E3FE45
:103430004FF4804286212046FFF7DDFE01229C21C9
:103440002046FFF7D8FE47F6F04274212046FFF7EA
:10345000D2FE962276212046FFF7CDFE4FF40C7265
:1034600082212046FFF7C7FE042220212046FFF7D5
:10347000C2FE4FF40052F6212046FFF7EBFEF62184
:103480002046FFF785FE830404D42022F62120463F
:10349000FFF7EFFE4FF6FF7292212046FFF7ABFEDB
:1034A0004FF4C062B0212046FFF7A5FE4FF48062C2
:1034B000B2212046FFF79FFE2046FFF706FF0122BC
:1034C00070212046FFF7C6FE204601227421FFF737
:1034D000C1FE0120BDE8F88FB2B248F670039A42EF
:1034E0007FF40FAF27E700BF243601082A36010812
:1034F00030360108483601084E3601085A360108B0
:10350000653601081E3601083E36010870B4838016
:10351000039B059D83600023BDF8106001618681D7
:10352000026083832B684361AB88038370BCFFF721
:10353000D1BE00229021FFF75EBE4FF6FF729221AE
:10354000FFF759BEF0B5044685B00F461646002A6F
:103550003AD081880022006802F0AAFF06F0030337
:103560009DB215B1C3F10405EDB204A980230B226D
:10357000206901F80C3D4FF4FA6307F081FD3544F2
:1035800000233946AEB2E3774FF0553332463B6005
:103590004FF4FA63206908F045F860B10C48FDF774
:1035A00015FA0C48FDF712FA40F2C330FDF717FA8E
:1035B0000948FDF70BFA094B00BF013BFCD1012282
:1035C000A188206802F074FF304605B0F0BD00BF4E
:1035D000D4350108013601080436010880841E0034
:1035E000F7B5144605460F4600228188006802F0B0
:1035F0005FFF002C50D0C023C4F30A0614F003046C
:1036000069468DF80030AB8B18BF06F003042869BB
:1036100003F1010203F03F0318BFC4F104048DF865
:1036200003608DF801304FF00003AA834FF00502CC
:103630008DF802304FEA162318BFE4B28DF804303B
:103640004FF4FA6307F01CFD60B11448FDF7BEF9B2
:103650001348FDF7BBF940F25340FDF7C0F911489C
:10366000FDF7B4F94FF4FA6332193946286907F0C7
:1036700007FD60B10948FDF7A9F90948FDF7A6F96A
:1036800040F28D40FDF7ABF90648FDF79FF90122A6
:10369000A988286802F00CFF03B0F0BDD4350108FA
:1036A000013601080436010838B547F6FE74742166
:1036B0000546FFF76DFD0440742128462246FFF7BA
:1036C0009AFD44F4004228467421FFF794FD2246F7
:1036D00028467421FFF78FFD284644F0010274212B
:1036E000FFF789FD204638BD70B515460E46782196
:1036F0000446FFF74DFD05F10802C0F30C0092B23D
:10370000904213D29E212046FFF775FD02228021B0
:103710002046FFF79FFD92212046FFF739FD420624
:10372000F9D5402292212046FFF794FD2046FFF76D
:1037300000FF082282212046FFF78CFD2A463146F1
:103740002046FFF74DFF082282212046FFF791FD1A
:10375000012280212046FFF77DFD80212046FFF7D2
:1037600017FDC307F9D42046BDE87040FFF7ADBD93
:103770002DE9F0478946922104469246FFF708FD5D
:1037800010F4005512D02046FFF7D3FE4FF400523C
:1037900092212046FFF75EFD9C212046FFF7F8FCB2
:1037A000C0F30F252DB92046FFF78FFD2846BDE851
:1037B000F0872F4600257C212046013FFFF7E8FCDB
:1037C0000304BFB204D543F6174810EA08080AD02C
:1037D000012282212046FFF73DFD002FEBD120463C
:1037E000FFF7ABFEDFE77E212046FFF7D1FCC0F3F9
:1037F0000B05002DECD0EE1C26F00306B6B25645A4
:10380000E6D8042DE4D9204640F2FF328621FFF7A6
:1038100030FD204618228221FFF71CFD324641462A
:1038200048460EF063FE324649462046FFF78AFEC0
:103830000822054682212046FFF71BFDCDE7012324
:1038400080F8203070470123C3777047012380F848
:10385000213070477FB50A4A04AB0A4910680293C9
:10386000002392880490ADF8142001930093102354
:10387000054A0648FFF74AFE07B05DF804FB00BFA3
:103880000433010880100024000002589C0D00241D
:103890007FB50A4A04AB0A49106802930023928854
:1038A0000490ADF81420019300934FF40063054A8F
:1038B0000548FFF72BFE07B05DF804FB0A3301084B
:1038C000F80F002400100258C80D002438B50E4B24
:1038D00005460E4A18784FF47A73B3FBF0F310687C
:1038E000B0FBF3F000F0DAF8044658B90F2D09D810
:1038F000024629464FF0FF3000F074F8044B204692
:103900001D6038BD012038BD2000002418000024AF
:103910002400002410B5032000F046F80020FFF733
:10392000D5FF044618B9FEF737FF204610BD012425
:10393000FBE70000034A044B11681B780B4413603B
:10394000704700BFCC00002420000024014B186801
:10395000704700BFCC00002438B50446FFF7F6FFDF
:103960000546631C1EBF044B1B78E418FFF7EEFFEF
:10397000401B8442FAD838BD2000002430F40003F4
:1039800010B5044604D040F217210548FEF7D5FBD8
:10399000044B586820F460002043586010BD00BFFD
:1039A0009136010800040058C31E042B10B50446CC
:1039B00003D9A2210948FEF7C0FB094A2402D368B3
:1039C00004F4E06423F4E0631B041B0C43F0BF63C6
:1039D00043F400331C43D46010BD00BFCB36010854
:1039E00000ED00E00F2A70B504460E46154603D9D7
:1039F000BA211D48FEF7A1FB0F2E03D9BB211A489F
:103A0000FEF79BFB194B0120D968C1F30221C1F1DC
:103A100007030A1D042B28BF0423062A00FA03F219
:103A20008CBF03390021002C02F1FF3200FA01F0B3
:103A300002EA060200F1FF3002FA01F205EA00058F
:103A400042EA05024FEA021207DB04F16044D2B2F7
:103A500004F5614484F8002370BD04F00F04D2B271
:103A6000034B1A5570BD00BFCB36010800ED00E0D6
:103A700014ED00E0002803DACE210648FEF75DBB16
:103A80004209012300F01F0003FA00F0024B43F843
:103A900022007047CB36010800E100E00138B0F1A8
:103AA000807F0AD2064BF021064A5860002082F837
:103AB0002310072298601A6070470120704700BFEA
:103AC00010E000E000ED00E0BFF35F8F044A536AAE
:103AD00023F4803353620022024B5A60704700BFC8
:103AE00000ED00E090ED00E0064A40F00100064BDA
:103AF0005860536A43F480335362BFF34F8FBFF370
:103B00006F8F704700ED00E090ED00E038B543782E
:103B100004460F2B04D940F23D113B48FEF70DFB44
:103B20002378012B04D94FF49F713748FEF705FB2A
:103B30006278364B9A601D462278002A60D0237B3B
:103B4000012B04D94FF4A3712F48FEF7F6FAE37A5C
:103B5000032B07D9053B012B04D940F247112A4812
:103B6000FEF7EBFAA37A022B04D94FF4A47126488E
:103B7000FEF7E3FA637B012B04D940F24911224896
:103B8000FEF7DBFAA37B012B04D94FF4A5711E4885
:103B9000FEF7D3FAE37B012B04D940F24B111A480C
:103BA000FEF7CBFA637AFF2B04D14FF4A6711648C7
:103BB000FEF7C3FA237A043B1B2B04D940F24D11C4
:103BC0001148FEF7BAFA6368EB60E37A227B1B06C2
:103BD00043EA027322781343A27A43EAC243627B28
:103BE00043EA8243A27B43EA4243E27B43EA024345
:103BF000627A43EA0223227A43EA42032B6138BD08
:103C0000DA601A6138BD00BFCB36010890ED00E0E4
:103C1000704770470368D969DA6970B58D07044643
:103C200001D4D0075FD5626932F0180022F0080194
:103C30005AD194F84120022A40F0D880DA69D1079D
:103C400021D59A69D2071ED5E28D616A92B251F8E8
:103C500022209A60E28D013292B2E285E28D92B228
:103C600051F82220618E9A60E28D013292B2E28593
:103C7000E28D92B2914206D15A69204622F00102A9
:103C80005A61FFF7C5FF2368DA6996072BD59A6951
:103C9000950728D5D868228EA16A92B241F82200F1
:103CA000228E013292B22286D868228E92B241F8D8
:103CB0002200228E618E013292B22286228E92B230
:103CC000914210D15A6922F002025A611A6822F414
:103CD00000421A60002384F84030012384F8413008
:103CE0002046FFF796FF70BD202902D0302A40F011
:103CF000828094F84120022A78D15A68900734D5FE
:103D0000E28D618E92B28A422FD2E28D606A92B2C7
:103D100050F822209A60E28D013292B2E285E28D63
:103D200092B250F822209A60E28D013292B2E2857E
:103D3000E28D92B250F822209A60E28D013292B266
:103D4000E285E28D92B250F822209A60E28D013233
:103D500092B2E285E28D92B2914206D15A69204632
:103D600022F001025A61FFF753FF23685A68510796
:103D7000B9D5228E618E92B28A42B4D2DD68228E8B
:103D8000A06A92B240F82250228E013292B222866C
:103D9000DD68228E92B240F82250228E013292B219
:103DA0002286DD68228E92B240F82250228E0132A5
:103DB00092B22286DD68228E92B240F82250228E84
:103DC000013292B22286228E92B291428BD15A69EE
:103DD00022F002025A61012284F841201A6822F47A
:103DE00000421A60002384F8403079E7636C43F0A6
:103DF0000803636470BDB1F5002F7FF474AF1A68D7
:103E000012F4803262D0A28DE16992B291421AD14D
:103E10005A6922F001025A611A6822F400421A60BB
:103E2000022262631A6822F440321A601A6842F46D
:103E300000321A605A6942F003025A611A6842F469
:103E400000421A6070BDA28D92B28A1A032A08D865
:103E5000002201F003018A4229D30021032A32D92A
:103E600070BDA28DA16992B251F822209A60A28DF4
:103E7000013292B2A285A28D92B251F822209A60AC
:103E8000A28D013292B2A285A28D92B251F8222067
:103E90009A60A28D013292B2A285A28D92B251F89F
:103EA00022209A60A38D01339BB2A38570BDA08DA3
:103EB0000132A56980B255F820009860A08D0130CC
:103EC00080B2A085C7E799600132C7E7618E49B922
:103ED0005A6922F003025A61012384F8401084F8E1
:103EE000413070BDE08D80B2081A032837DDE28DC5
:103EF000606A92B250F822209A60E28D013292B24A
:103F0000E285E28D92B250F822209A60E28D013271
:103F100092B2E285E28D92B250F822209A60E28D50
:103F2000013292B2E285E28D92B250F822209A607C
:103F3000E28D013292B2E285E28D92B2914206D1D7
:103F40005A69204622F001025A61FFF761FE238E72
:103F5000618E9BB28B42BFF4C6AE23680EE711F0B0
:103F600003053FF4C0AEAA42284618D30022013010
:103F70009A600428FBD15A6922F001025A615A68FA
:103F8000520718D4228E92B291423FF6ACAE5A69D3
:103F900022F003025A61012384F8413022E7E08DC8
:103FA0000132666A80B256F820009860E08D0130D8
:103FB00080B2E085D7E7A56ADE680138228E92B22A
:103FC00045F82260228E02F1010292B22286F3D1DC
:103FD000D8E7000003681821DAB223F47F73103A9F
:103FE00023F00303B2FBF1F20449032A895C88BF82
:103FF0000433C1658365806D704700BF4A3701088F
:104000000168134B0B448C2BCBB210D81422083B05
:10401000B3FBF2F303F1B05202F5164292000266CE
:104020000C4A4266012202FA03F3836670471822A3
:10403000103BB3FBF2F3084A0A44A82A98BF08339E
:1040400003F1805202F5024292000266034AE8E759
:10405000F8ABFDA780580258F0FBFDBF8008024076
:10406000027910B5541E072C0DD80368094919446C
:104070008C2909D8084B13449B00C366074B036780
:104080000123A340436710BD054B13449B00C36647
:10409000044BF4E7F8ABFDA73F96001640590258D1
:1040A0003F8200104009024070B50446FFF74EFC05
:1040B0000546002C00F031812368A84A934249D07C
:1040C0001832934246D01832934243D0183293426A
:1040D00040D0183293423DD0183293423AD0183231
:1040E000934237D01832934234D002F5567293423D
:1040F00030D0183293422DD0183293422AD0183241
:10410000934227D01832934224D01832934221D0C0
:10411000183293421ED0183293421BD0904A9342D9
:1041200018D01432934215D01432934212D0143264
:1041300093420FD0143293420CD01432934209D0E0
:104140001432934206D01432934203D0DE218548C4
:10415000FDF7F3FFA36833F0400205D0802B03D0B6
:10416000DF218048FDF7E9FFE36833F4007303D0F3
:10417000E0217C48FDF7E1FF236933F4806303D03D
:10418000E1217848FDF7D9FF636933F4006206D076
:10419000B3F5805F03D0E2217248FDF7CEFFA3693B
:1041A00033F4005206D0B3F5804F03D0E3216D48BD
:1041B000FDF7C3FFE36933F0200206D0B3F5807F3B
:1041C00003D0E4216748FDF7B8FF236A33F4403396
:1041D00003D0E5216348FDF7B0FF2368624E9919CB
:1041E000B1F5956F00F2C4806368732B03D9EA219F
:1041F0005C48FDF7A2FF636A33F0040303D0EB21B0
:104200005848FDF79AFF636AB3B1A36A032B03D939
:10421000F0215448FDF791FFE36A33F0C07303D0F7
:10422000F1215048FDF789FF236B33F4C00303D01D
:10423000F2214C48FDF781FF002384F8343002233B
:1042400084F8353023681A6822F001021A60216868
:104250000B68D80757D40B68444DA2681D40E3682B
:10426000A06913432269134362691343E26903435C
:104270001343226A1343626A042A43EA050301BF17
:10428000266BE56A35432B43042A0B604B6923F008
:10429000070343EA02030CD1A26AE56A134345B15E
:1042A00000283CD1012A4BD001D3022A01D1EA01D6
:1042B00049D44B612046FFF78DFEE26D3F239340CA
:1042C000836020460025FFF79BFEA368226E802BAB
:1042D00004BF002363606368D9B2013B1160072B00
:1042E000626EA16E516000F284802046FFF7B8FE36
:1042F000E36E626F1D60236F5A60002001236065CA
:1043000084F8353070BDFFF721FB401B05289ED98E
:1043100020236365032384F83530012070BDB0F598
:10432000005F16D1032AC4D801A050F822F000BFC4
:1043300047430008AF4200084743000841430008D4
:10434000B5F1C07FB5D140230120636584F8350005
:1043500070BD022AF7D9032AA8E700BF1000024067
:10436000085402580C370108F0FFFDBF3F8010FED3
:10437000224D2B448C2B3AD86368112B04D94FF46F
:10438000AA711F48FDF7D9FE00232268A16884F8AE
:1043900034300223402984F83530166826F4FF466D
:1043A00026F0700621D0802914BF00204FF48040F1
:1043B00023691544E168DB0843EAD103616943EAF4
:1043C000D103A16943EAD103216A43EA1113E169E8
:1043D000C908334301F020010B4303431360142247
:1043E000B5FBF2F5AD00E5656BE71020E0E7402393
:1043F0008FE7E566256765677FE700BFF8ABFDA738
:104400000C37010810B528B190F83530022B03D0D5
:1044100080234365012010BD03681B4A1A44B2F58E
:10442000956F08D8042280F835201A6822F001021E
:104430001A60002010BD1A6822F00E021A601A6875
:1044400022F001021A60026E136823F48073136075
:104450000123C26D93400D4A5360436E826E5A60D1
:10446000C36E33B11A6822F480721A60036F426F10
:104470005A600123002480F83530036D80F8344001
:10448000002BD6D09847D4E7F0FFFDBF0054025868
:1044900000232DE9F341924D044601930368866D94
:1044A0005A19D6F80080B2F5956F00F2C0808D4A97
:1044B000C16D176808228A4018EA020F0BD01868ED
:1044C000400708D5186820F004001860B260626DDB
:1044D00042F001026265844A8A4018EA020F07D05E
:1044E0005869000604D5B260626D42F0020262654E
:1044F0007E4A8A4018EA020F07D01868800704D560
:10450000B260626D42F00402626510228A4018EACD
:10451000020F0FD0196809070CD5B2601A68500352
:104520003FD51B68190301D4236C00E0A36C0BB1C9
:1045300020469847E06D2021814018EA010F41D0C4
:1045400023685A19B2F5956F1A6894BFC2F3001226
:10455000C2F34002002A35D0B16094F83520042A15
:104560001A6826D122F016021A605A6922F08002D7
:104570005A61226C0AB9A26C1AB11A6822F00802B8
:104580001A603F238340B360002384F83430012352
:1045900084F83530236D0BB12046984702B0BDE852
:1045A000F0811A68D205BFD41A6822F008021A6096
:1045B000BAE756032CD51B68180336D4636C0BB1CD
:1045C00020469847636D002BE8D0636DD9071DD551
:1045D000042384F8353023681A6822F001021A6037
:1045E0004FF41652B7FBF2F7019A0132974201924B
:1045F00002D31A68D207F7D41B680022DE0784F8BA
:1046000034204CBF0323012384F83530E36CC2E728
:104610001A6812F4807208D1196821F0100119602B
:10462000012384F8342084F83530E36BC7E7304A3F
:104630001A448C2AB2D82F4A0421C06D15688140D3
:10464000294212D019684D070FD51A68900603D475
:104650001A6822F004021A60264A0423E06D5168A9
:1046600083400B435360236C95E71168022282401C
:104670000A4218D01A68910715D51A6812F020025C
:1046800008D1196821F00A011960012384F8342047
:1046900084F83530174A0223E06D516883400B439C
:1046A0005360E36B77E7134908220D6882402A4282
:1046B0003FF474AF1A6812077FF570AF1A6822F0E2
:1046C0000E021A600122E36D486802FA03F3034305
:1046D0004B600023626584F8343084F8352095E718
:1046E000F0FFFDBF180000240100800004008000DE
:1046F000F8ABFDA700540258F8B56A4A04460368AF
:104700000D4693424AD01832934247D01832934212
:1047100044D01832934241D0183293423ED01832DE
:1047200093423BD01832934238D01832934235D05E
:1047300002F55672934231D0183293422ED018327D
:1047400093422BD01832934228D01832934225D06E
:104750001832934222D0183293421FD0183293421B
:104760001CD0514A934219D01432934216D01432BD
:10477000934213D01432934210D0143293420DD08E
:10478000143293420AD01432934207D01432934227
:1047900004D040F25D114548FDF7CFFC2B7A012B88
:1047A00004D94FF4AF714148FDF7C7FC6B7A012B78
:1047B00004D940F25F113D48FDF7BFFCEB68013BB7
:1047C0001F2B04D94FF4B0713848FDF7B6FC2B7A93
:1047D000012B5BD16B6833F4C02304D04FF4B2716A
:1047E0003248FDF7AAFC2268314B1344B3F5956FAC
:1047F0002B6846D8072B04D94FF4B4712B48FDF72A
:104800009CFC95E8011094F83530012B42D194F8C6
:104810003430012B43D0266E4FF0F85E336823F41A
:104820008133336033689EFAAEFE4FF47807BEFAE8
:104830008EFE97FAA7F74FF48031B7FA87F791FA0F
:10484000A1F14FF40072B1FA81F192FAA2F200FAEA
:104850000EFEDBB2E868B2FA82F243EA0C030138DA
:1048600043EA0E03B8400343287A00FA01F100201E
:104870000B43697A01FA02F21343336084F834007F
:10488000F8BD0F2BBDD94FF4B671B7E74FF0000C50
:104890006046B8E74FF4006301206365F8BD02206D
:1048A000F8BD00BF100002400854025852370108FA
:1048B000F0FFFDBF8B680A6891F804C01A430B7CB7
:1048C000002B2DE9F04F08BF4FF4002385B018BF2F
:1048D000002391F80CE04F7B00934B7C8E7B002BE8
:1048E000CD7B8C7C0CBF4FF40033002391F81C90DF
:1048F00001934B6991F81DB01A438B6913438A7F6A
:10490000002A0CBF4FF4806200220292CA7F0392F9
:1049100091F82020002A0268486AD2F800A008BF57
:104920004FF4807843EA0003C86A2AF07F4A18BF30
:104930004FF00008034303982AF47B0A2AF4FE4A46
:104940002AF07C0A43EA0A0343EACC6343EACE53E3
:1049500043EA875343EA465343EA055343EA044391
:1049600043EA093343EACB2391F828B043EA4023D2
:10497000009843EA0B13034301980343029803434F
:1049800043EA08031360CE6B91F8323091F8387027
:10499000002B536891F8305023F07C5391F831404C
:1049A0000CBF4FF48030002023F4EF2323F4FF6387
:1049B00023F0070343EA46634E6B33438E6C43EAAE
:1049C000076343EA85430D6D43EA444391F854403D
:1049D0000343486C5360D36823F4877323F00103C7
:1049E000034391F8400043EA0023D36091F84C3030
:1049F000002B136F23F0F2030CBF802000201B0458
:104A00001B0C43EA06432B43CD6D43EA440391F864
:104A1000614003431367D2F8900091F8563020F0BC
:104A20000300034391F8550043EA4003886DC2F840
:104A30009030D2F8003D23F072030343C2F8003DEA
:104A400091F8603091F86210002BD2F8303D23F0DD
:104A50007B030CBF402000202B4343EA041343EAAE
:104A6000C1030343C2F8303D05B0BDE8F08F00003C
:104A7000026802F58050036823F4F04330B523F058
:104A800002030C680D79234341F2040403600B7B9D
:104A90001059DB0320F4504043EA05338D6820F0C1
:104AA00001002B43034302F588501351124B056854
:104AB0004C7B2B4043EA04430C6A234341F2041429
:104AC00003604B7F087D1B03155943EA00130869F7
:104AD00003430A482840034341F208101351135876
:104AE0000C7F23F00043896923F47C1343EAC473E9
:104AF0000B43135030BD00BF00C0FEFFEFEFC0FFFF
:104B00002DE9F04FD0F828E0934600EB8E0ADAF852
:104B10001830DD68002D02DA0220BDE8F08F0C6845
:104B20008E6814F004072AD02D0C4A6AD0F8008051
:104B30002D0445EA020C4CF48032DA60D8F860208B
:104B400042F48012C8F86020220718D59D68AAB2E6
:104B5000CD6A42EA05450A6B9D6042F440322CF46E
:104B600040252A43DA60D8F8642042F48012C8F85D
:104B70006420D8F8502042F08062C8F8502014F029
:104B800010080BD09D688A6925F47F5525F03F05F4
:104B90002A439A60DA6842F08062DA6014F0140CFA
:104BA00018D0DA6842F04045DD600EF10105032DB2
:104BB00088BFAEF1030500EB850CDCF818C0DCF80B
:104BC0000C90B9F1000F5FDA22F0004242F080420F
:104BD000DA60A1E77546D3F808900CF1010C326851
:104BE00029F47F591A6029F03F09726849EA0209DD
:104BF000B268C3F8089029F07F5929F47C19002A7B
:104C000046D016685E60566849EA06469E60DE68D1
:104C1000B8F1000F44D026F4F0080E6A48EAC648FE
:104C2000CE694FEA984846F480264FEA884848EA19
:104C30000608C3F80C802FB19E6826F440478E6AA0
:104C40003E439E60DE6826F0804747F02047DF60E5
:104C5000A70706D5CC6826F0874644F020443443A5
:104C6000DC60524E9468B4BB9A68BBF1000F00F050
:104C7000998042F000429A60DA6842F08052DA602D
:104C800085620020BDE8F08F63464FF0010CA2E77B
:104C90001A715A719A71DA713246C3F80890B6E700
:104CA00026F4FF484E6814F0010F28F07F0848EA08
:104CB0000606DE601FBF26F440384E6948EA060645
:104CC000DE60A606B7D5DE6826F040680E6948EAC1
:104CD0000606DE60AFE76F1C032F88BFEF1E00EBF8
:104CE00087039B69D3F80C80B8F1000F15DADAF866
:104CF0001810002294453FF40FAFCB68013223F027
:104D00000043CB600EF10103032B88BFAEF1030318
:104D100000EB83019E468969ECE722680CF1010CE7
:104D2000D3F808901A6009EA0609626849EA02099C
:104D3000A268C3F8089029F07F5929F47C19D2B1F0
:104D40005568146849EA05455C609D600D68EC068D
:104D500019D5CC694FEA984844F480244FEA884832
:104D600048EA0404DC60DC683D4624F0804444F0FA
:104D70000044DC6076E71A715A719A71DA71224642
:104D8000C3F80890E2E728F4FF484C6828F07F0851
:104D900048EA0408EC07C3F80C80E4D528F440384E
:104DA0004C69DDE722F0004265E700BF00C0FFFF6D
:104DB0000AB1032903D9012343651846704700EB64
:104DC0008100C16A0A600A61CA6842F08070C860E6
:104DD00023B142F040728B604B61CA60CB68002007
:104DE00043F00043CB60704790F85120D2B2102AB4
:104DF00010B52AD1232341F2041480F851300368FE
:104E0000196841F002011960196841F00101196047
:104E1000D3F8001D41F00101C3F8001D195941F0FC
:104E20000101195141F20814195941F001011951B8
:104E300003F58B53196841F481711960222380F8BE
:104E4000512080F85230002010BD012010BDF8B56F
:104E50000446154629B9436D43F0010363650120FB
:104E6000F8BD90F85130102BF9D10022FFF748FE21
:104E700018B1636D43F00203F0E7A36A9A1D54F87A
:104E800022605A1C032A8ABF033BA262A362A26A61
:104E90002368063203F5895354F822201A60FEF77E
:104EA00055FD0746F268002A04DB1023002084F831
:104EB0005130F8BD236803F58B531968C90409D52F
:104EC000626D42F0080262651B68A365E02384F806
:104ED0005130C4E76B1CE6D0FEF738FDC01B85429D
:104EE00001D3002DDED1636D43F00403636510230D
:104EF000EDE7F0B5456C6DB9C46B2A462946052629
:104F000000EB8403DF6AFF68002F1BDA00293BD126
:104F1000002343640020F0BDBF000AD5032B4FF0EF
:104F2000010188BFE31E00EB8302D76A22461C46BC
:104F3000E9E7032B01F1010188BFE31E00EB8304C5
:104F4000E76AF4E7013EE1D017F0805F04F1010366
:104F5000E2D00131012908BF2246032B88BFE31E9E
:104F600000EB8304E46AE468002C08DB640006D5E7
:104F7000012484641C19032C8CBF033B2346C363A8
:104F8000026441640120F0BD00EB820300244FF075
:104F9000010E4FF0030CDB6A1E691C731E605E6914
:104FA0005C739C7383F80FE016B19E6083F80FC0AA
:104FB000DE6846F00047DF60C76C17B146F0404638
:104FC000DE60531C0135032B8CBF033A1A46A942FD
:104FD00000EB8203DB6ADFD19AE7704770477047C6
:104FE0007047704770477047036803F58B5212682B
:104FF000520610B5044611D541F234129B58590699
:105000000CD5FFF776FF012802D12046FFF7E6FF17
:10501000236848F2400203F58B531A60236803F5B6
:105020008B521268D2070DD541F234129B58D80723
:1050300008D52046FFF7D1FF236848F2010203F5A7
:105040008B531A60226802F58B53196849041DD5E9
:1050500041F234115058400418D5606D40F00800FA
:1050600060651868C0044DD5186841F20213834387
:105070000CBF01230023A365535823F4404353502E
:10508000E02384F851302046FFF7A9FF2268D2F8C8
:10509000B03003F4C043B3F5C04F0AD1D2F8B830F2
:1050A0002046E365E02384F85130FFF799FF0023A1
:1050B000E3652368D3F8B020D00609D5D3F8C03013
:1050C000204603F060032366FFF78BFF002323666F
:1050D0002368D3F8B020910609D5D3F8C030204614
:1050E00003F00F036366FFF77DFF002363660C4B3D
:1050F0009A6A520205D54FF4800220469A62FFF761
:1051000072FF10BD1A6802F4CD42A2F5CD4EDEF159
:10511000000242EB0E02A2654FF4CD421A60B2E7E4
:105120008000005870B5044600681D46D0F8003273
:10513000DB0701D5012070BDD0F8003223F0787371
:1051400043EA415121F4F81141EA024242F00D02D2
:10515000C0F80022FEF7FAFB06462368D3F80002E7
:1051600010F0010004D1D3F804329BB22B6070BD63
:10517000FEF7ECFB801BB0F57A7FEED9DAE7000092
:1051800038B504460068D0F80052ED0701D501207B
:1051900038BDD0F800029BB220F0787040EA41514F
:1051A00021F4F81141EA02420C4922F00C02C1F844
:1051B000043242F00502C1F80022FEF7C7FB0546A3
:1051C0002368D3F8000210F0010000D138BDFEF7CB
:1051D000BDFB401BB0F57A7FF2D9D8E700800240D2
:1051E00038B503680546D3F8004203F01BFD124BA7
:1051F000124A24F470640344934205D844F40074C2
:105200002B68C3F8004238BD0D4B0E4A034493424D
:1052100002D844F44074F3E70B4B0C4A0344934226
:10522000EED90B4B0B4A0344934294BF44F4807471
:1052300044F48064E4E700BF00D3CEFEBFE1E400A5
:1052400040F1E9FD3F787D0100796CFCFF59620275
:10525000001F0AFA7FF0FA0270B50546A4B00028D4
:1052600000F0C08090F851300BB9FBF78BFF23237F
:10527000287A85F85130964BD3F8F42042F0020298
:10528000C3F8F420D3F8F43003F002030193019B38
:10529000002840F09880FEF771FB2B6803F58053DF
:1052A0001A6842F001021A60FEF750FB06462B68AE
:1052B00003F580531C6814F0010440F087802846F1
:1052C000FFF78EFF2E6803F0ADFC824B0BA9149400
:1052D0008DF849408DF84B408DF854408DF864406E
:1052E0001A948DF88D408DF88E408DF838400D94CD
:1052F0008DF83E408DF848401F941D9416948DF80B
:105300006C408DF882408DF85D40B0FBF3F04FF4B7
:105310000053013811934FF4C363C6F8DC00012633
:105320001893202328468DF83B6022934FF040537A
:105330008DF830600B934FF480438DF85E601093CE
:1053400002238DF83A608DF88C608DF83D608DF801
:105350004A608DF84C608DF8394021938DF880407B
:105360008DF881408DF85C408DF83C601C948DF880
:105370007860FFF79FFA4FF4001302A928468DF8D2
:105380000C60089306934FF4067304960A930294F4
:105390008DF824408DF815408DF814408DF81C4090
:1053A0008DF82540FFF764FB2968686901F588528C
:1053B000136823F4E01343F40023136010F0030296
:1053C00012D06E650BE04FF4000064E7FEF7BEFA02
:1053D000801BB0F5FA7F7FF66AAF04236B65E0238C
:1053E00085F85130012071E041F208140B5923F483
:1053F000FF4323F07E0343EA4003E8680B5100F1CA
:10540000600605F1180403461A705A709A70DA7033
:105410001A715A719A71DA711A725A729A72DA7230
:105420001A735A739A73DA7344F8043B1833B3420D
:10543000EAD1AA6241F22C1303220024CA5041F29D
:1054400014132A69C85001F5895302F160061860E7
:1054500005F12C0013461C705C709C70DC701C7194
:105460005C719C71DC711C725C729C72DC721C73CE
:105470005C739C73DC731C745C749C74DC741C75AE
:105480005C759C75DC7540F8043B1833B342E2D17F
:10549000032041F23013EC632C646C64EC64AC6464
:1054A000C85041F21C130020CA50483241F2281360
:1054B000CA506B689A88C1F800231B68C1F804338E
:1054C00010236C6585F8513085F8523024B070BDDA
:1054D0000044025840420F002DE9F84F04460028CE
:1054E00000F0828203689E4A934240F0A9829D4B5D
:1054F0004360A36833F4807206D0B3F5407F03D0D5
:10550000E6219948FCF719FEE368042B03D9E7214B
:105510009548FCF712FE237C012B03D9E821924821
:10552000FCF70BFE637C012B03D9E9218E48FCF7C5
:1055300004FEA37C012B03D9EA218B48FCF7FDFD77
:105540006369013BB3F5007F03D3EB218648FCF789
:10555000F4FDA369013B7F2B03D9EC218248FCF7C2
:10556000ECFDE369023BFE2B03D9ED217E48FCF7FD
:10557000E4FD236A023B7E2B03D9EE217A48FCF737
:10558000DCFDA368B3F5407F1FD1636A013B1F2B8D
:1055900003D9F1217448FCF7D0FDA36A013B0F2B1E
:1055A00003D9F2217048FCF7C8FDE36A013B1F2BC9
:1055B00003D9F3216C48FCF7C0FD236B013B0F2B93
:1055C00003D9F4216848FCF7B8FDA36B802B03D9FD
:1055D000F6216548FCF7B1FDE36B402B03D9F721B9
:1055E0006148FCF7AAFD236C402B03D9F8215E48E3
:1055F000FCF7A3FD236C53B1626C122A03D85B4BFA
:10560000D340DF0703D4FB215748FCF796FDA36C7A
:10561000402B03D9FD215448FCF78FFDA36C5BB1EF
:10562000E26C122A03D8514BD340DE0704D44FF466
:1056300080714D48FCF781FD236D402B04D94FF458
:1056400081714948FCF779FD236D5BB1626D122AC7
:1056500003D8464BD340DD0704D440F2051142483D
:10566000FCF76BFDA36D202B04D940F207113E48D7
:10567000FCF763FDE36D226E1344202B04D94FF435
:1056800084713948FCF759FD236E43B1636E33F0E2
:10569000804304D040F20B113348FCF74EFDE36D1C
:1056A000226ED3420BD0A26E122A03D82F4BD340C6
:1056B000D80704D440F20F112B48FCF73EFD94F8B4
:1056C000943003F0FF0223B984F895202046FBF7BD
:1056D000F1FE2268936923F010039361FEF736F917
:1056E000054623689A69110700F16F819A6942F0B3
:1056F00001029A61FEF72AF9054623689A69D207E2
:1057000040F175819A6942F002029A61227C012A75
:105710009A690CBF22F0400242F040029A61627C1A
:10572000012A9A690CBF42F4804222F480429A61B5
:10573000A27C012A9A690CBF22F4805242F4805262
:105740009A619A69A06822F4407202439A61E26801
:10575000012A40F053819A6942F004029A6107E0FD
:1057600000A0004000A10040A6370108F045040059
:10577000A269B0F5407F02F1FF31E26902F1FF3228
:105780004FEA022242EA4162216A01F1FF3142EA14
:105790000102616901F1FF3142EA0142DA610ED191
:1057A000E26A511E226B013A120142EA0122A16A09
:1057B00001390A43616A013942EA0142DA60266E20
:1057C0002EB1D3F8C020616E0A43C3F8C020E06D4B
:1057D000C64209D0D3F8C810A26E9E4D21F0070131
:1057E000AA5C0A43C3F8C820D4F84080B8F1000F7F
:1057F00009D0D3F8BC10626C964D21F00701AA5C69
:105800000A43C3F8BC20D4F848C0BCF1000F0AD04A
:10581000D3F8BC20E16C8F4D22F07002695C42EA43
:105820000112C3F8BC20D4F850A0BAF1000F0AD07E
:10583000D3F8BC20616D874D22F4E062695C42EAD6
:105840000122C3F8BC20844A934204D161688A686B
:1058500022F003028A60D3F88420DFF80CE2616B47
:1058600002EA0E02D4F83C9042EA8102C3F8842096
:10587000D3F88450A26B25F47F058F1801F1805175
:1058800045EA024501F52C51C3F88450D3F88850FD
:10589000890005EA0E0501EB820245EA870507EB60
:1058A0004907C3F88850D3F8885025F47F0545EAA6
:1058B0000945C3F88850D3F8A05005EA0E0545EA1B
:1058C0008705C3F8A050D3F8A05025F4FE0545EA9B
:1058D0000845C3F8A050656C05FB08F8D3F8B05034
:1058E000474425F0FC0545EA8705C3F8B050D3F8D6
:1058F000B05025F4FE0545EA0C45C3F8B050E56C00
:1059000005FB0CFC07EB0C05D3F8AC7027F0FC078B
:1059100047EA8507C3F8AC70676D07FB0AF7D3F851
:10592000F0A03D440AEA0E0E4EEA850EC3F8F0E000
:10593000D3F8F0A0D4F858E02AF47C1A05EB4E0B0B
:105940004AEA0E4AC3F8F0A0D3F8C0A02AF0FC053A
:1059500045EA8B05C3F8C050D3F8C05025F47C1538
:1059600045EA0045C3F8C050D3F8C0A0A56E2AF0A0
:105970007C5A68434AEA066A7543C3F8C0A02267A6
:1059800002EBC902E166626702EB880202EB8C035C
:10599000A267324AE36703EB8703C4F8803003EB66
:1059A000CE03C4F8843003EB8003C4F8883003EBE3
:1059B00085039342C4F8903034D80022D4F8903054
:1059C000994235D241F8042BF8E7FDF7BFFF401BA1
:1059D0000A287FF686AED4F8983043F00103C4F865
:1059E0009830032384F894300120BDE8F88FFDF748
:1059F000ADFF401B0A287FF680AEECE7002A3FF49B
:105A0000B7AE022A0AD09969032A41F08001996150
:105A1000196941F0100119617FF4AAAE9A6942F048
:105A200020029BE6D4F8983043F02003C4F8983065
:105A300000200123C4F8980084F89430BDE8F88F62
:105A4000074A93423FF455ADE5210648FCF775FB44
:105A50004FE500BF9337010800A00040FCB50040AF
:105A600000A40040A63701080300FFFF70477047FD
:105A7000704770477047704770477047704770476E
:105A8000704770477047704770477047A24A2DE9CA
:105A9000F8431169044653694FEA8379036809EAB8
:105AA0008179196D5D6D1F6D01EA0508596D1E6DD7
:105AB0000F40596D1D6D08F470480E40596D07F088
:105AC0000F070D40196D06F0F006C90505F07F556A
:105AD0000FD5596DC9050CD5596D21F480715965E3
