:020000040800F2
:1000000000000824A1060008A5250008A72500086F
:10001000A9250008AB250008AD2500080000000058
:10002000000000000000000000000000AF250008F4
:10003000B125000800000000B3250008B525000820
:10004000F1060008C3250008F1060008F1060008C3
:10005000C7250008CB250008CD250008F1060008BB
:10006000F1060008E9250008F1060008F12500085E
:100070000D260008292600084526000861260008EC
:100080006D26000879260008F10600089126000870
:10009000A12600088526000895260008D32500081B
:1000A000F1060008F1060008F1060008F106000854
:1000B000F1060008F1060008F1060008F106000844
:1000C000F1060008F1060008F1060008A526000860
:1000D000F1060008F1060008F5260008F106000800
:1000E000F1060008F106000800000000F106000813
:1000F000F1060008F1060008F106000801270008D3
:10010000F10600080D270008F1060008F1060008B6
:10011000F1060008F1060008F1060008F1060008E3
:100120001927000825270008312700083D27000867
:10013000F10600085527000849270008592700083C
:1001400000000000000000000000000000000000AF
:10015000F1060008F1060008F1060008F1060008A3
:10016000F1060008F106000885270008812700082D
:10017000F106000875270008F10600088927000825
:1001800095270008B1270008B5270008F1060008E8
:10019000CD260008F1060008F1060008F106000867
:1001A000F1060008F1060008F1060008F106000853
:1001B000C1270008F1060008F1060008CD27000855
:1001C000D9270008F1060008F1060008F10600082A
:1001D000F1060008F1060008F1060008F106000823
:1001E000F1060008F1060008F1060008F106000813
:1001F000F1060008F1060008F1060008F106000803
:10020000F1060008F1060008F1060008F1060008F2
:10021000F1060008F1060008F1060008F1060008E2
:10022000F1060008F1060008F106000800000000D1
:10023000F1060008E527000800000000F1060008AC
:10024000F1060008F1060008F1060008F1060008B2
:10025000F1060008F1060008F1060008F1060008A2
:10026000F1060008F1060008F1060008F106000892
:10027000F1060008F1060008F10600080000000081
:10028000F106000800000000F10600080000000070
:0802900000000000F106000867
:1002A00010B5054C237833B9044B13B10448AFF3B0
:1002B00000800123237010BD900000240000000086
:1002C0005833010808B5034B1BB103490348AFF38A
:1002D000008008BD0000000094000024583301088D
:1002E000034613F8012B002AFBD1181A0138704776
:1002F00001F0FF01102A2BDB10F0070F08D010F8D7
:10030000013B013A8B422DD010F0070F42B3F6D1DA
:10031000F0B441EA012141EA014122F007047FF0F3
:1003200000070023F0E80256083C85EA010586EA4A
:10033000010685FA47F5A3FA87F586FA47F6A5FA86
:1003400087F68EB9EED1F0BC01F0FF0102F0070292
:1003500032B110F8013B013A83EA010313B1F8D13D
:100360000020704701387047002D06BF354603381E
:10037000073815F0010F07D1013015F4807F02BF57
:10038000013015F4C03F0130F0BC0138704700BFA8
:1003900053B94AB9002908BF00281CBF4FF0FF31EC
:1003A0004FF0FF3000F07AB9ADF1080C6DE904CEE2
:1003B00000F006F8DDF804E0DDE9022304B0704740
:1003C0002DE9F0478C460D460446089E002B51D17E
:1003D0008A4217466DD9B2FA82FEBEF1000F0BD0E9
:1003E000CEF1200C01FA0EF520FA0CFC02FA0EF701
:1003F0004CEA050C00FA0EF44FEA174A250CBCFB38
:10040000FAF81FFA87F90AFB18CC45EA0C4508FBF5
:1004100009F3AB420AD9ED1908F1FF3280F02381CC
:10042000AB4240F22081A8F102083D44ED1AA4B28B
:10043000B5FBFAF00AFB105544EA054400FB09F944
:10044000A14509D9E41900F1FF3380F00A81A145E3
:1004500040F2078102383C44A4EB090440EA08401A
:100460000021002E61D024FA0EF400233460736062
:10047000BDE8F0878B4207D9002E54D0002186E8D2
:1004800021000846BDE8F087B3FA83F1002940F067
:100490008E80AB4202D3824200F2FA80841A65EB6E
:1004A00003050120AC46002E3FD086E81010BDE8C1
:1004B000F08712B90127B7FBF2F7B7FA87FEBEF152
:1004C000000F34D1EB1B3A0C1FFA87FC0121B3FB60
:1004D000F2F8250C02FB183345EA03450CFB08F340
:1004E000AB4207D9ED1908F1FF3002D2AB4200F25E
:1004F000D1808046ED1AA3B2B5FBF2F002FB105595
:1005000043EA05440CFB00FCA44507D9E41900F1BB
:10051000FF3302D2A44500F2B8801846A4EB0C04C5
:1005200040EA08409DE731463046BDE8F087CEF10D
:10053000200405FA0EF307FA0EF720FA04F83A0C35
:1005400025FA04F448EA0308B4FBF2F14FEA18452F
:1005500002FB11441FFA87FC45EA044501FB0CF33A
:10056000AB4200FA0EF409D9ED1901F1FF3080F029
:100570008A80AB4240F2878002393D44EB1A1FFA71
:1005800088F5B3FBF2F002FB103345EA034500FBAC
:100590000CF3AB4207D9ED1900F1FF386FD2AB4233
:1005A0006DD902383D44EB1A40EA01418FE7C1F1B1
:1005B000200722FA07F88B4005FA01F448EA030302
:1005C00020FA07FE4FEA134CFD404EEA040EB5FB3D
:1005D000FCF94FEA1E440CFB19551FFA83F844EA54
:1005E000054509FB08F4AC4202FA01F200FA01FAEF
:1005F00008D9ED1809F1FF3043D2AC4241D9A9F135
:1006000002091D442D1B1FFA8EFEB5FBFCF00CFBEE
:1006100010554EEA054400FB08F8A04507D9E41838
:1006200000F1FF3529D2A04527D902381C4440EA01
:100630000940A4EB0804A0FB02894C45C6464D4680
:1006400015D312D056B1BAEB0E0364EB050404FACD
:1006500007F7CB401F43CC40376074600021BDE8F2
:10066000F0871846F8E69046E0E6C245EAD2B8EBD5
:10067000020E69EB03050138E4E72846D7E7404658
:1006800091E78146BEE7014678E702383C4445E7FA
:10069000084608E7A8F102083D442BE7704700BF71
:1006A000DFF834D0002103E00C4B5B584350043199
:1006B0000B480C4B42189A42F6D30B4A02E0002337
:1006C00042F8043B094B9A42F9D302F097FA11F031
:1006D00005FF01F019FA704700000824A85001082E
:1006E000000000249000002490000024D44C00243A
:1006F000FEE770B50E4615460C46A31B9D4201DC75
:10070000284670BD00F04EF904F8010BF5E770B50E
:100710000E4615460C46A31B9D4201DC284670BDC3
:1007200014F8010B00F02EF9F5E70000094B024622
:10073000196809B9084919601868694602448A426B
:1007400083BF0C22054B4FF0FF301A6088BF1A6040
:10075000704700BFAC000024D44C0024D04C0024CF
:100760004FF0FF3070474FF4005300204B6070474C
:100770000120704700207047931E222BF0B503D94B
:1007800000230B700846F0BD0C46114F234690FB2A
:10079000F2F502FB15063E4496F8236003F8016B60
:1007A00095B900284FF00000BEBF2D221A70A31C7F
:1007B0005A1E18700B469A42E4D910781C7802F839
:1007C000014903F8010BF6E71C462846DEE700BFA7
:1007D0007C33010810B508210F4805F0A1FD002861
:1007E0004FF010010C4814BF0024082405F098FDB8
:1007F00008B944F004042021074805F091FD08B928
:1008000044F002044021044805F08AFD08B944F090
:100810000104204610BD00BF00100258062821D850
:10082000DFE800F004080E12161A1D000022012154
:100830000D4803E000224FF480710C4805F082BDA2
:1008400000224FF40071F8E700224FF48061F4E7D2
:1008500000224FF40061F0E700224021E8E7002287
:100860008021E5E7704700BF0008025800000258E9
:10087000062821D8DFE800F004080E12161A1D0021
:10088000012211460D4803E001224FF480710C480B
:1008900005F058BD01224FF40071F8E701224FF432
:1008A0008061F4E701224FF40061F0E7012240216A
:1008B000E8E701228021E5E7704700BF0008025801
:1008C0000000025806281AD8DFE800F004070C0FD1
:1008D0001215170001210A4802E04FF480710948FF
:1008E00005F04ABD4FF40071F9E74FF48061F6E777
:1008F0004FF40061F3E74021EDE78021EBE770471B
:10090000000802580000025808B50020FFF7B0FFA9
:100910000120FFF7ADFF0220FFF7AAFF0320FFF73A
:10092000A7FF0420FFF7A4FF0520FFF7A1FF062083
:10093000BDE80840FFF79CBF08B50020FFF76EFF39
:100940000120FFF76BFF0220FFF768FF0320FFF78E
:1009500065FF0420FFF762FF0520FFF75FFF062019
:10096000BDE80840FFF75ABF00487047C43301088C
:1009700000487047CC330108014B1860704700BF36
:10098000B000002413B502A904460A23012201F88D
:10099000040D034800680BF01CFE204602B010BD99
:1009A000B000002413B5074C0A2301220DF1070102
:1009B00020680BF067FE0028F6D19DF8070002B012
:1009C00010BD00BFB000002410B5441E14F8010F84
:1009D00000B910BDFFF7D6FFF8E700B589B00A22CD
:1009E0006946FFF7C9FE6846FFF7EEFF09B05DF8FC
:1009F00004FB00B589B010226946FFF7BDFE6846CA
:100A0000FFF76EFC012802D83020FFF7BBFF6846D5
:100A1000FFF7DAFF09B05DF804FB08B5FFF7E9FF5F
:100A20000A20BDE80840FFF7ADBF10B588B010221E
:100A30006946FFF7A1FE6846FFF752FCC4B2032CDB
:100A400004D96846FFF7C0FF08B010BD013430205C
:100A5000FFF798FFE4B2F2E708B5FFF7E6FF0A20D8
:100A6000BDE80840FFF78EBF38B50C46451E15F8A7
:100A7000010F20B9013C14F8010F18B938BDFFF778
:100A800081FFF4E7FFF77EFFF5E710B51446FFF7A7
:100A9000EBFF2046BDE81040FFF796BF30B589B0A8
:100AA0000446154608460A226946FFF765FE2A46AF
:100AB00069462046FFF7E9FF09B030BD42F21073E6
:100AC00007B5009313460A460146034806F0B8FBF3
:100AD00003B05DF804FB00BFF80200241FB5074B0C
:100AE0001C7842F210738DE80E0002460123214665
:100AF000034806F03DFC04B010BD00BF61020024B5
:100B0000F80200241FB5074B1C7842F210738DE8E1
:100B10000E00024601232146034806F0EBFC04B018
:100B200010BD00BF61020024F802002402442DE938
:100B3000F34104460F46D6B20025DFF84080B442A8
:100B400003D1284602B0BDE8F0813F2C12D83B7893
:100B5000012201A904F120008DF804300135FFF7CE
:100B6000BDFF98F80030EDB223B9003018BF012066
:100B700088F8000001340137E4B2E0E7E403002420
:100B80003F2807B58DF8071004D801220DF10701A1
:100B9000FFF7CCFF03B05DF804FB000002442DE931
:100BA000F34104460F46D6B20025DFF84080B44238
:100BB00003D1284602B0BDE8F0813F2C12D80122B3
:100BC00001A904F120000135FFF79CFF9DF80430D6
:100BD000EDB23B7098F8003023B9003018BF012007
:100BE00088F8000001340137E4B2E0E7E4030024B0
:100BF00013B5044601220DF107010720FFF7CEFFD0
:100C00009DF80730032C4FF0070097BF23F04703F0
:100C100023F0400343F0400323438DF807309DF851
:100C20000710FFF7ADFF02B010BD0A2390FBF3F2EF
:100C300003FB120000EB021070470000022998BF6E
:100C4000013A10B5D2B2642402EB9203B2FBF4F283
:100C50009B1A074A114411F8012C13441844072326
:100C600090FBF3F3C3EBC303C01A0130C0B210BD55
:100C700040340108B0F5FA6F84BFA0F5FA6080B285
:100C800010F0030F0CBF0D2300231944014B13F880
:100C900021007047D83301082DE9F341067A044654
:100CA000457A077931462A463846FFF7C7FF31466D
:100CB0008046E0702846FFF7DDFF87424FF00007CF
:100CC00088BF207120788DF80070FFF7AEFF00F02C
:100CD0007F008DF801006078FFF7A7FF00F07F002C
:100CE0008DF80200A078FFF7A0FF00F03F008DF81C
:100CF00003004046FFF799FF00F0070040F00800AE
:100D00008DF804002079FFF790FF00F03F008DF888
:100D100005003046FFF789FF00F01F008DF8060040
:100D20002846124DFFF781FF082269468DF807001B
:100D30002878FFF7C3FE064620788DF80070FFF78D
:100D400074FF60F07F00022269468DF80100287868
:100D5000FFF7B4FE3EB9C01B18BF0120044B18704A
:100D600002B0BDE8F0810120F8E700BF6102002475
:100D7000E40300240023024A1360024A1370704700
:100D8000B8000024B400002484B008B50DF1080EAA
:100D90008EE80F0071464C22094811F0D2FBDE228A
:100DA000084B00201A70AE22074B1A70FFF720FF85
:100DB000064B00221A70BDE8084004B0FFF7DABF06
:100DC000F80200246102002463020024B50000241C
:100DD000012307B58DF807309DF80730012B0ED1A0
:100DE000084809F095FC38B94FF48041054809F0EE
:100DF000E5FB003018BF012003B05DF804FB0220C2
:100E0000FAE700BF8C0E002407B5009313460A468C
:100E10000146044808F09EFF003018BF012003B0CF
:100E20005DF804FB8C0E002407B5009313460A46B8
:100E30000146044809F05CF8003018BF012003B0F7
:100E40005DF804FB8C0E002408B5034809F04CFC47
:100E5000043818BF012008BD8C0E0024014601484B
:100E600009F09ABB8C0E0024704708B5FFF7FCFF11
:100E700008BD704708B5FFF7FCFF08BD10B586B088
:100E800010220021002402A811F066FB524B5348A7
:100E90004FF0800ED3F8D82042F00102C3F8D820DA
:100EA000D3F8D82002F001020092009AD3F8D8209B
:100EB00042F00202C3F8D820D3F8D830446103F0DE
:100EC00002038461C4610193019B454B0462C462C7
:100ED000046380E818404FF40073C3604FF48063EC
:100EE0000361042343620323836202F0AFFF08B16E
:100EF00000F0ECFF062302A9384802930123039473
:100F00008DF810408DF81140059303F03FFB08B1B8
:100F100000F0DCFF00220B20114602F0FDFB0B204D
:100F200002F042FC00220C20114602F0F5FB0C20DE
:100F300002F03AFC00220D20114602F0EDFB0D20DC
:100F400002F032FC00220E20114602F0E5FB0E20DA
:100F500002F02AFC00220F20114602F0DDFB0F20D8
:100F600002F022FC00221020114602F0D5FB1020D6
:100F700002F01AFC00221120114602F0CDFB1120D4
:100F800002F012FC00222F20114602F0C5FB2F2098
:100F900002F00AFC00223820114602F0BDFB382086
:100FA00002F002FC00223920114602F0B5FB392084
:100FB00002F0FAFB00223A20114602F0ADFB3A2083
:100FC00002F0F2FB00223B20114602F0A5FB3B2081
:100FD00002F0EAFB06B010BD0044025820050024D0
:100FE00010040240134A0023F0B5C2F88430BFF366
:100FF0004F8FD2F8803043F6E076C3F3C904C3F3D1
:101000004E33A5075B0103EA060E284621464EEA49
:101010000007013900F14040C2F874724F1CF6D14C
:10102000203B13F1200FEED1BFF34F8FBFF36F8F33
:10103000F0BD00BF00ED00E030B10023437303605A
:1010400003814381C38143607047002070470000E3
:1010500070B500228CB00C466B4611466E4664B9E2
:101060000F4D6A60AE60FFF7BDFF224629460D486E
:1010700003F037FE20460CB070BD04290DD0606827
:10108000186060895860024409B143F8043C246840
:1010900004B99C6001310C33E1E76FF00B00EAE723
:1010A00020060024B805002402F0EABA08B5024878
:1010B00003F0E0FF002008BDB805002408B5134682
:1010C0000A460146034803F077FF003018BF0120AD
:1010D000404208BDB805002408B513460A4601463B
:1010E000034803F097FF003018BF0120404208BDBD
:1010F000B80500240268304B9A4270B588B059D1C7
:101100002E480024FFF760FC2D4B02250B26D3F858
:10111000D82003A92B4842F40042C3F8D820D3F8C2
:10112000D82002F400420092009AD3F8D82042F46A
:101130008032C3F8D820D3F8D82002F4803201924C
:10114000019AD3F8D82042F40032C3F8D820D3F85B
:10115000D830049503F40033059406950293029B5E
:1011600086230796039304F087FF322303A91648CA
:101170000393049505940695079604F07DFF4FF4BC
:10118000605303A9114803930495059406950796A7
:1011900004F072FF224621463D2002F0BDFA3D20B8
:1011A00002F002FB3E202246214602F0B5FA3E2024
:1011B00002F0FAFA08B070BD008002404C34010819
:1011C0000044025800000258000802580004025867
:1011D0002DE9F34704464A48FFF7F6FB34B9494B7B
:1011E0004FF407724849494811F06AFA7323484896
:1011F000484E002584F830307423DFF83C81B14636
:1012000084F83130444BDFF834A16361434BA36170
:10121000FFF7DAFB424B30468DF8005033608023F5
:101220008DF803508DF80130E1238DF804508DF8CE
:10123000023001238DF8055033723A4BC6F804D0C2
:10124000F360394B336140F2F453736103F04EFFA6
:10125000342207462946404611F07EF92123C8F87A
:1012600000304FF44033C8F81430DFF8D4804FF426
:10127000BF6200232946484602FB05A203F0E2FCB8
:1012800014232A4A03FB05830135042D1A61EED18C
:1012900006232749274884F8283073681A7884F889
:1012A00029205A7884F82A209A7884F82B20DA7832
:1012B00084F82C201A7984F82D205B7984F82E305C
:1012C00040F2DC53E38494F82F3043F00A0384F8AF
:1012D0002F3001F01BFC174801F02CFC67B92046A9
:1012E0000DF0E6FE20460DF0FFFE0A4803F0C6FCB6
:1012F000002002B0BDE8F08700F0E8FDF8E700BF8D
:101300005D3401086E340108883401089634010800
:10131000BE340108B805002469DC0008511000083B
:1013200000800240600004300000043039100008E2
:101330000000002498050024200600240002043048
:101340005406002402F09CB908B5034903480CF088
:1013500083F9034B187008BDA50600241036010858
:10136000A406002408B515480122154B022142614C
:1013700003600023826142628262C26202630422CD
:101380008360C360037443748374C1610162436307
:101390008363C363036442648364C2640365426518
:1013A0008365C36503664366826603F0DFFF18B199
:1013B000BDE8084000F08ABD08BD00BF0C0B00244A
:1013C00000A0004008B515480122154B02214261DA
:1013D00003600023826142628262C262026304226D
:1013E0008360C360037443748374C16101624363A7
:1013F0008363C363036442648364C26403654265B8
:101400008365C36503664366826603F0AFFF18B168
:10141000BDE8084000F05ABD08BD00BFA80B00247D
:1014200000A4004010B514228AB0044600210DEB40
:10143000020011F091F82368414A934243D1414A96
:1014400013680133012B13600CD13F4BD3F8EC2010
:1014500042F48072C3F8EC20D3F8EC3003F48073CC
:101460000193019B384B05A93848D3F8E02042F09E
:101470000802C3F8E020D3F8E03003F00803029339
:10148000029B03230593022306930923099304F087
:10149000F3FD00221320114602F03EF9132002F062
:1014A00083F900221520114602F036F9152002F0CA
:1014B0007BF900223F20114602F02EF93F2002F076
:1014C00073F90AB010BD224A9342FAD11D4A13683B
:1014D0000133012B13600CD11B4BD3F8EC2042F4E9
:1014E0008072C3F8EC20D3F8EC3003F480730393DC
:1014F000039B154B05A91748D3F8E02042F00202E0
:10150000C3F8E020D3F8E03003F002030493049B17
:1015100060230593022306930923099304F0ACFD8D
:1015200000221420114602F0F7F8142002F03CF9D2
:1015300000221620114602F0EFF81620B7E700BF90
:1015400000A00040BC00002400440258000C0258D7
:1015500000A40040000402582DE9F04F8FB014227F
:101560000021924F09A8924D10F0F6FF914B38469A
:101570001021D3F8E0200024DFF84082012642F059
:101580001002DFF83C924FF0030ADFF838B2C3F8DC
:10159000E020D3F8E02002F010020392039AD3F87F
:1015A000E02042F00402C3F8E020D3F8E02002F08B
:1015B00004020492049AD3F8E02042F08002C3F8B7
:1015C000E020D3F8E02002F080020592059AD3F8DB
:1015D000E02042F00102C3F8E020D3F8E02002F05E
:1015E00001020692069AD3F8E02042F00202C3F804
:1015F000E020D3F8E02002F002020792079AD3F825
:10160000E02042F00802C3F8E0200122D3F8E030E5
:1016100003F008030893089B04F094FE2846012277
:101620004FF4006104F08EFE284600224FF4007152
:1016300004F088FE40460022102104F083FE484654
:101640000022C12104F07EFE384600224FF4706172
:1016500004F078FE01222846032104F073FE78236B
:1016600009A9284609930A940B9604F005FD4EF249
:101670000C0309A94846CDF828A009930B9404F05F
:10168000FBFCC12309A948464FF0090909930A96B2
:101690000B940C9404F0F0FC09A93846CDF8249082
:1016A000CDF828B00B9404F0E7FC40F2032309A91D
:1016B000414809930193CDF828A00B9404F0DCFC79
:1016C000019B09A928460A9609930B940C9404F0EF
:1016D000D3FC4FF4044309A92846CDF828A0099368
:1016E0004FF0100A0B9404F0C7FC4FF4407309A9A3
:1016F0004046CDF828B009930B9404F0BDFC4CF2A1
:10170000084309A940460A9409930B9404F0B4FCD9
:101710004FF4706309A938460A9609930B940C9408
:1017200004F0AAFC4FF4805309A938460A9409939F
:101730000B9404F0A1FC09A940464FF00208CDF833
:1017400024A00A960B940C9404F096FC09A9384640
:10175000CDF824A00A960B94CDF8308004F08CFCD0
:101760004FF4006309A928460A9609930B94CDF813
:10177000308004F081FC22462146062001F0CCFF97
:10178000062002F011F822462146484601F0C4FF27
:10179000484602F009F822462146172001F0BCFF16
:1017A000172002F001F80FB0BDE8F08F00000258DA
:1017B000001002580044025800040258000C02585D
:1017C000000802580000111108B512480122124BFE
:1017D0001249C26080E80A0000238360036143610C
:1017E0008361C361036205F081FC08B100F06EFB08
:1017F0000021084806F0BEF908B100F067FB00219F
:10180000044806F0FFF918B1BDE8084000F05EBBDF
:1018100008BD00BFF40C0024FFECC010001C0058F1
:1018200010B588B004461422002103A810F094FEDD
:1018300022681C4B9A4233D11B4C03A91B48D4F895
:10184000E03043F00203C4F8E030D4F8E03003F0B5
:1018500002030193019B4FF4C0730393122304937B
:101860000623079304F008FCD4F8F43000225F202C
:1018700043F080031146C4F8F430D4F8F43003F098
:1018800080030293029B01F047FF5F2001F08CFF71
:1018900000226020114601F03FFF602001F084FF2C
:1018A00008B010BD001C0058004402580004025843
:1018B000F0B5EE232C4F2D4EC020FB70FF232C4D96
:1018C000A8211922337073700024B370FD2385B0F2
:1018D00028706970AA70EB7038707970BA70F47003
:1018E0000CF0C6FB7B783A781B042249687843EAFF
:1018F0000263FA7800041343BA7843EA0223327889
:101900001BBA0B6073781B0443EA0263F27813433B
:10191000B27843EA0223184A1BBA13602B7840EAD4
:101920000360EB781843AB78144D40EA0320144B66
:1019300000BA18601348009402901348019028469A
:101940000DF072FB28460DF0ADFB95F82F302846C0
:101950005B0704D505B0BDE8F0400DF0A9BB05B0AC
:10196000BDE8F0400DF0B3BB900D00248C0D0024B9
:10197000500D0024880D0024940D0024540D0024E3
:10198000980D002491DD0008D111000870B5CCB08D
:101990004C2200210AA810F0DFFD2022002102A81D
:1019A00010F0DAFDBC2200211DA810F0D5FD354B4A
:1019B000DA6822F00402DA60002201929A6942F4A5
:1019C00040429A619A6902F440420192019A9A69EE
:1019D0009204FCD529230024022508260A934FF4FB
:1019E00080330AA813950B93012314950F9310933A
:1019F00004231795159380231896169319951A9614
:101A00001B941C9406F074FB3F234FF4806229461C
:101A10000DEB0600029303230892039340230494E2
:101A2000069307930993059606F0E6FE164B1DA84C
:101A30002F941D934FF08053309438934FF44013FC
:101A400034943E934FF40073359449933A943C9404
:101A5000429407F0A3F90D4B1A6842F400721A6021
:101A60001A6842F001021A60D3F8002442F40072AE
:101A7000C3F80024D3F8002442F00102C3F8002484
:101A80004CB070BD0048025812B04702003001400F
:101A9000024A136801331360704700BFC00000247E
:101AA000024B1A68024B1A60704700BFC000002446
:101AB000C4000024054A064B19681368CB1A8342F8
:101AC00026BF012011600020704700BFC400002421
:101AD000C0000024024B1A68024B1A60704700BF16
:101AE000C0000024C8000024054A064B196813688A
:101AF000CB1A834226BF012011600020704700BF2F
:101B0000C8000024C00000242DE9F04194B0102248
:101B10000021002410A8012510F01EFD032601F06D
:101B20006DFEC84B10A88DF84050119307238DF817
:101B300041408DF848308DF849408DF84A408DF885
:101B40004B608DF84C408DF84D408DF84E408DF82F
:101B50004F5001F075FEBC4B10A88DF8405011930A
:101B60000D238DF841508DF848308DF849408DF89F
:101B70004A408DF84B408DF84C408DF84D408DF823
:101B80004E508DF84F4001F05BFE022310A88DF8F7
:101B900040508DF841304FF040538DF8494011933B
:101BA0000C238DF84A408DF848308DF84B608DF845
:101BB0004C408DF84D508DF84E508DF84F4001F04F
:101BC0003FFE042001F02AFEBFF34F8FBFF36F8F5B
:101BD0009E4BC3F85042BFF34F8FBFF36F8F5A69CC
:101BE00042F400325A61BFF34F8FBFF36F8FC3F8D7
:101BF0008440BFF34F8FD3F8802043F6E076C2F3E2
:101C0000C904C2F34E32A507520102EA060E284665
:101C100021464EEA0007013900F14040C3F86072E6
:101C20004F1CF6D1203A12F1200FEED1BFF34F8FA7
:101C30005A6942F480325A61BFF34F8FBFF36F8FFE
:101C400001F002FD824EFFF7A1FEFFF785FC06F1D1
:101C50001005FEF771FE00F0C7FD00F0E7FD012260
:101C60004FF400717B4804F06DFB012210217A488B
:101C700004F068FB7948FEF77FFE7948FEF7A4FE82
:101C80007848FEF7A1FE7848FEF79EFEFFF7F6F8CB
:101C90007648FEF799FE00F01BF97548FEF794FEB2
:101CA00000F094FA7348FEF78FFE00F0BFFA724816
:101CB000FEF78AFEFFF756FB7048FEF785FEFFF73A
:101CC00081FB6F48FEF780FEFFF77EFD6D48FEF753
:101CD0007BFE00F08DF96C48FEF776FEFFF734FBD3
:101CE0006A48FEF771FEFFF7E3FD6948FEF76CFEF8
:101CF0004FF47A7001F0CAFC6648FEF765FEFFF704
:101D0000CFFEFEF767FD04466348FEF75DFE204602
:101D1000FEF783FEC12161486C4604F02DFB4FF4B1
:101D200070615F4804F028FB4E48FEF74DFE5D48A9
:101D3000FEF74AFEFEF718FEFEF746FE4848FEF79D
:101D400043FE5948FEF740FEFEF712FEFEF73CFE4A
:101D50004348FEF739FE554B554A1968554B5648CE
:101D6000B1FBF3F1FEF79AFE0FCD0FC40FCD0FC4F8
:101D70000FCD0FC495E8070084E8070096E80F0030
:101D8000FFF702F83223072210A88DF84030122303
:101D90004A4C8DF841308DF844300323484E8DF87D
:101DA00048301323474D8DF8493000238DF84220E9
:101DB0008DF84330FEF770FFFEF7A6FD4FF47A7002
:101DC00001F064FC01F0E0FB01F0FCFBFFF768FEB2
:101DD000FFF780FEDFF8F080404605F059FF4FF432
:101DE000FA70FFF781FE10B10020FEF76BFD4FF493
:101DF000FA60FFF75FFE10B10120FEF763FD40F2CD
:101E0000EE522146284601F07FFA3628074607D9C8
:101E1000284601F05FFA3A462146304601F06EFB53
:101E200040F2EE522146304601F06EFA362807465F
:101E3000D2D9304601F04EFA3A462146284601F002
:101E40005DFBC7E7000004300040043000ED00E017
:101E5000F40C002400100258000C025858140024FE
:101E60001E350108CE340108203501082D35010842
:101E70003E3501084C3501085A3501086A3501081C
:101E80007A3501088835010895350108A43501081F
:101E9000B2350108B8350108C835010800080258F4
:101EA00000000258D4350108E63501081800002466
:101EB000F835010840420F00FE35010800100030DF
:101EC0009C0D0024C80D0024400D0024704770476D
:101ED00008B50B48C7230B4A4FF0100C80E80C10D4
:101EE00000230122C360026143618361C361036215
:101EF00005F032FF18B1BDE80840FFF7E7BF08BDA5
:101F00000C0E00240050005270B514228AB0044612
:101F100000210DEB020010F01FFB22682F4B9A42AC
:101F20005AD12F4B0224092605A9D3F8D420002525
:101F30002C4842F48042C3F8D420D3F8D42002F4D1
:101F400080420192019AD3F8E02042F01002C3F8D7
:101F5000E020D3F8E02002F010020292029AD3F8B7
:101F6000E02042F00202C3F8E020D3F8E02002F0C3
:101F700002020392039AD3F8E02042F00802C3F869
:101F8000E020D3F8E030069403F0080308940996A3
:101F90000493049B0423059304F06EF840F2044379
:101FA00005A911480593069407950894099604F02D
:101FB00063F84FF4605305A90C4805930694079500
:101FC0000894099604F058F85C202A46294601F046
:101FD000A3FB5C2001F0E8FB0AB070BD005000528A
:101FE000004402580010025800040258000C025825
:101FF00008B50A487F220A4B8260FF220360002353
:10200000C260436003618361C361436107F0ACFD5B
:1020100018B1BDE80840FFF759BF08BD680E00249D
:10202000004000580268044B9A4204D1034A136FDF
:1020300043F40043136770470040005800440258BF
:1020400010B50123054C2370FEF7FEFE234618B998
:10205000227802F0FE022270187810BD14000024CD
:1020600010B50123044C2370FEF7B2FE10B9FFF740
:10207000E7FF2070207810BD14000024FFF7E0BFB8
:1020800008B5084611461A464FF0FF33FEF7BCFE6E
:1020900020B9FEF7D9FE0028FBD108BD012008BDFC
:1020A000124B10B51B788AB01446DB071BD40329EA
:1020B00003D8DFE801F010050B1204200AB010BDB0
:1020C00001A8FEF7CBFE079B236004E001A8FEF702
:1020D000C5FE089B23800020F0E701A8FEF7BEFEA6
:1020E000089B5B0AF0E70320E8E700BF1400002428
:1020F00008B5084611461A464FF0FF33FEF794FE26
:1021000020B9FEF7A1FE0028FBD108BD012008BDC3
:1021100070B588B004461422002103A810F01CFA00
:102120002268264B9A4246D1254B0C2502240326D1
:10213000D3F8D4200DEB0501224842F48032C3F8D5
:10214000D420D3F8D42002F480320092009AD3F83D
:10215000E02042F00402C3F8E020D3F8E02002F0CF
:1021600004020192019AD3F8E02042F00802C3F879
:10217000E020D3F8E030049403F0080306960795B6
:102180000293029B4FF4F853039303F075FF04236B
:10219000049400240DEB05010B4803930594069667
:1021A000079503F069FF31202246214601F0B4FA79
:1021B000312001F0F9FA08B070BD00BF0070005284
:1021C0000044025800080258000C025808B515488F
:1021D0004FF480031449072280E80A004FF0806121
:1021E0000023C26081614FF00051C2624FF0804213
:1021F000836003614361C16103624362836242633E
:102200008363C363036443648364C3640365436596
:10221000836508F06BFD18B1BDE80840FFF756BEB6
:1022200008BD00BF801000240030014008B51548EB
:102230004FF480031449072280E80A004FF08061C0
:102240000023C26081614FF00051C2624FF08042B2
:10225000836003614361C1610362436283624263DD
:102260008363C363036443648364C3640365436536
:10227000836508F03BFD18B1BDE80840FFF726BEB6
:1022800008BD00BFF80F002400340140F0B591B044
:102290000646142200210BA810F05EF9102200213E
:1022A00007A810F059F93368924A934240F09A8097
:1022B000914B022503270524D3F8F0200BA98F4862
:1022C00042F48052C3F8F020D3F8F02002F4805298
:1022D0000092009AD3F8D82042F00102C3F8D82027
:1022E000D3F8D82002F001020192019AD3F8E0203D
:1022F00042F00102C3F8E020D3F8E02002F001022E
:102300000292029AD3F8E02042F00802C3F8E020DB
:10231000D3F8E0300C9503F008030F940E97039365
:10232000039B60230B9303F0A7FE80230C950025ED
:1023300073480BA90B930F940D95724C0E9703F0F5
:102340009BFE714826234FF0400EE5606561A56154
:10235000E5612562A762E562256384E809404FF4E0
:102360008063204623610423636201F06FFD08B19E
:10237000FFF7ACFD654D002725236549B467284666
:10238000A663EF606F61AF61EF612F62E762276361
:1023900085E88A004FF480632B6104236B6203237A
:1023A000A36201F053FD08B1FFF790FD062307A9D2
:1023B00056480793012308978DF824708DF82570EF
:1023C0000A9302F0E3F808B1FFF780FD0022232012
:1023D000F5671146AE6301F09FF9232001F0E4F99F
:1023E00011B0F0BD4B4A9342FAD1434B03270BA9DE
:1023F0004948D3F8F0200025484C42F40052C3F875
:10240000F020D3F8F02002F400520492049AD3F89A
:10241000D82042F00102C3F8D820D3F8D82002F027
:1024200001020592059AD3F8E02042F01002C3F8A9
:10243000E020D3F8E0300E9703F010030693069BDC
:102440004FF4E0430B9302230C9305230F9303F007
:1024500013FE334A53232046A560E5606561A561FC
:10246000E5612562A7622F46E5622563254684E87B
:102470000C004FF4806323610423636201F0E6FCE7
:1024800008B1FFF723FD062307A92448079301237A
:1024900008978DF824708DF825700A9302F076F86D
:1024A00008B1FFF713FD1F4C4FF480621E4B5427F9
:1024B0004FF0400E22610422F5672046AE6362624F
:1024C000032284E888400023AA62E3606361A36179
:1024D000E3612362EB622B6301F0B8FC08B1FFF704
:1024E000F5FC00225420B4671146A66301F014F9EC
:1024F000542073E7003001400044025800000258A5
:10250000000C025880110024100002400811002421
:10251000280002400034014000100258080F002437
:1025200040000240800F0024580002401C4B07B5B9
:10253000D3F8F420012042F00202C3F8F420002274
:10254000D3F8F430114603F002030193019B01F02C
:10255000E3F8012001F028F900220420114601F0DF
:10256000DBF8042001F020F900220520114601F0DB
:10257000D3F8052001F018F900225120114601F08E
:10258000CBF8512001F010F900227D20114601F016
:10259000C3F87D2001F008F903B05DF804FB00BF2B
:1025A000004402587047FEE7FEE7FEE7FEE770478B
:1025B0007047704708B501F057F8BDE80840FFF7CD
:1025C00067BA05F081BB03F011BC7047012003F02E
:1025D000E5BE08B54FF4807003F0E0FE4FF40070E4
:1025E000BDE8084003F0DABE082003F0D7BE0000C3
:1025F00008B5044800F0E9FE0348BDE8084001F0D2
:102600008FBE00BF9C0D00248011002408B5044833
:1026100000F0E4FE0348BDE8084001F081BE00BFC1
:102620009C0D00240811002408B5044800F0D6FED3
:102630000348BDE8084001F073BE00BFC80D002488
:10264000080F002408B5044800F0BFFE0348BDE8A9
:10265000084001F065BE00BFC80D0024800F0024B3
:10266000014801F05DBE00BF68130024014801F07D
:1026700057BE00BFF0120024014801F051BE00BF58
:10268000F8110024014803F04BB900BF0C0B0024E3
:10269000FFF7F8BF014803F043B900BFA80B0024BF
:1026A000FFF7F8BF08B5064B5B691B0702D5054865
:1026B00000F097FE0448BDE8084009F00BB900BFE0
:1026C000003001409C0D00248010002408B5064B0A
:1026D0005B691B0702D5054800F083FE0448BDE88E
:1026E000084009F0F7B800BF00340140C80D0024CD
:1026F000F80F0024014809F03BBA00BF5814002429
:10270000014801F00DBE00BFE0130024014808F0AD
:102710008DB900BF8C0E0024014801F001BE00BF3E
:1027200020050024014801F0FBBD00BF6004002427
:10273000014801F0F5BD00BFE8030024014801F0A5
:10274000EFBD00BF7C0C0024014802F097BB00BF26
:10275000B8050024FFF7F8BF08B5044803F0E0F817
:102760000348BDE8084003F0DBB800BF0C0B0024B1
:10277000A80B0024014803F0B1BF00BFD814002407
:10278000FFF7F8BFFFF7F6BF014801F0DDB800BF63
:10279000D804002408B5044803F0C0FE0348BDE88F
:1027A000084007F0A1B900BF440C0024580E0024D3
:1027B00070470000014809F0DBB900BF7012002427
:1027C000014805F0B5BB00BF0C0E0024014804F021
:1027D00059BF00BFF40C0024014805F081B900BFC7
:1027E000F40C002404F0B8BA08B50E484FF4E13EEA
:1027F0000D4B0C2280E80840002342618360C360D7
:1028000003618361C361036243628362C3620363E2
:10281000436309F0D9FF18B1BDE80840FFF756BB84
:1028200008BD00BF701200240078004008B50E48B3
:102830004FF4E13E0D4B0C2280E80840002342613A
:102840008360C36003618361C36103624362836227
:10285000C3620363436309F0B7FF18B1BDE80840E2
:10286000FFF734BB08BD00BF5814002400440040EB
:1028700070B58EB005461422002109A80FF06CFE39
:102880001022002105A80FF067FE2B687D4A9342B5
:102890007CD17D4B09A97D480026D3F8E8207C4CEB
:1028A00042F08042C3F8E820D3F8E82002F08042EA
:1028B0000192019AD3F8E02042F01002C3F8E02020
:1028C000D3F8E03003F010030293029B4FF4C0737F
:1028D000099302230A9307230D9303F0CDFB6D4860
:1028E0004F23E6606661A661E6612662666284E85F
:1028F00049004FF480632046236101F0A7FA08B134
:10290000FFF7E4FA062305A961480593012306961B
:102910008DF81C608DF81D60089301F037FE08B13A
:10292000FFF7D4FA40236C67A56350225A4C002667
:102930005A492046E6606661A661E66126626662E3
:1029400084E80E004FF48063236101F07FFA08B140
:10295000FFF7BCFA062305A94F4805930123069605
:102960008DF81C608DF81D60089301F00FFE08B112
:10297000FFF7ACFA002252202C671146A56300F045
:10298000CBFE522000F010FF0EB070BD444A9342BF
:10299000FAD13D4B09A943480026D3F8E820424C20
:1029A00042F40032C3F8E820D3F8E82002F4003201
:1029B0000392039AD3F8E02042F00802C3F8E02023
:1029C000D3F8E03003F008030493049B60230993D9
:1029D00002230A9307230D9303F04EFB33482B2366
:1029E000E6606661A661E6612662666284E8490087
:1029F0004FF480632046236101F028FA08B1FFF705
:102A000065FA062305A928480593012306968DF843
:102A10001C608DF81D60089301F0B8FD08B1FFF748
:102A200055FA002640236C672C22A5632049214CCF
:102A300084E84E004FF48063204666612361A661FE
:102A4000E6612662666201F001FA08B1FFF73EFA1C
:102A5000062305A917480593012306968DF81C60E7
:102A60008DF81D60089301F091FD08B1FFF72EFA73
:102A7000002226202C671146A56300F04DFE26207B
:102A800080E700BF00780040004402580010025860
:102A90006813002470000240F012002488000240F5
:102AA00000440040000C0258F8110024A00002402D
:102AB000B8000240E0130024D0F894020FF0C4BC28
:102AC000D0F894020FF0CEBCD0F894020FF0DDBC29
:102AD0007047000008B5D0F8900504F013F90328FA
:102AE0009ABF024B185C022008BD00BF24360108C3
:102AF00008B5D0F8900504F01BF903289ABF024BE3
:102B0000185C022008BD00BF2436010830B570B142
:102B1000CA6862B18C6854B10B6943B10D684968E9
:102B20008560C160046142618361002030BD4FF067
:102B3000FF3030BD73B5002346680446019366B18B
:102B4000A36998470546A3699847401BB0F5FA6FFB
:102B5000F9D901230025636027E0836803B1984712
:102B6000202300252360636901AA1221304698477B
:102B700000281DDB019B03F01F03B3421AD100257F
:102B8000266020681F2833D87DB923694FF400429E
:102B90002946984700282EDB636901AA2946206848
:102BA000984700280ADA6FF00405284602B070BD85
:102BB0006FF004050136202ED5D1E2E7A3699847CE
:102BC0000646019B1B0402D4002DEED1B8E7A36991
:102BD0009847801BB0F5FA7F07D8636901AA0021E6
:102BE000206898470028ECDADDE76FF00105E8E798
:102BF0006FF00205D9E76FF00305D6E714491548D1
:102C0000D1F8883043F4700310B5C1F88830124B06
:102C10001A6842F001021A6000221A611C68204002
:102C200018609A61DA611A629A62DA621A635A6308
:102C30009A63DA631A645A64186820F48020186072
:102C40001A660122054B1A604FF000638B6010BDBD
:102C500000ED00E07FEDF6EA0044025808810051E3
:102C6000F0B58FB005461422002109A80FF074FCBE
:102C70001022002105A80FF06FFC2B691A688F4BFA
:102C80009A427DD18E4B0224052709A9D3F8F02062
:102C900000268C4842F48052C3F8F020D3F8F0208C
:102CA00002F480520092009AD3F8E02042F0010230
:102CB000C3F8E020D3F8E02002F001020192019A6B
:102CC000D3F8E02042F00802C3F8E020D3F8E03067
:102CD0000A9403F008030C940D970293029B60235F
:102CE000099303F0C9F98023774809A90A94099345
:102CF0000C940D974027754C0B9603F0BDF9744862
:102D00002623E6606661A661E66184E889004FF4E7
:102D10008063204623614FF40033236204236362FF
:102D200001F094F808B1FFF7D1F8062305A9674828
:102D30000593012306968DF81C608DF81D6008939D
:102D400001F024FC08B1FFF7C1F82B694FF4806251
:102D500060489C67A36325235F49026180E80A00FD
:102D600000238360C36043618361C3614FF4003318
:102D700003620423436201F069F808B1FFF7A6F883
:102D80002B691A68554B9A426AD14D4B002654481C
:102D900009A9D3F8F020534C42F40052C3F8F020B4
:102DA000D3F8F02002F400520392039AD3F8E02003
:102DB00042F01002C3F8E020D3F8E0300B9603F0A5
:102DC00010030493049B4FF4E043099302230A93F6
:102DD0000C9305230D9303F04FF9434B4FF0530E23
:102DE0002046A660E6606661A661E66184E8084068
:102DF0004FF4806323614FF4003323620423636242
:102E000001F024F808B1FFF761F8062305A9354859
:102E10000593012306968DF81C608DF81D600893BC
:102E200001F0B4FB08B1FFF751F82B6954262F4885
:102E30004027DC674FF48062A3632D4B026180E87A
:102E4000C8000023C36043618361C3614FF4003352
:102E500003620423436200F0F9FF08B1FFF736F87C
:102E600028694FF480034FF08062002443600723F9
:102E700082614FF08052C360C3624FF08043846030
:102E800004614461C2610462446284624363846396
:102E9000C463046444648464C464046544658465F0
:102EA00007F024FF38B928680122A98803F04AFAFC
:102EB00001200FB0F0BD2046FBE700BF003001400D
:102EC0000044025800000258000C025880110024EF
:102ED0001000024008110024280002400034014084
:102EE00000100258080F002440000240800F002408
:102EF0005800024030B50D4685B004460022818856
:102F0000006803F01FFAAA074FEA850303A92069A6
:102F100003F47C734CBF43F4405343F440631A0AF8
:102F20008DF80D30FF238DF80C2002AA8DF80E309D
:102F30008DF80F3041F288330093042308F012F922
:102F400020680122A18803F0FDF99DF80B009DF88F
:102F50000A3043EA002005B030BD73B50E46044682
:102F6000154681880022006803F0ECF9B2074FEAA9
:102F700086038DF806504FEA1525206903F47C730B
:102F80008DF807504CBF43F4405343F4406343F47F
:102F900080431A0A8DF805304FF4FA638DF8042047
:102FA00004220DEB020107F0B5FF0122A188206881
:102FB00003F0C8F902B070BD70B5144605460E4660
:102FC000FFF798FF40EA04022846314692B2BDE876
:102FD0007040FFF7C2BF70B5144605460E46FFF7B6
:102FE00089FF20EA04022846314692B2BDE87040CB
:102FF000FFF7B3BF10B5044681B102222621FFF7C7
:10300000DBFF012000F042FB022220462621FFF7D1
:10301000E2FF0120BDE8104000F038BB012226216C
:10302000FFF7CAFF012000F031FB0122EDE74FF46A
:1030300000529021FFF791BF2DE9F0470446FFF7BA
:103040000FFE002800F0CB8000F01AFB48F6700756
:103050008046DFF8BC9100212046FFF7CBFF00F04F
:103060000FFB8246C0212046FFF744FF064600F0D2
:1030700007FBA0EB0A0026F00F050A2840F2B180FA
:1030800000F0FEFAA0EB080064280BD94846FDF7D3
:103090009BFC5648FDF798FC3046FDF7DDFC544894
:1030A000FDF792FCADB2BD42D5D15248FDF78CFC84
:1030B0005148FDF789FC23691A68504B9A4202D1A6
:1030C0004F48FDF781FC23691A684E4B9A4202D1A2
:1030D0004D48FDF779FC4D48FDF776FC3046FDF78D
:1030E000BBFC4348FDF770FC637E227E1021204626
:1030F00043EA0222FFF731FFE37DA27D1221204641
:1031000043EA0222FFF729FF637D227D1421204636
:1031100043EA0222FFF721FF4FF480428421204638
:10312000FFF71BFF4FF4F77270212046FFF715FFE2
:103130004FF4804286212046FFF70FFF01229C2199
:103140002046FFF70AFF47F6F16274212046FFF799
:1031500004FF9E2276212046FFF7FFFE4FF40C72FB
:1031600082212046FFF7F9FE042220212046FFF7A6
:10317000F4FE4FF40052F6212046FFF71DFFF62122
:103180002046FFF7B7FE830404D42022F621204610
:10319000FFF721FF4FF6FF7292212046FFF7DDFE79
:1031A0004FF4C062B0212046FFF7D7FE4FF4806293
:1031B000B2212046FFF7D1FE2046FFF738FF01225B
:1031C00070212046FFF7F8FE012274212046FFF708
:1031D000F3FE82212046FFF78DFE60830120BDE8CB
:1031E000F087ABB2BB427FF43DAF49E7A63601089A
:1031F000BE360108C4360108CA3601080030014055
:10320000E03E010800340140D4360108F5350108DC
:10321000A036010870B48380039B059D8360002362
:10322000BDF8106001618681026083832B68436171
:10323000AB88038370BCFFF7FFBE00229021FFF72D
:103240008CBE4FF6FF729221FFF787BE0D2AF0B5B4
:10325000064685B00F46154634D98188002200689D
:1032600003F070F805F003039CB214B1C3F1040439
:10327000E4B22C4404A980230B22A4B2306901F8E3
:103280000C3D4FF4FA6307F045FE4FF4FA63224613
:103290003946306908F010F960B10B48FDF794FB2E
:1032A0000A48FDF791FB40F2AB30FDF796FB08486A
:1032B000FDF78AFB0122B188306803F043F820460D
:1032C00005B0F0BD0024FAE738360108653601087C
:1032D0006836010810B5044648F201027421FFF770
:1032E0007AFE20464FF400427421FFF765FE204627
:1032F0004FF400427421FFF76EFE20460122742134
:10330000BDE81040FFF758BE2DE9F84388469221EA
:1033100004469146FFF7EEFD10F4005512D020460A
:10332000FFF78BFF4FF4005292212046FFF744FE37
:103330009C212046FFF7DEFDC0F30F252DB9204666
:10334000FFF775FE2846BDE8F8832F4600257C214F
:103350002046013FFFF7CEFD0304BFB203D543F67D
:10336000174318420AD0012282212046FFF724FE8B
:10337000002FECD12046FFF764FFE0E77E212046D6
:10338000FFF7B8FDC0F30B05002DECD0EE1C26F0C6
:103390000306B6B24E45E6D8042DE4D920464FF4D4
:1033A00080428621FFF7D9FD204618228221FFF7AF
:1033B00003FE324641462046FFF748FF08220546F5
:1033C00082212046FFF707FED2E7012380F8203054
:1033D000704790F82030012BFBD170470123C37751
:1033E0007047012380F82130704790F82130012B7D
:1033F000FBD17047F7B5144605460F460022818879
:10340000006802F09FFF0D2C6CD914F00302C4F386
:103410000A064FF0C003694614BF06F003021446C3
:103420008DF8003018BFC2F10402AB8B286918BFB9
:10343000D4B25A1C03F03F038DF80360AA8305221F
:103440008DF8013000238DF80230330A8DF80430F6
:103450004FF4FA6307F05EFD60B12348FDF7B4FA5C
:103460002248FDF7B1FA40F22E40FDF7B6FA2048A7
:10347000FDF7AAFA321927F01F03BFF34F8F02F1AD
:103480001F0103F1200021F01F0101441948C0F879
:10349000683220339942FAD1BFF34F8FBFF36F8F59
:1034A00000233946286985F8213085F8203008F056
:1034B00021F960B10C48FDF787FA0C48FDF784FA52
:1034C00040F25440FDF789FA0B48FDF77DFA284693
:1034D000FFF77FFF2846FFF788FF0122A9882868A9
:1034E00002F030FF03B0F0BD383601086536010840
:1034F0006836010800ED00E08236010870B5044628
:103500000E46154680212046FFF7F4FCC207F9D489
:1035100078212046FFF7EEFC05F10802C0F30C000D
:1035200092B2904213D29E212046FFF716FD02224E
:1035300080212046FFF740FD92212046FFF7DAFC6C
:103540004306F9D5402292212046FFF735FD20465B
:10355000FFF773FE204608228221FFF72DFD2A4641
:1035600031462046FFF746FF204608228221FFF71A
:1035700032FD204601228021FFF71EFD2046BDE8D6
:103580007040FFF754BD00007FB50A4A04AB0A49FA
:1035900010680293002392880490ADF814200193E0
:1035A00000931023054A0648FFF734FE07B05DF884
:1035B00004FB00BF70330108801000240000025893
:1035C0009C0D00247FB50A4A04AB0A491068029397
:1035D000002392880490ADF81420019300934FF4D7
:1035E0000063054A0548FFF715FE07B05DF804FBC8
:1035F00076330108F80F002400100258C80D00248B
:1036000038B50E4B05460E4A18784FF47A73B3FB63
:10361000F0F31068B0FBF3F000F0DAF8044658B9A4
:103620000F2D09D8024629464FF0FF3000F074F8FC
:10363000044B20461D6038BD012038BD2000002409
:10364000180000242400002410B5032000F046F8E0
:103650000020FFF7D5FF044618B9FEF767FF2046A4
:1036600010BD0124FBE70000034A044B11681B78DE
:103670000B441360704700BFCC00002420000024DE
:10368000014B1868704700BFCC00002438B50446D1
:10369000FFF7F6FF0546631C1EBF044B1B78E418BA
:1036A000FFF7EEFF401B8442FAD838BD200000240B
:1036B00030F4000310B5044604D040F21721054849
:1036C000FEF705FC044B586820F460002043586066
:1036D00010BD00BFD736010800040058C31E042BDC
:1036E00010B5044603D9A2210948FEF7F0FB094AA8
:1036F0002402D36804F4E06423F4E0631B041B0C8D
:1037000043F0BF6343F400331C43D46010BD00BFDB
:103710001137010800ED00E00F2A70B504460E468F
:10372000154603D9BA211D48FEF7D1FB0F2E03D948
:10373000BB211A48FEF7CBFB194B0120D968C1F316
:103740000221C1F107030A1D042B28BF0423062A06
:1037500000FA03F28CBF03390021002C02F1FF3282
:1037600000FA01F002EA060200F1FF3002FA01F26B
:1037700005EA000542EA05024FEA021207DB04F1FE
:103780006044D2B204F5614484F8002370BD04F0B3
:103790000F04D2B2034B1A5570BD00BF1137010898
:1037A00000ED00E014ED00E0002803DACE21064829
:1037B000FEF78DBB4209012300F01F0003FA00F061
:1037C000024B43F8220070471137010800E100E086
:1037D0000138B0F1807F0AD2064BF021064A5860CA
:1037E000002082F82310072298601A607047012099
:1037F000704700BF10E000E000ED00E0BFF35F8F16
:10380000044A536A23F4803353620022024B5A6005
:10381000704700BF00ED00E090ED00E0064A40F088
:103820000100064B5860536A43F480335362BFF380
:103830004F8FBFF36F8F704700ED00E090ED00E019
:1038400038B5437804460F2B04D940F23D113B486C
:10385000FEF73DFB2378012B04D94FF49F713748C5
:10386000FEF735FB6278364B9A601D462278002AB7
:1038700060D0237B012B04D94FF4A3712F48FEF7AE
:1038800026FBE37A032B07D9053B012B04D940F231
:1038900047112A48FEF71BFBA37A022B04D94FF4E9
:1038A000A4712648FEF713FB637B012B04D940F279
:1038B00049112248FEF70BFBA37B012B04D94FF4DF
:1038C000A5711E48FEF703FBE37B012B04D940F2F0
:1038D0004B111A48FEF7FBFA637AFF2B04D14FF421
:1038E000A6711648FEF7F3FA237A043B1B2B04D982
:1038F00040F24D111148FEF7EAFA6368EB60E37A93
:10390000227B1B0643EA027322781343A27A43EA1E
:10391000C243627B43EA8243A27B43EA4243E27BA7
:1039200043EA0243627A43EA0223227A43EA4203E9
:103930002B6138BDDA601A6138BD00BF113701084C
:1039400090ED00E0704770470368D969DA6970B597
:103950008D07044601D4D0075FD5626932F01800A4
:1039600022F008015AD194F84120022A40F0D88070
:10397000DA69D10721D59A69D2071ED5E28D616A2D
:1039800092B251F822209A60E28D013292B2E28521
:10399000E28D92B251F82220618E9A60E28D01325E
:1039A00092B2E285E28D92B2914206D15A692046E6
:1039B00022F001025A61FFF7C5FF2368DA69960712
:1039C0002BD59A69950728D5D868228EA16A92B21C
:1039D00041F82200228E013292B22286D868228ECD
:1039E00092B241F82200228E618E013292B222867A
:1039F000228E92B2914210D15A6922F002025A618B
:103A00001A6822F400421A60002384F8403001232F
:103A100084F841302046FFF796FF70BD202902D080
:103A2000302A40F0828094F84120022A78D15A68E6
:103A3000900734D5E28D618E92B28A422FD2E28D08
:103A4000606A92B250F822209A60E28D013292B2FE
:103A5000E285E28D92B250F822209A60E28D013226
:103A600092B2E285E28D92B250F822209A60E28D05
:103A7000013292B2E285E28D92B250F822209A6031
:103A8000E28D013292B2E285E28D92B2914206D18C
:103A90005A69204622F001025A61FFF753FF23685A
:103AA0005A685107B9D5228E618E92B28A42B4D239
:103AB000DD68228EA06A92B240F82250228E013236
:103AC00092B22286DD68228E92B240F82250228E77
:103AD000013292B22286DD68228E92B240F82250E4
:103AE000228E013292B22286DD68228E92B240F896
:103AF0002250228E013292B22286228E92B29142BE
:103B00008BD15A6922F002025A61012284F84120C5
:103B10001A6822F400421A60002384F8403079E7E2
:103B2000636C43F00803636470BDB1F5002F7FF44C
:103B300074AF1A6812F4803262D0A28DE16992B239
:103B400091421AD15A6922F001025A611A6822F48C
:103B500000421A60022262631A6822F440321A603C
:103B60001A6842F400321A605A6942F003025A613C
:103B70001A6842F400421A6070BDA28D92B28A1A8D
:103B8000032A08D8002201F003018A4229D3002128
:103B9000032A32D970BDA28DA16992B251F82220B8
:103BA0009A60A28D013292B2A285A28D92B251F892
:103BB00022209A60A28D013292B2A285A28D92B289
:103BC00051F822209A60A28D013292B2A285A28D74
:103BD00092B251F822209A60A38D01339BB2A38543
:103BE00070BDA08D0132A56980B255F820009860A3
:103BF000A08D013080B2A085C7E799600132C7E788
:103C0000618E49B95A6922F003025A61012384F88E
:103C1000401084F8413070BDE08D80B2081A03284E
:103C200037DDE28D606A92B250F822209A60E28D10
:103C3000013292B2E285E28D92B250F822209A606F
:103C4000E28D013292B2E285E28D92B250F82220EA
:103C50009A60E28D013292B2E285E28D92B250F822
:103C600022209A60E28D013292B2E285E28D92B218
:103C7000914206D15A69204622F001025A61FFF7AB
:103C800061FE238E618E9BB28B42BFF4C6AE236869
:103C90000EE711F003053FF4C0AEAA42284618D340
:103CA000002201309A600428FBD15A6922F00102F7
:103CB0005A615A68520718D4228E92B291423FF646
:103CC000ACAE5A6922F003025A61012384F84130F4
:103CD00022E7E08D0132666A80B256F820009860D3
:103CE000E08D013080B2E085D7E7A56ADE68013853
:103CF000228E92B245F82260228E02F1010292B227
:103D00002286F3D1D8E70000F0B5446E856E866D4B
:103D10006560C46E14B1046F456F65600468134D2F
:103D20002544B5F5956F0ED8C76D3F25BD40B560EC
:103D3000256825F48025256063608368402B11D1B8
:103D4000A260E160F0BD0A4D25448C2D0CD8DFF84F
:103D500024E00125C66DDEF80470B5403D43CEF881
:103D60000450E9E7A160E260F0BD00BFF0FFFDBFD5
:103D7000F8ABFDA70054025803681821DAB223F407
:103D80007F73103A23F00303B2FBF1F20449032AD4
:103D9000895C88BF0433C1658365806D704700BF4F
:103DA000903701080168134B0B448C2BCBB210D811
:103DB0001422083BB3FBF2F303F1B05202F51642B2
:103DC000920002660C4A4266012202FA03F38366FD
:103DD00070471822103BB3FBF2F3084A0A44A82AA2
:103DE00098BF083303F1805202F502429200026646
:103DF000034AE8E7F8ABFDA780580258F0FBFDBF87
:103E000080080240027910B5541E072C0DD80368B3
:103E1000094919448C2909D8084B13449B00C366EF
:103E2000074B03670123A340436710BD054B1344B1
:103E30009B00C366044BF4E7F8ABFDA73F96001662
:103E4000405902583F8200104009024070B50446B4
:103E5000FFF716FC0546002C00F031812368A84AC4
:103E6000934249D01832934246D01832934243D0FD
:103E70001832934240D0183293423DD018329342C8
:103E80003AD01832934237D01832934234D002F5E8
:103E90005672934230D0183293422DD0183293424A
:103EA0002AD01832934227D01832934224D01832A5
:103EB000934221D0183293421ED0183293421BD025
:103EC000904A934218D01432934215D01432934240
:103ED00012D0143293420FD0143293420CD01432C9
:103EE000934209D01432934206D01432934203D045
:103EF000DE218548FDF7EBFFA36833F0400205D0D3
:103F0000802B03D0DF218048FDF7E1FFE36833F425
:103F1000007303D0E0217C48FDF7D9FF236933F417
:103F2000806303D0E1217848FDF7D1FF636933F462
:103F3000006206D0B3F5805F03D0E2217248FDF73E
:103F4000C6FFA36933F4005206D0B3F5804F03D007
:103F5000E3216D48FDF7BBFFE36933F0200206D093
:103F6000B3F5807F03D0E4216748FDF7B0FF236AF3
:103F700033F4403303D0E5216348FDF7A8FF2368FD
:103F8000624E9919B1F5956F00F2C4806368732B86
:103F900003D9EA215C48FDF79AFF636A33F0040312
:103FA00003D0EB215848FDF792FF636AB3B1A36ACF
:103FB000032B03D9F0215448FDF789FFE36A33F05E
:103FC000C07303D0F1215048FDF781FF236B33F418
:103FD000C00303D0F2214C48FDF779FF002384F899
:103FE0003430022384F8353023681A6822F0010245
:103FF0001A6021680B68D80757D40B68444DA26833
:104000001D40E368A06913432269134362691343A7
:10401000E26903431343226A1343626A042A43EAB0
:10402000050301BF266BE56A35432B43042A0B6069
:104030004B6923F0070343EA02030CD1A26AE56A45
:10404000134345B100283CD1012A4BD001D3022AA9
:1040500001D1EA0149D44B612046FFF78DFEE26DA4
:104060003F239340836020460025FFF79BFEA36813
:10407000226E802B04BF002363606368D9B2013BCA
:104080001160072B626EA16E516000F284802046A1
:10409000FFF7B8FEE36E626F1D60236F5A60002069
:1040A0000123606584F8353070BDFFF7E9FA401BE5
:1040B00005289ED920236365032384F83530012029
:1040C00070BDB0F5005F16D1032AC4D801A050F826
:1040D00022F000BFEB40000853400008EB4000080E
:1040E000E5400008B5F1C07FB5D1402301206365EC
:1040F00084F8350070BD022AF7D9032AA8E700BF6B
:10410000100002400854025852370108F0FFFDBF6A
:104110003F8010FE224D2B448C2B3AD86368112B24
:1041200004D94FF4AA711F48FDF7D1FE002322687D
:10413000A16884F834300223402984F835301668A9
:1041400026F4FF4626F0700621D0802914BF0020F7
:104150004FF4804023691544E168DB0843EAD1034A
:10416000616943EAD103A16943EAD103216A43EAC1
:104170001113E169C908334301F020010B430343E4
:1041800013601422B5FBF2F5AD00E5656BE7102076
:10419000E0E740238FE7E566256765677FE700BFB7
:1041A000F8ABFDA7523701082DE9F04117469846B4
:1041B0005A1E4FF6FE7304460E469A4204D940F248
:1041C00081213248FDF783FE002C58D094F834301A
:1041D000012B57D0012094F83530834284F8340005
:1041E0004FF0000344D121680222294D84F8352084
:1041F0003A4663654346086820F00100086031468E
:104200002046FFF781FD2368206C5A191968B2F522
:10421000956F22D821F01E0141F0160119605969ED
:1042200041F08001596118B1196841F00801196025
:10423000216E0868C00303D5086840F480700860E8
:10424000E16E19B1086840F4807008601A680020B7
:1042500042F001021A60BDE8F08121F00E0141F048
:104260000A0119600028E3D0196841F00401DEE773
:1042700084F834304FF400636365BDE8F0810120B9
:10428000BDE8F0810220BDE8F08100BF523701088F
:10429000F0FFFDBF10B528B190F83530022B03D0E8
:1042A00080234365012010BD03681B4A1A44B2F500
:1042B000956F08D8042280F835201A6822F0010290
:1042C0001A60002010BD1A6822F00E021A601A68E7
:1042D00022F001021A60026E136823F480731360E7
:1042E0000123C26D93400D4A5360436E826E5A6043
:1042F000C36E33B11A6822F480721A60036F426F82
:104300005A600123002480F83530036D80F8344072
:10431000002BD6D09847D4E7F0FFFDBF00540258D9
:1043200000232DE9F341924D044601930368866D05
:104330005A19D6F80080B2F5956F00F2C0808D4A08
:10434000C16D176808228A4018EA020F0BD018685E
:10435000400708D5186820F004001860B260626D4C
:1043600042F001026265844A8A4018EA020F07D0CF
:104370005869000604D5B260626D42F002026265BF
:104380007E4A8A4018EA020F07D01868800704D5D1
:10439000B260626D42F00402626510228A4018EA3F
:1043A000020F0FD0196809070CD5B2601A685003C4
:1043B0003FD51B68190301D4236C00E0A36C0BB13B
:1043C00020469847E06D2021814018EA010F41D036
:1043D00023685A19B2F5956F1A6894BFC2F3001298
:1043E000C2F34002002A35D0B16094F83520042A87
:1043F0001A6826D122F016021A605A6922F0800249
:104400005A61226C0AB9A26C1AB11A6822F0080229
:104410001A603F238340B360002384F834300123C3
:1044200084F83530236D0BB12046984702B0BDE8C3
:10443000F0811A68D205BFD41A6822F008021A6007
:10444000BAE756032CD51B68180336D4636C0BB13E
:1044500020469847636D002BE8D0636DD9071DD5C2
:10446000042384F8353023681A6822F001021A60A8
:104470004FF41652B7FBF2F7019A013297420192BC
:1044800002D31A68D207F7D41B680022DE0784F82B
:1044900034204CBF0323012384F83530E36CC2E79A
:1044A0001A6812F4807208D1196821F0100119609D
:1044B000012384F8342084F83530E36BC7E7304AB1
:1044C0001A448C2AB2D82F4A0421C06D1568814045
:1044D000294212D019684D070FD51A68900603D4E7
:1044E0001A6822F004021A60264A0423E06D51681B
:1044F00083400B435360236C95E71168022282408E
:104500000A4218D01A68910715D51A6812F02002CD
:1045100008D1196821F00A011960012384F83420B8
:1045200084F83530174A0223E06D516883400B430D
:104530005360E36B77E7134908220D6882402A42F3
:104540003FF474AF1A6812077FF570AF1A6822F053
:104550000E021A600122E36D486802FA03F3034376
:104560004B600023626584F8343084F8352095E789
:10457000F0FFFDBF1800002401008000040080004F
:10458000F8ABFDA700540258406D7047F8B56A4A71
:10459000044603680D4693424AD01832934247D0EE
:1045A0001832934244D01832934241D01832934289
:1045B0003ED0183293423BD01832934238D0183252
:1045C000934235D002F55672934231D0183293425D
:1045D0002ED0183293422BD01832934228D0183262
:1045E000934225D01832934222D0183293421FD0E2
:1045F000183293421CD0514A934219D0143293423C
:1046000016D01432934213D01432934210D0143285
:1046100093420DD0143293420AD01432934207D001
:104620001432934204D040F25D114548FDF74FFC2F
:104630002B7A012B04D94FF4AF714148FDF747FCA9
:104640006B7A012B04D940F25F113D48FDF73FFC26
:10465000EB68013B1F2B04D94FF4B0713848FDF7CC
:1046600036FC2B7A012B5BD16B6833F4C02304D06A
:104670004FF4B2713248FDF72AFC2268314B1344E3
:10468000B3F5956F2B6846D8072B04D94FF4B47156
:104690002B48FDF71CFC95E8011094F83530012BF0
:1046A00042D194F83430012B43D0266E4FF0F85E9F
:1046B000336823F48133336033689EFAAEFE4FF4DF
:1046C0007807BEFA8EFE97FAA7F74FF48031B7FA53
:1046D00087F791FAA1F14FF40072B1FA81F192FAE1
:1046E000A2F200FA0EFEDBB2E868B2FA82F243EA06
:1046F0000C03013843EA0E03B8400343287A00FA5A
:1047000001F100200B43697A01FA02F2134333608E
:1047100084F83400F8BD0F2BBDD94FF4B671B7E75C
:104720004FF0000C6046B8E74FF40063012063656A
:10473000F8BD0220F8BD00BF100002400854025826
:1047400098370108F0FFFDBF8B680A6891F804C034
:104750001A430B7C002B2DE9F04F08BF4FF40023C8
:1047600085B018BF002391F80CE04F7B00934B7C81
:104770008E7B002BCD7B8C7C0CBF4FF40033002351
:1047800091F81C9001934B6991F81DB01A438B6905
:1047900013438A7F002A0CBF4FF4806200220292EA
:1047A000CA7F039291F82020002A0268486AD2F852
:1047B00000A008BF4FF4807843EA0003C86A2AF0DB
:1047C0007F4A18BF4FF00008034303982AF47B0A7E
:1047D0002AF4FE4A2AF07C0A43EA0A0343EACC633D
:1047E00043EACE5343EA875343EA465343EA055329
:1047F00043EA044343EA093343EACB2391F828B060
:1048000043EA4023009843EA0B1303430198034310
:104810000298034343EA08031360CE6B91F83230E9
:1048200091F83870002B536891F8305023F07C5386
:1048300091F831400CBF4FF48030002023F4EF2377
:1048400023F4FF6323F0070343EA46634E6B3343CD
:104850008E6C43EA076343EA85430D6D43EA4443A4
:1048600091F854400343486C5360D36823F4877332
:1048700023F00103034391F8400043EA0023D3608F
:1048800091F84C30002B136F23F0F2030CBF802003
:1048900000201B041B0C43EA06432B43CD6D43EA67
:1048A000440391F8614003431367D2F8900091F8F4
:1048B000563020F00300034391F8550043EA4003CB
:1048C000886DC2F89030D2F8003D23F072030343A4
:1048D000C2F8003D91F8603091F86210002BD2F8D8
:1048E000303D23F07B030CBF402000202B4343EAE4
:1048F000041343EAC1030343C2F8303D05B0BDE8E9
:10490000F08F0000026802F58050036823F4F04342
:1049100030B523F002030C680D79234341F20404FF
:1049200003600B7B1059DB0320F4504043EA05334E
:104930008D6820F001002B43034302F5885013518A
:10494000124B05684C7B2B4043EA04430C6A23431B
:1049500041F2041403604B7F087D1B03155943EAA1
:104960000013086903430A482840034341F2081032
:10497000135113580C7F23F00043896923F47C13EF
:1049800043EAC4730B43135030BD00BF00C0FEFFA9
:10499000EFEFC0FF2DE9F04FD0F828E0934600EB91
:1049A0008E0ADAF81830DD68002D02DA0220BDE840
:1049B000F08F0C688E6814F004072AD02D0C4A6A18
:1049C000D0F800802D0445EA020C4CF48032DA6005
:1049D000D8F8602042F48012C8F86020220718D569
:1049E0009D68AAB2CD6A42EA05450A6B9D6042F411
:1049F00040322CF440252A43DA60D8F8642042F48F
:104A00008012C8F86420D8F8502042F08062C8F8BC
:104A1000502014F010080BD09D688A6925F47F554A
:104A200025F03F052A439A60DA6842F08062DA6036
:104A300014F0140C18D0DA6842F04045DD600EF135
:104A40000105032D88BFAEF1030500EB850CDCF8F2
:104A500018C0DCF80C90B9F1000F5FDA22F00042C8
:104A600042F08042DA60A1E77546D3F808900CF175
:104A7000010C326829F47F591A6029F03F097268E5
:104A800049EA0209B268C3F8089029F07F5929F46D
:104A90007C19002A46D016685E60566849EA0646C8
:104AA0009E60DE68B8F1000F44D026F4F0080E6A6C
:104AB00048EAC648CE694FEA984846F480264FEA4D
:104AC000884848EA0608C3F80C802FB19E6826F48F
:104AD00040478E6A3E439E60DE6826F0804747F07E
:104AE0002047DF60A70706D5CC6826F0874644F04C
:104AF00020443443DC60524E9468B4BB9A68BBF1E6
:104B0000000F00F0998042F000429A60DA6842F0AB
:104B10008052DA6085620020BDE8F08F63464FF076
:104B2000010CA2E71A715A719A71DA713246C3F810
:104B30000890B6E726F4FF484E6814F0010F28F0FD
:104B40007F0848EA0606DE601FBF26F440384E693B
:104B500048EA0606DE60A606B7D5DE6826F040689D
:104B60000E6948EA0606DE60AFE76F1C032F88BFB8
:104B7000EF1E00EB87039B69D3F80C80B8F1000FA0
:104B800015DADAF81810002294453FF40FAFCB681D
:104B9000013223F00043CB600EF10103032B88BFE9
:104BA000AEF1030300EB83019E468969ECE72268BE
:104BB0000CF1010CD3F808901A6009EA0609626842
:104BC00049EA0209A268C3F8089029F07F5929F43C
:104BD0007C19D2B15568146849EA05455C609D604E
:104BE0000D68EC0619D5CC694FEA984844F4802446
:104BF0004FEA884848EA0404DC60DC683D4624F05B
:104C0000804444F00044DC6076E71A715A719A716E
:104C1000DA712246C3F80890E2E728F4FF484C68AE
:104C200028F07F0848EA0408EC07C3F80C80E4D5B4
:104C300028F440384C69DDE722F0004265E700BF08
:104C400000C0FFFF0AB1032903D9012343651846B9
:104C5000704700EB8100C16A0A600A61CA6842F0CD
:104C60008070C86023B142F040728B604B61CA60B3
:104C7000CB68002043F00043CB60704790F8512090
:104C8000D2B2102A10B52AD1232341F2041480F89D
:104C900051300368196841F002011960196841F048
:104CA00001011960D3F8001D41F00101C3F8001D96
:104CB000195941F00101195141F20814195941F0F3
:104CC0000101195103F58B53196841F48171196081
:104CD000222380F8512080F85230002010BD01209E
:104CE00010BDF8B50446154629B9436D43F00103DC
:104CF00063650120F8BD90F85130102BF9D10022E6
:104D0000FFF748FE18B1636D43F00203F0E7A36AB2
:104D10009A1D54F822605A1C032A8ABF033BA262E0
:104D2000A362A26A2368063203F5895354F822204D
:104D30001A60FEF7A5FC0746F268002A04DB102380
:104D4000002084F85130F8BD236803F58B531968AF
:104D5000C90409D5626D42F0080262651B68A3654B
:104D6000E02384F85130C4E76B1CE6D0FEF788FCE2
:104D7000C01B854201D3002DDED1636D43F00403D7
:104D800063651023EDE7F0B5456C6DB9C46B2A4639
:104D90002946052600EB8403DF6AFF68002F1BDA33
:104DA00000293BD1002343640020F0BDBF000AD599
:104DB000032B4FF0010188BFE31E00EB8302D76A8B
:104DC00022461C46E9E7032B01F1010188BFE31EDF
:104DD00000EB8304E76AF4E7013EE1D017F0805F5F
:104DE00004F10103E2D00131012908BF2246032B5F
:104DF00088BFE31E00EB8304E46AE468002C08DB50
:104E0000640006D5012484641C19032C8CBF033B69
:104E10002346C363026441640120F0BD00EB8203BA
:104E200000244FF0010E4FF0030CDB6A1E691C7367
:104E30001E605E695C739C7383F80FE016B19E6020
:104E400083F80FC0DE6846F00047DF60C76C17B11B
:104E500046F04046DE60531C0135032B8CBF033AFD
:104E60001A46A94200EB8203DB6ADFD19AE770475A
:104E7000704770477047704770477047036803F585
:104E80008B521268520610B5044611D541F2341205
:104E90009B5859060CD5FFF776FF012802D1204612
:104EA000FFF7E6FF236848F2400203F58B531A60D0
:104EB000236803F58B521268D2070DD541F23412E4
:104EC0009B58D80708D52046FFF7D1FF236848F242
:104ED000010203F58B531A60226802F58B5319689F
:104EE00049041DD541F234115058400418D5606D65
:104EF00040F0080060651868C0044DD5186841F29C
:104F0000021383430CBF01230023A365535823F4EA
:104F100040435350E02384F851302046FFF7A9FF67
:104F20002268D2F8B03003F4C043B3F5C04F0AD1C1
:104F3000D2F8B8302046E365E02384F85130FFF71B
:104F400099FF0023E3652368D3F8B020D00609D584
:104F5000D3F8C030204603F060032366FFF78BFFD1
:104F6000002323662368D3F8B020910609D5D3F82F
:104F7000C030204603F00F036366FFF77DFF002378
:104F800063660C4B9A6A520205D54FF480022046A4
:104F90009A62FFF772FF10BD1A6802F4CD42A2F5C3
:104FA000CD4EDEF1000242EB0E02A2654FF4CD427F
:104FB0001A60B2E78000005870B5044600681D46CC
:104FC000D0F80032DB0701D5012070BDD0F80032E7
:104FD00023F0787343EA415121F4F81141EA024287
:104FE00042F00D02C0F80022FEF74AFB0646236895
:104FF000D3F8000210F0010004D1D3F804329BB2C0
:105000002B6070BDFEF73CFB801BB0F57A7FEED9BC
:10501000DAE7000038B504460068D0F80052ED0722
:1050200001D5012038BDD0F800029BB220F0787085
:1050300040EA415121F4F81141EA02420C4922F0C0
:105040000C02C1F8043242F00502C1F80022FEF75A
:1050500017FB05462368D3F8000210F0010000D1C9
:1050600038BDFEF70DFB401BB0F57A7FF2D9D8E7CB
:105070000080024038B503680546D3F8004203F0CB
:105080001BFD124B124A24F470640344934205D86A
:1050900044F400742B68C3F8004238BD0D4B0E4A2F
:1050A0000344934202D844F44074F3E70B4B0C4A98
:1050B00003449342EED90B4B0B4A0344934294BFF3
:1050C00044F4807444F48064E4E700BF00D3CEFE6F
:1050D000BFE1E40040F1E9FD3F787D0100796CFC1F
:1050E000FF596202001F0AFA7FF0FA0270B5054606
:1050F000A4B0002800F0C08090F851300BB9FBF745
:10510000F9FF2323287A85F85130964BD3F8F42001
:1051100042F00202C3F8F420D3F8F43003F00203A3
:105120000193019B002840F09880FEF7C1FA2B689C
:1051300003F580531A6842F001021A60FEF7A0FAE4
:1051400006462B6803F580531C6814F0010440F0F8
:1051500087802846FFF78EFF2E6803F0ADFC824B58
:105160000BA914948DF849408DF84B408DF85440AC
:105170008DF864401A948DF88D408DF88E408DF82E
:1051800038400D948DF83E408DF848401F941D9492
:1051900016948DF86C408DF882408DF85D40B0FB20
:1051A000F3F04FF40053013811934FF4C363C6F882
:1051B000DC0001261893202328468DF83B602293BB
:1051C0004FF040538DF830600B934FF480438DF8CF
:1051D0005E60109302238DF83A608DF88C608DF834
:1051E0003D608DF84A608DF84C608DF83940219310
:1051F0008DF880408DF881408DF85C408DF83C60E2
:105200001C948DF87860FFF79FFA4FF4001302A901
:1052100028468DF80C60089306934FF406730496A5
:105220000A9302948DF824408DF815408DF81440AF
:105230008DF81C408DF82540FFF764FB29686869EC
:1052400001F58852136823F4E01343F4002313603C
:1052500010F0030212D06E650BE04FF4000064E71B
:10526000FEF70EFA801BB0F5FA7F7FF66AAF0423D3
:105270006B65E02385F85130012071E041F208149C
:105280000B5923F4FF4323F07E0343EA4003E8680D
:105290000B5100F1600605F1180403461A705A70AC
:1052A0009A70DA701A715A719A71DA711A725A72A6
:1052B0009A72DA721A735A739A73DA7344F8043B67
:1052C0001833B342EAD1AA6241F22C13032200241C
:1052D000CA5041F214132A69C85001F5895302F1EA
:1052E0006006186005F12C0013461C705C709C7001
:1052F000DC701C715C719C71DC711C725C729C7244
:10530000DC721C735C739C73DC731C745C749C7423
:10531000DC741C755C759C75DC7540F8043B1833B7
:10532000B342E2D1032041F23013EC632C646C648D
:10533000EC64AC64C85041F21C130020CA504832DF
:1053400041F22813CA506B689A88C1F800231B6881
:10535000C1F8043310236C6585F8513085F852305C
:1053600024B070BD0044025840420F002DE9F84FB0
:105370000446002800F0828203689E4A934240F06F
:10538000A9829D4B4360A36833F4807206D0B3F5C5
:10539000407F03D0E6219948FCF799FDE368042B90
:1053A00003D9E7219548FCF792FD237C012B03D913
:1053B000E8219248FCF78BFD637C012B03D9E9219E
:1053C0008E48FCF784FDA37C012B03D9EA218B488E
:1053D000FCF77DFD6369013BB3F5007F03D3EB214F
:1053E0008648FCF774FDA369013B7F2B03D9EC21B0
:1053F0008248FCF76CFDE369023BFE2B03D9ED21EB
:105400007E48FCF764FD236A023B7E2B03D9EE2124
:105410007A48FCF75CFDA368B3F5407F1FD1636A4F
:10542000013B1F2B03D9F1217448FCF750FDA36AFF
:10543000013B0F2B03D9F2217048FCF748FDE36ACA
:10544000013B1F2B03D9F3216C48FCF740FD236B74
:10545000013B0F2B03D9F4216848FCF738FDA36BFF
:10546000802B03D9F6216548FCF731FDE36B402B17
:1054700003D9F7216148FCF72AFD236C402B03D99F
:10548000F8215E48FCF723FD236C53B1626C122AAD
:1054900003D85B4BD340DF0703D4FB215748FCF70D
:1054A00016FDA36C402B03D9FD215448FCF70FFDDA
:1054B000A36C5BB1E26C122A03D8514BD340DE07D8
:1054C00004D44FF480714D48FCF701FD236D402B4F
:1054D00004D94FF481714948FCF7F9FC236D5BB1A5
:1054E000626D122A03D8464BD340DD0704D440F244
:1054F00005114248FCF7EBFCA36D202B04D940F2C8
:1055000007113E48FCF7E3FCE36D226E1344202BA9
:1055100004D94FF484713948FCF7D9FC236E43B1A8
:10552000636E33F0804304D040F20B113348FCF734
:10553000CEFCE36D226ED3420BD0A26E122A03D8AA
:105540002F4BD340D80704D440F20F112B48FCF75F
:10555000BEFC94F8943003F0FF0223B984F8952040
:105560002046FBF75FFF2268936923F010039361E5
:10557000FEF786F8054623689A69110700F16F81E6
:105580009A6942F001029A61FEF77AF805462368AB
:105590009A69D20740F175819A6942F002029A61D4
:1055A000227C012A9A690CBF22F0400242F040029C
:1055B0009A61627C012A9A690CBF42F4804222F40B
:1055C00080429A61A27C012A9A690CBF22F480521F
:1055D00042F480529A619A69A06822F440720243B0
:1055E0009A61E268012A40F053819A6942F004020C
:1055F0009A6107E000A0004000A10040EC370108DC
:10560000F0450400A269B0F5407F02F1FF31E26984
:1056100002F1FF324FEA022242EA4162216A01F1BD
:10562000FF3142EA0102616901F1FF3142EA0142C0
:10563000DA610ED1E26A511E226B013A120142EA8E
:105640000122A16A01390A43616A013942EA014231
:10565000DA60266E2EB1D3F8C020616E0A43C3F81B
:10566000C020E06DC64209D0D3F8C810A26E9E4D8E
:1056700021F00701AA5C0A43C3F8C820D4F840808F
:10568000B8F1000F09D0D3F8BC10626C964D21F030
:105690000701AA5C0A43C3F8BC20D4F848C0BCF197
:1056A000000F0AD0D3F8BC20E16C8F4D22F07002BD
:1056B000695C42EA0112C3F8BC20D4F850A0BAF1E8
:1056C000000F0AD0D3F8BC20616D874D22F4E06250
:1056D000695C42EA0122C3F8BC20844A934204D1A7
:1056E00061688A6822F003028A60D3F88420DFF8B8
:1056F0000CE2616B02EA0E02D4F83C9042EA8102AD
:10570000C3F88420D3F88450A26B25F47F058F184A
:1057100001F1805145EA024501F52C51C3F884504E
:10572000D3F88850890005EA0E0501EB820245EAAC
:10573000870507EB4907C3F88850D3F8885025F44C
:105740007F0545EA0945C3F88850D3F8A05005EA1B
:105750000E0545EA8705C3F8A050D3F8A05025F4FC
:10576000FE0545EA0845C3F8A050656C05FB08F83E
:10577000D3F8B050474425F0FC0545EA8705C3F847
:10578000B050D3F8B05025F4FE0545EA0C45C3F8F7
:10579000B050E56C05FB0CFC07EB0C05D3F8AC70C6
:1057A00027F0FC0747EA8507C3F8AC70676D07FB75
:1057B0000AF7D3F8F0A03D440AEA0E0E4EEA850E31
:1057C000C3F8F0E0D3F8F0A0D4F858E02AF47C1A3B
:1057D00005EB4E0B4AEA0E4AC3F8F0A0D3F8C0A07E
:1057E0002AF0FC0545EA8B05C3F8C050D3F8C05039
:1057F00025F47C1545EA0045C3F8C050D3F8C0A095
:10580000A56E2AF07C5A68434AEA066A7543C3F8D3
:10581000C0A0226702EBC902E166626702EB880260
:1058200002EB8C03A267324AE36703EB8703C4F8F9
:10583000803003EBCE03C4F8843003EB8003C4F85C
:10584000883003EB85039342C4F8903034D80022AB
:10585000D4F89030994235D241F8042BF8E7FDF79F
:105860000FFF401B0A287FF686AED4F8983043F02D
:105870000103C4F89830032384F894300120BDE874
:10588000F88FFDF7FDFE401B0A287FF680AEECE79F
:10589000002A3FF4B7AE022A0AD09969032A41F0E0
:1058A00080019961196941F0100119617FF4AAAE74
:1058B0009A6942F020029BE6D4F8983043F0200326
:1058C000C4F8983000200123C4F8980084F894307C
:1058D000BDE8F88F074A93423FF455ADE5210648ED
:1058E000FCF7F5FA4FE500BFD937010800A00040EA
:1058F000FCB5004000A40040EC3701080300FFFFA6
:1059000070477047704770477047704770477047DF
:1059100070477047704770477047704770477047CF
:10592000A24A2DE9F8431169044653694FEA837985
:10593000036809EA8179196D5D6D1F6D01EA05083B
:10594000596D1E6D0F40596D1D6D08F470480E4065
:10595000596D07F00F070D40196D06F0F006C905E7
:1059600005F07F550FD5596DC9050CD5596D21F43A
:1059700080715965516951614FF480711965002337
:105980001361FFF7C7FF23681A6D51051CD55A6DC7
:10599000520519D55A6D22F480625A65834A5169BD
:1059A0005161D3F8DC10D3F8E4000140D3F8E400EF
:1059B00020EA0100C3F8E4004FF48060186500237A
:1059C00020461361FFF7A2FFB9F1000F10D0226843
:1059D0004FEA9970536D5365744B596921EA000180
:1059E000596100211165494618612046FFF788FF7B
:1059F000B8F1000F0FD022682046536D23EA080348
:105A000053656A4B596959614146C2F8508000227A
:105A10001A61FFF776FF77B122682046536D23EABB
:105A200007035365614B596959613946176500226F
:105A30001A61FFF767FF76B122682046536D23EAAB
:105A400006035365594B5969596131461665002261
:105A50001A61FFF758FF23681A6D170511D55A6DA3
:105A600016050ED55A6D204622F400625A654F4A3B
:105A7000516951614FF40061196500231361FFF70B
:105A800043FF23681A6D90051CD55A6D910519D5F1
:105A90005A6D22F400725A65444A51695161D3F833
:105AA000D810D3F8E0000140D3F8E00020EA01006C
:105AB000C3F8E0004FF4007018650023204613611E
:105AC000FFF723FF23681A6D120311D55A6D1703D0
:105AD0000ED55A6D204622F400225A65334A516988
