:020000040800F2
:1000000000000824A1060008E9350008EB350008C7
:10001000ED350008EF350008F1350008000000005C
:10002000000000000000000000000000F3350008A0
:10003000F535000800000000F7350008F935000824
:10004000F106000807360008F1060008F10600086E
:100050000B3600080F36000811360008F1060008BC
:10006000F10600082D360008F106000835360008B4
:10007000553600087536000895360008B536000874
:10008000D1360008ED360008F106000815370008E3
:100090002537000809370008193700081736000807
:1000A000F1060008F1060008F1060008F106000854
:1000B000F1060008F1060008F1060008F106000844
:1000C000F1060008F1060008F106000829370008CB
:1000D000F1060008F106000835370008F1060008AF
:1000E000F1060008F106000800000000F106000813
:1000F000F1060008F1060008F10600084137000883
:10010000F10600084D370008F1060008F106000866
:10011000F1060008F1060008F1060008F1060008E3
:100120005937000865370008713700087D37000827
:10013000F10600089537000889370008993700084C
:1001400000000000000000000000000000000000AF
:10015000F1060008F1060008F1060008F1060008A3
:10016000F1060008F1060008C5370008C13700088D
:10017000F1060008B5370008F1060008C937000885
:10018000D5370008F1370008F5370008F1060008F8
:1001900001380008F1060008F1060008F106000821
:1001A000F1060008F1060008F1060008F106000853
:1001B0000D380008F1060008F1060008193800089B
:1001C00025380008F1060008F1060008F1060008CD
:1001D000F1060008F1060008F1060008F106000823
:1001E000F1060008F1060008F1060008F106000813
:1001F000F1060008F1060008F1060008F106000803
:10020000F1060008F1060008F1060008F1060008F2
:10021000F1060008F1060008F1060008F1060008E2
:10022000F1060008F1060008F106000800000000D1
:10023000F10600083138000800000000F10600084F
:10024000F1060008F1060008F1060008F1060008B2
:10025000F1060008F1060008F1060008F1060008A2
:10026000F1060008F1060008F1060008F106000892
:10027000F1060008F1060008F10600080000000081
:10028000F106000800000000F10600080000000070
:0802900000000000F106000867
:1002A00010B5054C237833B9044B13B10448AFF3B0
:1002B00000800123237010BD900000240000000086
:1002C0005C3B010808B5034B1BB103490348AFF37E
:1002D000008008BD00000000940000245C3B010881
:1002E000034613F8012B002AFBD1181A0138704776
:1002F00001F0FF01102A2BDB10F0070F08D010F8D7
:10030000013B013A8B422DD010F0070F42B3F6D1DA
:10031000F0B441EA012141EA014122F007047FF0F3
:1003200000070023F0E80256083C85EA010586EA4A
:10033000010685FA47F5A3FA87F586FA47F6A5FA86
:1003400087F68EB9EED1F0BC01F0FF0102F0070292
:1003500032B110F8013B013A83EA010313B1F8D13D
:100360000020704701387047002D06BF354603381E
:10037000073815F0010F07D1013015F4807F02BF57
:10038000013015F4C03F0130F0BC0138704700BFA8
:1003900053B94AB9002908BF00281CBF4FF0FF31EC
:1003A0004FF0FF3000F07AB9ADF1080C6DE904CEE2
:1003B00000F006F8DDF804E0DDE9022304B0704740
:1003C0002DE9F0478C460D460446089E002B51D17E
:1003D0008A4217466DD9B2FA82FEBEF1000F0BD0E9
:1003E000CEF1200C01FA0EF520FA0CFC02FA0EF701
:1003F0004CEA050C00FA0EF44FEA174A250CBCFB38
:10040000FAF81FFA87F90AFB18CC45EA0C4508FBF5
:1004100009F3AB420AD9ED1908F1FF3280F02381CC
:10042000AB4240F22081A8F102083D44ED1AA4B28B
:10043000B5FBFAF00AFB105544EA054400FB09F944
:10044000A14509D9E41900F1FF3380F00A81A145E3
:1004500040F2078102383C44A4EB090440EA08401A
:100460000021002E61D024FA0EF400233460736062
:10047000BDE8F0878B4207D9002E54D0002186E8D2
:1004800021000846BDE8F087B3FA83F1002940F067
:100490008E80AB4202D3824200F2FA80841A65EB6E
:1004A00003050120AC46002E3FD086E81010BDE8C1
:1004B000F08712B90127B7FBF2F7B7FA87FEBEF152
:1004C000000F34D1EB1B3A0C1FFA87FC0121B3FB60
:1004D000F2F8250C02FB183345EA03450CFB08F340
:1004E000AB4207D9ED1908F1FF3002D2AB4200F25E
:1004F000D1808046ED1AA3B2B5FBF2F002FB105595
:1005000043EA05440CFB00FCA44507D9E41900F1BB
:10051000FF3302D2A44500F2B8801846A4EB0C04C5
:1005200040EA08409DE731463046BDE8F087CEF10D
:10053000200405FA0EF307FA0EF720FA04F83A0C35
:1005400025FA04F448EA0308B4FBF2F14FEA18452F
:1005500002FB11441FFA87FC45EA044501FB0CF33A
:10056000AB4200FA0EF409D9ED1901F1FF3080F029
:100570008A80AB4240F2878002393D44EB1A1FFA71
:1005800088F5B3FBF2F002FB103345EA034500FBAC
:100590000CF3AB4207D9ED1900F1FF386FD2AB4233
:1005A0006DD902383D44EB1A40EA01418FE7C1F1B1
:1005B000200722FA07F88B4005FA01F448EA030302
:1005C00020FA07FE4FEA134CFD404EEA040EB5FB3D
:1005D000FCF94FEA1E440CFB19551FFA83F844EA54
:1005E000054509FB08F4AC4202FA01F200FA01FAEF
:1005F00008D9ED1809F1FF3043D2AC4241D9A9F135
:1006000002091D442D1B1FFA8EFEB5FBFCF00CFBEE
:1006100010554EEA054400FB08F8A04507D9E41838
:1006200000F1FF3529D2A04527D902381C4440EA01
:100630000940A4EB0804A0FB02894C45C6464D4680
:1006400015D312D056B1BAEB0E0364EB050404FACD
:1006500007F7CB401F43CC40376074600021BDE8F2
:10066000F0871846F8E69046E0E6C245EAD2B8EBD5
:10067000020E69EB03050138E4E72846D7E7404658
:1006800091E78146BEE7014678E702383C4445E7FA
:10069000084608E7A8F102083D442BE7704700BF71
:1006A000DFF834D0002103E00C4B5B584350043199
:1006B0000B480C4B42189A42F6D30B4A02E0002337
:1006C00042F8043B094B9A42F9D303F0BDFA12F009
:1006D00007FB01F05DFC7047000008241C5E010868
:1006E000000000249000002490000024D04D00243D
:1006F000FEE770B50E4615460C46A31B9D4201DC75
:10070000284670BD00F06AF904F8010BF5E770B5F2
:100710000E4615460C46A31B9D4201DC284670BDC3
:1007200014F8010B00F042F9F5E70000094B02460E
:10073000196809B9084919601868694602448A426B
:1007400083BF0C22054B4FF0FF301A6088BF1A6040
:10075000704700BFAC000024D04D0024CC4D0024D5
:100760004FF0FF3070474FF4005300204B6070474C
:100770000120704700207047931E222BF0B503D94B
:1007800000230B700846F0BD0C46114F234690FB2A
:10079000F2F502FB15063E4496F8236003F8016B60
:1007A00095B900284FF00000BEBF2D221A70A31C7F
:1007B0005A1E18700B469A42E4D910781C7802F839
:1007C000014903F8010BF6E71C462846DEE700BFA7
:1007D000F63C0108034610B51A1A92B2914200D8AD
:1007E00010BD1A780133A2F14104192C9CBF42F0CC
:1007F000200403F8014CA2F16104192C9CBF22F0E3
:10080000200203F8012CE7E710B508210F4806F095
:100810002BFB00284FF010010C4814BF00240824C3
:1008200006F022FB08B944F004042021074806F032
:100830001BFB08B944F002044021044806F014FBF5
:1008400008B944F00104204610BD00BF0010025852
:10085000062821D8DFE800F004080E12161A1D0041
:10086000002201210D4803E000224FF480710C4862
:1008700006F00CBB00224FF40071F8E700224FF4A1
:100880008061F4E700224FF40061F0E7002240218C
:10089000E8E700228021E5E7704700BF0008025822
:1008A00000000258062821D8DFE800F004080E12E4
:1008B000161A1D00012211460D4803E001224FF4D3
:1008C00080710C4806F0E2BA01224FF40071F8E79B
:1008D00001224FF48061F4E701224FF40061F0E758
:1008E00001224021E8E701228021E5E7704700BFAF
:1008F000000802580000025806281AD8DFE800F065
:1009000004070C0F1215170001210A4802E04FF4EA
:100910008071094806F0D4BA4FF40071F9E74FF43A
:100920008061F6E74FF40061F3E74021EDE78021B5
:10093000EBE77047000802580000025808B5002095
:10094000FFF7B0FF0120FFF7ADFF0220FFF7AAFF7E
:100950000320FFF7A7FF0420FFF7A4FF0520FFF700
:10096000A1FF0620BDE80840FFF79CBF08B50020A6
:10097000FFF76EFF0120FFF76BFF0220FFF768FF14
:100980000320FFF765FF0420FFF762FF0520FFF754
:100990005FFF0620BDE80840FFF75ABF00487047D8
:1009A0003E3D010800487047463D010837B502AC9E
:1009B00005460A23012204F8040D214605480CF0DF
:1009C0000AFA0A230122214603480CF004FA2846B9
:1009D00003B030BD541500246C13002413B5074C2C
:1009E0000A2301220DF1070120460CF04DFA0028E0
:1009F000F6D19DF8070002B010BD00BF54150024C9
:100A0000FFF7D4BF10B5441E14F8010F00B910BD94
:100A1000FFF7CCFFF8E700B589B00A226946FFF777
:100A2000ABFE6846FFF7EEFF09B05DF804FB10B5BA
:100A300088B00A220C466946FFF79EFE6846FFF71B
:100A40004FFC012802D82046FFF7B0FF6846FFF7A9
:100A5000D9FF08B010BD000000B589B0102269466A
:100A6000FFF78AFE6846FFF73BFC012802D13020E1
:100A7000FFF79CFF6846FFF733FC032802D13020C4
:100A8000FFF794FF6846FFF72BFC052802D10C48BE
:100A9000FFF7B8FF6846FFF723FC062802D1094894
:100AA000FFF7B0FF6846FFF71BFC072802D1302094
:100AB000FFF77CFF6846FFF7A5FF09B05DF804FB70
:100AC000523D0108533D010800B589B01022694626
:100AD000FFF752FE6846FFF703FC012802D83020DA
:100AE000FFF764FF6846FFF78DFF09B05DF804FB70
:100AF00008B5FFF7E9FF0A20BDE80840FFF756BF39
:100B000010B588B010226946FFF736FE6846FFF739
:100B1000E7FBC4B2032C04D96846FFF773FF08B0A3
:100B200010BD01343020FFF741FFE4B2F2E708B511
:100B3000FFF7E6FF0A20BDE80840FFF737BF10B512
:100B4000441E14F8010F20B90A20BDE81040FFF739
:100B50002DBFFFF72BFFF4E700B589B00A226946E5
:100B6000FFF70AFE6846FFF7EAFF09B05DF804FBED
:100B700038B50C46451E15F8010F20B9013C14F894
:100B8000010F18B938BDFFF711FFF4E7FFF70EFFAB
:100B9000F5E710B51446FFF7EBFF2046BDE810401F
:100BA000FFF730BF30B589B00446154608460A2223
:100BB0006946FFF7E1FD2A4669462046FFF7E9FF4F
:100BC00009B030BD42F2107307B5009313460A46D0
:100BD0000146034807F00EF903B05DF804FB00BFBF
:100BE000280400241FB5074B1C7842F210738DE8CF
:100BF0000E00024601232146034807F093F904B092
:100C000010BD00BF91030024280400241FB5074B2A
:100C10001C7842F210738DE80E0002460123214633
:100C2000034807F041FA04B010BD00BF910300244F
:100C30002804002402442DE9F34104460F46D6B2AD
:100C40000025DFF84080B44203D1284602B0BDE859
:100C5000F0813F2C12D83B78012201A904F1200039
:100C60008DF804300135FFF7BDFF98F80030EDB284
:100C700023B9003018BF012088F800000134013783
:100C8000E4B2E0E7140500243F2807B58DF807100B
:100C900004D801220DF10701FFF7CCFF03B05DF886
:100CA00004FB000002442DE9F34104460F46D6B28E
:100CB0000025DFF84080B44203D1284602B0BDE8E9
:100CC000F0813F2C12D8012201A904F12000013546
:100CD000FFF79CFF9DF80430EDB23B7098F80030B0
:100CE00023B9003018BF012088F800000134013713
:100CF000E4B2E0E71405002413B5044601220DF127
:100D000007010720FFF7CEFF9DF80730032C4FF0B7
:100D1000070097BF23F0470323F0400343F040034D
:100D200023438DF807309DF80710FFF7ADFF02B0A1
:100D300010BD0A2390FBF3F203FB120000EB02103C
:100D400070470000022998BF013A10B5D2B264245E
:100D500002EB9203B2FBF4F29B1A074A114411F81A
:100D6000012C13441844072390FBF3F3C3EBC30394
:100D7000C01A0130C0B210BDC03D0108B0F5FA6F15
:100D800084BFA0F5FA6080B210F0030F0CBF0D23F2
:100D900000231944014B13F821007047583D010806
:100DA0002DE9F341067A0446457A077931462A4609
:100DB0003846FFF7C7FF31468046E0702846FFF708
:100DC000DDFF87424FF0000788BF207120788DF843
:100DD0000070FFF7AEFF00F07F008DF80100607833
:100DE000FFF7A7FF00F07F008DF80200A078FFF763
:100DF000A0FF00F03F008DF803004046FFF799FF89
:100E000000F0070040F008008DF804002079FFF79B
:100E100090FF00F03F008DF805003046FFF789FF96
:100E200000F01F008DF806002846124DFFF781FFE5
:100E3000082269468DF807002878FFF7C3FE0646AA
:100E400020788DF80070FFF774FF60F07F000222B9
:100E500069468DF801002878FFF7B4FE3EB9C01B43
:100E600018BF0120044B187002B0BDE8F0810120CA
:100E7000F8E700BF91030024140500240023024A70
:100E80001360024A13707047B4000024B0000024BD
:100E900084B008B50DF1080E8EE80F0071464C22A3
:100EA000094811F050FFDE22084B00201A70AE22D4
:100EB000074B1A70FFF720FF064B00221A70BDE89F
:100EC000084004B0FFF7DABF28040024910300248F
:100ED00093030024B1000024012307B58DF80730E7
:100EE0009DF80730012B0ED108480AF01DFA38B9D9
:100EF0004FF4804105480AF06DF9003018BF012019
:100F000003B05DF804FB0220FAE700BF880F00245D
:100F100007B5009313460A460146044809F026FD2A
:100F2000003018BF012003B05DF804FB880F0024D7
:100F300007B5009313460A460146044809F0E4FD4C
:100F4000003018BF012003B05DF804FB880F0024B7
:100F500008B503480AF0D4F9043818BF012008BDC9
:100F6000880F0024014601480AF022B9880F0024A6
:100F7000704708B5FFF7FCFF08BD704708B5FFF7DD
:100F8000FCFF08BD08B50948094B03600023037145
:100F90004371436183610123036203F03BFA18B19B
:100FA000BDE8084001F0D4BF08BD00BF180500240B
:100FB000004C0258026882B0094B9A420DD1A3F549
:100FC0000063D3F8E02042F40022C3F8E020D3F815
:100FD000E03003F400230193019B02B0704700BF8F
:100FE000004C025808B50848084B094A0360002322
:100FF000C2604360436103F0ABFA18B1BDE808403A
:1010000001F0A6BF08BD00BF2C0600240010024856
:10101000CC3D010870B586B006461022002102A81A
:1010200011F09CFE3268344B9A4262D1334B00255A
:10103000334C4C21D3F8DC20324842F01002C3F884
:10104000DC20D3F8DC30656103F01003A561E561B5
:101050000193019B40232562656284E82B004FF4D5
:1010600080632046236103F00DFD08B101F070FF9D
:10107000062302A922480293012303958DF81050FC
:101080008DF81150059304F025F808B101F060FFC8
:101090000025B4634D23A6631B4A1C4C84E82C0036
:1010A0004FF480632046E56023616561A561E561D9
:1010B0002562656203F0E6FC08B101F049FF0623F2
:1010C00002A912480293012303958DF810508DF860
:1010D0001150059303F0FEFF08B101F039FF002223
:1010E0004F20F4631146A66303F022F94F2003F06A
:1010F00067F906B070BD00BF0010024800440258F6
:10110000B405002428040240400402403C050024A9
:1011100010B586B010220021002402A811F01EFE96
:10112000524B53484FF0800ED3F8D82042F00102C2
:10113000C3F8D820D3F8D82002F001020092009A18
:10114000D3F8D82042F00202C3F8D820D3F8D83020
:10115000446103F002038461C4610193019B454B28
:101160000462C462046380E818404FF40073C360F3
:101170004FF480630361042343620323836203F01B
:1011800081FC08B101F0E4FE062302A9384802936D
:10119000012303948DF810408DF81140059303F05E
:1011A00099FF08B101F0D4FE00220B20114603F094
:1011B000BFF80B2003F004F900220C20114603F0C5
:1011C000B7F80C2003F0FCF800220D20114603F0C4
:1011D000AFF80D2003F0F4F800220E20114603F0C2
:1011E000A7F80E2003F0ECF800220F20114603F0C0
:1011F0009FF80F2003F0E4F800221020114603F0BE
:1012000097F8102003F0DCF800221120114603F0BB
:101210008FF8112003F0D4F800222F20114603F09C
:1012200087F82F2003F0CCF800223820114603F075
:101230007FF8382003F0C4F800223920114603F06B
:1012400077F8392003F0BCF800223A20114603F069
:101250006FF83A2003F0B4F800223B20114603F067
:1012600067F83B2003F0ACF806B010BD004402580C
:101270007406002410040240134A0023F0B5C2F89B
:101280008430BFF34F8FD2F8803043F6E076C3F35B
:10129000C904C3F34E33A5075B0103EA060E2846D3
:1012A00021464EEA0007013900F14040C2F874724D
:1012B0004F1CF6D1203B13F1200FEED1BFF34F8F1F
:1012C000BFF36F8FF0BD00BF00ED00E030B1002331
:1012D0004373036003814381C381436070470020EF
:1012E0007047000070B500228CB00C466B4611466A
:1012F0006E4664B90F4D6A60AE60FFF7BDFF2246CF
:1013000029460D4804F091FA20460CB070BD04291E
:101310000DD06068186060895860024409B143F8D4
:10132000043C246804B99C6001310C33E1E76FF0A0
:101330000B00EAE7740700240C07002402F0ACBF9E
:1013400008B5024804F03AFC002008BD0C07002450
:1013500008B513460A460146034804F0D1FB0030A5
:1013600018BF0120404208BD0C07002408B51346F1
:101370000A460146034804F0F1FB003018BF012083
:10138000404208BD0C0700240268304B9A4270B5F9
:1013900088B059D12E480024FFF734FB2D4B02258D
:1013A0000B26D3F8D82003A92B4842F40042C3F8F7
:1013B000D820D3F8D82002F400420092009AD3F843
:1013C000D82042F48032C3F8D820D3F8D82002F4D1
:1013D00080320192019AD3F8D82042F40032C3F847
:1013E000D820D3F8D830049503F40033059406953B
:1013F0000293029B86230796039305F0E1FB3223B9
:1014000003A916480393049505940695079605F0DD
:10141000D7FB4FF4605303A9114803930495059437
:101420000695079605F0CCFB224621463D2002F0AA
:101430007FFF3D2002F0C4FF3E202246214602F0FD
:1014400077FF3E2002F0BCFF08B070BD0080024074
:10145000E43D010800440258000002580008025808
:10146000000402582DE9F34704464A48FFF7CAFA38
:1014700034B9494B4FF407724849494811F022FDED
:1014800073234848484E002584F830307423DFF831
:101490003C81B14684F83130444BDFF834A16361BC
:1014A000434BA361FFF7AEFA424B30468DF8005034
:1014B000336080238DF803508DF80130E1238DF8DF
:1014C00004508DF8023001238DF8055033723A4BE9
:1014D000C6F804D0F360394B336140F2F4537361C2
:1014E00004F0A8FB342207462946404611F036FC9A
:1014F0002123C8F800304FF44033C8F81430DFF827
:10150000D4804FF4BF6200232946484602FB05A25F
:1015100004F03CF914232A4A03FB05830135042D0A
:101520001A61EED106232749274884F828307368CA
:101530001A7884F829205A7884F82A209A7884F82E
:101540002B20DA7884F82C201A7984F82D205B7906
:1015500084F82E3040F2DC53E38494F82F3043F0CB
:101560000A0384F82F3002F0F7FA174802F008FB5C
:1015700067B920460EF09EF920460EF0B7F90A48EA
:1015800004F020F9002002B0BDE8F08701F0E0FC93
:10159000F8E700BFF53D0108063E0108203E0108BE
:1015A0002E3E0108563E01080C0700246DE4000899
:1015B000E5120008008002406000043000000430A2
:1015C000CD12000800000024EC060024740700245B
:1015D00000020430A807002402F05EBE08B50349EB
:1015E00003480CF03BFC034B187008BDF9070024BE
:1015F00090410108F807002408B515480122154B51
:101600000221426103600023826142628262C262FF
:10161000026304228360C360037443748374C161F2
:10162000016243638363C363036442648364C2648B
:10163000036542658365C36503664366826604F09D
:1016400039FC18B1BDE8084001F082BC08BD00BFFC
:10165000600C002400A0004008B515480122154B7D
:101660000221426103600023826142628262C2629F
:10167000026304228360C360037443748374C16192
:10168000016243638363C363036442648364C2642B
:10169000036542658365C36503664366826604F03D
:1016A00009FC18B1BDE8084001F052BC08BD00BFFC
:1016B000FC0C002400A4004010B514228AB004469B
:1016C00000210DEB020011F049FB2368414A9342CF
:1016D00043D1414A13680133012B13600CD13F4BB6
:1016E000D3F8EC2042F48072C3F8EC20D3F8EC304D
:1016F00003F480730193019B384B05A93848D3F854
:10170000E02042F00802C3F8E020D3F8E03003F014
:1017100008030293029B03230593022306930923E4
:10172000099305F04DFA00221320114602F000FE45
:10173000132002F045FE00221520114602F0F8FDAC
:10174000152002F03DFE00223F20114602F0F0FD80
:101750003F2002F035FE0AB010BD224A9342FAD172
:101760001D4A13680133012B13600CD11B4BD3F8B6
:10177000EC2042F48072C3F8EC20D3F8EC3003F490
:1017800080730393039B154B05A91748D3F8E020FA
:1017900042F00202C3F8E020D3F8E03003F0020385
:1017A0000493049B60230593022306930923099362
:1017B00005F006FA00221420114602F0B9FD1420AB
:1017C00002F0FEFD00221620114602F0B1FD1620A7
:1017D000B7E700BF00A00040B80000240044025852
:1017E000000C025800A40040000402582DE9F04FFC
:1017F0008FB014220021804E09A8804F11F0AEFA5C
:101800007F4BDFF804923046D3F8E0204FF40071AC
:10181000DFF8F881002442F0100201254FF0030A9E
:10182000DFF8ECB1C3F8E020D3F8E02002F01002BA
:101830000392039AD3F8E02042F00402C3F8E020B8
:10184000D3F8E02002F004020492049AD3F8E020D6
:1018500042F08002C3F8E020D3F8E02002F08002DA
:101860000592059AD3F8E02042F00102C3F8E02087
:10187000D3F8E02002F001020692069AD3F8E020A5
:1018800042F00202C3F8E020D3F8E02002F00202A6
:101890000792079AD3F8E02042F00802C3F8E0204C
:1018A0000022D3F8E03003F008030893089B05F00A
:1018B000EDFA38460022102105F0E8FA48460022E9
:1018C000C12105F0E3FA404600224FF4706105F0B3
:1018D000DDFA01223046032105F0D8FA782309A960
:1018E000304609930A940B9505F06AF94EF20C0301
:1018F00009A94846CDF828A009930B9405F060F992
:10190000C12309A948464FF0090909930A950B9488
:101910000C9405F055F909A94046CDF82490CDF86E
:1019200028B00B9405F04CF940F2032309A935487F
:1019300009930193CDF828A00B9405F041F9019B80
:1019400009A930460A9509930B940C9405F038F9CF
:101950004FF4044309A93046CDF828A009930B940D
:1019600005F02EF94FF4407309A93846CDF828B098
:1019700009930B9405F024F94CF2084309A9384661
:101980000A9409930B9405F01BF94FF4706309A9AD
:1019900040460A9509930B940C9405F011F94FF405
:1019A000805309A940460A9409930B9405F008F95D
:1019B000102309A938460A9509930B940C9405F055
:1019C000FFF822462146062002F0B2FC062002F073
:1019D000F7FC22462146484602F0AAFC484602F09F
:1019E000EFFC22462146172002F0A2FC172002F04D
:1019F000E7FC0FB0BDE8F08F00100258000C025851
:101A0000004402580004025800080258000002581E
:101A10000000111108B505480023036005F01EFB06
:101A200018B1BDE8084001F093BA08BD980D002434
:101A300070B586B010220021064602A81F4C11F096
:101A40008DF91F4B00251F49D3F8DC20204642F0BA
:101A50002002C3F8DC204E22D3F8DC30656103F0AD
:101A60002003A561E5610193019B40232562656226
:101A700084E82E004FF48063236103F003F808B17B
:101A800001F066FA062302A90C480293012303958C
:101A90008DF810508DF81150059303F01BFB08B121
:101AA00001F056FA002234635020A663114602F07A
:101AB0003FFC502002F084FC06B070BDD00D002425
:101AC000004402585804024008B512480122124B43
:101AD0001249C26080E80A00002383600361436109
:101AE0008361C361036206F0DBF808B101F030FAEC
:101AF0000021084806F018FE08B101F029FA00217B
:101B0000044806F059FE18B1BDE8084001F020BABB
:101B100008BD00BF480E0024FFECC010001C005898
:101B200010B588B004461422002103A811F016F95C
:101B300022681C4B9A4233D11B4C03A91B48D4F892
:101B4000E03043F00203C4F8E030D4F8E03003F0B2
:101B500002030193019B4FF4C07303931223049378
:101B60000623079305F02CF8D4F8F43000225F2008
:101B700043F080031146C4F8F430D4F8F43003F095
:101B800080030293029B02F0D3FB5F2002F018FC5B
:101B900000226020114602F0CBFB602002F010FC16
:101BA00008B010BD001C0058004402580004025840
:101BB000F0B5EE232C4F2D4EC020FB70FF232C4D93
:101BC000A8211922337073700024B370FD2385B0EF
:101BD00028706970AA70EB7038707970BA70F47000
:101BE0000CF048FE7B783A781B042249687843EA77
:101BF0000263FA7800041343BA7843EA0223327886
:101C00001BBA0B6073781B0443EA0263F278134338
:101C1000B27843EA0223184A1BBA13602B7840EAD1
:101C20000360EB781843AB78144D40EA0320144B63
:101C300000BA186013480094029013480190284697
:101C40000DF0F4FD28460DF02FFE95F82F302846B4
:101C50005B0704D505B0BDE8F0400DF02BBE05B024
:101C6000BDE8F0400DF035BEE40E0024E00E002487
:101C7000A40E0024DC0E0024E80E0024A80E00248C
:101C8000EC0E002495E50008651400082DE9F341E9
:101C90001C4E074688460024354604223946301932
:101CA00011F042F858B30A34A02CF6D1002402AE49
:101CB00046F8044D04223146281911F035F848B988
:101CC0003B682B51231DD8F80010EA18E950B8F8EA
:101CD000043093800A34A02CECD1002485F8A04075
:101CE00004223146281911F01FF820B195F8A030D0
:101CF000013385F8A0300A34A02CF1D1012002B0C4
:101D0000BDE8F081BC000024F8B507460E4600246B
:101D1000094D04223946281911F006F838B904345F
:101D200001202C4423683360A388B380F8BD0A34B3
:101D3000A02CEED10020F8BDBC0000242DE9F84F06
:101D400017464AF6C00206468846831839480021DD
:101D5000DFF8E8E040F2B55C4FF0990940F2FA5B39
:101D60004FF461643C25B3FBF2F3184449084FEA91
:101D7000300000F5FA432C339A000332B2FBFEF236
:101D80000EFB02FE02EB8202A3EB9E0302EB820239
:101D90004FEA830E0EF1030EBEFBFCFE0CFB0EFCA5
:101DA0000EEB8202A3EB9C0303EB830C01330CF1DB
:101DB000020CBCFBF9FABCFBFBFC1FFA8CFC09FB18
:101DC0000AF9624409F102090CEB4C0CA2F5945299
:101DD000103AFA700AF103024FF0050AA2EB8C0CDC
:101DE0000722B9FBFAF9A3EB090987F801C0002320
:101DF00087F80290FEF7CCFA0F4B3A70B6FBF4F47A
:101E0000B6FBF3F3B6FBF5F5A4B203EB4303ADB2B7
:101E1000A4EBC303C4EB041488F80030A5EB8404DE
:101E2000C5EB051588F80140A6EB850688F8026029
:101E3000BDE8F88F177B4A0080510100B13A0200DB
:101E400070B5CCB04C2200210AA810F087FF2022E8
:101E5000002102A810F082FFBC2200211DA810F072
:101E60007DFF2B4BDA6822F00402DA600022019237
:101E70009A6942F440429A619A6902F4404201929E
:101E8000019A9A699204FCD5292300240225082688
:101E90000A934FF480330AA813950B9301231495EA
:101EA0000F93109304231795159380231896169378
:101EB00019951A961B941C9406F0F4FE3F234FF4D8
:101EC000806229460DEB06000293032308920393D8
:101ED00040230494069307930993059607F066FA46
:101EE0000C4B1DA82F941D934FF0805330943893C2
:101EF0004FF4401334943E934FF4007335943A9466
:101F00003C944294499307F023FD4CB070BD00BF50
:101F10000048025812B04702024A136801331360A6
:101F2000704700BF60010024024B1A68024B1A6020
:101F3000704700BF6001002464010024054A064B7D
:101F400019681368CB1A834226BF01201160002054
:101F5000704700BF6401002460010024024B1A682E
:101F6000024B1A60704700BF600100246801002422
:101F7000054A064B19681368CB1A834226BF012015
:101F800011600020704700BF680100246001002438
:101F90002DE9F04FE7B0BFF34F8FBFF36F8FD74BF3
:101FA0000021C3F85012BFF34F8FBFF36F8F5A69F0
:101FB00042F400325A61BFF34F8FBFF36F8FC3F803
:101FC0008410BFF34F8FD3F8802043F6E076C2F33E
:101FD000C904C2F34E32A507520102EA060E284692
:101FE00021464EEA0007013900F14040C3F8607213
:101FF0004F1CF6D1203A12F1200FEED1BFF34F8FD4
:102000005A6942F480325A61BFF34F8FBFF36F8F2A
:1020100002F026F9BA4EFFF713FFFFF7E7FB06F1D0
:102020001005FEF7A3FC01F005FC01F025FC0122E0
:102030004FF40071B34804F029FF01221021B24887
:1020400004F024FFB148FEF7DDFCB148FEF7DAFCEE
:10205000B048FEF7D7FCFFF75BF8AF48FEF7D2FCBD
:1020600000F078FFAD48FEF7CDFC01F025F9AC4853
:10207000FEF7C8FC01F050F9AA48FEF7C3FCFFF7D1
:10208000BBFAA948FEF7BEFCFFF7E6FAA748FEF741
:10209000B9FCFFF719FDA648FEF7B4FC01F01EF8E5
:1020A000A448FEF7AFFCFEF79DFFA348FEF7AAFC8D
:1020B000FFF7B0FCA148FEF7A5FC00F0DBFFA0484D
:1020C000FEF7A0FCFEF75EFF9E48FEF79BFCFFF7C5
:1020D00085FA9D48FEF796FCFFF76AFD9B48FEF7E0
:1020E00091FC4FF47A7002F0DDF89948FEF78AFC13
:1020F000FFF71AFFFEF788FB04469648FEF782FCBE
:102100002046FEF7F5FCC12193486C4604F0D8FE4A
:102110004FF47061914804F0D3FE7D48FEF772FCE5
:102120008F48FEF76FFCFEF739FCFEF76BFC774833
:10213000FEF768FC8B48FEF765FCFEF733FCFEF704
:1021400061FC7248FEF75EFC874B884A1968884B31
:102150008848B1FBF3F1FEF725FD0FCD0FC40FCD7D
:102160000FC40FCD0FC495E8070084E8070096E878
:102170000F00FEF78DFE3223072200248DF8743005
:1021800012231DA88DF876208DF875308DF87830E3
:1021900003238DF877408DF87C3013238DF87D3044
:1021A000FEF7FEFDFEF7CAFB4FF47A7002F07AF8F4
:1021B00001F018FEC0235A226F498DF86430A8231D
:1021C00034A81B948DF865301923ADF870408DF854
:1021D000663006238DF8673010F0B5FD4A22674956
:1021E00021A810F0B0FDFFF79FFEFFF7B7FE0E230A
:1021F00010934FF4FA631193614806F023FB4FF4F8
:10220000FA70FFF7B5FE10B10020FEF775FB1198CC
:10221000FFF794FE5B4C002800F006810120FEF7DA
:102220006BFB1BA919A8FFF76FFD05465648002D4B
:1022300000F05185FEF7E6FB5448FEF7E3FB9DF8FE
:102240006400FEF7E8FB5248FEF7DCFB9DF86500F2
:10225000FEF7E1FB4E48FEF7D5FB9DF86600FEF762
:10226000DAFB4B48FEF7CEFB9DF86700FEF7D3FB89
:102270004848FEF7C7FB9DF86C00FEF725FC464872
:10228000FEF7C0FB9DF86D00FEF7E6FB4248FEF747
:10229000B9FB9DF86E00FEF717FC3F48FEF7B2FB56
:1022A0009DF86F00FEF710FC3B48FEF7ABFB9DF876
:1022B0007000FEF709FC3848FEF7A4FB9DF871009A
:1022C000FEF702FC1148FEF79DFB9DF86C30334889
:1022D0008DF8D0309DF86D308DF8D1309DF86E308E
:1022E0008DF8D2309DF86F308DF8D3309DF8703076
:1022F0008DF8D4309DF8713052E000BF00ED00E061
:10230000480E002400100258000C02584F410108EA
:10231000663E0108B83E0108C53E0108D63E0108E8
:10232000E43E0108F23E0108023F0108123F0108A5
:10233000203F01082D3F01083B3F0108493F0108AC
:10234000563F0108633F0108723F0108803F0108C2
:10235000863F0108963F0108000802580000025815
:10236000A23F0108B43F010818000024C63F01083D
:1023700040420F00CC3F0108743B0108CE3B0108EE
:10238000940E0024E0190430DE3F0108E43F010808
:10239000944F0108F3400108F33F0108F53F01089D
:1023A0008DF8D5309DF864308DF8EE309DF86530AD
:1023B0008DF8EF309DF866308DF8F0309DF867307D
:1023C0008DF8F130FEF71EFBD648FEF71BFB9DF89B
:1023D0006400FEF720FBD448FEF714FB9DF865006F
:1023E000FEF719FBD048FEF70DFB9DF86600FEF7DF
:1023F00012FBCD48FEF706FB9DF86700FEF70BFBCE
:10240000CA48FEF7FFFACA48FEF7FCFA002334A8D0
:10241000E218195C013351715A2BF9D101F001FE18
:102420005F21C44801F024FE4FF4FA60FFF7A0FDDD
:10243000D0B1109BC3B1002321A8E218195C01336D
:1024400051714A2BF9D1BC48FEF7DCFABB4B1A6834
:10245000BB4B1A6001F0E5FD4F21B64801F008FEC4
:10246000109B013BDBB2109340F2EE51B54801F0F6
:1024700059FE2A28054640F22784B34E4FF6F477DA
:10248000DFF8AC9201F0B2FDB046DFF8F4A2DFF85D
:10249000F4B218F8010FFEF717FB2020FEF7B0FA90
:1024A000012F02D84846FEF7ADFA0137BFB2142F0C
:1024B00040F0CA840A20FEF7A3FAC0238DF86830E2
:1024C000A8238DF8693019238DF86A30EE238DF832
:1024D0006B3094F81738082B40F0BB8094F818380C
:1024E000002B40F0B68094F81938452B40F0B180AD
:1024F00094F81A38002B40F0AC8094F82238012B65
:1025000040F0A78094F81B38042294F81C781AA98C
:102510008E4847EA032707F10E05ADB210F004FC20
:10252000002840F0968094F82D38002B46D1844B3B
:1025300087481A68814B1B6803F10108A8EB020861
:10254000FEF760FA8348FEF75DFA94F82508FEF777
:1025500062FA2E20FEF754FA94F82608FEF75BFA8A
:102560002E20FEF74DFA94F82708FEF754FA2E2095
:10257000FEF746FA94F82808FEF74DFA7648FEF77B
:1025800041FA7648FEF73EFAA7F11C00FEF743FA3F
:102590007348FEF737FA4046FEF73DFA7148FEF7FA
:1025A00031FA7148FEF72EFA94F82108FEF733FA53
:1025B0005E48FEF727FA5E48FEF724FA94F82D38B5
:1025C000082B46D14BAF4A226849384610F0BBFB76
:1025D0000DF22B1266493346D87902F8010F13F831
:1025E000010F99429071F7D194F825388DF84A314E
:1025F00094F829388DF8463194F826388DF84B3107
:1026000094F82A388DF8473194F827388DF84C31F2
:1026100094F82B388DF8483194F828388DF84D31DE
:1026200094F82C388DF8493194F833388DF85431BA
:1026300094F834388DF855310023E218F95C0133F1
:1026400051714A2BF9D101F0ECFC4F21394801F0CE
:102650000FFD94F81738082B40F0878194F818384C
:10266000062B40F0828194F81938002B40F07D81D0
:1026700094F81A38012B40F0788194F81B38082B15
:1026800040F0738194F81C38002B40F06E8194F870
:102690001D38062B40F0698194F81E38042B40F059
:1026A000648194F81F38002B40F05F8194F8203843
:1026B0005A1E012A00F25981012B40F0F7800422B2
:1026C0001AA92C4810F030FB002840F0EF80204879
:1026D000FEF798F92848FEF795F994F82708FEF7D1
:1026E0009AF91148FEF78EF994F82808FEF793F945
:1026F0000D48FEF787F994F82908FEF78CF90A4887
:10270000FEF780F994F82A08FEF785F90748FEF7E6
:1027100079F90748FEF776F9184B4BAA03F1280E12
:10272000174631E0FB3F0108944F01084F41010873
:1027300013400108E01904305140010860010024F1
:102740006C010024E0210430EA2104300922043025
:10275000684001086E400108C33F01087A40010843
:1027600081400108884001088C400108183C01089C
:10277000F02104301122043091400108623C01082C
:10278000624001085C4001081868083353F8041CD3
:102790001546734503C52A46F6D11B880DF22B1248
:1027A000DA492B803346D87902F8010F13F8010F6C
:1027B00090718B42987D82F82000F4D194F83138E2
:1027C00094F82A588DF8483194F8323894F827A8AC
:1027D0008DF8493194F8333894F8289894F829887A
:1027E0008DF84A3194F83438C9488DF84B318DF85A
:1027F00055518DF852A18DF853918DF85481FEF703
:1028000001F9C448FEF7FEF85046FEF704F9C24845
:10281000FEF7F8F84846FEF7FEF8BF48FEF7F2F874
:102820004046FEF7F8F8BC48FEF7ECF82846FEF7FD
:10283000F2F8BA48FEF7E6F89DF84201FEF744F9CF
:10284000B748FEF7DFF89DF84301FEF73DF9B448BD
:10285000FEF7D8F89DF84401FEF736F9B048FEF7C8
:10286000D1F89DF84501FEF72FF9AD48FEF7CAF8FB
:102870009DF84601FEF728F9A948FEF7C3F89DF830
:102880004701FEF721F90025A648FEF7BBF8A64848
:10289000FEF7B8F863197A5D01355A712A2DF9D11E
:1028A00001F0BFFB2F21A14801F0E2FB94F8203892
:1028B000022B5AD104221AA99D4810F035FA00289B
:1028C00053D19C482A25FEF79DF89B48FEF79AF8BD
:1028D00094F82708FEF79FF88F48FEF793F894F8CE
:1028E0002808FEF798F88C48FEF78CF894F8290829
:1028F000FEF791F88848FEF785F894F82A08FEF765
:102900008AF88E48FEF77EF894F82108FEF7DCF886
:102910008348FEF777F894F82208FEF7D5F8804848
:10292000FEF770F894F82308FEF7CEF87C48FEF71F
:1029300069F894F82408FEF7C7F87948FEF762F8BA
:1029400094F82508FEF7C0F87548FEF75BF894F890
:102950002608FEF7B9F87348FEF754F87248FEF7F8
:1029600051F87749881DFFF791F9002175480A460B
:102970008BB29D4200F275820023224492F80E2809
:10298000EE2A05D0234493F80E38EE2B40F09C81BC
:1029900094F82238112B40F07F8194F82D88B8F1FB
:1029A000080F00F0798194F82E78002F00F07481E0
:1029B00094F81BA894F81C9849EA0A23129347EA52
:1029C0000823139394F82F381493149A94F83038FA
:1029D00043EA022B159341F28D339B4540F0C980A9
:1029E00094F831386A2258494BA8179394F8323832
:1029F000169310F0A8F9179B444A8DF852319DF8B0
:102A000058308DF83CA18DF8533194F81D388DF86D
:102A10003D918DF83E3194F81E388DF83F310DF21E
:102A20002B13F17903F8011F16F8011FB2429971B7
:102A3000F7D13E4E8DF8508196F829388DF85171B6
:102A40008DF8463196F825388DF84A3196F82A38AF
:102A50008DF8473196F826388DF84B3196F82B389B
:102A60008DF8483196F827388DF84C3196F82C3887
:102A70008DF8493196F828388DF84D319DF8503051
:102A80008DF84E319DF854308DF84F31129B03F183
:102A90000E01002389B2013303F1280292B28A4267
:102AA000C0F0EF812A390DF5AB70FDF793FE1848A1
:102AB000FDF7A8FF2548FDF7A5FF9DF84A01FDF7A2
:102AC000AAFF1548FDF79EFF9DF84B01FDF7A3FFF8
:102AD0001148FDF797FF9DF84C01FDF79CFF0E484C
:102AE000FDF790FF9DF84D01FDF795FF0D48FDF7AF
:102AF00089FF0DF255182A270023BD4200F20482F7
:102B000033B30A20FDF77CFF22E000BFF021043040
:102B1000F53F0108AF400108944F0108C540010886
:102B2000F33F01084F41010813400108E019043048
:102B30001122043068400108D3400108EF40010829
:102B400001220430EB2104308C3C0108FD400108D7
:102B5000D048FDF757FF00234BA8F218195C01334A
:102B600051716A2BF9D101F05CFA6F21CA4801F06A
:102B70007FFA129D139B0E357B2BADB274D194F866
:102B80005E3894F85D281B04C448C54F43EA0263CD
:102B900094F8602894F85F481343C24E43EA042433
:102BA000FDF730FFC048FDF72DFF9DF86400FDF7ED
:102BB00032FFBE48FDF726FF9DF86500FDF72BFFAD
:102BC000BA48FDF71FFF9DF86600FDF724FFB748E0
:102BD000FDF718FF9DF86700FDF71DFFB448FDF7EE
:102BE00011FFB4483A4631462018FFF7A7F8B2481B
:102BF000FDF708FFB148FDF705FF3021B878FDF774
:102C000016FFAF48FDF7FEFE30217878FDF70FFF85
:102C1000AC48FDF7F7FE3021F878FDF708FFAA4829
:102C2000FDF7F0FE30213078FDF701FFA748FDF7F2
:102C3000E9FE30217078FDF7FAFEA448FDF7E2FEC8
:102C40003021B078FDF7F3FEA148FDF7DBFEA14887
:102C50002044FDF7E0FEA048FDF7D4FE9F48FDF7B5
:102C6000D1FE4EF6602311939C48FDF7CBFE9C48A5
:102C7000FDF7C8FE9B48FDF7C5FE1398FDF76CFFF6
:102C80009948FDF7BFFE5846FDF766FF9748FDF7E8
:102C9000B9FE2846FDF760FF00249048FDF7B2FE1C
:102CA000A3B29D4200F23C810A20914EFDF7A8FE9E
:102CB0002A240023A54200F23D8113B10A20FDF72A
:102CC0009FFE7448FDF79EFE2A460021894810F0B9
:102CD00045F8FFF791BAFDF795FE8748FDF792FE9C
:102CE0009DF86400FDF797FE7048FDF78BFE9DF898
:102CF0006500FDF790FE6D48FDF784FE9DF86600C7
:102D0000FDF789FE6948FDF77DFE9DF86700FDF738
:102D100082FE6748FDF776FE7848FDF773FE784837
:102D2000FDF770FE9DF86400FDF775FE5F48FDF746
:102D300069FE9DF86500FDF76EFE5C48FDF762FEDA
:102D40009DF86600FDF767FE5848FDF75BFE9DF8AD
:102D50006700FDF760FE5648FDF754FE4D48FDF74D
:102D600051FEFF23062001218DF82C3180228DF8A1
:102D70002D3108268DF82E318DF82F318DF8303118
:102D80008DF83131E1238DF839018DF834318DF82A
:102D90004431C0238DF83E0104208DF84831A8232A
:102DA0008DF83B118DF8493119238DF841114BA94C
:102DB0008DF84A31EE238DF832518DF84B318DF874
:102DC00033218DF835518DF836518DF837518DF806
:102DD00038618DF83A518DF83C618DF83D518DF890
:102DE0003F018DF840518DF842518DF843218DF807
:102DF00045518DF846518DF847518DF84C519DF84D
:102E000064308DF84D518DF852319DF865308DF854
:102E10004E518DF853319DF866308DF84F518DF835
:102E200054319DF867308DF850518DF851518DF81F
:102E3000553163196A5C01355A712A2DF9D101F0B7
:102E4000F0F82F21FFF7EDBA012F3FF622AB94F8EF
:102E50001738082B0CBF58465046FDF7D3FDFFF737
:102E600018BB10F8017BC02F09D10778A82F06D115
:102E70004778192F03D1002A7FF47FAD1A4601311C
:102E800076E5204A1A4492F833004BAA1A4482F895
:102E9000280000E613400108E019043068400108EA
:102EA000F00E0024F40E002413410108944F010891
:102EB0004F410108908F557C2F4101083541010891
:102EC0004541010847410108DC5D0108F33F010865
:102ED0004B4101088081557C4E4101085141010858
:102EE000574101086C4101087741010882410108FE
:102EF00014220430EB21043019400108F53F010889
:102F000039400108E021043018F8010FA0F1200237
:102F10005E2A02D8FDF774FD01230137BFB2ECE54C
:102F20000A4B23440134D87AFDF7CEFD2020FDF76B
:102F300067FDB5E616F8010FA0F120025E2A02D85F
:102F4000FDF75EFD01230134A4B2B3E6E0210430B5
:102F50007047704708B50B48C7230B4A4FF0100C59
:102F600080E80C1000230122C36002614361836189
:102F7000C361036205F0CAFC18B1BDE80840FFF761
:102F8000E7BF08BD080F00240050005270B514229E
:102F90008AB0044600210DEB02000FF0DFFE22682C
:102FA0002F4B9A425AD12F4B0224092605A9D3F858
:102FB000D42000252C4842F48042C3F8D420D3F812
:102FC000D42002F480420192019AD3F8E02042F02A
:102FD0001002C3F8E020D3F8E02002F010020292C1
:102FE000029AD3F8E02042F00202C3F8E020D3F8BE
:102FF000E02002F002020392039AD3F8E02042F0AC
:103000000802C3F8E020D3F8E030069403F0080388
:10301000089409960493049B0423059303F0D0FDC0
:1030200040F2044305A911480593069407950894B6
:10303000099603F0C5FD4FF4605305A90C480593AC
:10304000069407950894099603F0BAFD5C202A4679
:10305000294601F06DF95C2001F0B2F90AB070BDAB
:103060000050005200440258001002580004025858
:10307000000C025808B506480023064A80E80C00F8
:1030800007F00AFB18B1BDE80840FFF761BF08BDB3
:10309000540F00240018024807B50E4B02689A42EC
:1030A00014D10D4B5020D3F8DC2042F04002C3F87D
:1030B000DC200022D3F8DC30114603F040030193FA
:1030C000019B01F035F9502001F07AF903B05DF869
:1030D00004FB00BF001802480044025808B50A4823
:1030E0007F220A4B8260FF2203600023C26043609C
:1030F00003618361C361436107F042FB18B1BDE81E
:103100000840FFF725BF08BD640F002400400058A9
:103110000268044B9A4204D1034A136F43F40043FC
:1031200013677047004000580044025810B501234F
:10313000054C2370FDF70CFF234618B9227802F0E6
:10314000FE022270187810BD1400002410B501236F
:10315000044C2370FDF7C0FE10B9FFF7E7FF2070A5
:10316000207810BD14000024FFF7E0BF08B5084622
:1031700011461A464FF0FF33FDF7CAFE20B9FDF79E
:10318000E7FE0028FBD108BD012008BD124B10B599
:103190001B788AB01446DB071BD4032903D8DFE869
:1031A00001F010050B1204200AB010BD01A8FDF7B4
:1031B000D9FE079B236004E001A8FDF7D3FE089B1E
:1031C00023800020F0E701A8FDF7CCFE089B5B0AF6
:1031D000F0E70320E8E700BF1400002408B5084624
:1031E00011461A464FF0FF33FDF7A2FE20B9FDF756
:1031F000AFFE0028FBD108BD012008BD70B588B026
:1032000004461422002103A80FF0A8FD2268264BD3
:103210009A4246D1254B0C2502240326D3F8D4200C
:103220000DEB0501224842F48032C3F8D420D3F8D4
:10323000D42002F480320092009AD3F8E02042F0C9
:103240000402C3F8E020D3F8E02002F00402019267
:10325000019AD3F8E02042F00802C3F8E020D3F846
:10326000E030049403F00803069607950293029B4E
:103270004FF4F853039303F0A3FC042304940024B5
:103280000DEB05010B48039305940696079503F093
:1032900097FC31202246214601F04AF8312001F006
:1032A0008FF808B070BD00BF007000520044025893
:1032B00000080258000C025808B515484FF4800366
:1032C0001449072280E80A004FF000510023C26031
:1032D00081614FF04051C2624FF0804283600361D0
:1032E0004361C16103624362836242638363C36378
:1032F000036443648364C36403654365836508F0C2
:1033000001FB18B1BDE80840FFF722BE08BD00BFB1
:103310007C1100240030014008B5144807221449EC
:103320004FF48003C260C2624FF0804280E80A001E
:1033300000234FF000514263836003614361816168
:10334000C1610362436283628363C3630364436452
:103350008364C36403654365836508F0D3FA18B1D9
:10336000BDE80840FFF7F4BD08BD00BFF41000241D
:1033700000340140F0B514228BB0054600210DEB5E
:1033800002000FF0EBFC2B686B4A934274D16B4B3D
:103390000224052705A9D3F8F0200026684842F446
:1033A0008052C3F8F020D3F8F02002F4805200924B
:1033B000009AD3F8E02042F00102C3F8E020D3F8ED
:1033C000E02002F001020192019AD3F8E02042F0DD
:1033D0000802C3F8E020D3F8E030069403F00803B5
:1033E000089409970293029B7023059303F0E8FB6E
:1033F0008023544805A90694059308940997262725
:10340000514C079603F0DCFB504B4FF0400E20462A
:10341000E6606661A661E6612662666284E88840CD
:103420004FF48063236101F02DFB08B1FFF790FD9D
:10343000474B2526AC674FF48062A563454C84E872
:103440004800002320462261A360E3606361A3611A
:10345000E3612362636201F015FB08B1FFF778FDB9
:1034600000222320EC671146A56300F061FF2320B2
:1034700000F0A6FF0BB0F0BD374A9342FAD12F4BB4
:1034800005A93648D3F8F020354C42F40052C3F871
:10349000F020D3F8F02002F400520392039AD3F8FC
:1034A000E02042F01002C3F8E020D3F8E03003F04F
:1034B00010030493049B4FF4F043059302230693F7
:1034C00008930523099303F07BFB264A53232046E8
:1034D00084E80C0000234FF48062A360E360226163
:1034E0006361A361E3612362636201F0CBFA08B117
:1034F000FFF72EFD1C4B5426EC674027A5634FF4C5
:1035000080621A4C84E8C800002320462261E360F0
:103510006361A361E3612362636201F0B3FA08B1FE
:10352000FFF716FD00225420AC671146A56300F09A
:10353000FFFE54209CE700BF0030014000440258C9
:1035400000000258000C02587C12002410000240B7
:1035500028000240041200240034014000100258E8
:103560000410002440000240580002407C10002457
:103570001C4B07B5D3F8F420012042F00202C3F837
:10358000F4200022D3F8F430114603F00203019333
:10359000019B00F0CDFE012000F012FF002204206C
:1035A000114600F0C5FE042000F00AFF00220520AD
:1035B000114600F0BDFE052000F002FF0022512060
:1035C000114600F0B5FE512000F0FAFE00227D20E9
:1035D000114600F0ADFE7D2000F0F2FE03B05DF874
:1035E00004FB00BF004402587047FEE7FEE7FEE719
:1035F000FEE770477047704708B500F041FEBDE830
:103600000840FEF789BC05F039B903F093B970475B
:10361000012003F067BC08B54FF4807003F062FC32
:103620004FF40070BDE8084003F05CBC082003F0D4
:1036300059BC000008B50548FDF7E4F900F0D4FDD9
:103640000348BDE8084001F011BC00BFA4410108D7
:103650007C12002408B50548FDF7D4F900F0D0FD30
:103660000348BDE8084001F001BC00BFC5410108A6
:103670000412002408B50548FDF7C4F900F0C0FDA8
:103680000348BDE8084001F0F1BB00BFE641010876
:103690000410002408B50548FDF7B4F900F0A4FDB6
:1036A0000348BDE8084001F0E1BB00BF0742010844
:1036B0007C10002408B50448FDF7A4F90348BDE8D0
:1036C000084001F0D3BB00BF284201086414002465
:1036D00008B50448FDF796F90348BDE8084001F035
:1036E000C5BB00BF41420108EC13002408B50448E3
:1036F000FDF788F90348BDE8084001F0B7BB00BFFB
:103700005A420108F4120024014802F0ADBE00BF85
:10371000600C0024FFF7F8BF014802F0A5BE00BF0F
:10372000FC0C0024FFF7F8BF014808F0D5BC00BF2F
:103730007C110024014808F01DBE00BF5415002470
:10374000014801F093BB00BFDC140024014807F0DE
:1037500079BF00BF880F0024014801F087BB00BF7C
:1037600074060024014801F081BB00BFB4050024A9
:10377000014801F07BBB00BF3C050024014801F07B
:1037800075BB00BFD00D0024014802F01BB900BF7B
:103790000C070024FFF7F8BF08B5044802F064FEE8
:1037A0000348BDE8084002F05FBE00BF600C002483
:1037B000FC0C0024014803F06BBD00BFD4150024AD
:1037C000FFF7F8BFFFF7F6BF014800F011BF00BFD9
:1037D0002C06002408B5044803F07AFC0348BDE831
:1037E000084006F08DBF00BF980D0024540F002440
:1037F00070470000014808F0BDBD00BF6C130024F5
:10380000014808F069BC00BFF4100024014805F02D
:1038100069B900BF080F0024014804F00DBD00BFC6
:10382000480E0024014804F035BF00BF480E0024B4
:1038300004F06CB808B50E484FF4E13E0D4B0C2275
:1038400080E80840002342618360C36003618361B4
:10385000C361036243628362C3620363436309F02B
:10386000B5FB18B1BDE80840FFF772BB08BD00BF4B
:103870006C1300240078004008B50E484FF4E13E78
:103880000D4B0C2280E80840002342618360C36036
:1038900003618361C361036243628362C362036342
:1038A000436309F093FB18B1BDE80840FFF750BB34
:1038B00008BD00BF541500240044004070B58EB010
:1038C00005461422002109A80FF048FA1022002111
:1038D00005A80FF043FA2B687D4A93427CD17D4BBB
:1038E00009A97D480026D3F8E8207C4C42F08042AC
:1038F000C3F8E820D3F8E82002F080420192019A50
:10390000D3F8E02042F01002C3F8E020D3F8E03012
:1039100003F010030293029B4FF4C0730993022338
:103920000A9307230D9303F04BF96D484F23E6608C
:103930006661A661E6612662666284E849004FF42A
:1039400080632046236101F09DF808B1FFF700FB7A
:10395000062305A961480593012306968DF81C608E
:103960008DF81D60089301F0B5FB08B1FFF7F0FA80
:1039700040236C67A56350225A4C00265A492046C2
:10398000E6606661A661E6612662666284E80E0012
:103990004FF48063236101F075F808B1FFF7D8FA9E
:1039A000062305A94F480593012306968DF81C6050
:1039B0008DF81D60089301F08DFB08B1FFF7C8FA80
:1039C000002252202C671146A56300F0B1FC522062
:1039D00000F0F6FC0EB070BD444A9342FAD13D4B64
:1039E00009A943480026D3F8E820424C42F40032AB
:1039F000C3F8E820D3F8E82002F400320392039AD7
:103A0000D3F8E02042F00802C3F8E020D3F8E03019
:103A100003F008030493049B6023099302230A9391
:103A200007230D9303F0CCF833482B23E66066613F
:103A3000A661E6612662666284E849004FF480630D
:103A40002046236101F01EF808B1FFF781FA062332
:103A500005A928480593012306968DF81C608DF86A
:103A60001D60089301F036FB08B1FFF771FA0026DC
:103A700040236C672C22A5632049214C84E84E002A
:103A80004FF48063204666612361A661E661266289
:103A9000666200F0F7FF08B1FFF75AFA062305A99E
:103AA00017480593012306968DF81C608DF81D605C
:103AB000089301F00FFB08B1FFF74AFA0022262015
:103AC0002C671146A56300F033FC262080E700BF79
:103AD000007800400044025800100258641400248A
:103AE00070000240EC1300248800024000440040B3
:103AF000000C0258F4120024A0000240B80002405A
:103B0000DC140024D0F894020FF0A0B8D0F894028E
:103B10000FF0AAB8D0F894020FF0B9B870470000BF
:103B200008B5D0F8900503F0C7FE03289ABF024BF2
:103B3000185C022008BD00BF7342010808B5D0F828
:103B4000900503F0CFFE03289ABF024B185C0220B9
:103B500008BD00BF7342010830B570B1CA6862B1D8
:103B60008C6854B10B6943B10D6849688560C160C8
:103B7000046142618361002030BD4FF0FF3030BDF1
:103B800073B5002346680446019366B1A36998475C
:103B90000546A3699847401BB0F5FA6FF9D9012390
:103BA0000025636027E0836803B198472023002540
:103BB0002360636901AA12213046984700281DDB63
:103BC000019B03F01F03B3421AD100252660206831
:103BD0001F2833D87DB923694FF4004229469847FE
:103BE00000282EDB636901AA29462068984700282F
:103BF0000ADA6FF00405284602B070BD6FF00405C4
:103C00000136202ED5D1E2E7A36998470646019BED
:103C10001B0402D4002DEED1B8E7A3699847801B9E
:103C2000B0F5FA7F07D8636901AA00212068984798
:103C30000028ECDADDE76FF00105E8E76FF0020538
:103C4000D9E76FF00305D6E714491548D1F8883055
:103C500043F4700310B5C1F88830124B1A6842F073
:103C600001021A6000221A611C68204018609A61E3
:103C7000DA611A629A62DA621A635A639A63DA63E1
:103C80001A645A64186820F4802018601A660122A9
:103C9000054B1A604FF000638B6010BD00ED00E033
:103CA0007FEDF6EA004402580881005108B5144837
:103CB000FCF7A8FE1348072213494FF48003C260A3
:103CC000C2624FF0804280E80A0000234FF00051AA
:103CD00042638360036143618161C1610362436246
:103CE00083628363C363036443648364C36403655F
:103CF0004365836507F006FEB0FA80F0400908BD11
:103D00009F42010870010024003001401FB583006C
:103D1000820703A9104803F47C734CBF43F440535B
:103D200043F440631A0A8DF80D30FF238DF80C2000
:103D300002AA8DF80E308DF80F3041F288330093CF
:103D4000042308F01BF89DF80B009DF80A3043EAA5
:103D5000002005B05DF804FB70010024830007B566
:103D600003F47C7382078DF806104FEA11214CBFD3
:103D700043F4405343F440638DF8071043F4804309
:103D800007481A0A8DF805304FF4FA638DF80420BD
:103D900004220DEB020107F0C9FE03B05DF804FB3D
:103DA0007001002438B50C460546FFF7AFFF40EA26
:103DB0000401284689B2BDE83840FFF7CFBF38B5C7
:103DC0000C460546FFF7A2FF20EA0401284689B207
:103DD000BDE83840FFF7C2BF4AF202319020FFF73A
:103DE000BDBF00002DE9F0477348FCF70BFEFFF75D
:103DF0005DFF044628B97148FCF704FE2046BDE883
:103E0000F08700F049FADFF8D4810746DFF8D09157
:103E10006B4E00F041FA8246C020FFF777FF044660
:103E20004046FCF7EFFD4846FCF7ECFD2046FCF76A
:103E30007EFE3046FCF7E6FD24F00F0500F02CFA7C
:103E4000A0EB0A000A2840F2B08000F025FAC01B5F
:103E500064280BD95B48FCF7D5FD5B48FCF7D2FD25
:103E60002046FCF764FE3046FCF7CCFDADB248F6C8
:103E700070039D42CDD15548FCF7C4FD5448FCF772
:103E8000C1FD2046FCF753FE4D48FCF7BBFD002169
:103E90001020FFF763FF4FF461411220FFF75EFF30
:103EA00080211420FFF75AFF1020FFF72FFF044650
:103EB0001220FFF72BFF05461420FFF727FF0646C9
:103EC0004448FCF79FFDC6F30F20FCF7FDFD424878
:103ED000FCF798FDF0B2FCF7F7FD3F48FCF792FDC8
:103EE000C5F30F20FCF7F0FD3B48FCF78BFDE8B273
:103EF000FCF7EAFD3848FCF785FDC4F30F20FCF71A
:103F0000E3FD3548FCF77EFDE0B2FCF7F1FD4FF430
:103F100080418420FFF722FF4FF4F7717020FFF7F4
:103F20001DFF4FF480418620FFF718FF01219C20E0
:103F3000FFF714FF47F6F0417420FFF70FFF9621BB
:103F40007620FFF70BFF4FF40C718220FFF706FF7E
:103F500004212020FFF702FF4FF40051F620FFF765
:103F600021FFF620FFF7D2FE830403D42021F620A0
:103F7000FFF725FF4FF6FF719220FFF7EFFE4FF49A
:103F8000C061B0200124FFF7E9FE4FF48061B22048
:103F9000FFF7E4FEFFF720FF01217020FFF702FF8B
:103FA00001217420FFF7FEFE28E7AAB248F670034D
:103FB0009A427FF431AF48E78742010897420108EF
:103FC0001340010862400108B94201085C40010841
:103FD000D1420108DD420108F33F010851410108C7
:103FE000C742010800219020FFF7B8BE10B547F680
:103FF000FE747420FFF78AFE044074202146FFF708
:10400000ADFE44F400417420FFF7A8FE2146742061
:10401000FFF7A4FE44F001017420FFF79FFE204645
:1040200010BD10B57020FFF771FE20F0110084B2B2
:1040300070202146FFF792FE44F010017020FFF738
:104040008DFE21467020FFF789FE44F001017020AB
:10405000FFF784FE204610BD08B501218220FFF73E
:10406000A1FE8220FFF752FEC307FAD408BD00006C
:1040700030B5ADF5805D0C460546782083B0FFF77E
:1040800045FE04F10801C0F30C0089B288420FD24A
:104090009E20FFF763FE02218020FFF783FE92201F
:1040A000FFF734FE4206FAD540219220FFF77AFE50
:1040B000FFF798FF08218220FFF774FE174AC023FC
:1040C00017482B701388591C03F03F031180611FA0
:1040D0006B70002389B24FF4FA62AB700B0AE9707F
:1040E000009202AA2B71CB1C294623F0030305334F
:1040F0009BB207F043FE08218220FFF760FE0121FA
:104100008020FFF74FFE8020FFF700FEC307FAD4A0
:10411000FFF762FE0DF5805D03B030BDFA010024AB
:10412000700100242DE9F047ADF5805D80469220B6
:104130008A4682B0FFF7EAFD10F400504DD0FFF739
:1041400051FF4FF40051922043F61749FFF72AFE22
:104150009C20FFF7DBFDC0F30F26002E39D07C201A
:10416000013EFFF7D3FD0304B6B202D510EA0907FA
:1041700002D0FFF771FFF0E77E20FFF7C7FDC0F325
:104180000B05EC1C24F00304A4B25445F1D8042D13
:10419000EFD944F204018620FFF7E0FD08218220D8
:1041A000FFF700FE2246394602A80EF0D7FD802315
:1041B0004FF4FA6202A98DF8083004F10803009266
:1041C00042469BB2074807F0D9FD08218220FFF73D
:1041D000F6FD063DFFF700FEA8B20DF5805D02B0CA
:1041E000BDE8F0877001002408B50348FCF70AFC1D
:1041F0000122024B1A7008BDFC420108F90100249B
:1042000008B50348FCF7FEFB0122024B1A7008BDFB
:10421000E8420108F801002438B50E4B05460E4A65
:1042200018784FF47A73B3FBF0F31068B0FBF3F037
:1042300000F0DAF8044658B90F2D09D8024629468D
:104240004FF0FF3000F074F8044B20461D6038BD7D
:10425000012038BD20000024180000242400002480
:1042600010B5032000F046F80020FFF7D5FF044604
:1042700018B9FFF77DF9204610BD0124FBE70000C7
:10428000034A044B11681B780B441360704700BF4E
:10429000FC01002420000024014B1868704700BF77
:1042A000FC01002438B50446FFF7F6FF0546631C01
:1042B0001EBF044B1B78E418FFF7EEFF401B84423F
:1042C000FAD838BD2000002430F4000310B50446AD
:1042D00004D040F217210548FEF73BFE044B586816
:1042E00020F460002043586010BD00BF1043010857
:1042F00000040058C31E042B10B5044603D9A221A4
:104300000948FEF726FE094A2402D36804F4E06453
:1043100023F4E0631B041B0C43F0BF6343F400333E
:104320001C43D46010BD00BF4A43010800ED00E00B
:104330000F2A70B504460E46154603D9BA211D480A
:10434000FEF707FE0F2E03D9BB211A48FEF701FE28
:10435000194B0120D968C1F30221C1F107030A1DDD
:10436000042B28BF0423062A00FA03F28CBF03396A
:104370000021002C02F1FF3200FA01F002EA0602ED
:1043800000F1FF3002FA01F205EA000542EA0502F7
:104390004FEA021207DB04F16044D2B204F5614433
:1043A00084F8002370BD04F00F04D2B2034B1A55F9
:1043B00070BD00BF4A43010800ED00E014ED00E0CD
:1043C000002803DACE210648FEF7C3BD42090123C7
:1043D00000F01F0003FA00F0024B43F82200704780
:1043E0004A43010800E100E00138B0F1807F0AD2C1
:1043F000064BF021064A5860002082F8231007225D
:1044000098601A6070470120704700BF10E000E01C
:1044100000ED00E010B5044608B9012010BD0268A7
:10442000314B9A4203D07D213048FEF792FD637FE5
:1044300003F0FF021BB922772046FCF7BBFD0223E5
:1044400063772379012B03D98C212848FEF781FD5E
:104450002379002B3ED12368254A5A619A6822F0BD
:1044600018029A606379012B03D99E211F48FEF739
:1044700070FD62792368002A34D14FF0FF321A614F
:10448000636933F0600303D0AA211848FEF761FD89
:1044900022686169936823F060030B439360A3690A
:1044A00033F0800303D0AE211048FEF752FD22689E
:1044B000A169936823F080030B439360236A013B57
:1044C000022B03D9B3210948FEF743FD0123002045
:1044D000637710BDE2682046A16800F00BF8002861
:1044E000C0D09AE72269CAE7004C02588B43010802
:1044F000B71DC10432F0180370B506460D461446C8
:1045000003D06F211148FEF724FD1F2325FA03F283
:10451000D20705D413F1FF33F8D254B1012070BD96
:10452000082C11D0F9D9102C0CD0182CF6D1062B50
:10453000F4D8336800205D619A6822F018021443B1
:104540009C6070BD072BF3E70F2BF1E7C94301080F
:1045500010B50446002844D0836833F4807207D035
:10456000B3F5007F04D040F277111F48FEF7F1FC4D
:10457000636833F0C00304D04FF4BC711A48FEF7EF
:10458000E8FC636933F0180123F008020BD0202AFD
:1045900009D0302B07D0B2F5002F04D040F27911AA
:1045A0001148FEF7D6FC94F8413003F0FF0223B91E
:1045B00084F840202046FCF72DFD2168A0680A6899
:1045C000636822F400220343606922F47E7203438D
:1045D000002013430B6001236064636384F841305F
:1045E00010BD012010BD00BF0A440108704770478C
:1045F0000368D969DA6970B58D07044601D4D0071C
:104600005FD5626932F0180022F008015AD194F89F
:104610004120022A40F0D880DA69D10721D59A6971
:10462000D2071ED5E28D616A92B251F822209A60BB
:10463000E28D013292B2E285E28D92B251F82220EF
:10464000618E9A60E28D013292B2E285E28D92B281
:10465000914206D15A69204622F001025A61FFF7C1
:10466000C5FF2368DA6996072BD59A69950728D57F
:10467000D868228EA16A92B241F82200228E0132BD
:1046800092B22286D868228E92B241F82200228EFF
:10469000618E013292B22286228E92B2914210D164
:1046A0005A6922F002025A611A6822F400421A6022
:1046B000002384F84030012384F841302046FFF77E
:1046C00096FF70BD202902D0302A40F0828094F8F5
:1046D0004120022A78D15A68900734D5E28D618E44
:1046E00092B28A422FD2E28D606A92B250F82220B2
:1046F0009A60E28D013292B2E285E28D92B250F878
:1047000022209A60E28D013292B2E285E28D92B26D
:1047100050F822209A60E28D013292B2E285E28D59
:1047200092B250F822209A60E28D013292B2E28574
:10473000E28D92B2914206D15A69204622F00102DE
:104740005A61FFF753FF23685A685107B9D5228E83
:10475000618E92B28A42B4D2DD68228EA06A92B291
:1047600040F82250228E013292B22286DD68228EDB
:1047700092B240F82250228E013292B22286DD6837
:10478000228E92B240F82250228E013292B22286BC
:10479000DD68228E92B240F82250228E013292B20F
:1047A0002286228E92B291428BD15A6922F0020265
:1047B0005A61012284F841201A6822F400421A60EA
:1047C000002384F8403079E7636C43F008036364A6
:1047D00070BDB1F5002F7FF474AF1A6812F4803207
:1047E00062D0A28DE16992B291421AD15A6922F047
:1047F00001025A611A6822F400421A6002226263BE
:104800001A6822F440321A601A6842F400321A60C0
:104810005A6942F003025A611A6842F400421A606F
:1048200070BDA28D92B28A1A032A08D8002201F024
:1048300003018A4229D30021032A32D970BDA28DF7
:10484000A16992B251F822209A60A28D013292B2EF
:10485000A285A28D92B251F822209A60A28D0132D7
:1048600092B2A285A28D92B251F822209A60A28DB6
:10487000013292B2A285A28D92B251F822209A60A2
:10488000A38D01339BB2A38570BDA08D0132A569B4
:1048900080B255F820009860A08D013080B2A085CC
:1048A000C7E799600132C7E7618E49B95A6922F0BA
:1048B00003025A61012384F8401084F8413070BD2E
:1048C000E08D80B2081A032837DDE28D606A92B26B
:1048D00050F822209A60E28D013292B2E285E28D98
:1048E00092B250F822209A60E28D013292B2E285B3
:1048F000E28D92B250F822209A60E28D013292B29B
:10490000E285E28D92B250F822209A60E28D013267
:1049100092B2E285E28D92B2914206D15A69204666
:1049200022F001025A61FFF761FE238E618E9BB275
:104930008B42BFF4C6AE23680EE711F003053FF4C7
:10494000C0AEAA42284618D3002201309A6004283B
:10495000FBD15A6922F001025A615A68520718D4F1
:10496000228E92B291423FF6ACAE5A6922F0030217
:104970005A61012384F8413022E7E08D0132666AF2
:1049800080B256F820009860E08D013080B2E0855A
:10499000D7E7A56ADE680138228E92B245F8226018
:1049A000228E02F1010292B22286F3D1D8E70000F2
:1049B00003681821DAB223F47F73103A23F003035B
:1049C000B2FBF1F20449032A895C88BF0433C16554
:1049D0008365806D704700BF874401080168134BF1
:1049E0000B448C2BCBB210D81422083BB3FBF2F350
:1049F00003F1B05202F51642920002660C4A42667A
:104A0000012202FA03F3836670471822103BB3FBBE
:104A1000F2F3084A0A44A82A98BF083303F18052E7
:104A200002F5024292000266034AE8E7F8ABFDA7EE
:104A300080580258F0FBFDBF80080240027910B593
:104A4000541E072C0DD80368094919448C2909D82C
:104A5000084B13449B00C366074B03670123A34025
:104A6000436710BD054B13449B00C366044BF4E73A
:104A7000F8ABFDA73F960016405902583F82001040
:104A80004009024070B50446FFF706FC0546002CBD
:104A900000F031812368A84A934249D018329342EA
:104AA00046D01832934243D01832934240D0183245
:104AB00093423DD0183293423AD01832934237D0C5
:104AC0001832934234D002F55672934230D01832E5
:104AD00093422DD0183293422AD01832934227D0D5
:104AE0001832934224D01832934221D01832934284
:104AF0001ED0183293421BD0904A934218D01432E1
:104B0000934215D01432934212D0143293420FD0F4
:104B1000143293420CD01432934209D0143293428F
:104B200006D01432934203D0DE218548FEF711FAF5
:104B3000A36833F0400205D0802B03D0DF218048EA
:104B4000FEF707FAE36833F4007303D0E0217C48F2
:104B5000FEF7FFF9236933F4806303D0E12178483D
:104B6000FEF7F7F9636933F4006206D0B3F5805FAE
:104B700003D0E2217248FEF7ECF9A36933F4005246
:104B800006D0B3F5804F03D0E3216D48FEF7E1F97D
:104B9000E36933F0200206D0B3F5807F03D0E4212F
:104BA0006748FEF7D6F9236A33F4403303D0E52192
:104BB0006348FEF7CEF92368624E9919B1F5956FF7
:104BC00000F2C4806368732B03D9EA215C48FEF7C6
:104BD000C0F9636A33F0040303D0EB215848FEF7B1
:104BE000B8F9636AB3B1A36A032B03D9F02154481F
:104BF000FEF7AFF9E36A33F0C07303D0F1215048F8
:104C0000FEF7A7F9236B33F4C00303D0F2214C481D
:104C1000FEF79FF9002384F83430022384F83530FE
:104C200023681A6822F001021A6021680B68D8070D
:104C300057D40B68444DA2681D40E368A069134334
:104C40002269134362691343E26903431343226AEF
:104C50001343626A042A43EA050301BF266BE56A2F
:104C600035432B43042A0B604B6923F0070343EAC7
:104C700002030CD1A26AE56A134345B100283CD176
:104C8000012A4BD001D3022A01D1EA0149D44B6158
:104C90002046FFF78DFEE26D3F2393408360204660
:104CA0000025FFF79BFEA368226E802B04BF002324
:104CB00063606368D9B2013B1160072B626EA16E1D
:104CC000516000F284802046FFF7B8FEE36E626F09
:104CD0001D60236F5A6000200123606584F8353021
:104CE00070BDFFF7D9FA401B05289ED920236365C4
:104CF000032384F83530012070BDB0F5005F16D174
:104D0000032AC4D801A050F822F000BF234D0008A8
:104D10008B4C0008234D00081D4D0008B5F1C07FE5
:104D2000B5D140230120636584F8350070BD022AA7
:104D3000F7D9032AA8E700BF100002400854025820
:104D400049440108F0FFFDBF3F8010FE224D2B4477
:104D50008C2B3AD86368112B04D94FF4AA711F48E1
:104D6000FEF7F7F800232268A16884F834300223A4
:104D7000402984F83530166826F4FF4626F0700680
:104D800021D0802914BF00204FF4804023691544AE
:104D9000E168DB0843EAD103616943EAD103A16911
:104DA00043EAD103216A43EA1113E169C908334395
:104DB00001F020010B43034313601422B5FBF2F50D
:104DC000AD00E5656BE71020E0E740238FE7E5667F
:104DD000256765677FE700BFF8ABFDA74944010879
:104DE00010B528B190F83530022B03D080234365ED
:104DF000012010BD03681B4A1A44B2F5956F08D80C
:104E0000042280F835201A6822F001021A6000207E
:104E100010BD1A6822F00E021A601A6822F0010210
:104E20001A60026E136823F4807313600123C26D4D
:104E300093400D4A5360436E826E5A60C36E33B125
:104E40001A6822F480721A60036F426F5A6001235D
:104E5000002480F83530036D80F83440002BD6D024
:104E60009847D4E7F0FFFDBF0054025800232DE916
:104E7000F341924D044601930368866D5A19D6F8A2
:104E80000080B2F5956F00F2C0808D4AC16D176841
:104E900008228A4018EA020F0BD01868400708D58C
:104EA000186820F004001860B260626D42F00102E0
:104EB0006265844A8A4018EA020F07D058690006E2
:104EC00004D5B260626D42F0020262657E4A8A4099
:104ED00018EA020F07D01868800704D5B260626D27
:104EE00042F00402626510228A4018EA020F0FD0D5
:104EF000196809070CD5B2601A6850033FD51B68C2
:104F0000190301D4236C00E0A36C0BB12046984731
:104F1000E06D2021814018EA010F41D023685A1921
:104F2000B2F5956F1A6894BFC2F30012C2F3400243
:104F3000002A35D0B16094F83520042A1A6826D1A9
:104F400022F016021A605A6922F080025A61226C1D
:104F50000AB9A26C1AB11A6822F008021A603F233B
:104F60008340B360002384F83430012384F8353063
:104F7000236D0BB12046984702B0BDE8F0811A6856
:104F8000D205BFD41A6822F008021A60BAE75603A5
:104F90002CD51B68180336D4636C0BB12046984798
:104FA000636D002BE8D0636DD9071DD5042384F809
:104FB000353023681A6822F001021A604FF4165245
:104FC000B7FBF2F7019A01329742019202D31A68B5
:104FD000D207F7D41B680022DE0784F834204CBFC8
:104FE0000323012384F83530E36CC2E71A6812F416
:104FF000807208D1196821F010011960012384F82A
:10500000342084F83530E36BC7E7304A1A448C2AE1
:10501000B2D82F4A0421C06D15688140294212D0B0
:1050200019684D070FD51A68900603D41A6822F044
:1050300004021A60264A0423E06D516883400B4342
:105040005360236C95E71168022282400A4218D00F
:105050001A68910715D51A6812F0200208D119684C
:1050600021F00A011960012384F8342084F83530D6
:10507000174A0223E06D516883400B435360E36B92
:1050800077E7134908220D6882402A423FF474AF43
:105090001A6812077FF570AF1A6822F00E021A60C4
:1050A0000122E36D486802FA03F303434B600023D7
:1050B000626584F8343084F8352095E7F0FFFDBF51
:1050C000180000240100800004008000F8ABFDA758
:1050D00000540258F8B56A4A044603680D469342E4
:1050E0004AD01832934247D01832934244D01832F3
:1050F000934241D0183293423ED0183293423BD073
:105100001832934238D01832934235D002F5567295
:10511000934231D0183293422ED0183293422BD082
:105120001832934228D01832934225D01832934235
:1051300022D0183293421FD0183293421CD0514AC9
:10514000934219D01432934216D01432934213D0A2
:105150001432934210D0143293420DD01432934241
:105160000AD01432934207D01432934204D040F252
:105170005D114548FDF7EDFE2B7A012B04D94FF464
:10518000AF714148FDF7E5FE6B7A012B04D940F27F
:105190005F113D48FDF7DDFEEB68013B1F2B04D995
:1051A0004FF4B0713848FDF7D4FE2B7A012B5BD158
:1051B0006B6833F4C02304D04FF4B2713248FDF76A
:1051C000C8FE2268314B1344B3F5956F2B6846D85F
:1051D000072B04D94FF4B4712B48FDF7BAFE95E8BC
:1051E000011094F83530012B42D194F83430012B62
:1051F00043D0266E4FF0F85E336823F4813333607A
:1052000033689EFAAEFE4FF47807BEFA8EFE97FA28
:10521000A7F74FF48031B7FA87F791FAA1F14FF46D
:105220000072B1FA81F192FAA2F200FA0EFEDBB23C
:10523000E868B2FA82F243EA0C03013843EA0E034B
:10524000B8400343287A00FA01F100200B43697A41
:1052500001FA02F21343336084F83400F8BD0F2BD7
:10526000BDD94FF4B671B7E74FF0000C6046B8E710
:105270004FF4006301206365F8BD0220F8BD00BF54
:1052800010000240085402588F440108F0FFFDBF8F
:105290008B680A6891F804C01A430B7C002B2DE937
:1052A000F04F08BF4FF4002385B018BF002391F8DA
:1052B0000CE04F7B00934B7C8E7B002BCD7B8C7C5A
:1052C0000CBF4FF40033002391F81C9001934B69FD
:1052D00091F81DB01A438B6913438A7F002A0CBFD3
:1052E0004FF4806200220292CA7F039291F820203C
:1052F000002A0268486AD2F800A008BF4FF48078FC
:1053000043EA0003C86A2AF07F4A18BF4FF000083A
:10531000034303982AF47B0A2AF4FE4A2AF07C0A03
:1053200043EA0A0343EACC6343EACE5343EA875392
:1053300043EA465343EA055343EA044343EA093345
:1053400043EACB2391F828B043EA4023009843EA8C
:105350000B130343019803430298034343EA0803F2
:105360001360CE6B91F8323091F83870002B53688F
:1053700091F8305023F07C5391F831400CBF4FF43A
:105380008030002023F4EF2323F4FF6323F007038E
:1053900043EA46634E6B33438E6C43EA076343EA4A
:1053A00085430D6D43EA444391F854400343486CF0
:1053B0005360D36823F4877323F00103034391F808
:1053C000400043EA0023D36091F84C30002B136F68
:1053D00023F0F2030CBF802000201B041B0C43EAC7
:1053E00006432B43CD6D43EA440391F861400343E8
:1053F0001367D2F8900091F8563020F00300034371
:1054000091F8550043EA4003886DC2F89030D2F815
:10541000003D23F072030343C2F8003D91F8603071
:1054200091F86210002BD2F8303D23F07B030CBFC3
:10543000402000202B4343EA041343EAC103034303
:10544000C2F8303D05B0BDE8F08F0000026802F5FB
:105450008050036823F4F04330B523F002030C6856
:105460000D79234341F2040403600B7B1059DB03E5
:1054700020F4504043EA05338D6820F001002B43AF
:10548000034302F588501351124B05684C7B2B40A7
:1054900043EA04430C6A234341F2041403604B7F44
:1054A000087D1B03155943EA0013086903430A48A2
:1054B0002840034341F20810135113580C7F23F086
:1054C0000043896923F47C1343EAC4730B431350EC
:1054D00030BD00BF00C0FEFFEFEFC0FF2DE9F04F71
:1054E000D0F828E0934600EB8E0ADAF81830DD6831
:1054F000002D02DA0220BDE8F08F0C688E6814F0EF
:1055000004072AD02D0C4A6AD0F800802D0445EA01
:10551000020C4CF48032DA60D8F8602042F4801239
:10552000C8F86020220718D59D68AAB2CD6A42EA61
:1055300005450A6B9D6042F440322CF440252A4315
:10554000DA60D8F8642042F48012C8F86420D8F8F1
:10555000502042F08062C8F8502014F010080BD0A0
:105560009D688A6925F47F5525F03F052A439A6096
:10557000DA6842F08062DA6014F0140C18D0DA684D
:1055800042F04045DD600EF10105032D88BFAEF10C
:10559000030500EB850CDCF818C0DCF80C90B9F1C1
:1055A000000F5FDA22F0004242F08042DA60A1E7A9
:1055B0007546D3F808900CF1010C326829F47F5934
:1055C0001A6029F03F09726849EA0209B268C3F813
:1055D000089029F07F5929F47C19002A46D01668D2
:1055E0005E60566849EA06469E60DE68B8F1000FC4
:1055F00044D026F4F0080E6A48EAC648CE694FEA5D
:10560000984846F480264FEA884848EA0608C3F8D6
:105610000C802FB19E6826F440478E6A3E439E6000
:10562000DE6826F0804747F02047DF60A70706D5F1
:10563000CC6826F0874644F020443443DC60524E68
:105640009468B4BB9A68BBF1000F00F0998042F0F7
:1056500000429A60DA6842F08052DA608562002087
:10566000BDE8F08F63464FF0010CA2E71A715A7142
:105670009A71DA713246C3F80890B6E726F4FF480B
:105680004E6814F0010F28F07F0848EA0606DE6035
:105690001FBF26F440384E6948EA0606DE60A606BB
:1056A000B7D5DE6826F040680E6948EA0606DE6077
:1056B000AFE76F1C032F88BFEF1E00EB87039B69CA
:1056C000D3F80C80B8F1000F15DADAF818100022C0
:1056D00094453FF40FAFCB68013223F00043CB6019
:1056E0000EF10103032B88BFAEF1030300EB83012E
:1056F0009E468969ECE722680CF1010CD3F808900A
:105700001A6009EA0609626849EA0209A268C3F850
:10571000089029F07F5929F47C19D2B15568146892
:1057200049EA05455C609D600D68EC0619D5CC69B9
:105730004FEA984844F480244FEA884848EA040431
:10574000DC60DC683D4624F0804444F00044DC60CA
:1057500076E71A715A719A71DA712246C3F8089085
:10576000E2E728F4FF484C6828F07F0848EA04087C
:10577000EC07C3F80C80E4D528F440384C69DDE729
:1057800022F0004265E700BF00C0FFFF0AB1032915
:1057900003D9012343651846704700EB8100C16AB5
:1057A0000A600A61CA6842F08070C86023B142F0A2
:1057B00040728B604B61CA60CB68002043F00043AD
:1057C000CB60704790F85120D2B2102A10B52AD180
:1057D000232341F2041480F851300368196841F022
:1057E00002011960196841F001011960D3F8001D28
:1057F00041F00101C3F8001D195941F0010119518F
:1058000041F20814195941F00101195103F58B5364
:10581000196841F481711960222380F8512080F8C1
:105820005230002010BD012010BDF8B504461546C9
:1058300029B9436D43F0010363650120F8BD90F879
:105840005130102BF9D10022FFF748FE18B1636DDB
:1058500043F00203F0E7A36A9A1D54F822605A1C31
:10586000032A8ABF033BA262A362A26A23680632AC
:1058700003F5895354F822201A60FEF70DFD074600
:10588000F268002A04DB1023002084F85130F8BDB0
:10589000236803F58B531968C90409D5626D42F07A
:1058A000080262651B68A365E02384F85130C4E7F1
:1058B0006B1CE6D0FEF7F0FCC01B854201D3002D27
:1058C000DED1636D43F0040363651023EDE7F0B5AB
:1058D000456C6DB9C46B2A462946052600EB840346
:1058E000DF6AFF68002F1BDA00293BD100234364E5
:1058F0000020F0BDBF000AD5032B4FF0010188BF87
:10590000E31E00EB8302D76A22461C46E9E7032B1D
:1059100001F1010188BFE31E00EB8304E76AF4E7AD
:10592000013EE1D017F0805F04F10103E2D00131C4
:10593000012908BF2246032B88BFE31E00EB830426
:10594000E46AE468002C08DB640006D50124846462
:105950001C19032C8CBF033B2346C36302644164C0
:105960000120F0BD00EB820300244FF0010E4FF048
:10597000030CDB6A1E691C731E605E695C739C739A
:1059800083F80FE016B19E6083F80FC0DE6846F022
:105990000047DF60C76C17B146F04046DE60531C1D
:1059A0000135032B8CBF033A1A46A94200EB820350
:1059B000DB6ADFD19AE770477047704770477047DE
:1059C00070477047036803F58B521268520610B592
:1059D000044611D541F234129B5859060CD5FFF7F5
:1059E00076FF012802D12046FFF7E6FF236848F240
:1059F000400203F58B531A60236803F58B5212683B
:105A0000D2070DD541F234129B58D80708D520464D
:105A1000FFF7D1FF236848F2010203F58B531A60A8
:105A2000226802F58B53196849041DD541F23411DF
:105A30005058400418D5606D40F008006065186843
:105A4000C0044DD5186841F2021383430CBF0123F3
:105A50000023A365535823F440435350E02384F8B4
:105A600051302046FFF7A9FF2268D2F8B03003F486
:105A7000C043B3F5C04F0AD1D2F8B8302046E36531
:105A8000E02384F85130FFF799FF0023E365236892
:105A9000D3F8B020D00609D5D3F8C030204603F0A3
:105AA00060032366FFF78BFF002323662368D3F888
:105AB000B020910609D5D3F8C030204603F00F037B
:105AC0006366FFF77DFF002363660C4B9A6A520200
:105AD00005D54FF4800220469A62FFF772FF10BD91
