:020000040800F2
:1000000000000824A106000845350008473500080F
:10001000493500084B3500084D3500080000000048
:100020000000000000000000000000004F35000844
:100030005135000800000000533500085535000810
:10004000F106000863350008F1060008F106000813
:10005000673500086B3500086D350008F1060008AB
:10006000F106000873350008F1060008793500082C
:1000700085350008913500089D350008A935000830
:10008000B5350008C1350008F1060008D93500086B
:10009000E9350008CD350008DD350008ED350008EC
:1000A000F1060008F1060008F1060008F106000854
:1000B000F1060008F1060008F1060008F106000844
:1000C000F1060008F1060008F106000805360008F0
:1000D000F1060008F106000811360008F1060008D4
:1000E000F1060008F106000800000000F106000813
:1000F000F1060008F1060008F10600081D360008A8
:10010000F106000829360008F1060008F10600088B
:10011000F1060008F1060008F1060008F1060008E3
:1001200035360008413600084D36000859360008BB
:10013000F1060008713600086536000875360008BB
:1001400000000000000000000000000000000000AF
:10015000F1060008F1060008F1060008F1060008A3
:10016000F1060008F1060008A13600089D360008D7
:10017000F106000891360008F1060008A5360008CF
:10018000B1360008CD360008D1360008F106000867
:10019000DD360008F1060008F1060008F106000847
:1001A000F1060008F1060008F1060008F106000853
:1001B000E9360008F1060008F1060008F5360008E7
:1001C00001370008F1060008F1060008F1060008F2
:1001D000F1060008F1060008F1060008F106000823
:1001E000F1060008F1060008F1060008F106000813
:1001F000F1060008F1060008F1060008F106000803
:10020000F1060008F1060008F1060008F1060008F2
:10021000F1060008F1060008F1060008F1060008E2
:10022000F1060008F1060008F106000800000000D1
:10023000F10600080D37000800000000F106000874
:10024000F1060008F1060008F1060008F1060008B2
:10025000F1060008F1060008F1060008F1060008A2
:10026000F1060008F1060008F1060008F106000892
:10027000F1060008F1060008F10600080000000081
:10028000F106000800000000F10600080000000070
:0802900000000000F106000867
:1002A00010B5054C237833B9044B13B10448AFF3B0
:1002B00000800123237010BD902000240000000066
:1002C000183A010808B5034B1BB103490348AFF3C3
:1002D000008008BD0000000094200024183A0108A6
:1002E000034613F8012B002AFBD1181A0138704776
:1002F00001F0FF01102A2BDB10F0070F08D010F8D7
:10030000013B013A8B422DD010F0070F42B3F6D1DA
:10031000F0B441EA012141EA014122F007047FF0F3
:1003200000070023F0E80256083C85EA010586EA4A
:10033000010685FA47F5A3FA87F586FA47F6A5FA86
:1003400087F68EB9EED1F0BC01F0FF0102F0070292
:1003500032B110F8013B013A83EA010313B1F8D13D
:100360000020704701387047002D06BF354603381E
:10037000073815F0010F07D1013015F4807F02BF57
:10038000013015F4C03F0130F0BC0138704700BFA8
:1003900053B94AB9002908BF00281CBF4FF0FF31EC
:1003A0004FF0FF3000F07AB9ADF1080C6DE904CEE2
:1003B00000F006F8DDF804E0DDE9022304B0704740
:1003C0002DE9F0478C460D460446089E002B51D17E
:1003D0008A4217466DD9B2FA82FEBEF1000F0BD0E9
:1003E000CEF1200C01FA0EF520FA0CFC02FA0EF701
:1003F0004CEA050C00FA0EF44FEA174A250CBCFB38
:10040000FAF81FFA87F90AFB18CC45EA0C4508FBF5
:1004100009F3AB420AD9ED1908F1FF3280F02381CC
:10042000AB4240F22081A8F102083D44ED1AA4B28B
:10043000B5FBFAF00AFB105544EA054400FB09F944
:10044000A14509D9E41900F1FF3380F00A81A145E3
:1004500040F2078102383C44A4EB090440EA08401A
:100460000021002E61D024FA0EF400233460736062
:10047000BDE8F0878B4207D9002E54D0002186E8D2
:1004800021000846BDE8F087B3FA83F1002940F067
:100490008E80AB4202D3824200F2FA80841A65EB6E
:1004A00003050120AC46002E3FD086E81010BDE8C1
:1004B000F08712B90127B7FBF2F7B7FA87FEBEF152
:1004C000000F34D1EB1B3A0C1FFA87FC0121B3FB60
:1004D000F2F8250C02FB183345EA03450CFB08F340
:1004E000AB4207D9ED1908F1FF3002D2AB4200F25E
:1004F000D1808046ED1AA3B2B5FBF2F002FB105595
:1005000043EA05440CFB00FCA44507D9E41900F1BB
:10051000FF3302D2A44500F2B8801846A4EB0C04C5
:1005200040EA08409DE731463046BDE8F087CEF10D
:10053000200405FA0EF307FA0EF720FA04F83A0C35
:1005400025FA04F448EA0308B4FBF2F14FEA18452F
:1005500002FB11441FFA87FC45EA044501FB0CF33A
:10056000AB4200FA0EF409D9ED1901F1FF3080F029
:100570008A80AB4240F2878002393D44EB1A1FFA71
:1005800088F5B3FBF2F002FB103345EA034500FBAC
:100590000CF3AB4207D9ED1900F1FF386FD2AB4233
:1005A0006DD902383D44EB1A40EA01418FE7C1F1B1
:1005B000200722FA07F88B4005FA01F448EA030302
:1005C00020FA07FE4FEA134CFD404EEA040EB5FB3D
:1005D000FCF94FEA1E440CFB19551FFA83F844EA54
:1005E000054509FB08F4AC4202FA01F200FA01FAEF
:1005F00008D9ED1809F1FF3043D2AC4241D9A9F135
:1006000002091D442D1B1FFA8EFEB5FBFCF00CFBEE
:1006100010554EEA054400FB08F8A04507D9E41838
:1006200000F1FF3529D2A04527D902381C4440EA01
:100630000940A4EB0804A0FB02894C45C6464D4680
:1006400015D312D056B1BAEB0E0364EB050404FACD
:1006500007F7CB401F43CC40376074600021BDE8F2
:10066000F0871846F8E69046E0E6C245EAD2B8EBD5
:10067000020E69EB03050138E4E72846D7E7404658
:1006800091E78146BEE7014678E702383C4445E7FA
:10069000084608E7A8F102083D442BE7704700BF71
:1006A000DFF834D0002103E00C4B5B584350043199
:1006B0000B480C4B42189A42F6D30B4A02E0002337
:1006C00042F8043B094B9A42F9D303F02BFA12F09B
:1006D00065FA01F03BFC704700000824E45B010868
:1006E000000000249000002490200024D06D0024FD
:1006F000FEE770B50E4615460C46A31B9D4201DC75
:10070000284670BD00F048F904F8010BF5E770B514
:100710000E4615460C46A31B9D4201DC284670BDC3
:1007200014F8010B00F020F9F5E70000094B024630
:10073000196809B9084919601868694602448A426B
:1007400083BF0C22054B4FF0FF301A6088BF1A6040
:10075000704700BFAC200024D06D0024CC6D002475
:100760004FF0FF3070474FF4005300204B6070474C
:100770000120704700207047931E222BF0B503D94B
:1007800000230B700846F0BD0C46114F234690FB2A
:10079000F2F502FB15063E4496F8236003F8016B60
:1007A00095B900284FF00000BEBF2D221A70A31C7F
:1007B0005A1E18700B469A42E4D910781C7802F839
:1007C000014903F8010BF6E71C462846DEE700BFA7
:1007D000B23B0108034610B51A1A92B2914200D8F2
:1007E00010BD1A780133A2F14104192C9CBF42F0CC
:1007F000200403F8014CA2F16104192C9CBF22F0E3
:10080000200203F8012CE7E710B508210F4806F095
:1008100089FA00284FF010010C4814BF0024082466
:1008200006F080FA08B944F004042021074806F0D5
:1008300079FA08B944F002044021044806F072FA3B
:1008400008B944F00104204610BD00BF0010025852
:10085000062821D8DFE800F004080E12161A1D0041
:10086000002201210D4803E000224FF480710C4862
:1008700006F06ABA00224FF40071F8E700224FF444
:100880008061F4E700224FF40061F0E7002240218C
:10089000E8E700228021E5E7704700BF0008025822
:1008A00000000258062821D8DFE800F004080E12E4
:1008B000161A1D00012211460D4803E001224FF4D3
:1008C00080710C4806F040BA01224FF40071F8E73D
:1008D00001224FF48061F4E701224FF40061F0E758
:1008E00001224021E8E701228021E5E7704700BFAF
:1008F000000802580000025808B50020FFF7D2FF98
:100900000120FFF7CFFF0220FFF7CCFF0320FFF706
:10091000C9FF0420FFF7C6FF0520FFF7C3FF06202D
:10092000BDE80840FFF7BEBF08B50020FFF790FF05
:100930000120FFF78DFF0220FFF78AFF0320FFF75A
:1009400087FF0420FFF784FF0520FFF781FF0620C3
:10095000BDE80840FFF77CBF00487047FA3B01083C
:1009600000487047023C010837B502AC05460A232F
:10097000012204F8040D214605480CF08AF90A23E7
:100980000122214603480CF084F9284603B030BD0B
:10099000543500246C33002413B5074C0A2301227C
:1009A0000DF1070120460CF0CDF90028F6D19DF895
:1009B000070002B010BD00BF54350024FFF7D4BFBC
:1009C00010B5441E14F8010F00B910BDFFF7CCFF9D
:1009D000F8E700B589B00A226946FFF7CDFE684600
:1009E000FFF7EEFF09B05DF804FB10B588B00A22EE
:1009F0000C466946FFF7C0FE6846FFF771FC012808
:100A000002D82046FFF7B0FF6846FFF7D9FF08B0CD
:100A100010BD000000B589B010226946FFF7ACFE9A
:100A20006846FFF75DFC012802D13020FFF79CFFEC
:100A30006846FFF755FC032802D13020FFF794FFEA
:100A40006846FFF74DFC052802D10C48FFF7B8FFB8
:100A50006846FFF745FC062802D10948FFF7B0FFBA
:100A60006846FFF73DFC072802D13020FFF77CFFE6
:100A70006846FFF7A5FF09B05DF804FB0E3C0108CE
:100A80000F3C010800B589B010226946FFF774FEDB
:100A90006846FFF725FC012802D83020FFF764FFE5
:100AA0006846FFF78DFF09B05DF804FB08B5FFF756
:100AB000E9FF0A20BDE80840FFF756BF10B588B02F
:100AC00010226946FFF758FE6846FFF709FCC4B2DA
:100AD000032C04D96846FFF773FF08B010BD01343A
:100AE0003020FFF741FFE4B2F2E708B5FFF7E6FF79
:100AF0000A20BDE80840FFF737BF10B5441E14F8C0
:100B0000010F20B90A20BDE81040FFF72DBFFFF705
:100B10002BFFF4E700B589B00A226946FFF72CFEE7
:100B20006846FFF7EAFF09B05DF804FB38B50C46EC
:100B3000451E15F8010F20B9013C14F8010F18B932
:100B400038BDFFF711FFF4E7FFF70EFFF5E710B52B
:100B50001446FFF7EBFF2046BDE81040FFF730BF1B
:100B600030B589B00446154608460A226946FFF7A3
:100B700003FE2A4669462046FFF7E9FF09B030BD6B
:100B800042F2107307B5009313460A460146034824
:100B900007F08EF803B05DF804FB00BF28240024A2
:100BA0001FB5074B1C7842F210738DE80E00024609
:100BB00001232146034807F013F904B010BD00BF1C
:100BC00091230024282400241FB5074B1C7842F2EF
:100BD00010738DE80E00024601232146034807F0FA
:100BE000C1F904B010BD00BF9123002428240024C3
:100BF00002442DE9F34104460F46D6B20025DFF842
:100C00004080B44203D1284602B0BDE8F0813F2CB9
:100C100012D83B78012201A904F120008DF804309C
:100C20000135FFF7BDFF98F80030EDB223B9003071
:100C300018BF012088F8000001340137E4B2E0E772
:100C4000142500243F2807B58DF8071004D8012289
:100C50000DF10701FFF7CCFF03B05DF804FB0000C6
:100C600002442DE9F34104460F46D6B20025DFF8D1
:100C70004080B44203D1284602B0BDE8F0813F2C49
:100C800012D8012201A904F120000135FFF79CFFD1
:100C90009DF80430EDB23B7098F8003023B9003075
:100CA00018BF012088F8000001340137E4B2E0E702
:100CB0001425002413B5044601220DF10701072075
:100CC000FFF7CEFF9DF80730032C4FF0070097BFCA
:100CD00023F0470323F0400343F0400323438DF800
:100CE00007309DF80710FFF7ADFF02B010BD0A23D3
:100CF00090FBF3F203FB120000EB021070470000C0
:100D0000022998BF013A10B5D2B2642402EB9203D3
:100D1000B2FBF4F29B1A074A114411F8012C134458
:100D20001844072390FBF3F3C3EBC303C01A01304D
:100D3000C0B210BD7C3C0108B0F5FA6F84BFA0F5CD
:100D4000FA6080B210F0030F0CBF0D23002319448A
:100D5000014B13F821007047143C01082DE9F341C1
:100D6000067A0446457A077931462A463846FFF71F
:100D7000C7FF31468046E0702846FFF7DDFF874217
:100D80004FF0000788BF207120788DF80070FFF7C2
:100D9000AEFF00F07F008DF801006078FFF7A7FF3D
:100DA00000F07F008DF80200A078FFF7A0FF00F0B0
:100DB0003F008DF803004046FFF799FF00F0070061
:100DC00040F008008DF804002079FFF790FF00F054
:100DD0003F008DF805003046FFF789FF00F01F0047
:100DE0008DF806002846124DFFF781FF082269465C
:100DF0008DF807002878FFF7C3FE064620788DF8A7
:100E00000070FFF774FF60F07F00022269468DF8E2
:100E100001002878FFF7B4FE3EB9C01B18BF0120BF
:100E2000044B187002B0BDE8F0810120F8E700BF64
:100E300091230024142500240023024A1360024A4F
:100E400013707047B4200024B020002484B008B58B
:100E50000DF1080E8EE80F0071464C22094811F082
:100E6000D0FEDE22084B00201A70AE22074B1A700B
:100E7000FFF720FF064B00221A70BDE8084004B0BF
:100E8000FFF7DABF282400249123002493230024B1
:100E9000B1200024012307B58DF807309DF80730F5
:100EA000012B0ED108480AF09DF938B94FF4804162
:100EB00005480AF0EDF8003018BF012003B05DF8D6
:100EC00004FB0220FAE700BF882F002407B5009337
:100ED00013460A460146044809F0A6FC003018BF34
:100EE000012003B05DF804FB882F002407B50093B0
:100EF00013460A460146044809F064FD003018BF55
:100F0000012003B05DF804FB882F002408B50348D6
:100F10000AF054F9043818BF012008BD882F0024B6
:100F2000014601480AF0A2B8882F0024704708B58E
:100F3000FFF7FCFF08BD704708B5FFF7FCFF08BDD1
:100F400008B50948094B03600023037143714361ED
:100F500083610123036203F0BBF918B1BDE80840C7
:100F600001F0A2BF08BD00BF18250024004C0258A4
:100F7000026882B0094B9A420DD1A3F50063D3F801
:100F8000E02042F40022C3F8E020D3F8E03003F47C
:100F900000230193019B02B0704700BF004C025830
:100FA00008B50848084B094A03600023C260436043
:100FB000436103F02BFA18B1BDE8084001F074BF9B
:100FC00008BD00BF2C26002400100248883C010800
:100FD00070B586B006461022002102A811F01CFE52
:100FE0003268344B9A4262D1334B0025334C4C214A
:100FF000D3F8DC20324842F01002C3F8DC20D3F8EA
:10100000DC30656103F01003A561E5610193019B8C
:1010100040232562656284E82B004FF480632046FC
:10102000236103F08DFC08B101F03EFF062302A905
:1010300022480293012303958DF810508DF811502A
:10104000059303F0A5FF08B101F02EFF0025B4635E
:101050004D23A6631B4A1C4C84E82C004FF480638C
:101060002046E56023616561A561E56125626562F1
:1010700003F066FC08B101F017FF062302A912482D
:101080000293012303958DF810508DF811500593AC
:1010900003F07EFF08B101F007FF00224F20F46348
:1010A0001146A66303F0A2F84F2003F0E7F806B05C
:1010B00070BD00BF0010024800440258B42500244F
:1010C00028040240400402403C25002410B586B0AC
:1010D00010220021002402A811F09EFD524B53481B
:1010E0004FF0800ED3F8D82042F00102C3F8D82088
:1010F000D3F8D82002F001020092009AD3F8D82049
:1011000042F00202C3F8D820D3F8D830446103F08B
:1011100002038461C4610193019B454B0462C46274
:10112000046380E818404FF40073C3604FF4806399
:101130000361042343620323836203F001FC08B1CB
:1011400001F0B2FE062302A938480293012303945A
:101150008DF810408DF81140059303F019FF08B188
:1011600001F0A2FE00220B20114603F03FF80B20F5
:1011700003F084F800220C20114603F037F80C200D
:1011800003F07CF800220D20114603F02FF80D200B
:1011900003F074F800220E20114603F027F80E2009
:1011A00003F06CF800220F20114603F01FF80F2007
:1011B00003F064F800221020114603F017F8102005
:1011C00003F05CF800221120114603F00FF8112003
:1011D00003F054F800222F20114603F007F82F20C7
:1011E00003F04CF800223820114602F0FFFF3820AF
:1011F00003F044F800223920114602F0F7FF3920AD
:1012000003F03CF800223A20114602F0EFFF3A20AA
:1012100003F034F800223B20114602F0E7FF3B20A8
:1012200003F02CF806B010BD0044025874260024C8
:1012300010040240134A0023F0B5C2F88430BFF313
:101240004F8FD2F8803043F6E076C3F3C904C3F37E
:101250004E33A5075B0103EA060E284621464EEAF7
:101260000007013900F14040C2F874724F1CF6D1FA
:10127000203B13F1200FEED1BFF34F8FBFF36F8FE1
:10128000F0BD00BF00ED00E030B100234373036008
:1012900003814381C3814360704700207047000091
:1012A00070B500228CB00C466B4611466E4664B990
:1012B0000F4D6A60AE60FFF7BDFF224629460D481C
:1012C00004F011FA20460CB070BD04290DD06068FE
:1012D000186060895860024409B143F8043C2468EE
:1012E00004B99C6001310C33E1E76FF00B00EAE7D1
:1012F000742700240C27002402F02CBF08B50248F4
:1013000004F0BAFB002008BD0C27002408B51346E2
:101310000A460146034804F051FB003018BF012083
:10132000404208BD0C27002408B513460A46014672
:10133000034804F071FB003018BF0120404208BD93
:101340000C2700240268304B9A4270B588B059D1FE
:101350002E480024FFF734FB2D4B02250B26D3F833
:10136000D82003A92B4842F40042C3F8D820D3F870
:10137000D82002F400420092009AD3F8D82042F418
:101380008032C3F8D820D3F8D82002F480320192FA
:10139000019AD3F8D82042F40032C3F8D820D3F809
:1013A000D830049503F40033059406950293029B0C
:1013B00086230796039305F061FB322303A91648A1
:1013C0000393049505940695079605F057FB4FF493
:1013D000605303A911480393049505940695079655
:1013E00005F04CFB224621463D2002F0FFFE3D2049
:1013F00002F044FF3E202246214602F0F7FE3E2046
:1014000002F03CFF08B070BD00800240A03C010823
:101410000044025800000258000802580004025814
:101420002DE9F34704464A48FFF7CAFA34B9494B55
:101430004FF407724849494811F0A2FC7323484809
:10144000484E002584F830307423DFF83C81B146E3
:1014500084F83130444BDFF834A16361434BA3611E
:10146000FFF7AEFA424B30468DF8005033608023D0
:101470008DF803508DF80130E1238DF804508DF87C
:10148000023001238DF8055033723A4BC6F804D070
:10149000F360394B336140F2F453736104F028FB7D
:1014A000342207462946404611F0B6FB2123C8F8EE
:1014B00000304FF44033C8F81430DFF8D4804FF4D4
:1014C000BF6200232946484602FB05A204F0BCF88F
:1014D00014232A4A03FB05830135042D1A61EED13A
:1014E00006232749274884F8283073681A7884F837
:1014F00029205A7884F82A209A7884F82B20DA78E0
:1015000084F82C201A7984F82D205B7984F82E3009
:1015100040F2DC53E38494F82F3043F00A0384F85C
:101520002F3002F087FA174802F098FA67B9204680
:101530000EF01EF920460EF037F90A4804F0A0F824
:10154000002002B0BDE8F08701F0AEFCF8E700BF74
:10155000B13C0108C23C0108DC3C0108EA3C01083E
:10156000123D01080C27002429E30008A1120008FD
:10157000008002406000043000000430891200083E
:1015800000000024EC26002474270024000204300C
:10159000A827002402F0DEBD08B5034903480CF07B
:1015A000BBFB034B187008BDF9270024404001081D
:1015B000F827002408B515480122154B0221426185
:1015C00003600023826142628262C262026304227B
:1015D0008360C360037443748374C16101624363B5
:1015E0008363C363036442648364C26403654265C6
:1015F0008365C36503664366826604F0B9FB18B170
:10160000BDE8084001F050BC08BD00BF602C0024BC
:1016100000A0004008B515480122154B0221426187
:1016200003600023826142628262C262026304221A
:101630008360C360037443748374C1610162436354
:101640008363C363036442648364C2640365426565
:101650008365C36503664366826604F089FB18B13F
:10166000BDE8084001F020BC08BD00BFFC2C0024F0
:1016700000A4004010B514228AB0044600210DEBEE
:10168000020011F0C9FA2368414A934243D1414A0A
:1016900013680133012B13600CD13F4BD3F8EC20BE
:1016A00042F48072C3F8EC20D3F8EC3003F480737A
:1016B0000193019B384B05A93848D3F8E02042F04C
:1016C0000802C3F8E020D3F8E03003F008030293E7
:1016D000029B03230593022306930923099305F034
:1016E000CDF900221320114602F080FD132002F0F4
:1016F000C5FD00221520114602F078FD152002F0EC
:10170000BDFD00223F20114602F070FD3F2002F097
:10171000B5FD0AB010BD224A9342FAD11D4A1368A2
:101720000133012B13600CD11B4BD3F8EC2042F496
:101730008072C3F8EC20D3F8EC3003F48073039389
:10174000039B154B05A91748D3F8E02042F002028D
:10175000C3F8E020D3F8E03003F002030493049BC5
:1017600060230593022306930923099305F086F964
:1017700000221420114602F039FD142002F07EFDF3
:1017800000221620114602F031FD1620B7E700BFF7
:1017900000A00040B820002400440258000C025869
:1017A00000A40040000402582DE9F04F8FB014222D
:1017B0000021804E09A8804F11F02EFA7F4BDFF8F0
:1017C00004923046D3F8E0204FF40071DFF8F8813E
:1017D000002442F0100201254FF0030ADFF8ECB1BB
:1017E000C3F8E020D3F8E02002F010020392039A3D
:1017F000D3F8E02042F00402C3F8E020D3F8E02060
:1018000002F004020492049AD3F8E02042F080022D
:10181000C3F8E020D3F8E02002F080020592059A98
:10182000D3F8E02042F00102C3F8E020D3F8E02032
:1018300002F001020692069AD3F8E02042F002027A
:10184000C3F8E020D3F8E02002F002020792079AE2
:10185000D3F8E02042F00802C3F8E0200022D3F8D9
:10186000E03003F008030893089B05F06DFA384652
:101870000022102105F068FA48460022C12105F037
:1018800063FA404600224FF4706105F05DFA0122D0
:101890003046032105F058FA782309A93046099308
:1018A0000A940B9505F0EAF84EF20C0309A9484694
:1018B000CDF828A009930B9405F0E0F8C12309A9FD
:1018C00048464FF0090909930A950B940C9405F0CA
:1018D000D5F809A94046CDF82490CDF828B00B944E
:1018E00005F0CCF840F2032309A935480993019388
:1018F000CDF828A00B9405F0C1F8019B09A930464A
:101900000A9509930B940C9405F0B8F84FF404432E
:1019100009A93046CDF828A009930B9405F0AEF83C
:101920004FF4407309A93846CDF828B009930B94B9
:1019300005F0A4F84CF2084309A938460A94099323
:101940000B9405F09BF84FF4706309A940460A9583
:1019500009930B940C9405F091F84FF4805309A966
:1019600040460A9409930B9405F088F8102309A9BE
:1019700038460A9509930B940C9405F07FF822469B
:101980002146062002F032FC062002F077FC2246B7
:101990002146484602F02AFC484602F06FFC2246E7
:1019A0002146172002F022FC172002F067FC0FB03E
:1019B000BDE8F08F00100258000C02580044025895
:1019C00000040258000802580000025800001111DB
:1019D00008B505480023036005F09EFA18B1BDE87C
:1019E000084001F061BA08BD982D002470B586B09A
:1019F00010220021064602A81F4C11F00DF91F4BC2
:101A000000251F49D3F8DC20204642F02002C3F80D
:101A1000DC204E22D3F8DC30656103F02003A561A1
:101A2000E5610193019B40232562656284E82E00F5
:101A30004FF48063236102F083FF08B101F034FAB0
:101A4000062302A90C480293012303958DF8105038
:101A50008DF81150059303F09BFA08B101F024FAB8
:101A6000002234635020A663114602F0BFFB5020D1
:101A700002F004FC06B070BDD02D002400440258D2
:101A80005804024008B512480122124B1249C260A4
:101A900080E80A0000238360036143618361C361BE
:101AA000036206F05BF808B101F0FEF90021084876
:101AB00006F098FD08B101F0F7F90021044806F09E
:101AC000D9FD18B1BDE8084001F0EEB908BD00BF6E
:101AD000482E0024FFECC010001C005810B588B040
:101AE00004461422002103A811F096F822681C4B2A
:101AF0009A4233D11B4C03A91B48D4F8E03043F081
:101B00000203C4F8E030D4F8E03003F0020301939C
:101B1000019B4FF4C073039312230493062307938E
:101B200004F0ACFFD4F8F43000225F2043F08003CF
:101B30001146C4F8F430D4F8F43003F08003029373
:101B4000029B02F053FB5F2002F098FB0022602012
:101B5000114602F04BFB602002F090FB08B010BD74
:101B6000001C00580044025800040258F0B5EE234F
:101B70002C4F2D4EC020FB70FF232C4DA821192285
:101B8000337073700024B370FD2385B028706970C2
:101B9000AA70EB7038707970BA70F4700CF0C8FDF0
:101BA0007B783A781B042249687843EA0263FA7822
:101BB00000041343BA7843EA022332781BBA0B605D
:101BC00073781B0443EA0263F2781343B27843EA62
:101BD0000223184A1BBA13602B7840EA0360EB78A3
:101BE0001843AB78144D40EA0320144B00BA186038
:101BF0001348009402901348019028460DF074FD9C
:101C000028460DF0AFFD95F82F3028465B0704D528
:101C100005B0BDE8F0400DF0ABBD05B0BDE8F0404B
:101C20000DF0B5BDE42E0024E02E0024A42E0024E7
:101C3000DC2E0024E82E0024A82E0024EC2E002404
:101C400051E40008211400082DE9F3411C4E074619
:101C500088460024354604223946301910F0C2FF68
:101C600058B30A34A02CF6D1002402AE46F8044D35
:101C700004223146281910F0B5FF48B93B682B51B2
:101C8000231DD8F80010EA18E950B8F80430938002
:101C90000A34A02CECD1002485F8A040042231465F
:101CA000281910F09FFF20B195F8A030013385F876
:101CB000A0300A34A02CF1D1012002B0BDE8F0819F
:101CC000BC200024F8B507460E460024094D042226
:101CD0003946281910F086FF38B9043401202C4405
:101CE00023683360A388B380F8BD0A34A02CEED1FA
:101CF0000020F8BDBC2000242DE9F84F17464AF615
:101D0000C00206468846831839480021DFF8E8E01B
:101D100040F2B55C4FF0990940F2FA5B4FF4616410
:101D20003C25B3FBF2F3184449084FEA300000F5B4
:101D3000FA432C339A000332B2FBFEF20EFB02FE92
:101D400002EB8202A3EB9E0302EB82024FEA830EB8
:101D50000EF1030EBEFBFCFE0CFB0EFC0EEB820232
:101D6000A3EB9C0303EB830C01330CF1020CBCFBD3
:101D7000F9FABCFBFBFC1FFA8CFC09FB0AF9624474
:101D800009F102090CEB4C0CA2F59452103AFA70CE
:101D90000AF103024FF0050AA2EB8C0C0722B9FBF3
:101DA000FAF9A3EB090987F801C0002387F802902C
:101DB000FEF7EEFA0F4B3A70B6FBF4F4B6FBF3F312
:101DC000B6FBF5F5A4B203EB4303ADB2A4EBC3033A
:101DD000C4EB041488F80030A5EB8404C5EB0515AA
:101DE00088F80140A6EB850688F80260BDE8F88F08
:101DF000177B4A0080510100B13A020070B5CCB0A7
:101E00004C2200210AA810F007FF2022002102A87E
:101E100010F002FFBC2200211DA810F0FDFE2B4B8C
:101E2000DA6822F00402DA60002201929A6942F430
:101E300040429A619A6902F440420192019A9A6979
:101E40009204FCD529230024022508260A934FF486
:101E5000803380220AA80B93012316920F931093CC
:101E600004231395159318931495179519951A969D
:101E70001B941C9406F074FE3F234FF480622946A5
:101E80000DEB06000293032308920393402304946E
:101E9000069307930993059607F0E6F90C4B1DA8E6
:101EA0002F941D934FF08053309438934FF4401388
:101EB00034943E934FF4007335943A943C94429496
:101EC000499307F0A3FC4CB070BD00BF0048025816
:101ED00012B04702024A136801331360704700BF13
:101EE00060210024024B1A68024B1A60704700BF41
:101EF0006021002464210024054A064B19681368F8
:101F0000CB1A834226BF012011600020704700BF1A
:101F10006421002460210024024B1A68024B1A60DD
:101F2000704700BF6021002468210024054A064B49
:101F300019681368CB1A834226BF01201160002064
:101F4000704700BF68210024602100242DE9F04F74
:101F5000E7B0BFF34F8FBFF36F8FD94B0021C3F8AA
:101F60005012BFF34F8FBFF36F8F5A6942F40032A4
:101F70005A61BFF34F8FBFF36F8FC3F88410BFF365
:101F80004F8FD3F8802043F6E076C2F3C904C2F342
:101F90004E32A507520102EA060E284621464EEAB5
:101FA0000007013900F14040C3F860724F1CF6D1C0
:101FB000203A12F1200FEED1BFF34F8F5A6942F44D
:101FC00080325A61BFF34F8FBFF36F8F02F0A6F8D4
:101FD000BC4EFFF713FF4FF4FA6BFFF7E5FB06F17A
:101FE0001005FEF7A1FC01F093FB01F0B3FB012209
:101FF0004FF40071B44804F0A7FE01221021B34849
:1020000004F0A2FEB248FEF7DBFCB248FEF7D8FCB3
:10201000B148FEF7D5FCFFF759F8B048FEF7D0FC01
:1020200000F044FFAE48FEF7CBFC01F0F1F8AD48FC
:10203000FEF7C6FC01F01CF9AB48FEF7C1FCFFF748
:10204000B9FAAA48FEF7BCFCFFF7E4FAA848FEF785
:10205000B7FCFFF717FDA748FEF7B2FC00F0EAFF58
:10206000A548FEF7ADFCFEF79BFFA448FEF7A8FCD1
:10207000FFF7AEFCA248FEF7A3FC00F0A7FFA148C3
:10208000FEF79EFCFEF75CFF9F48FEF799FCFFF70A
:1020900083FA9E48FEF794FCFFF768FD9C48FEF724
:1020A0008FFC4FF47A7002F05BF89A48FEF788FCD8
:1020B000FFF718FFFEF7A8FB04469748FEF780FCE1
:1020C0002046FEF7F3FCC12194486C4604F056FE0E
:1020D0004FF47061924804F051FE7E48FEF770FCA8
:1020E0009048FEF76DFCFEF737FCFEF769FC784878
:1020F000FEF766FC8C48FEF763FCFEF731FCFEF74A
:102100005FFC7348FEF75CFC884B894A1968894B71
:102110008948B1FBF3F1FEF723FD0FCD0FC40FCDBE
:102120000FC40FCD0FC495E8070084E8070096E8B8
:102130000F00FEF78BFE3223072200248DF8743047
:1021400012231DA88DF876208DF875300E268DF897
:10215000783003238DF877408DF87C3013238DF889
:102160007D30FEF7FBFDFEF7C7FB4FF47A7001F000
:10217000F7FF01F0A1FDC0231B945A228DF86430B3
:10218000A823ADF8704034A88DF8653019236B4949
:102190008DF8663006236A4C8DF8673010F031FDFB
:1021A0004A22684921A810F02CFDFFF79BFEFFF79B
:1021B000B3FE654806F0A4FA5846FFF79DFE0028D6
:1021C00000F006811BA919A8FFF77CFD05465F4FAB
:1021D0005F48002D00F03C85FEF7F2FB5D48FEF7FE
:1021E000EFFB9DF86400FEF7F4FB5B48FEF7E8FBAD
:1021F0009DF86500FEF7EDFB5748FEF7E1FB9DF803
:102200006600FEF7E6FB5448FEF7DAFB9DF8670030
:10221000FEF7DFFB5148FEF7D3FB9DF86C00FEF79D
:1022200031FC4F48FEF7CCFB9DF86D00FEF7F2FB4A
:102230004B48FEF7C5FB9DF86E00FEF723FC4848AF
:10224000FEF7BEFB9DF86F00FEF71CFC4448FEF74E
:10225000B7FB9DF87000FEF715FC4148FEF7B0FB98
:102260009DF87100FEF70EFC1948FEF7A9FB9DF8DA
:102270006C303C488DF8D0309DF86D308DF8D13001
:102280009DF86E308DF8D2309DF86F308DF8D330D8
:102290009DF870308DF8D4309DF871308DF8D530C0
:1022A0009DF864308DF8EE309DF865308DF8EF3094
:1022B0009DF866308DF8F0309DF8673054E000BF2F
:1022C00000ED00E0482E002400100258000C0258D7
:1022D000FF3F0108223D0108743D0108813D0108CE
:1022E000923D0108A03D0108AE3D0108BE3D010838
:1022F000CE3D0108DC3D0108E93D0108F73D01083C
:10230000053E0108123E01081F3E01082E3E01084D
:102310003C3E0108423E0108523E010800080258B6
:10232000000002585E3E0108703E010818000024BB
:10233000823E010840420F00883E0108303A010801
:10234000881100248A3A0108942E00249000002469
:102350009A3E0108A03E01085C4D0108A33F010818
:10236000AF3E0108B13E01088DF8F130FEF728FBC1
:10237000CD48FEF725FB9DF86400FEF72AFBCB480D
:10238000FEF71EFB9DF86500FEF723FBC748FEF72E
:1023900017FB9DF86600FEF71CFBC448FEF710FB18
:1023A0009DF86700FEF715FBC148FEF709FBC14821
:1023B000FEF706FB002334A8FA18195C01335171AB
:1023C0005A2BF9D101F097FD5F21BB4801F0BAFD0E
:1023D0004FF4FA60FFF7AAFDC0B1BEB10023B64DBD
:1023E00021A8EA18195C013351714A2BF9D1B3487D
:1023F000013EFEF7E5FAB24BF6B21A68B14B1A602D
:1024000001F079FD4F21AC4801F09CFD4FF47A6159
:10241000AD4801F0F7FD85B22A2D40F2128401F09B
:102420004FFDC0238DF86830A8238DF8693019233B
:102430008DF86A30EE238DF86B3014F8E13C082BF0
:1024400040F0BA8014F8E03C002B40F0B58014F85E
:10245000DF3C452B40F0B08014F8DE3C002B40F010
:10246000AB8014F8D63C012B40F0A68014F8DD3C7C
:10247000042214F8DC8C1AA9944848EA032808F1CD
:102480000E05ADB210F0AEFB002840F0958014F8B8
:10249000CB3C002B44D18A4A8A4B17681B68013712
:1024A0008B48FF1AFEF78CFA8A48FEF789FA14F86F
:1024B000D30CFEF78EFA2E20FEF780FA14F8D20C19
:1024C000FEF787FA2E20FEF779FA14F8D10CFEF702
:1024D00080FA2E20FEF772FA14F8D00CFEF779FA83
:1024E0007D48FEF76DFA7D48FEF76AFAA8F11C00F8
:1024F000FEF76FFA7A48FEF763FA3846FEF769FA94
:102500007848FEF75DFA7848FEF75AFA14F8D70CC7
:10251000FEF75FFA6648FEF753FA6648FEF750FA90
:1025200014F8CB3C082B47D14BAF4A226F493846B1
:1025300010F067FB6E4B0DF22B12991DD87902F843
:10254000010F13F8010F99429071F7D114F8D33CA1
:1025500059488DF84A3114F8CF3C8DF8463114F8BB
:10256000D23C8DF84B3114F8CE3C8DF8473114F83D
:10257000D13C8DF84C3114F8CD3C8DF8483114F82D
:10258000D03C8DF84D3114F8CC3C8DF8493114F81D
:10259000C53C8DF8543114F8C43C8DF855310023F6
:1025A000C218F95C013351714A2BF9D101F0A3FC37
:1025B0004F21414801F0C6FC14F8E13C082B40F0E3
:1025C000828114F8E03C062B40F07D8114F8DF3C5A
:1025D000002B40F0788114F8DE3C012B40F0738131
:1025E00014F8DD3C082B40F06E8114F8DC3C002B25
:1025F00040F0698114F8DB3C062B40F0648114F84C
:10260000DA3C042B40F05F8114F8D93C002B40F0F9
:102610005A8114F8D83C5A1E012A00F25481012B29
:1026200040F0F28004221AA9324810F0DBFA0028A8
:1026300040F0EA802648FEF7C3F92F48FEF7C0F9BC
:1026400014F8D10CFEF7C5F91848FEF7B9F914F8DB
:10265000D00CFEF7BEF91548FEF7B2F914F8CF0C0E
:10266000FEF7B7F91148FEF7ABF914F8CE0CFEF7F8
:10267000B0F90F48FEF7A4F90E48FEF7A1F91F4B79
:102680004BAA03F1280E17461868083353F8041CA8
:102690001546734503C52A46F6D11B880DF22B1249
:1026A0002B80134B991D2BE0B73E01085C4D0108B0
:1026B000FF3F0108CF3E0108900000240D3F0108B4
:1026C000602100246C21002490100024B910002403
:1026D000183F01081E3F01087F3E01082A3F0108FC
:1026E000313F0108383F01083C3F0108D43A010856
:1026F0009A100024C1100024413F01081E3B01082C
:10270000D87902F8010F13F8010F90718B42987D70
:1027100082F82000F4D114F8C73C14F8CE5C8DF890
:10272000483114F8C63C14F8D1AC8DF8493114F88E
:10273000C53C14F8D09C14F8CF8C8DF84A3114F8AD
:10274000C43CD3488DF84B318DF855518DF852A1CA
:102750008DF853918DF85481FEF732F9CD48FEF78C
:102760002FF95046FEF735F9CB48FEF729F94846D0
:10277000FEF72FF9C848FEF723F94046FEF729F97E
:10278000C548FEF71DF92846FEF723F9C348FEF7B2
:1027900017F99DF84201FEF775F9C148FEF710F9E7
:1027A0009DF84301FEF76EF9BD48FEF709F99DF863
:1027B0004401FEF767F9BA48FEF702F99DF84501B2
:1027C000FEF760F9B648FEF7FBF89DF84601FEF704
:1027D00059F9B348FEF7F4F89DF84701FEF752F9AE
:1027E000B048FEF7EDF8B048FEF7EAF80025AF492B
:1027F0004B197A5D01355A712A2DF9D101F07BFB15
:102800002F21AA4801F09EFB14F8D83C022B5AD184
:1028100004221AA9A64810F0E5F9002853D1A548CA
:102820002A25FEF7CDF8A448FEF7CAF814F8D10C13
:10283000FEF7CFF89848FEF7C3F814F8D00CFEF76F
:10284000C8F89548FEF7BCF814F8CF0CFEF7C1F8AD
:102850009148FEF7B5F814F8CE0CFEF7BAF8974891
:10286000FEF7AEF814F8D70CFEF70CF98C48FEF71B
:10287000A7F814F8D60CFEF705F98948FEF7A0F87A
:1028800014F8D50CFEF7FEF88548FEF799F814F811
:10289000D40CFEF7F7F88248FEF792F814F8D30C40
:1028A000FEF7F0F87E48FEF78BF814F8D20CFEF72E
:1028B000E9F87C48FEF784F87B48FEF781F8804908
:1028C000881DFFF7C1F900217E480A468BB29D4260
:1028D00000F278820023224412F8EA2CEE2A05D076
:1028E000234413F8EA3CEE2B40F0AB8114F8D63CBD
:1028F000112B40F08B8114F8CB8CB8F1080F00F04D
:10290000858114F8CA7C002F00F0808114F8DDACBA
:1029100014F8DC9C49EA0A23119347EA082312932E
:1029200014F8C93C1393139A14F8C83C149343EA5F
:102930000223159341F28D33159A9A4240F0CC80D0
:1029400014F8C73C6A2260494BA8179314F8C63C98
:10295000169310F056F9179B0DF22B128DF83CA12F
:102960008DF852319DF858308DF83D918DF85331E6
:1029700014F8DB3C8DF83E3114F8DA3C8DF83F3129
:10298000524B991DD87902F8010F13F8010F9942A3
:102990009071F7D114F8CF3C4D488DF8463114F8BA
:1029A000D33C8DF850818DF84A3114F8CE3C8DF827
:1029B00051718DF8473114F8D23C8DF84B3114F831
:1029C000CD3C8DF8483114F8D13C8DF84C3114F8D9
:1029D000CC3C8DF8493114F8D03C8DF84D319DF840
:1029E0004C308DF84E319DF850308DF84F31119BA1
:1029F00003F10E01002389B2013303F1280292B2E0
:102A0000914200F2EF812A390DF5AB70FDF7E2FE3D
:102A10001F48FDF7D5FF2F48FDF7D2FF9DF84A016B
:102A2000FDF7D7FF1C48FDF7CBFF9DF84B01FDF7E5
:102A3000D0FF1948FDF7C4FF9DF84C01FDF7C9FF11
:102A40001548FDF7BDFF9DF84D01FDF7C2FF154884
:102A5000FDF7B6FF0DF255182A270023BD4200F2FC
:102A6000C98113B10A20FDF7A9FF0F48FDF7A8FFA0
:102A70000E4D00234BA8EA18195C013351716A2BE3
:102A8000F9D101F038FA6F21084801F05BFA23E030
:102A9000B13E01085F3F01085C4D0108753F010828
:102AA000AF3E0108FF3F0108CF3E0108900000241F
:102AB000C1100024183F0108833F01089F3F01080F
:102AC000B11000249B100024483B01089A100024F8
:102AD00090100024AD3F0108119D129B0E357B2BF9
:102AE000ADB27BD114F89A7C4EF6602B14F89B3C67
:102AF0003F04D148DFF8A09347EA036714F8983CF5
:102B0000DFF898831F4314F8993C47EA0327FDF741
:102B100057FFCA48FDF754FF9DF86400FDF759FFC1
:102B2000C748FDF74DFF9DF86500FDF752FFC4480B
:102B3000FDF746FF9DF86600FDF74BFFC048FDF727
:102B40003FFF9DF86700FDF744FFBE48FDF738FFE3
:102B5000BD484A4641463818FFF7CEF8BB48FDF756
:102B60002FFFBB48FDF72CFF302199F80200FDF73D
:102B70003CFFB848FDF724FF302199F80100FDF72C
:102B800034FFB548FDF71CFF302199F80300FDF72D
:102B90002CFFB248FDF714FF302198F80000FDF734
:102BA00024FFAF48FDF70CFF302198F80100FDF736
:102BB0001CFFAB48FDF704FF302198F80200FDF739
:102BC00014FFA848FDF7FCFEA7483844FDF701FFB5
:102BD000A648FDF7F5FEA648FDF7F2FEA448FDF76E
:102BE000EFFEA448FDF7ECFEA348FDF7E9FE1298BE
:102BF000FDF790FFA148FDF7E3FE1598FDF78AFF6A
:102C00009F48FDF7DDFE2846FDF784FF0027DFF82B
:102C100090829748FDF7D4FEBBB29D4200F2F68049
:102C20000A20DFF88082FDF7C9FE2A270023BD4273
:102C300000F2F68013B10A20FDF7C0FE9148FDF7BF
:102C4000BFFE2A46002190480FF0E6FFFFF7B1BA19
:102C5000FDF7B6FE8D48FDF7B3FE9DF86400FDF765
:102C6000B8FE7748FDF7ACFE9DF86500FDF7B1FEB4
:102C70007348FDF7A5FE9DF86600FDF7AAFE7048B3
:102C8000FDF79EFE9DF86700FDF7A3FE6D48FDF77A
:102C900097FE7F48FDF794FE7E48FDF791FE9DF874
:102CA0006400FDF796FE6648FDF78AFE9DF8650014
:102CB000FDF78FFE6248FDF783FE9DF86600FDF785
:102CC00088FE5F48FDF77CFE9DF86700FDF781FEFA
:102CD0005C48FDF775FE6B48FDF772FEFF2306208A
:102CE00001218DF82C3180228DF82D314FF0080E06
:102CF0008DF82E318DF82F318DF830318DF831313E
:102D0000E1238DF839018DF834318DF84431C02339
:102D10008DF83E0104208DF84831A8238DF83B1131
:102D20008DF8493119238DF841114BA98DF84A319D
:102D3000EE238DF832518DF84B318DF833218DF81B
:102D400035518DF836518DF837518DF838E18DF8C1
:102D50003A518DF83CE18DF83D518DF83F018DF8E9
:102D600040518DF842518DF843218DF845518DF831
:102D700046518DF847518DF84C519DF864308DF8CF
:102D80004D518DF852319DF865308DF84E518DF8CA
:102D900053319DF866308DF84F518DF854319DF8C0
:102DA00067308DF850518DF851518DF855317B19A0
:102DB0006A5C01355A712A2DF9D101F09CF82F2156
:102DC000FFF703BB10F8017BC02F09D10778A82FAC
:102DD00006D14778192F03D1002A7FF47CAD1A461B
:102DE000013173E5C21892F833704BAA1A4482F885
:102DF000287001E618F8010FA0F120025E2A02D81F
:102E0000FDF7DCFD01230137BFB227E608EB07031E
:102E10000137D87AFDF736FE2020FDF7CFFDFBE61F
:102E200018F8010FA0F120025E2A02D8FDF7C6FDB6
:102E300001230137BFB2FAE6183F0108C33F01087A
:102E40005C4D0108FF3F0108908F557CDF3F010872
:102E5000E53F0108F53F0108F73F0108A45B0108C1
:102E6000AF3E0108FB3F01088081557CFE3F010811
:102E700001400108074001081C40010827400108E3
:102E800032400108CF3E01089B100024D53E0108C6
:102E9000B13E0108F53E0108F02E0024F42E002476
:102EA00090100024C41000247047704708B50B48E8
:102EB000C7230B4A4FF0100C80E80C1000230122AE
:102EC000C360026143618361C361036205F07CFCFE
:102ED00018B1BDE80840FFF7E7BF08BD082F002480
:102EE0000050005270B514228AB0044600210DEB48
:102EF00002000FF091FE22682F4B9A425AD12F4BBD
:102F00000224092605A9D3F8D42000252C4842F430
:102F10008042C3F8D420D3F8D42002F48042019236
:102F2000019AD3F8E02042F01002C3F8E020D3F871
:102F3000E02002F010020292029AD3F8E02042F060
:102F40000202C3F8E020D3F8E02002F0020203926C
:102F5000039AD3F8E02042F00802C3F8E020D3F847
:102F6000E030069403F00803089409960493049B48
:102F70000423059303F082FD40F2044305A91148A0
:102F80000593069407950894099603F077FD4FF48E
:102F9000605305A90C480593069407950894099673
:102FA00003F06CFD5C202A46294601F01FF95C20E5
:102FB00001F064F90AB070BD00500052004402589C
:102FC0000010025800040258000C025808B50648C8
:102FD0000023064A80E80C0007F0BCFA18B1BDE8EF
:102FE0000840FFF761BF08BD542F002400180248B5
:102FF00007B50E4B02689A4214D10D4B5020D3F8FE
:10300000DC2042F04002C3F8DC200022D3F8DC30A0
:10301000114603F040030193019B01F0E7F85020B3
:1030200001F02CF903B05DF804FB00BF0018024862
:103030000044025808B50A487F220A4B8260FF22EA
:1030400003600023C260436003618361C361436125
:1030500007F0F4FA18B1BDE80840FFF725BF08BD36
:10306000642F0024004000580268044B9A4204D1A7
:10307000034A136F43F4004313677047004000583E
:103080000044025810B50123054C2370FDF73EFFA4
:10309000234618B9227802F0FE022270187810BD7B
:1030A0001400002410B50123044C2370FDF7F2FE38
:1030B00010B9FFF7E7FF2070207810BD140000243E
:1030C000FFF7E0BF08B5084611461A464FF0FF3338
:1030D000FDF7FCFE20B9FDF719FF0028FBD108BD64
:1030E000012008BD124B10B51B788AB01446DB07CF
:1030F0001BD4032903D8DFE801F010050B120420CC
:103100000AB010BD01A8FDF70BFF079B236004E088
:1031100001A8FDF705FF089B23800020F0E701A828
:10312000FDF7FEFE089B5B0AF0E70320E8E700BF1F
:103130001400002408B5084611461A464FF0FF3324
:10314000FDF7D4FE20B9FDF7E1FE0028FBD108BD54
:10315000012008BD70B588B004461422002103A8E0
:103160000FF05AFD2268264B9A4246D1254B0C257A
:1031700002240326D3F8D4200DEB0501224842F4A3
:103180008032C3F8D420D3F8D42002F480320092E5
:10319000009AD3F8E02042F00402C3F8E020D3F80C
:1031A000E02002F004020192019AD3F8E02042F0FC
:1031B0000802C3F8E020D3F8E030049403F00803D9
:1031C000069607950293029B4FF4F853039303F07E
:1031D00055FC0423049400240DEB05010B480393D4
:1031E00005940696079503F049FC312022462146B6
:1031F00000F0FCFF312001F041F808B070BD00BFC5
:10320000007000520044025800080258000C025896
:1032100015484FF08072154908B54FF4800342619C
:103220004FF0005280E80A008261002307214FF02E
:1032300080428360C1600361C26103624362836252
:10324000C16242638363C363036443648364C3648E
:1032500003654365836508F0B3FA18B1BDE808401B
:10326000FFF722BE08BD00BF7C31002400300140C2
:1032700008B515484FF480031449072280E80A0076
:103280004FF080710023C26041614FF00051C26273
:103290004FF08042836003618161C16103624362D8
:1032A000836242638363C363036443648364C3646C
:1032B00003654365836508F083FA18B1BDE80840EB
:1032C000FFF7F2BD08BD00BFF43000240034014018
:1032D000F0B514228BB0054600210DEB02000FF073
:1032E0009BFC2B686B4A934274D16B4B02240527DD
:1032F00005A9D3F8F0200026684842F48052C3F8AC
:10330000F020D3F8F02002F480520092009AD3F813
:10331000E02042F00102C3F8E020D3F8E02002F000
:1033200001020192019AD3F8E02042F00802C3F8AA
:10333000E020D3F8E030069403F0080308940997DE
:103340000293029B7023059303F098FB802354485B
:1033500005A906940593089409972627514C0796CA
:1033600003F08CFB504B4FF0400E2046E660666148
:10337000A661E6612662666284E888404FF4806355
:10338000236101F0DDFA08B1FFF78EFD474B2526DA
:10339000AC674FF48062A563454C84E84800002385
:1033A00020462261A360E3606361A361E36123625D
:1033B000636201F0C5FA08B1FFF776FD0022232011
:1033C000EC671146A56300F011FF232000F056FFC3
:1033D0000BB0F0BD374A9342FAD12F4B05A93648BE
:1033E000D3F8F020354C42F40052C3F8F020D3F863
:1033F000F02002F400520392039AD3F8E02042F046
:103400001002C3F8E020D3F8E03003F01003049377
:10341000049B4FF4F043059302230693089305237E
:10342000099303F02BFB264A5323204684E80C0023
:1034300000234FF48062A360E36022616361A361B3
:10344000E3612362636201F07BFA08B1FFF72CFDB0
:103450001C4B5426EC674027A5634FF480621A4C3E
:1034600084E8C800002320462261E3606361A36111
:10347000E3612362636201F063FA08B1FFF714FDB0
:1034800000225420AC671146A56300F0AFFE542023
:103490009CE700BF00300140004402580000025881
:1034A000000C02587C320024100002402800024028
:1034B000043200240034014000100258043000247B
:1034C00040000240580002407C3000241C4B07B5ED
:1034D000D3F8F420012042F00202C3F8F4200022C5
:1034E000D3F8F430114603F002030193019B00F07E
:1034F0007DFE012000F0C2FE00220420114600F0F3
:1035000075FE042000F0BAFE00220520114600F0EE
:103510006DFE052000F0B2FE00225120114600F0A1
:1035200065FE512000F0AAFE00227D20114600F029
:103530005DFE7D2000F0A2FE03B05DF804FB00BF3D
:10354000004402587047FEE7FEE7FEE7FEE77047DB
:103550007047704708B500F0F1FDBDE80840FEF780
:10356000B9BC05F0E9B803F043B97047012003F096
:1035700017BC082003F014BC014801F0D5BB00BF04
:103580007C320024014801F0CFBB00BF043200248C
:10359000014801F0C9BB00BF04300024014801F01C
:1035A000C3BB00BF7C300024014801F0BDBB00BF9D
:1035B00064340024014801F0B7BB00BFEC330024A1
:1035C000014801F0B1BB00BFF4320024014802F011
:1035D000A9BE00BF602C0024FFF7F8BF014802F02D
:1035E000A1BE00BFFC2C0024FFF7F8BF08B54FF4C4
:1035F000807003F0D5FB4FF40070BDE8084003F085
:10360000CFBB0000014808F0C5BC00BF7C310024DE
:10361000014808F00DBE00BF54350024014801F0F8
:1036200083BB00BFDC340024014807F069BF00BF42
:10363000882F0024014801F077BB00BF74260024C6
:10364000014801F071BB00BFB4250024014801F01E
:103650006BBB00BF3C250024014801F065BB00BFE7
:10366000D02D0024014802F00BB900BF0C27002424
:10367000FFF7F8BF08B5044802F054FE0348BDE860
:10368000084002F04FBE00BF602C0024FC2C002438
:10369000014803F05BBD00BFD4350024FFF7F8BF3D
:1036A000FFF7F6BF014800F001BF00BF2C26002441
:1036B00008B5044803F06AFC0348BDE8084006F07A
:1036C0007DBF00BF982D0024542F002470470000B8
:1036D000014808F0ADBD00BF6C330024014808F07C
:1036E00059BC00BFF4300024014805F059B900BFAF
:1036F000082F0024014804F0FDBC00BF482E002420
:10370000014804F025BF00BF482E002404F05CB837
:1037100008B50E484FF4E13E0D4B0C2280E80840FE
:10372000002342618360C36003618361C3610362FC
:1037300043628362C3620363436309F0A5FB18B16C
:10374000BDE80840FFF7B0BB08BD00BF6C330024E4
:103750000078004008B50E484FF4E13E0D4B0C22B6
:1037600080E80840002342618360C3600361836195
:10377000C361036243628362C3620363436309F00C
:1037800083FB18B1BDE80840FFF78EBB08BD00BF42
:10379000543500240044004070B58EB00546142214
:1037A000002109A80FF038FA1022002105A80FF017
:1037B00033FA2B687D4A93427CD17D4B09A97D4821
:1037C0000026D3F8E8207C4C42F08042C3F8E82081
:1037D000D3F8E82002F080420192019AD3F8E02069
:1037E00042F01002C3F8E020D3F8E03003F01003F9
:1037F0000293029B4FF4C073099302230A93072399
:103800000D9303F03BF96D484F23E6606661A661B6
:10381000E6612662666284E849004FF480632046D0
:10382000236101F08DF808B1FFF73EFB062305A9DF
:1038300061480593012306968DF81C608DF81D6084
:10384000089301F0A5FB08B1FFF72EFB40236C673E
:10385000A56350225A4C00265A492046E66066610C
:10386000A661E6612662666284E80E004FF480631A
:10387000236101F065F808B1FFF716FB062305A9DF
:103880004F480593012306968DF81C608DF81D6046
:10389000089301F07DFB08B1FFF706FB00225220E0
:1038A0002C671146A56300F0A1FC522000F0E6FC55
:1038B0000EB070BD444A9342FAD13D4B09A943482A
:1038C0000026D3F8E820424C42F40032C3F8E82046
:1038D000D3F8E82002F400320392039AD3F8E020F0
:1038E00042F00802C3F8E020D3F8E03003F0080308
:1038F0000493049B6023099302230A9307230D93E7
:1039000003F0BCF833482B23E6606661A661E661EC
:103910002662666284E849004FF480632046236192
:1039200001F00EF808B1FFF7BFFA062305A92848F1
:103930000593012306968DF81C608DF81D60089391
:1039400001F026FB08B1FFF7AFFA002640236C67B1
:103950002C22A5632049214C84E84E004FF480635B
:10396000204666612361A661E6612662666200F018
:10397000E7FF08B1FFF798FA062305A91748059352
:10398000012306968DF81C608DF81D60089301F0E8
:10399000FFFA08B1FFF788FA002226202C671146AB
:1039A000A56300F023FC262080E700BF00780040DC
:1039B0000044025800100258643400247000024091
:1039C000EC3300248800024000440040000C025800
:1039D000F4320024A0000240B8000240DC3400248D
:1039E000D0F894020FF090B8D0F894020FF09AB883
:1039F000D0F894020FF0A9B87047000008B5D0F8CD
:103A0000900503F0B7FE03289ABF024B185C022012
:103A100008BD00BF5440010808B5D0F8900503F078
:103A2000BFFE03289ABF024B185C022008BD00BFEE
:103A30005440010830B570B1CA6862B18C6854B1A5
:103A40000B6943B10D6849688560C16004614261DA
:103A50008361002030BD4FF0FF3030BD73B50023CF
:103A600046680446019366B1A36998470546A36971
:103A70009847401BB0F5FA6FF9D901230025636020
:103A800027E0836803B198472023002523606369FA
:103A900001AA12213046984700281DDB019B03F044
:103AA0001F03B3421AD10025266020681F2833D88F
:103AB0007DB923694FF400422946984700282EDB40
:103AC000636901AA29462068984700280ADA6FF03E
:103AD0000405284602B070BD6FF004050136202EA3
:103AE000D5D1E2E7A36998470646019B1B0402D49F
:103AF000002DEED1B8E7A3699847801BB0F5FA7F97
:103B000007D8636901AA0021206898470028ECDAE9
:103B1000DDE76FF00105E8E76FF00205D9E76FF028
:103B20000305D6E714491548D1F8883043F47003EB
:103B300010B5C1F88830124B1A6842F001021A60C1
:103B400000221A611C68204018609A61DA611A62CA
:103B50009A62DA621A635A639A63DA631A645A647D
:103B6000186820F4802018601A660122054B1A603C
:103B70004FF000638B6010BD00ED00E07FEDF6EAD2
:103B8000004402580881005108B51548FCF718FF99
:103B9000144815494FF48003072280E80A004FF0CB
:103BA00000510023C26081614FF04051C2624FF06A
:103BB0008042836003614361C16103624362836247
:103BC00042638363C363036443648364C3640365C0
:103BD0004365836507F0F4FDB0FA80F0400908BD45
:103BE0008040010870210024003001401FB583008F
:103BF000820703A9104803F47C734CBF43F440537D
:103C000043F440631A0A8DF80D30FF238DF80C2021
:103C100002AA8DF80E308DF80F3041F288330093F0
:103C2000042308F009F89DF80B009DF80A3043EAD8
:103C3000002005B05DF804FB70210024830007B567
:103C400003F47C7382078DF806104FEA11214CBFF4
:103C500043F4405343F440638DF8071043F480432A
:103C600007481A0A8DF805304FF4FA638DF80420DE
:103C700004220DEB020107F0B7FE03B05DF804FB70
:103C80007021002438B50C460546FFF7AFFF40EA27
:103C90000401284689B2BDE83840FFF7CFBF38B5E8
:103CA0000C460546FFF7A2FF20EA0401284689B228
:103CB000BDE83840FFF7C2BF2DE9F0477548FCF773
:103CC0007FFEFFF761FF044628B97348FCF778FED2
:103CD0002046BDE8F08700F03DFADFF8DC810746BA
:103CE000DFF8D8916D4E00F035FA8246C020FFF71C
:103CF0007DFF04464046FCF763FE4846FCF760FE45
:103D00002046FCF7F2FE3046FCF75AFE24F00F0581
:103D100000F020FAA0EB0A000A2840F2B38000F07D
:103D200019FAC01B64280BD95D48FCF749FE5D48B1
:103D3000FCF746FE2046FCF7D8FE3046FCF740FE76
:103D4000ADB248F670039D42CDD15748FCF738FE1E
:103D50005648FCF735FE2046FCF7C7FE4F48FCF7F7
:103D60002FFE00211020FFF769FF4FF46141122060
:103D7000FFF764FF80211420FFF760FF1020FFF79A
:103D800035FF04461220FFF731FF05461420FFF7E8
:103D90002DFF06464648FCF713FEC6F30F20FCF73E
:103DA00071FE4448FCF70CFEF0B2FCF76BFE414894
:103DB000FCF706FEC5F30F20FCF764FE3D48FCF758
:103DC000FFFDE8B2FCF75EFE3A48FCF7F9FDC4F3EC
:103DD0000F20FCF757FE3748FCF7F2FDE0B2FCF786
:103DE00065FE4FF480418420FFF728FF4FF4F77100
:103DF0007020FFF723FF4FF480418620FFF71EFF5E
:103E000001219C20FFF71AFF47F6F0417420FFF7CD
:103E100015FF96217620FFF711FF4FF40C718220D9
:103E2000FFF70CFF04212020FFF708FF4FF400519B
:103E3000F620FFF727FFF620FFF7D8FE830403D410
:103E40002021F620FFF72BFF4FF6FF719220FFF79E
:103E5000F5FE4FF4C061B0200124FFF7EFFE4FF4F0
:103E60008061B220FFF7EAFE4AF202319020FFF7AC
:103E7000E5FE01217020FFF705FF01217420FFF707
:103E800001FF25E7AAB248F670039A427FF42EAFED
:103E900045E700BF6840010878400108CF3E0108AF
:103EA0009A400108A0400108B8400108BE4001083E
:103EB000CA400108AF3E010801400108AE400108B8
:103EC00010B547F6FE747420FFF790FE044074208E
:103ED0002146FFF7B3FE44F400417420FFF7AEFE25
:103EE00021467420FFF7AAFE44F001017420FFF779
:103EF000A5FE204610BD10B57020FFF777FE20F01C
:103F0000110084B270202146FFF798FE44F01001A2
:103F10007020FFF793FE21467020FFF78FFE44F0DC
:103F200001017020FFF78AFE204610BD08B501216F
:103F30008220FFF7A7FE8220FFF758FEC307FAD4BE
:103F400008BD000030B5ADF5805D0C460546782013
:103F500083B0FFF74BFE04F10801C0F30C0089B2F7
:103F600088420FD29E20FFF769FE02218020FFF7D2
:103F700089FE9220FFF73AFE4206FAD540219220B0
:103F8000FFF780FE00219020FFF758FE08218220D5
:103F9000FFF778FE194AC02319482B701388591C63
:103FA00003F03F031180611F6B70002389B24FF44F
:103FB000FA62AB700B0AE970009202AA2B71CB1C5B
:103FC000294623F0030305339BB207F035FE082191
:103FD0008220FFF764FE01218020FFF753FE80203E
:103FE000FFF704FEC307FAD44AF202319020FFF72C
:103FF00025FE0DF5805D03B030BD00BFF821002423
:10400000702100242DE9F047ADF5805D80469220B7
:104010008A4682B0FFF7EAFD10F4005052D000212A
:104020009020FFF70BFE4FF40051922043F6174902
:10403000FFF728FE9C20FFF7D9FDC0F30F26002EC6
:1040400039D07C20013EFFF7D1FD0304B6B202D582
:1040500010EA090702D0FFF769FFF0E77E20FFF7BB
:10406000C5FDC0F30B05EC1C24F00304A4B25445B9
:10407000F1D8042DEFD944F204018620FFF7DEFDCC
:1040800008218220FFF7FEFD2246394602A80EF0E5
:10409000C3FD80234FF4FA6202A98DF8083004F1C1
:1040A0000803009242469BB2094807F0C5FD08216B
:1040B0008220FFF7F4FD063D90204AF20231FFF71F
:1040C000BDFDA8B20DF5805D02B0BDE8F08700BF70
:1040D0007021002438B50E4B05460E4A18784FF46F
:1040E0007A73B3FBF0F31068B0FBF3F000F0DAF88A
:1040F000044658B90F2D09D8024629464FF0FF3023
:1041000000F074F8044B20461D6038BD012038BD16
:1041100020000024180000242400002410B50320EF
:1041200000F046F80020FFF7D5FF044618B9FFF766
:10413000CDF9204610BD0124FBE70000034A044BE3
:1041400011681B780B441360704700BFFC210024EA
:1041500020000024014B1868704700BFFC21002498
:1041600038B50446FFF7F6FF0546631C1EBF044B37
:104170001B78E418FFF7EEFF401B8442FAD838BDE5
:104180002000002430F4000310B5044604D040F2AF
:1041900017210548FEF789FE044B586820F460009B
:1041A0002043586010BD00BFD540010800040058EE
:1041B000C31E042B10B5044603D9A2210948FEF7FB
:1041C00074FE094A2402D36804F4E06423F4E06333
:1041D0001B041B0C43F0BF6343F400331C43D46047
:1041E00010BD00BF0F41010800ED00E00F2A70B5BF
:1041F00004460E46154603D9BA211D48FEF755FE62
:104200000F2E03D9BB211A48FEF74FFE194B012090
:10421000D968C1F30221C1F107030A1D042B28BF8D
:104220000423062A00FA03F28CBF03390021002C74
:1042300002F1FF3200FA01F002EA060200F1FF305B
:1042400002FA01F205EA000542EA05024FEA02120B
:1042500007DB04F16044D2B204F5614484F8002322
:1042600070BD04F00F04D2B2034B1A5570BD00BFED
:104270000F41010800ED00E014ED00E0002803DA32
:10428000CE210648FEF711BE4209012300F01F00AF
:1042900003FA00F0024B43F8220070470F41010877
:1042A00000E100E00138B0F1807F0AD2064BF02136
:1042B000064A5860002082F82310072298601A608E
:1042C00070470120704700BF10E000E000ED00E003
:1042D00010B5044608B9012010BD0268314B9A425E
:1042E00003D07D213048FEF7E0FD637F03F0FF023D
:1042F0001BB922772046FCF73BFE02236377237924
:10430000012B03D98C212848FEF7CFFD2379002B00
:104310003ED12368254A5A619A6822F018029A60B1
:104320006379012B03D99E211F48FEF7BEFD6279F8
:104330002368002A34D14FF0FF321A61636933F0E9
:10434000600303D0AA211848FEF7AFFD2268616917
:10435000936823F060030B439360A36933F08003F9
:1043600003D0AE211048FEF7A0FD2268A169936832
:1043700023F080030B439360236A013B022B03D994
:10438000B3210948FEF791FD01230020637710BD9A
:10439000E2682046A16800F00BF80028C0D09AE738
:1043A0002269CAE7004C025850410108B71DC104F8
:1043B00032F0180370B506460D46144603D06F213F
:1043C0001148FEF772FD1F2325FA03F2D20705D428
:1043D00013F1FF33F8D254B1012070BD082C11D075
:1043E000F9D9102C0CD0182CF6D1062BF4D8336840
:1043F00000205D619A6822F0180214439C6070BD31
:10440000072BF3E70F2BF1E78E41010810B50446A7
:10441000002844D0836833F4807207D0B3F5007F5E
:1044200004D040F277111F48FEF73FFD636833F078
:10443000C00304D04FF4BC711A48FEF736FD63691F
:1044400033F0180123F008020BD0202A09D0302BBA
:1044500007D0B2F5002F04D040F279111148FEF7D1
:1044600024FD94F8413003F0FF0223B984F8402082
:104470002046FCF7ADFD2168A0680A68636822F455
:1044800000220343606922F47E7203430020134339
:104490000B6001236064636384F8413010BD012028
:1044A00010BD00BFCF410108704770470368D9694C
:1044B000DA6970B58D07044601D4D0075FD562690B
:1044C00032F0180022F008015AD194F84120022A53
:1044D00040F0D880DA69D10721D59A69D2071ED574
:1044E000E28D616A92B251F822209A60E28D013227
:1044F00092B2E285E28D92B251F82220618E9A60EA
:10450000E28D013292B2E285E28D92B2914206D101
:104510005A69204622F001025A61FFF7C5FF23685D
:10452000DA6996072BD59A69950728D5D868228E1F
:10453000A16A92B241F82200228E013292B2228602
:10454000D868228E92B241F82200228E618E01320A
:1045500092B22286228E92B2914210D15A6922F0F2
:1045600002025A611A6822F400421A60002384F899
:104570004030012384F841302046FFF796FF70BD9C
:10458000202902D0302A40F0828094F84120022A6B
:1045900078D15A68900734D5E28D618E92B28A4202
:1045A0002FD2E28D606A92B250F822209A60E28D9A
:1045B000013292B2E285E28D92B250F822209A60E6
:1045C000E28D013292B2E285E28D92B250F8222061
:1045D0009A60E28D013292B2E285E28D92B250F899
:1045E00022209A60E28D013292B2E285E28D92B28F
:1045F000914206D15A69204622F001025A61FFF722
:1046000053FF23685A685107B9D5228E618E92B242
:104610008A42B4D2DD68228EA06A92B240F822505B
:10462000228E013292B22286DD68228E92B240F84A
:104630002250228E013292B22286DD68228E92B200
:1046400040F82250228E013292B22286DD68228EFC
:1046500092B240F82250228E013292B22286228EED
:1046600092B291428BD15A6922F002025A61012220
:1046700084F841201A6822F400421A60002384F86A
:10468000403079E7636C43F00803636470BDB1F5B3
:10469000002F7FF474AF1A6812F4803262D0A28DBA
:1046A000E16992B291421AD15A6922F001025A612B
:1046B0001A6822F400421A60022262631A6822F425
:1046C00040321A601A6842F400321A605A6942F0A5
:1046D00003025A611A6842F400421A6070BDA28D4A
:1046E00092B28A1A032A08D8002201F003018A42F2
:1046F00029D30021032A32D970BDA28DA16992B2BB
:1047000051F822209A60A28D013292B2A285A28D28
:1047100092B251F822209A60A28D013292B2A28503
:10472000A28D92B251F822209A60A28D013292B2EB
:10473000A285A28D92B251F822209A60A38D0133F6
:104740009BB2A38570BDA08D0132A56980B255F8DA
:1047500020009860A08D013080B2A085C7E79960E5
:104760000132C7E7618E49B95A6922F003025A61E2
:10477000012384F8401084F8413070BDE08D80B290
:10478000081A032837DDE28D606A92B250F82220C1
:104790009A60E28D013292B2E285E28D92B250F8D7
:1047A00022209A60E28D013292B2E285E28D92B2CD
:1047B00050F822209A60E28D013292B2E285E28DB9
:1047C00092B250F822209A60E28D013292B2E285D4
:1047D000E28D92B2914206D15A69204622F001023E
:1047E0005A61FFF761FE238E618E9BB28B42BFF44C
:1047F000C6AE23680EE711F003053FF4C0AEAA422F
:10480000284618D3002201309A600428FBD15A6947
:1048100022F001025A615A68520718D4228E92B2CD
:1048200091423FF6ACAE5A6922F003025A6101236D
:1048300084F8413022E7E08D0132666A80B256F892
:1048400020009860E08D013080B2E085D7E7A56A4E
:10485000DE680138228E92B245F82260228E02F183
:10486000010292B22286F3D1D8E700000368182132
:10487000DAB223F47F73103A23F00303B2FBF1F2B0
:104880000449032A895C88BF0433C1658365806D50
:10489000704700BF4C4201080168134B0B448C2B3E
:1048A000CBB210D81422083BB3FBF2F303F1B052A1
:1048B00002F51642920002660C4A4266012202FA92
:1048C00003F3836670471822103BB3FBF2F3084AE8
:1048D0000A44A82A98BF083303F1805202F5024225
:1048E00092000266034AE8E7F8ABFDA78058025839
:1048F000F0FBFDBF80080240027910B5541E072C62
:104900000DD80368094919448C2909D8084B134468
:104910009B00C366074B03670123A340436710BD99
:10492000054B13449B00C366044BF4E7F8ABFDA7AB
:104930003F960016405902583F820010400902403D
:1049400070B50446FFF706FC0546002C00F03181E7
:104950002368A84A934249D01832934246D018326D
:10496000934243D01832934240D0183293423DD004
:10497000183293423AD01832934237D018329342C9
:1049800034D002F55672934230D0183293422DD073
:10499000183293422AD01832934227D018329342C9
:1049A00024D01832934221D0183293421ED01832AC
:1049B00093421BD0904A934218D01432934215D0A0
:1049C0001432934212D0143293420FD014329342D5
:1049D0000CD01432934209D01432934206D01432D0
:1049E000934203D0DE218548FEF75FFAA36833F0D7
:1049F000400205D0802B03D0DF218048FEF755FA16
:104A0000E36833F4007303D0E0217C48FEF74DFAED
:104A1000236933F4806303D0E1217848FEF745FA37
:104A2000636933F4006206D0B3F5805F03D0E221FE
:104A30007248FEF73AFAA36933F4005206D0B3F590
:104A4000804F03D0E3216D48FEF72FFAE36933F07E
:104A5000200206D0B3F5807F03D0E4216748FEF73B
:104A600024FA236A33F4403303D0E5216348FEF788
:104A70001CFA2368624E9919B1F5956F00F2C48053
:104A80006368732B03D9EA215C48FEF70EFA636A68
:104A900033F0040303D0EB215848FEF706FA636AAB
:104AA000B3B1A36A032B03D9F0215448FEF7FDF9F3
:104AB000E36A33F0C07303D0F1215048FEF7F5F9F3
:104AC000236B33F4C00303D0F2214C48FEF7EDF919
:104AD000002384F83430022384F8353023681A68C0
:104AE00022F001021A6021680B68D80757D40B68BE
:104AF000444DA2681D40E368A06913432269134333
:104B000062691343E26903431343226A1343626AEF
:104B1000042A43EA050301BF266BE56A35432B43AC
:104B2000042A0B604B6923F0070343EA02030CD10C
:104B3000A26AE56A134345B100283CD1012A4BD053
:104B400001D3022A01D1EA0149D44B612046FFF783
:104B50008DFEE26D3F239340836020460025FFF7E2
:104B60009BFEA368226E802B04BF002363606368F2
:104B7000D9B2013B1160072B626EA16E516000F249
:104B800084802046FFF7B8FEE36E626F1D60236FDE
:104B90005A6000200123606584F8353070BDFFF74E
:104BA000D9FA401B05289ED920236365032384F886
:104BB0003530012070BDB0F5005F16D1032AC4D88E
:104BC00001A050F822F000BFDF4B0008474B00085F
:104BD000DF4B0008D94B0008B5F1C07FB5D14023A9
:104BE0000120636584F8350070BD022AF7D9032AD5
:104BF000A8E700BF10000240085402580E42010806
:104C0000F0FFFDBF3F8010FE224D2B448C2B3AD885
:104C10006368112B04D94FF4AA711F48FEF745F9B8
:104C200000232268A16884F834300223402984F8E4
:104C30003530166826F4FF4626F0700621D080290C
:104C400014BF00204FF4804023691544E168DB085D
:104C500043EAD103616943EAD103A16943EAD1037D
:104C6000216A43EA1113E169C908334301F02001C5
:104C70000B43034313601422B5FBF2F5AD00E56569
:104C80006BE71020E0E740238FE7E566256765675F
:104C90007FE700BFF8ABFDA70E42010810B528B1B1
:104CA00090F83530022B03D080234365012010BDDE
:104CB00003681B4A1A44B2F5956F08D8042280F89D
:104CC00035201A6822F001021A60002010BD1A680F
:104CD00022F00E021A601A6822F001021A60026EB7
:104CE000136823F4807313600123C26D93400D4A4F
:104CF0005360436E826E5A60C36E33B11A6822F4F9
:104D000080721A60036F426F5A600123002480F89A
:104D10003530036D80F83440002BD6D09847D4E767
:104D2000F0FFFDBF0054025800232DE9F341924DDE
:104D3000044601930368866D5A19D6F80080B2F5CF
:104D4000956F00F2C0808D4AC16D176808228A40B5
:104D500018EA020F0BD01868400708D5186820F031
:104D600004001860B260626D42F001026265844A1C
:104D70008A4018EA020F07D05869000604D5B260CD
:104D8000626D42F0020262657E4A8A4018EA020FB2
:104D900007D01868800704D5B260626D42F0040243
:104DA000626510228A4018EA020F0FD019680907BD
:104DB0000CD5B2601A6850033FD51B68190301D4A3
:104DC000236C00E0A36C0BB120469847E06D2021D6
:104DD000814018EA010F41D023685A19B2F5956F46
:104DE0001A6894BFC2F30012C2F34002002A35D001
:104DF000B16094F83520042A1A6826D122F01602F0
:104E00001A605A6922F080025A61226C0AB9A26CB7
:104E10001AB11A6822F008021A603F238340B36077
:104E2000002384F83430012384F83530236D0BB12E
:104E30002046984702B0BDE8F0811A68D205BFD479
:104E40001A6822F008021A60BAE756032CD51B68CC
:104E5000180336D4636C0BB120469847636D002B62
:104E6000E8D0636DD9071DD5042384F83530236855
:104E70001A6822F001021A604FF41652B7FBF2F7DB
:104E8000019A01329742019202D31A68D207F7D4ED
:104E90001B680022DE0784F834204CBF0323012363
:104EA00084F83530E36CC2E71A6812F4807208D1D6
:104EB000196821F010011960012384F8342084F866
:104EC0003530E36BC7E7304A1A448C2AB2D82F4AF0
:104ED0000421C06D15688140294212D019684D0720
:104EE0000FD51A68900603D41A6822F004021A60DB
:104EF000264A0423E06D516883400B435360236CC2
:104F000095E71168022282400A4218D01A68910778
:104F100015D51A6812F0200208D1196821F00A018B
:104F20001960012384F8342084F83530174A0223AD
:104F3000E06D516883400B435360E36B77E713499F
:104F400008220D6882402A423FF474AF1A681207A3
:104F50007FF570AF1A6822F00E021A600122E36D2D
:104F6000486802FA03F303434B600023626584F848
:104F7000343084F8352095E7F0FFFDBF1800002499
:104F80000100800004008000F8ABFDA70054025827
:104F9000F8B56A4A044603680D4693424AD018326F
:104FA000934247D01832934244D01832934241D0B2
:104FB000183293423ED0183293423BD0183293427B
:104FC00038D01832934235D002F55672934231D020
:104FD000183293422ED0183293422BD0183293427B
:104FE00028D01832934225D01832934222D018325A
:104FF00093421FD0183293421CD0514A934219D089
:105000001432934216D01432934213D01432934286
:1050100010D0143293420DD0143293420AD014327D
:10502000934207D01432934204D040F25D114548B8
:10503000FDF73BFF2B7A012B04D94FF4AF714148A8
:10504000FDF733FF6B7A012B04D940F25F113D4825
:10505000FDF72BFFEB68013B1F2B04D94FF4B07118
:105060003848FDF722FF2B7A012B5BD16B6833F4B4
:10507000C02304D04FF4B2713248FDF716FF226806
:10508000314B1344B3F5956F2B6846D8072B04D9E1
:105090004FF4B4712B48FDF708FF95E8011094F820
:1050A0003530012B42D194F83430012B43D0266E99
:1050B0004FF0F85E336823F48133336033689EFA2F
:1050C000AEFE4FF47807BEFA8EFE97FAA7F74FF4BC
:1050D0008031B7FA87F791FAA1F14FF40072B1FA73
:1050E00081F192FAA2F200FA0EFEDBB2E868B2FA9F
:1050F00082F243EA0C03013843EA0E03B84003434B
:10510000287A00FA01F100200B43697A01FA02F2D1
:105110001343336084F83400F8BD0F2BBDD94FF42E
:10512000B671B7E74FF0000C6046B8E74FF4006384
:1051300001206365F8BD0220F8BD00BF10000240E9
:105140000854025854420108F0FFFDBF8B680A68FA
:1051500091F804C01A430B7C002B2DE9F04F08BFD7
:105160004FF4002385B018BF002391F80CE04F7B6B
:1051700000934B7C8E7B002BCD7B8C7C0CBF4FF443
:105180000033002391F81C9001934B6991F81DB0F6
:105190001A438B6913438A7F002A0CBF4FF4806245
:1051A00000220292CA7F039291F82020002A02680E
:1051B000486AD2F800A008BF4FF4807843EA0003A1
:1051C000C86A2AF07F4A18BF4FF0000803430398CB
:1051D0002AF47B0A2AF4FE4A2AF07C0A43EA0A03EC
:1051E00043EACC6343EACE5343EA875343EA465348
:1051F00043EA055343EA044343EA093343EACB2332
:1052000091F828B043EA4023009843EA0B13034384
:10521000019803430298034343EA08031360CE6BEB
:1052200091F8323091F83870002B536891F8305073
:1052300023F07C5391F831400CBF4FF480300020B4
:1052400023F4EF2323F4FF6323F0070343EA4663C9
:105250004E6B33438E6C43EA076343EA85430D6D1F
:1052600043EA444391F854400343486C5360D36885
:1052700023F4877323F00103034391F8400043EACA
:105280000023D36091F84C30002B136F23F0F2030E
:105290000CBF802000201B041B0C43EA06432B4359
:1052A000CD6D43EA440391F8614003431367D2F89C
:1052B000900091F8563020F00300034391F8550018
:1052C00043EA4003886DC2F89030D2F8003D23F0E5
:1052D00072030343C2F8003D91F8603091F8621008
:1052E000002BD2F8303D23F07B030CBF4020002080
:1052F0002B4343EA041343EAC1030343C2F8303D9E
:1053000005B0BDE8F08F0000026802F58050036828
:1053100023F4F04330B523F002030C680D792343E6
:1053200041F2040403600B7B1059DB0320F450406E
:1053300043EA05338D6820F001002B43034302F557
:1053400088501351124B05684C7B2B4043EA0443B1
:105350000C6A234341F2041403604B7F087D1B0356
:10536000155943EA0013086903430A4828400343D8
:1053700041F20810135113580C7F23F00043896940
:1053800023F47C1343EAC4730B43135030BD00BFB6
:1053900000C0FEFFEFEFC0FF2DE9F04FD0F828E08E
:1053A000934600EB8E0ADAF81830DD68002D02DA39
:1053B0000220BDE8F08F0C688E6814F004072AD034
:1053C0002D0C4A6AD0F800802D0445EA020C4CF4FA
:1053D0008032DA60D8F8602042F48012C8F8602089
:1053E000220718D59D68AAB2CD6A42EA05450A6B24
:1053F0009D6042F440322CF440252A43DA60D8F80C
:10540000642042F48012C8F86420D8F8502042F09A
:105410008062C8F8502014F010080BD09D688A698B
:1054200025F47F5525F03F052A439A60DA6842F05B
:105430008062DA6014F0140C18D0DA6842F040454B
:10544000DD600EF10105032D88BFAEF1030500EB11
:10545000850CDCF818C0DCF80C90B9F1000F5FDAAD
:1054600022F0004242F08042DA60A1E77546D3F8AC
:1054700008900CF1010C326829F47F591A6029F068
:105480003F09726849EA0209B268C3F8089029F036
:105490007F5929F47C19002A46D016685E60566848
:1054A00049EA06469E60DE68B8F1000F44D026F453
:1054B000F0080E6A48EAC648CE694FEA984846F4B2
:1054C00080264FEA884848EA0608C3F80C802FB1C6
:1054D0009E6826F440478E6A3E439E60DE6826F052
:1054E000804747F02047DF60A70706D5CC6826F045
:1054F000874644F020443443DC60524E9468B4BB89
:105500009A68BBF1000F00F0998042F000429A6067
:10551000DA6842F08052DA6085620020BDE8F08FE0
:1055200063464FF0010CA2E71A715A719A71DA7151
:105530003246C3F80890B6E726F4FF484E6814F0E8
:10554000010F28F07F0848EA0606DE601FBF26F438
:1055500040384E6948EA0606DE60A606B7D5DE6822
:1055600026F040680E6948EA0606DE60AFE76F1C69
:10557000032F88BFEF1E00EB87039B69D3F80C80D5
:10558000B8F1000F15DADAF81810002294453FF44C
:105590000FAFCB68013223F00043CB600EF1010363
:1055A000032B88BFAEF1030300EB83019E4689699C
:1055B000ECE722680CF1010CD3F808901A6009EAB4
:1055C0000609626849EA0209A268C3F8089029F04E
:1055D0007F5929F47C19D2B15568146849EA054508
:1055E0005C609D600D68EC0619D5CC694FEA98485F
:1055F00044F480244FEA884848EA0404DC60DC680C
:105600003D4624F0804444F00044DC6076E71A71A3
:105610005A719A71DA712246C3F80890E2E728F4C9
:10562000FF484C6828F07F0848EA0408EC07C3F8F4
:105630000C80E4D528F440384C69DDE722F00042C4
:1056400065E700BF00C0FFFF0AB1032903D90123AA
:1056500043651846704700EB8100C16A0A600A6121
:10566000CA6842F08070C86023B142F040728B601B
:105670004B61CA60CB68002043F00043CB607047A9
:1056800090F85120D2B2102A10B52AD1232341F22A
:10569000041480F851300368196841F00201196060
:1056A000196841F001011960D3F8001D41F00101B2
:1056B000C3F8001D195941F00101195141F20814B4
:1056C000195941F00101195103F58B53196841F43F
:1056D00081711960222380F8512080F85230002017
:1056E00010BD012010BDF8B50446154629B9436D1B
:1056F00043F0010363650120F8BD90F85130102B91
:10570000F9D10022FFF748FE18B1636D43F00203A0
:10571000F0E7A36A9A1D54F822605A1C032A8ABF34
:10572000033BA262A362A26A2368063203F589538F
:1057300054F822201A60FEF70DFD0746F268002A91
:1057400004DB1023002084F85130F8BD236803F5F2
:105750008B531968C90409D5626D42F0080262656D
:105760001B68A365E02384F85130C4E76B1CE6D0C6
:10577000FEF7F0FCC01B854201D3002DDED1636D26
:1057800043F0040363651023EDE7F0B5456C6DB994
:10579000C46B2A462946052600EB8403DF6AFF68AE
:1057A000002F1BDA00293BD1002343640020F0BD09
:1057B000BF000AD5032B4FF0010188BFE31E00EBA9
:1057C0008302D76A22461C46E9E7032B01F1010157
:1057D00088BFE31E00EB8304E76AF4E7013EE1D0F3
:1057E00017F0805F04F10103E2D00131012908BF05
:1057F0002246032B88BFE31E00EB8304E46AE468BF
:10580000002C08DB640006D5012484641C19032CD9
:105810008CBF033B2346C363026441640120F0BD97
:1058200000EB820300244FF0010E4FF0030CDB6A03
:105830001E691C731E605E695C739C7383F80FE0C5
:1058400016B19E6083F80FC0DE6846F00047DF6047
:10585000C76C17B146F04046DE60531C0135032B80
:105860008CBF033A1A46A94200EB8203DB6ADFD100
:105870009AE77047704770477047704770477047A6
:10588000036803F58B521268520610B5044611D511
:1058900041F234129B5859060CD5FFF776FF0128C8
:1058A00002D12046FFF7E6FF236848F2400203F5E5
:1058B0008B531A60236803F58B521268D2070DD5FB
:1058C00041F234129B58D80708D52046FFF7D1FF84
:1058D000236848F2010203F58B531A60226802F52F
:1058E0008B53196849041DD541F2341150584004B6
:1058F00018D5606D40F0080060651868C0044DD58B
:10590000186841F2021383430CBF01230023A365EF
:10591000535823F440435350E02384F85130204639
:10592000FFF7A9FF2268D2F8B03003F4C043B3F503
:10593000C04F0AD1D2F8B8302046E365E02384F89E
:105940005130FFF799FF0023E3652368D3F8B020B7
:10595000D00609D5D3F8C030204603F06003236693
:10596000FFF78BFF002323662368D3F8B02091064E
:1059700009D5D3F8C030204603F00F036366FFF764
:105980007DFF002363660C4B9A6A520205D54FF4E3
:10599000800220469A62FFF772FF10BD1A6802F477
:1059A000CD42A2F5CD4EDEF1000242EB0E02A26521
:1059B0004FF4CD421A60B2E78000005870B504463B
:1059C00000681D46D0F80032DB0701D5012070BD0C
:1059D000D0F8003223F0787343EA415121F4F811F2
:1059E00041EA024242F00D02C0F80022FEF7B2FB8B
:1059F00006462368D3F8000210F0010004D1D3F862
:105A000004329BB22B6070BDFEF7A4FB801BB0F587
:105A10007A7FEED9DAE7000038B504460068D0F89E
:105A20000052ED0701D5012038BDD0F800029BB22D
:105A300020F0787040EA415121F4F81141EA024225
:105A40000C4922F00C02C1F8043242F00502C1F800
:105A50000022FEF77FFB05462368D3F8000210F012
:105A6000010000D138BDFEF775FB401BB0F57A7F11
:105A7000F2D9D8E70080024038B503680546D3F86C
:105A8000004203F051FD124B124A24F470640344A7
:105A9000934205D844F400742B68C3F8004238BD23
:105AA0000D4B0E4A0344934202D844F44074F3E78A
:105AB0000B4B0C4A03449342EED90B4B0B4A034465
:105AC000934294BF44F4807444F48064E4E700BFDC
:105AD00000D3CEFEBFE1E40040F1E9FD3F787D0157
